:040000006F2000135A
:100004000000000000000000900000208A0400208E
:10001400A9BDF9F3900000200000000000000000DA
:10002400900000209000002000000000000000006C
:10003400900000200000000090000020000000005C
:1000440090000020900000209839000090000020CB
:1000540090000020900000209000002090000020DC
:1000640090000020900000209000002090000020CC
:100074007E050020900000209000002090000020C9
:1000840090000020900000209000002090000020AC
:1000940001A073270080218B9387818409CB732768
:1000A400008023A4E18498435D9B731007800100C2
:1000B400010037170040930670052300D704930608
:1000C40080FA2300D704010001008346B70493F6A5
:1000D400F60DA305D7042300070473260080944378
:1000E400A18AD18E7390068023A4018401000100AB
:1000F40093760502638406180347A700118B25E74E
:1001040073270080218B09CB7327008023A4E1840B
:1001140098435D9B7310078001000100371700406E
:10012400930670052300D704930680FA2300D704AE
:10013400010001008346A70093E646002305D7008B
:1001440023000704F32600809843218B558F7310F6
:10015400078023A40184010001001307004B010060
:1001640001007D176DFF73270080218B09CB732756
:10017400008023A4E18498435D9B731007800100F1
:10018400010037170040930670052300D704930637
:1001940080FA2300D704010001007D892314A700FD
:1001A400010001000100010023000704F326008080
:1001B4009843218B558F7310078023A40184010079
:1001C400010073270080218B09CB7327008023A4AF
:1001D400E18498435D9B7310078001000100371789
:1001E4000040930670052300D704930680FA230089
:1001F400D7040100010001000100B72600401306E6
:100204001005A383C68023000704F32600809843C7
:10021400218B558F7310078023A4018401000100F2
:1002240073270080218B09CB7327008023A4E184EA
:1002340098435D9B7310078001000100371700404D
:10024400930670052300D704930680FA2300D7048D
:10025400010001008346B70493E60608A305D7040A
:1002640023000704732700809C43A18BD98F7390CC
:10027400078023A401840100010082809376050491
:10028400638B06140347A700418B25E7732700807F
:10029400218B09CB7327008023A4E18498435D9BC1
:1002A40073100780010001003717004093067005A2
:1002B4002300D704930680FA2300D7040100010029
:1002C4008346A70093E606012305D700230007040D
:1002D400F32600809843218B558F7310078023A445
:1002E4000184010001001307007D010001007D1756
:1002F4006DFF73270080218B09CB7327008023A413
:10030400E18498435D9B7310078001000100371757
:100314000040930670052300D704930680FA230057
:10032400D704010001009376F50193E60604231433
:10033400D700010001000100010023000704F32697
:1003440000809843218B558F7310078023A4018468
:1003540001000100130760046310E50473270080A3
:10036400218B09CB7327008023A4E18498435D9BF0
:1003740073100780010001003717004093067005D1
:100384002300D704930680FA2300D7040100010058
:10039400B72600400946B5B573270080218B09CBE9
:1003A4007327008023A4E18498435D9B7310078026
:1003B4000100010037170040930670052300D7049D
:1003C400930680FA2300D70401000100B7260040F9
:1003D400130620053DB573270080218B09CB7327B5
:1003E400008023A4E18498435D9B7310078001007F
:1003F400010037170040930670052300D7049306C5
:1004040080FA2300D704010001008356870093E695
:10041400060C2314D700C5BB411181460146814512
:10042400114506C6152CF3270080A18B9386818481
:1004340089CBF327008023A4F1849C42DD9B739035
:10044400078001000100B7170040130770052380DF
:10045400E704130780FA2380E7040100010003C7BF
:100464006704136717002383E704238007047327B3
:1004740000809C42A18BD98F7390078023A40184B0
:1004840001000100B240410182808146014681455C
:100494001145D922F3270080A18B1387818489CB4E
:1004A400F327008023A4F1841C43DD9B7390078011
:1004B40001000100B7170040930670052380D7049C
:1004C400930680FA2380D70401000100FD56239689
:1004D400D70223800704F32600801C43A18BD58F09
:1004E4007390078023A4018401000100F327008096
:1004F400A18B89CBF327008023A4F1841C43DD9BCB
:100504007390078001000100B7170040930670053F
:100514002380D704930680FA2380D70401000100C6
:1005240083C6670493E616002383D7042380070455
:10053400F32600801C43A18BD58F7390078023A4DE
:1005440001840100010001A0BD473305F50201004B
:100554007D1575FD8280411122C426C206C6AA8477
:10056400014463179400B2402244924441018280C2
:1005740005041305803E4204C13F4180DDB7B7172F
:100584000040130700032388E702854723A8F1846A
:1005940073002030411106C6AD25FDBF230304803E
:1005A40015472303E48001002302A480828083078B
:1005B4006480E3CE07FE2303048082808307648083
:1005C400E3CE07FE03454480828083076480E3CE44
:1005D40007FE2302A4808280411126C44AC24EC071
:1005E40006C61377F50BAD47AA892E899544630691
:1005F400F70019456537653F8D444E854537FD59EC
:10060400FD1463983401B240A24412498249410165
:100614008280135509011375F50F453F2209CDB7A3
:10062400011126CC06CEB704080051371545BD3755
:10063400713769372AC6A53F32459377150089EB90
:10064400136515001375F50FF240E24405618280CD
:10065400FD14E9FC0145CDBF397126DC4ADA4ED8D8
:1006640052D656D45AD25ED006DE62CE66CCB7E7F6
:1006740000E07D5783AA070022C603AA470023A0EF
:10068400E71823A2E718B717004013077005238063
:10069400E704130780FA2380E70483C74704930B16
:1006A40075FFB684E20793FBFB0F8546AA892E8B60
:1006B400328937240040E187015763FA76016308E1
:1006C400D5008946130700026313D5000157D98F5B
:1006D40093F7F70FB71C00402382FC041147230350
:1006E400E4801305F00F5D3D094CD135636D7C1139
:1006F400B7050700DA9537870700795563F2E504F3
:10070400B3879500636EF702370B0800A94733EBF4
:1007140065016399F90689E48144513D26850DA05C
:10072400DA850945553D05090345F9FFFD14050B17
:10073400693D81C49377FB0FFDF7DD3569FD7D5578
:10074400B7170040130770052380E704130780FAE6
:100754002380E70403C74704418B2382E704F25054
:10076400B7E700E023A0571123A24711E254324413
:100774005259C259325AA25A125B825B724CE24CF1
:1007840021618280A5476395F90685691309F00FF5
:10079400B3069900B3742B01B6941349F9FFB374EB
:1007A4009900856B33796901416B9387F9FFB3F73E
:1007B400270199E363FC340193D94900C147E3E677
:1007C40037FF99BF0569C1697D19D9B71305800D34
:1007D4006388690113050002638479011305100815
:1007E400CA85DD3B353D21DD4E99B3843441D9B70B
:1007F400DA852D45D533CA94E30099F205097D3B8A
:10080400A30FA9FED5BF9387F9FF93F7F70F636191
:10081400FC0C83C71C0413073008631FF704370755
:100824000800636BEB04B3079B00B706100063F585
:10083400D704334BEB0089476393F9068980D54984
:10084400E38C04ECDA850945413B11090327C9FF10
:1008540091472320E48003076480E34E07FE2303CB
:100864003481FD17EDFBFD14110B81C49377FB0F4D
:10087400E9FF7D3371F5E1B5B717004003C75704AD
:10088400B70708001377070219E3B78707007955FC
:10089400E378FBEA33079B00E3FFE7F855B58547A8
:1008A400E382F9F2DA852D45053B9389F4FFE3856C
:1008B40004E6293393F7390091EB83260480032758
:1008C400090093074900E39AE6E43E89CE84F1BF28
:1008D400B5476396F9001305900BC93135BDB1478F
:1008E4001305B00AE38BF9FE99476391F904B70540
:1008F4000800B365BB002D45C53181448D4BA1492A
:10090400753963967401832704802320F9008504D4
:10091400E39834FF8327048013172B0163550700E2
:100924002312F900D5BB2322F900FDB39D47639937
:10093400F90281451305B0044531BD442320090063
:1009440023220900FD599D3993F77400CA9703C700
:100954000700FD14398D2380A700E39634FF6DBB97
:10096400A1476392F9046D398144630D0B008D47EF
:100974009304C0036308FB009304000563048B0124
:10098400930440041375C507E30895D81945393114
:1009940039390545213126850D3909453D3149311E
:1009A400E31C05D669BB91476399F90013056006FA
:1009B400F536F53E130590090DB7E38F09D4F154CC
:1009C400A9BB19CD91CD09CE81473387F500834664
:1009D40007003307F50085072300D700E317F6FE69
:1009E400828019C991C909CA910583A7C5FF110558
:1009F4007D16232EF5FEC5BF828001C919C62A962D
:100A04000505A30FB5FEE31DA6FE828081473307CB
:100A1400F5000307070019E33E8582808507C5BFFB
:100A240001112E8626CAAA84131506019305F00423
:100A3400418122CC06CE32C6EF00B0602A8401C5C3
:100A44003246A685BD3F2285F2406244D244056108
:100A54008280854715C18DC105C28147B306F50063
:100A64003387F50083C60600034707006398E60052
:100A74008507E315F6FE85473E8582808147EDBFF5
:100A84009307F6FFBE952A966313C5008280FD1571
:100A940083C715000505A30FF5FEFDB7AA87014519
:100AA40081CF09CE3E96850703C7F7FF6317B700CA
:100AB400E39BC7FE0545828082800145828079716F
:100AC400973700009387073A22D4804306D626D26C
:100AD4004AD04ECE52CC56CA5AC85EC679C0B7C4A4
:100AE400C901014B97390000938949379384F4373E
:100AF400173A0000130A4A37973A0000938A4A319A
:100B0400173900001309893A8357240095E35C449C
:100B1400631D0B00173700002326F734832BC40012
:100B24002285EF00305F5E84B9A82326FB00FDB761
:100B340083A7090082971C443307F5406376F500C8
:100B4400032749001D8F2A9763E2E40897370000C2
:100B540023A8072C8355240003450400973000E0A4
:100B6400E780A03F5C405844A1CB0C4403264900D5
:100B7400AE97BE8663E4B70063E4C700B386C7409C
:100B840014C4228B3A8449F097370000938747288E
:100B94009C4B09476372F706F917173700002321A6
:100BA400F728B250225492540259F249624AD24A66
:100BB400424BB24B4561828063170B0097370000AC
:100BC40023A2E72AA1BF2326EB0089BF03274A02F9
:100BD40009CF63EFA7003385A74083A70A01637693
:100BE400F5009737000023ADA722228B404461BF54
:100BF40003274900BA97C5B79737000023A20722F5
:100C04004DB7411122C417340000130424231C409F
:100C140006C626C24AC091C782979737000023AF01
:100C240007209737000083C73742858B973400002D
:100C34009384444195C397370000A387074083C733
:100C440074001547637AF700E52B83C77400F51722
:100C54008A07A2979C4382971C4491C382971739B1
:100C640000001309E91F0327090017360000034693
:100C7400361A9737000083C7A71993961700BA96B8
:100C840083D60600D5CE9737000083C7671863E381
:100C9400C70C97370000238D07161C40639D07126D
:100CA4009737000083C7973A91CF83C7740093F7AF
:100CB400F70F89EB97370000A38A0738977001E094
:100CC400E780003097370000938747199C4363847B
:100CD4000710973700009387671DDC431737000020
:100CE4002320F714E93B973700009387E717DC5379
:100CF400FDC3173700001307A711184B97370000DF
:100D040083C7D7176369F70C83C7740015476364F7
:100D1400F70C9737000083C7A737918BCDEF0326D5
:100D240009009736000083C6B60E63CCD70A224466
:100D3400B240924402494101173300E06700C36C9A
:100D4400850793F7F70F973600002383F60CE3E249
:100D5400C7F215BF86073E97835507002310070087
:100D640097370000239A070E973700009387C70C24
:100D74009C43173500000345A50913172500BA97AE
:100D84009C4382979737000083D7070D17370000DD
:100D94000347070893C7F7FF7D8D931717000327B1
:100DA40009003E97835707005D8D2310A7009737EE
:100DB400000083C7E70591C785071737000023099B
:100DC400F704173700000347A7049737000083C7C9
:100DD4003704E370F7ECB2402244924402494101E3
:100DE4008280139717003297035707006DF7850722
:100DF4002DBFAD6737C70040BD072326F7200F106E
:100E04000000973700009387A700C84F83278726E1
:100E1400BD66BD0693C7F7FF99836A052326D720CD
:100E24005D8D82804111B7170040985F3AC6945F88
:100E34003247E39CE6FE3245410182801305F00F00
:100E44008280011122CC604126CA4AC84EC652C4CF
:100E540006CEAA841D4A130965058549BC4463640A
:100E6400F4000545B9A003C7D40083474400631ABE
:100E7400470503C784026304F7000040C5B703476E
:100E8400540083C75405E31AF7FE1946CA851305AF
:100E94006400C136E31335FF0347C40083C79402DB
:100EA400E31DF7FC0357E40083D7A402E317F7FC20
:100EB4000145F2406244D2444249B249224A0561A2
:100EC4008280E31CF7FA0347540083C75405E316F2
:100ED400F7FA1946CA8513056400A53EE31F35F9E0
:100EE400C1BF0111973700009387C72522CC03A403
:100EF400070C26CA06CE2AC42EC6854419E4014529
:100F0400F2406244D24405618280834791000347E2
:100F14001400858B6304F7000044CDB7194693058C
:100F2400A100130524003536E31895FE0545C9BF15
:100F340017370000130707101C439306001094C3CF
:100F440001000100010001001C4323A007008346A7
:100F5400150003482500A2064208C296034805006E
:100F6400C296034835006208C29694D7834655005A
:100F740003486500A2064208C29603484500C2968B
:100F8400034875006208C296D4D783469500034887
:100F9400A500A2064208C29603488500C2960348EB
:100FA400B5006208C29694DB8346D5000348E50089
:100FB400A2064208C2960348C5000345F500C2963E
:100FC4006205AA96D4DB83C6150003C52500A206D4
:100FD4004205AA9603C50500AA9603C53500620515
:100FE400AA9694CF83C6550003C56500A2064205A0
:100FF400AA9603C54500AA9603C575006205AA967C
:10100400D4CF83C6950003C5A500A2064205AA96BF
:1010140003C58500AA9603C5B5006205AA9694D3B4
:1010240083C6D50003C5E500A2064205AA9603C5FA
:10103400C50083C5F500AA96E205AE96D4D3D44381
:10104400F59AD4C3D44393E61600D4C3944393E6E9
:10105400160094C3BA879443D842058B59E3984E3B
:1010640001452300E6009843184F2183A300E600BE
:101074009843184F41832301E6009843184F618336
:10108400A301E6009C43D84F2302E600D84F2183F6
:10109400A302E600D84F41832303E600D84F6183BF
:1010A400A303E60098532304E60098532183A30482
:1010B400E600985341832305E60098536183A30512
:1010C400E600D8532306E600D8532183A306E6009E
:1010D400D85341832307E600DC53E183A307F600DA
:1010E400828001008DBF173700001307E7F4144313
:1010F400411122C49C5E4AC006C6998326C2858BD0
:101104003A84173900001309E9F2D1CB9C5E973475
:101114000000938424F393F7F7F99CDE173700005B
:101124000347A7F293070008631BF700832709000E
:101134009C4393F70704173700002308F7F083C78D
:10114400040093F707049DC397370000938707D1E2
:101154009C4382979737000023AEA7EE83C7040011
:1011640093F7F70B17370000230EF7EC83C74400FF
:1011740093F707048DE7854717370000A306F7ECBC
:10118400973700009387C7ED9C43096798C71307F7
:1011940000FC973600002389E6EAD844F8D31C40C3
:1011A400985F1183058B09CB985F3D9B98DF0547BA
:1011B40097360000238AE6E8985F1D83058B11CBE0
:1011C400985F1377F7F798DF854717370000230DEB
:1011D400F7E683270900D8430583058B19C7D8434D
:1011E400759BD8C3D843799BD8C3B2402244924458
:1011F400024941018280397106DE16DC1ADA1ED8F2
:101204002AD62ED432D236D03ACE3ECC42CA46C8A2
:1012140072C676C47AC27EC0F935F250E252525395
:10122400C2533255A255125682567247E24752486B
:10123400C248324EA24E124F824F216173002030B9
:10124400973700009387C7E194439737000093874B
:1012540067DF03C70700058B11CB97370000238591
:1012640007DE97370000A38107DE828003C71700DB
:10127400058B65F7F85271FF83C75700DDB7173840
:101284000000130868DB032708001C5F9583858B27
:10129400D1E709C61C5BBD832300F60085CA8327FA
:1012A4000800985B4607935767016356070093E766
:1012B40007C0C207C18303970600C207C18709C7D5
:1012C400BA970947B3C7E7022390F60085CD834751
:1012D40015008DCB9736000083C626D793F60604F7
:1012E4001387970089478DCA3A95034705008546B9
:1012F40099471376F7066311D60262076187B947E7
:10130400634C0700832708009C5FED838D8B1737A0
:101314000000A30EF7D281473E8582808547EDBF4A
:10132400411122C406C617340000130464D31840C4
:101334003DE9AE877453FDFE3E85B28597370000C4
:10134400238307D0977001E0E780009B9737000064
:10135400938787CE9C43B70680009843558F98C3E4
:10136400D857719BD8D797370000A38F07CC9737EE
:101374000000A38907CC1C40094798C314401737C1
:101384000000130727CC83472700858B89EB83470D
:101394003700858BD9C797370000238707CAB24027
:1013A4002244410182808D476310F5029737000083
:1013B400938787C89C43B70680009843558F98C38A
:1013C400D857719BD8D75DBF8547E319F5FA5447C1
:1013D400F977FD17F58F5CC70F1000001C400967F3
:1013E40098C7130700F817360000230FE6C4173711
:1013F4000000130767C41043184231830D8B11E7B3
:1014040013076019F8D3D4C795BF1842094631832E
:101414000D8B6315C7001307E043EDB71307E01BFB
:10142400D5B7FC52ADF3A5BF5D71A2C4A6C22A8490
:10143400130680022800AE849305100886C6CAC02D
:101444004EDE52DCEFF06FDB3545977001E0E7804C
:10145400C0C917330000130323BE83270300937608
:10146400F41F173E0000130EEEC423A40700984B8C
:10147400973E0000938ECEBE370FFCFF1367F70331
:1014840098CBF84F130510F8B7020400137707E060
:10149400558FF8CF9843F576FD16758F98C398430A
:1014A400B7063300930380251377F7E798C398436F
:1014B40011497D1F1377F7E71367071098C30327B4
:1014C4000E008549930F80021C47D58F1CC783A744
:1014D4000E001307900D3400B8CB01479355370025
:1014E400A69583C7050013767700B3D7C740858BCD
:1014F400E1C38327030083280E00239C0704239061
:10150400070603A8C8021378D8FF23A6080383A8F4
:1015140007001378F70793F808F833E8080123A0C5
:10152400070103A847023368580023A2070383A8CE
:101534000E00014823A2780603DA0706630748036E
:1015440003A80703038A06001358F8006208135817
:10155400884163580A0103A807031358F80023803D
:10156400060103D807061378F80F03AA4806630692
:101574000A0003DA8705E37F49FB03A847023378AF
:10158400E80123A2070383870600635CF40003C811
:1015940005003396C9001346F6FF3376060123800F
:1015A400C5003E8663D3A7002A861315860161858C
:1015B40005071377F70F8506E312F7F3B6402644C1
:1015C40096440649F259625A616182809736000056
:1015D400938606A99C42D847131617016355060241
:1015E400984713161701635006027D57B8D717376B
:1015F40000001307E781584F05071736000023271B
:10160400E682116798C798470D83058B1DC317376A
:101614000000034747A3136717001736000023048D
:10162400E6A2130700F817360000230FE6A02147AF
:1016340098C79847058B09CF17370000034797A031
:101644001367170017360000A30EE69E054798C7D8
:1016540098470983058B09E798470583058B31CFA4
:101664009847173600001306E69D1735000013054A
:10167400A59C0983058B6303071018411843318324
:101684000D8B75EBAC4B184E93F505020347170011
:10169400CDCD79EF13077006D8CF03470600136743
:1016A400170017360000230FE698114798C7184112
:1016B4005C57F19B93E717005CD79C4298479316BD
:1016C400370163D606029736000083C626AFC18A67
:1016D40017370000130707A7C5CE0347870713670B
:1016E400070297360000238BE6AC056798C7984736
:1016F4009316270163D10602173700000347C794E6
:101704006207618763570700054797360000238DFA
:10171400E692096798C798479316070163D60602AD
:101724009736000083C696A9858A173700001307E9
:1017340067A1ADCE034797071367270097360000CC
:10174400A38EE6A6216798C7828029D785456315AD
:10175400B7001307B00689B789456315B7001307A7
:10176400F0061DBF8D456315B700130730072DB76D
:101774001307500715B71307600739BF034736002F
:101784001367170017360000A30FE68A094739BF0D
:10179400834687070946BD8A6388C60003478707CF
:1017A4008D463D8BE313D7F4114725BF8346970736
:1017B400918AC9DA034797071367870041B73971DC
:1017C40006DE16DC1ADA1ED82AD62ED432D236D049
:1017D4003ACE3ECC42CA46C872C676C47AC27EC0ED
:1017E400F533F250E2525253C2533255A2551256B7
:1017F40082567247E2475248C248324EA24E124FB6
:10180400824F21617300203097370000938747850A
:1018140098438567938707777CD39737000093872E
:1018240067899C4383A607091396560063580600EC
:1018340083A6070913966600634406007453FDF2F9
:10184400828071C5AA870145E9C58D07C207C18396
:10185400F19BC207C18313074003636FF702173775
:1018640000001307E78D0843173700001307C78CE0
:1018740014436398A602172700001307E75E185B5A
:10188400014541CB4111C20706C60545DD8D0297CE
:10189400B240014541018280173700001307078ACF
:1018A400D9B70357650035E303574500636FF70461
:1018B400B306F7402146637CD602032805009386CD
:1018C40087001D8FAA966117172600000356A65499
:1018D4002392E60023A006012393060014C12312D9
:1018E400F500130786FF972600002396E65223137C
:1018F400B5009725000083D50552B387F540172717
:101904000000231AF7502105828008419DB7014544
:10191400828082800DC1973700009387678203A37A
:101924000700973700009387278183A80700814623
:101934009A8763E31701828003A80700636DF50AA1
:10194400636BA80A13878700E367E5FE03D6670085
:10195400216705076317E60003C7C1910507238EB6
:10196400E190972500009385A54A03D6470003D745
:10197400650023930700329742074183172500002F
:10198400231BE548638A6702172500001305057BBE
:1019940008416303F50203D5660019ED83D74600B9
:1019A40023A0060121073E9621062392C60097270D
:1019B40000002392E746B6879843E30E17F797266D
:1019C40000009386A6779442E307D7F68356670010
:1019D400BDF283D64700035647001843A106B296CA
:1019E4002392D70098C383D76500A1071727000067
:1019F4002313F7428280BE86C28725BF0327851141
:101A040063020712411122C406C68347C5008345F9
:101A1400E5042A8493F7C70F2306F500834697004D
:101A24000356C70013958601618563F2C508635B9D
:101A340005060345870093F6F607A304D700054679
:101A440093E627006314C50093E617002306D40029
:101A54005C4389075CC3A30AB400032504112E86E2
:101A64004C430905EFE0FFF5832784110346540135
:101A7400D44303D7C700B296118FD4C32396E7008B
:101A84008947A30DF400034764039727000083C725
:101A9400C73E6378F7048347C40093E7070123062E
:101AA400F40081A093E717002306F4006DB7937642
:101AB400F60F635D050203458700854513E627009D
:101AC4006314B50013E617002306C400A30AD40068
:101AD400A30407008547A30DF400832784119C43C6
:101AE400DDF3B240224401454101828093E71700AF
:101AF4002306F400A30AD400A30407000325041159
:101B04004C430905EFE0FFEB83278411034654019E
:101B1400D44303D7C700B296118FD4C32396E700EA
:101B24008D4755BF054582809727000093874774EA
:101B34009C43411122C406C6858B2A84C5EF4165A6
:101B4400130525F5972002E0E78020C345C58347A8
:101B5400A5002315F50083270412BDE72320A41252
:101B64002322A41285472311F4042320050083476C
:101B7400640154412316F5000347D4002304E5000F
:101B84000547A304E500172700001307A74B184FC8
:101B94001385170215811C437D151375F50F9CC21F
:101BA4005C43DCC21C479CC65C47DCC61C4B9CCA1D
:101BB4005C4BDCCA1C4F9CCE5C4FDCCE19CD9386AB
:101BC400060213070702C1BF8327441288C3835741
:101BD40024042322A412850779B79727000083D70A
:101BE400E7568507172700002312F756B240224410
:101BF400410182808347C40023090400054593C73B
:101C040047002306F400DDB78347850193F7E70F08
:101C1400D5EF83479501DDEB034625018346C500D7
:101C240009CA83456503172700000347172563E79F
:101C3400E50013F7060141CF014709C6C18A0357DE
:101C4400651C81C68356A51C369751C31307C7125A
:101C54001725000003550526B335A70237460F00A4
:101C6400411113060624814622C426C206C67D54A9
:101C74003305A702975002E0E780A0AF9727000042
:101C840083C71720B384A700972700009387874B47
:101C940003A787098327070963F387003E84184352
:101CA40075FB972700009387671B9C4382978147A6
:101CB4006364A400B307A440B2402244B3B79700BE
:101CC40093C7170092443E854101828081473E8537
:101CD4008280972700009387A73898437C53FDFFA1
:101CE4008280797126D206D622D44AD04ECE52CCE6
:101CF40056CA5AC85EC68347550303447513AA845B
:101D04003E941374F40F9307400263F687001304A0
:101D1400B4FD1374F40F03AA841383AAC413A38B0E
:101D2400841222865285D685975002E0E780E09E91
:101D3400058915E503CBD41201498149337B64033A
:101D4400930B50024A865285D685975002E0E7806D
:101D5400C09C058915C5639169031374F90F238B1E
:101D64008412B250225492540259F249624AD24A1D
:101D7400424BB24B456182808509E20993D989417E
:101D84000509E31179FDE1BF83278509035605049D
:101D9400797193D60701BD8EC206C182358E135761
:101DA400764093575640898B058B5D8F9357364009
:101DB400918B5D8F93571640A18B5D8F93171600FF
:101DC400C18B5D8F9317360093F707025D8F9317CE
:101DD40056009355860093F707041E065D8F13760D
:101DE400F60F518F93D7554013D63540118A898BFE
:101DF400D18F13D67540D18F13D61540218AD18F38
:101E040013961500418AD18F139635001376060276
:101E1400D18F13965500137606049E05D18F93F542
:101E2400F50FCD8FA20745465D8F3307C70222D435
:101E34002A8426D252CC56CA032A8413832AC41372
:101E44005AC806D6369742074183935777401355AD
:101E540057400989858BC98F135537401189C98F1C
:101E6400135517402189C98F131517004189C98F4C
:101E74001315370013750502C98F131557009355B1
:101E84008700137505041E07C98F1377F70FD98FC1
:101E940013D5354013D755401189098B498F13D574
:101EA4007540498F13D515402189498F1395150025
:101EB4004189498F1395350013750502498F139590
:101EC4005500137505049E05498F93F5F50F4D8F45
:101ED4002207D98FB387C7024AD04ECE5EC662C4EA
:101EE400B697C207C18313D7774013D557400989E2
:101EF400058B498F13D537401189498F13D5174066
:101F04002189498F139517004189498F139537000B
:101F140013750502498F1395570093D587001375E0
:101F240005049E07498F93F7F70FD98F13D53540D2
:101F340013D755401189098B498F13D57540498FA3
:101F440013D515402189498F139515004189498F6F
:101F54001395350013750502498F139555001375B4
:101F640005049E05498F93F5F50F4D8F2207D98FF0
:101F7400B387C702130650025285D685B697BD8E25
:101F840093940601C18033F6C402137BF60F974085
:101F940002E0E780807805890DED8347D41201497A
:101FA4008149B3849702130C5002C1804A8652853A
:101FB400D685974002E0E78040760589937BF90F48
:101FC40011C563863403850993F9F90F0509E31FE5
:101FD40089FD230B6413B250225492540259F249DE
:101FE400624AD24A424BB24B224C456182805E8B9C
:101FF400CDB7797122D406D683C735002E84231633
:102004000100A307F10083C74500100802C023079D
:10201400F10083C755008A8502C2A306F10002C4F9
:1020240002C802CA02CC02CEEFE09FF00347F101DE
:102034008347040001456310F7020347E101834726
:10204400140001456319F7000345D10183472400B7
:102054001D8D13351500B250225445618280011143
:10206400972700009387070E22CC03A4870C26CA67
:102074004AC84EC606CEAA8413092500854915C050
:1020840083C7140003473400858B6304F700405C66
:10209400FDB71946930544004A85EFE09F9BE3187A
:1020A40035FF2285F2406244D2444249B249056177
:1020B40082804111972700009387C70822C403A494
:1020C400870C26C24AC006C693042500054901E8C8
:1020D4002285B24022449244024941018280A6856D
:1020E4001305A4023937E30525FF405CCDB7411140
:1020F400972700009387070522C403A4870C26C2F0
:102104004AC006C693042500054901E82285B24069
:1021140022449244024941018280A6851305A40108
:0C212400C93DE30525FF405CCDB700007D
:10213000971100209381019617610020130181EC13
:102140001305400097E5FF1F9385C5EB1706002098
:10215000130606FE63FAC5008322050023A055007E
:1021600011059105E3EAC5FE17750200130585FE0A
:10217000970500209385C5FB1386818463FAC5000B
:102180008322050023A0550011059105E3EAC5FE51
:1021900013858184972500209385050F6377B5000B
:1021A000232005001105E36DB5FEFD42739002BCCE
:1021B0008D4273904280930280087390023097E2C0
:1021C000FF1F938222E493E2320073905230971201
:1021D00000009382422E73901234730020303D43EE
:1021E0002A876373C3029377F700BDEFADE593765B
:1021F00006FF3D8ABA960CC34CC30CC74CC74107B7
:10220000E36BD7FE11E28280B306C3408A069702D1
:10221000000096966780A6002307B700A306B700C4
:102220002306B700A305B7002305B700A304B70032
:102230002304B700A303B7002303B700A302B7002A
:102240002302B700A301B7002301B700A300B70022
:102250002300B700828093F5F50F93968500D58D06
:1022600093960501D58D61B79396270097020000DC
:1022700096968682E78086FA9680C1171D8F3E96D5
:10228000E374C3F8A5B7B717004003C77705137702
:10229000E70FA38BE704130700F8A38DE7043D477E
:1022A000238CE70413075003A38CE70482804111B9
:1022B0002A83014E930E407E130F0019930F4006A0
:1022C00063E66E149308001913034006B3781503F0
:1022D000854E0D4FA14F337365020D8913351500DF
:1022E00063E0BE161308F6FF794672984208135849
:1022F00008013307C70213D61700BE07329761469D
:10230000B3F6C60213068070B386C6023697A1667E
:10231000F58F42075D8FB716004083C7F60293F72B
:102320000708A307F1000346F10083C7F60293F7FD
:102330000708E394C7FE8347F100B716004093F700
:10234000F70F63890714F3270080A18B938681849C
:102350006398071401000100B717004013067005C9
:102360002380C704130680FA2380C70401000100FC
:1023700023AA070303C6170313660608A388C70228
:1023800023800704732600809C42A18BD18F739019
:10239000078023A40184010001001166B7150040E5
:1023A0007D16DC59C85DA98FF18FE5FFF32700800A
:1023B000A18B89CBF327008023A4F1849C42DD9B71
:1023C0007390078001000100B717004013067005E5
:1023D0002380C704130680FA2380C704010001008C
:1023E000D8DB03C7170313670704A388E70223801A
:1023F0000704732700809C42A18BD98F73900780BC
:1024000023A4018401000100410182807D1333680F
:10241000E3039308E016630E08003368F3039308A0
:10242000D016630808009378330093B81800938897
:10243000D81633081E01131E0801135E0E0149B59C
:102440006393E503054863860800014863030300BE
:102450002A8871087298FD15131E0801C205135EC3
:102460000E01C181B5BD13F8150063F4BF007908F2
:10247000D5B713381800E5BF83C7F60293F70708EE
:10248000A307F1000346F10083C7F60293F707089C
:10249000E394C7FE8347F10093F7F70FF1DF65B5CB
:1024A000F327008023A4F1849C42DD9B7390078076
:1024B00055B5914763EEB702176702001307C7E6E9
:1024C0008A05BA959C41BA978287B717004003A73F
:1024D000470B1345F5FF698F23AAE70A03A7070BEC
:1024E000698F23A8E70A03A7070A798D23A0A70A03
:1024F0008280B717004083A6470B1347F5FFF98E7C
:1025000023AAD70A83A6070B558D23A8A70A83A65B
:10251000070A758F23A0E70A8280B717004003A738
:10252000470B498F23AAE70A03A7070B1345F5FFBB
:1025300045BFB717004083A6470B1347F5FF758FBC
:1025400023AAE70A03A7070A598D4DB7B71700401A
:1025500003A7470B498FEDB7914763EEB7021767A3
:1025600002001307A7DD8A05BA959C41BA978287B6
:10257000B717004003A7470D1345F5FF698F23AA3E
:10258000E70C03A7070D698F23A8E70C03A7070C27
:10259000798D23A0A70C8280B717004083A6470D32
:1025A0001347F5FFF98E23AAD70C83A6070D558D87
:1025B00023A8A70C83A6070C758F23A0E70C8280A5
:1025C000B717004003A7470D498F23AAE70C03A7BD
:1025D000070D1345F5FF45BFB717004083A6470D0C
:1025E0001347F5FF758F23AAE70C03A7070C598D36
:1025F0004DB7B717004003A7470D498FEDB7935765
:10260000E50093F70730C98FC2070547C18363828E
:10261000E5048DC10947638DE5040D476380E50638
:1026200037170040231FF70883562709D58F231932
:10263000F7088280371700400356670993C6F7FFF3
:10264000F18E231BD7088326C70C558D2326A70C94
:10265000C1BF371700400356670993C6F7FFF18ED5
:10266000231BD7088326870C558D2324A70C4DBF29
:102670003717004083566709DD8EE1B737170040F2
:1026800083566709DD8EE9BFB74700401147A38134
:10269000E70009472380E700130700062380E700CF
:1026A00003C7170013670701A380E70003C71700DC
:1026B0001377E70FA380E700828089473747004000
:1026C000631DF5008347170093E70704A300F70095
:1026D000B7470040A381A70082808347170093F784
:1026E000F70BEDB7B747004003C707001377F70EA6
:1026F0002380E700131705012E9541834205239C93
:10270000E7004181239EA7002396B7002547238336
:10271000E70003C7170013671700A380E70003C78C
:102720006700058B6DDF03C717001377E70FA380E2
:10273000E7008280B717004003D58700420541813A
:102740009377050491EB9377F5013755E80113056D
:1027500005803345F50282809377050C130700044A
:102760006397E7009377F50137459C1CCDB721654A
:10277000130505D08280B7F700E08847CC478280F8
:10278000814737370040A14663C4C7003285828045
:102790000345B740E38EA6FE3385F50003450500EB
:1027A00085072304A740CDB797070020938787AEFE
:1027B0009C4317270020130727AD3E95636EE50065
:1027C00017570020130707646368A7001707002046
:1027D0002322A7AC3E858280FD57EDBF411122C464
:1027E00006C62A84813F2947B307E502B2408D839C
:1027F000B3D7870222449507B3D7E70237370040A3
:10280000C207C1832316F7404101828071654111DF
:102810001305052006C6D937B7370040130770F8EF
:102820002381E7400D47A381E74013070004A380FD
:10283000E74005472387E740B240410182804111CC
:1028400093962500AA852D4506C697E0FF1FE780D1
:10285000E0E0B240014541018280411126C29394DB
:10286000250022C44AC02A843289A686AA85014648
:10287000254506C697E0FF1FE78040DEA6864A860C
:10288000A285294597E0FF1FE78040DDB240224442
:1028900092440249014541018280011122CC06CEB9
:1028A0003714004026CA4AC84EC652C48344740531
:1028B000034AB4058349840503499405E9328347F3
:1028C000A40593F4F40F137AFA0F93E71700230D7E
:1028D000F40493F9F90F1379F90FB717004003C700
:1028E000A705058B6DFF03D5C705A38D4705238C71
:1028F0003705A38C2705A38B9704F2406244D2448A
:102900004249B249224A05618280411193970501EB
:1029100022C406C6C1872E8463DD0700EF10A02FF6
:1029200019C1EF1020282165218DB24022444101B8
:10293000828093F7150013C51500E5FB93972501D9
:1029400063D20708EF501129B717004083C7E70289
:1029500093F7C70F93E7170073270080218B9386A7
:10296000818409CB7327008023A4E18498425D9B76
:10297000731007800100010037170040130670052F
:102980002300C704130680FA2300C70401000100D6
:102990002307F70223000704732700809C42A18BC2
:1029A000D98F7390078023A401840100010037F6BA
:1029B0000200130606E0896503C5C184EF10A0710B
:1029C00009659DB7939715010145E3D007F6176593
:1029D00002001305A59DEF40C274130600649165C3
:1029E00003C5C184EF10206F11653DBF1D714946BD
:1029F000976502009385C59B176502001305452165
:102A000086CE97E0FF1FE780000501E91765020009
:102A10001305459BEF40E27001A0B7F600E079573F
:102A200098CAFD57DCCA0567B7E700E023A0E710A6
:102A30001306F00290C223A0E7180100010013065C
:102A4000C0038145480897E0FF1FE78040FB9707D8
:102A50000020938727B53ECA896793870780231C88
:102A6000F100A167938707E03ECEB7070105938782
:102A700007103ED0ED472312F10285472303F102F0
:102A8000970700009387E7DBBEC497070000938792
:102A900007DDBEC6B7F50700970700009387E7CDAF
:102AA00035473EDA814697070000938747DF70007D
:102AB000E10519452304E102A305E1023EDE97E0AA
:102AC000FF1FE780A0B958088147994670003E96DD
:102AD0000346060085070507A30CC700E398D7FE49
:102AE000D24791C70357810185676373F70001A03F
:102AF0004808EF101038AA8501C9176502001305B0
:102B0000A58DEF40C24D01A0F640256182804111A4
:102B1000170500001305A5DF06C622C4EF10B0316B
:102B20001384C1842300A40019280345040022440F
:102B3000B24013060032896541016F10C05941113E
:102B400006C6F3270080A18B9386818489CBF32767
:102B5000008023A4F1849C42DD9B739007800100D8
:102B60000100B7170040130770052380E70413071F
:102B700080FA2380E7040100010003C7F70213670E
:102B80007700A387E70223800704732700809C4215
:102B9000A18BD98F7390078023A4018401000100C9
:102BA0001305407E81470147814605468545EFF084
:102BB0000FF0B240014541016F105060B305B040C5
:102BC00017650200130545836F406241011122CC55
:102BD0002316C10032846C0003C6118606CEEF6056
:102BE000C00EA2851765020013050582EF40223F43
:102BF000F24062448547238AF18405618280011195
:102C000022CC36C606CE2E84EF102021B24637469F
:102C10000F00130606243376C50291CAB2851755F4
:102C200002001305A57F32C6EF40623B3246228583
:102C30006244F240814505616FA0E13281E9B285CD
:102C4000175502001305857E6F4062398547639DE5
:102C5000F500175502001305A57E09C61755020099
:102C60001305057F6F40E24B89476398F5001755C0
:102C700002001305E57E7DD682808D47E39EF5FE3A
:102C8000175502001305C57E71DEB2851755020087
:102C90001305457F55BF03C701869307100363F0F3
:102CA000E70682809315340089051946A6954A8562
:102CB00097E0FF1FE78020DA05ED05041374F40F99
:102CC00083C70186E360F4FE8E0789073385F4002D
:102CD0001946CA8597E0FF1FE780E0CE83C70186CB
:102CE00013973700BA948507A38034012380F186B7
:102CF000F2406244D2444249B249056182800111E6
:102D000022CC26CA4AC84EC606CEAE892A890144BC
:102D10009384019875B78347250049476366F71E7A
:102D2000175702001307C7628A07BA979C434111DD
:102D300022C406C626C24AC0BA972A8482870504DE
:102D40001374F40F83C70186637DF4009315340078
:102D500089051946A6954A8597E0FF1FE780A0CF11
:102D600079DD83C701866392870417550200130536
:102D7000E573EF40023B014685450D452380018602
:102D8000EF90E10717550200130545712244B24048
:102D90009244024941016F40C23801449384019832
:102DA00017F9FF1F1309894F71BF1755020013054B
:102DB0002571EF400237938701980E049306240093
:102DC0003E9403461400BE9681450145EF80D17FB5
:102DD0000566130606C89305002003C51186EF108B
:102DE000802F175502001305A56E4DB793050020DF
:102DF00003C51186EF10405083451400B9E589479B
:102E0000A38FF1848357A40013060064A145239384
:102E1000F18003C511868547238AF1840564EF108C
:102E2000802B130604C8C14503C51186EF10A02AE4
:102E3000130604969305001003C51186EF10A02910
:102E4000175502001305C56991B717550200130500
:102E5000256AEF40C2181755020013052564EF409C
:102E6000422C238001862244B2409244024901460A
:102E700085450D4541016F809178A38F0184F957F5
:102E80009305001003C511862393F180238F0184DD
:102E9000239C018423800186238A0184EF10C0458E
:102EA000834564001755020013054566EF40221361
:102EB000175502001305855EEF40A2266DB7175522
:102EC000020013056566D9B5175502001305C566DE
:102ED00075BD1755020013052567EF408224834511
:102EE0004400130554002244B24092440249410177
:102EF0005DB31755020013052566C5B7B2402244DD
:102F00009244024941018280828039719397050180
:102F100026DA06DE22DC4AD84ED652D4C187AE84E9
:102F200063D8072A03C51186EF00F04E2A8415C521
:102F3000034705009307000B631EF70083C7F18565
:102F4000094783454500930985006382E7024E8562
:102F5000EF6020312285EF00F0442165258DF2508D
:102F60006254D2544259B259225A216182800D478B
:102F70006381E50205476390E50203478500631A14
:102F8000F7028345C500175502001305255EEF4083
:102F90000205238A0184034744009307F007631A5C
:102FA000F70083558400175502001305A55DEF4017
:102FB0000203834744002D476382E7020547639479
:102FC000E70203478400A9466319D7028345C4007A
:102FD000175502001305C55BEF406200238A018488
:102FE00083454400ADB74D476393E7021755020090
:102FF0001305455CEF40E212D5B7C946631BD70401
:103000008345C4001755020013058559F1B76D4774
:103010006391E704175502001305C55AEF30327C5F
:103020000149175A0200130A6A5A8357A4006366BB
:10303000F9002945EF30B27E65B75C445285CA97E6
:1030400083C5070005094209EF3072791359090158
:10305000E9BF03C7E18549D785466317D7081D47F0
:10306000639CE7028357840085CB5C4417550200BC
:103070001305455683C5170003C6370003C707006D
:1030800083C72700A2052206D98D5D8E239EB184B9
:10309000239DC184EF30B274834744001D4763937E
:1030A000E70403471400E947E39CE7F283D5C185B1
:1030B00085D98947238FF18489679387272003D691
:1030C000A1852316F10083C611869307A00203D5BC
:1030D00061802314B1002315C1002307F100EF50D4
:1030E000303CFDBD0547C9B78946631CD708254755
:1030F000639EE7028357840095CB584493050004F0
:1031000013060064834717000347070003C51186B1
:10311000A207D98F239CF184EF00F07B83D58185B2
:10312000175502001305C54DEF30726B83474400FD
:1031300025476396E70403471400E947E392E7EA6B
:103140008D47238FF1849387C18583D7070003C6FA
:1031500011862C002314F1009387A18583D70700E3
:1031600003D561802315F100930720202316F10079
:10317000930790022307F100EF50903F95B5054764
:1031800075BF8D46E31ED7E425476390E704835758
:10319000840085CF584493050008130600648347D4
:1031A00017000347070003C51186A207D98F239B89
:1031B000F184238A0184EF00107283D5618517554D
:1031C000020013056546EF309261238F018409BD2B
:1031D00093F7150085C317F6FF1F130666F597F5DD
:1031E000FF1F9385A5F503C51186EF80513813C5E0
:1031F0001400B5B393F7052081CB41657D15EFA091
:10320000F13813C50420A1BB93F7850095CB8967DE
:10321000938727812314F100239C0184239D01843B
:10322000239E0184854783C6118609462C0003D559
:103230006180238FF184EF50F05113C5840005B3F2
:1032400093F7050191CF13078025814613064006A9
:10325000D14503D56180EFA0F13213C5040101B35C
:1032600093F705029DC3014789460946814503D569
:103270006180EFA0F133AA85175502001305453E82
:10328000EF30F25513C50402D9B993F705046385ED
:10329000070C83C74185D9E317F7FF1F0347C7FF13
:1032A00083D7818503D5618051C32314F100014781
:1032B000854781460546C9452315F10023180100BD
:1032C000EF501033835581002AC6175502001305AD
:1032D000653AEF30D250B247B1C31307A00523803F
:1032E000E70003C611862C0003D56180EF50D0287B
:1032F0000DE98547238AF18497F7FF1F83C7C7F934
:1033000093B71700130600649305000403C51186E4
:1033100017F7FF1F2302F7F8EF00F05B13C5040453
:103320003DB9C9452800EF50D073CDBF03C6118603
:103330002C002314F100EF5070236DF18547238A90
:10334000F18497F7FF1F83C727F593B7170017F787
:10335000FF1F2303F7F4D9B793F70508B5CB83C74D
:103360004185B9EF9387618583D70700014781467F
:103370002314F10009468947C94503D56180231507
:10338000F10023180100EF50B026835581002AC6B2
:10339000175502001305C52FEF307244B2478DC395
:1033A000054423808700B24703C611862C00A38002
:1033B000070003D56180EF50301C11E5238A81841A
:1033C00013C5040869BEC9452800EF509069CDBFF8
:1033D00093F705100145E38407B803D56180EFA09A
:1033E000311A0566130606969305001003C511866B
:1033F000EF00704E13C504109DB6011117050000B3
:103400001305E5B006CE22CCEF10E022138411861E
:1034100085652300A400938505960945EF30800655
:10342000D1451D45EF300006930540062145EF309C
:103430006005930540063545EF30C00489472304F5
:10344000F1007000854791451305F040A304F10099
:10345000A305F10002C623050100EF90715730006B
:10346000854513058040EF90B156130691008545C0
:1034700013059040EF90D1551306A1008545130523
:10348000A040EF90F1541306B10085451305D040DC
:10349000EF901154EF60D00D03450400EF60A039A8
:1034A000034504008545EF00102BF240624405619E
:1034B000828041111305800406C622C497D0FF1FE5
:1034C000E78060BD371400408327840A8D451305CB
:1034D000002093E707202324F40AEFE09FFDEFF09C
:1034E000EFB2175502001305A572EF309243EFF0CB
:1034F000EFCFEFF0CFE1EFA0F10B0137175502004E
:103500001305451AEF30F241212D1755020013051E
:10351000651AEF301241E1228D4513050002EFF0EC
:10352000AF838327C40C93E707022326F40C97D0BC
:10353000FF1FE7806006371700405C5FCA07C9833A
:103540002310F5008357A703C207C1832311F50099
:1035500083578703C207C1832312F50082808357F4
:10356000050083D605000357250003D62500958F57
:10357000B7662605938606C0B387D702118F9306D8
:10358000007D035545003307D702BA9703D745009E
:10359000198D79473305E5021307803E3345E5026F
:1035A0003E95828083552500411122C42A841755F7
:1035B00002001305E51006C6EF3072228355440061
:1035C0002244B240175502001305C51041016F3067
:1035D0001221B717004083A7470C93868188904239
:1035E0004111A18B22C406C65D8E03C4F18015E291
:1035F0001385C18789378547056623A4F18813069B
:1036000006969305000222852244B24041016F00D4
:10361000902C9042368785466310D608B5CF930527
:1036200000022285EF00504D13854187293793858D
:10363000C18713854187253723A4A186AA8713074D
:10364000100303C5F18093050004635FF7021307BD
:10365000B0126349F700894723A4F1881306003CA0
:10366000C1455DB71307B05D8545635FF7009305FE
:103670000002EF0070489305002003C5F180EF00C1
:10368000900D914503C5F180EF00F00CB24022444B
:1036900023A401884101828010438946631AD6021F
:1036A00085EBC1452285EF0030451385C186613524
:1036B000938541871385C1865D351307702583C7C0
:1036C000F18089456354A700930500403E856DBF96
:1036D000A38201861C431C438145228575B7411195
:1036E000170500001305050906C6EF00D074AA856A
:1036F000A387A18017550200130585FEEF30320E17
:1037000085452145EFE05FE589452145EFE03FEF45
:1037100089472387F180B240B7E700E0370704000C
:1037200023A0E71023A401884101828083C741863A
:1037300013B717002382E186B716004017F7FF1F63
:10374000130747B999EB83A7860C0C433705FF0095
:1037500093E7070223A4F60C35AE83A7C60C416598
:103760000C4393E7070223A6F60C130505F0EDB70B
:10377000411122C406C626C24AC093F715002E8402
:1037800085C317550200130565F7EF309219793F8D
:1037900013451400B2402244924402494101828000
:1037A00093F72500A9CF17550200130525F6EF3032
:1037B0005217B714004083A7C40C4165130505F0E8
:1037C00093E7070223A6F40C97F7FF1F938787B0B0
:1037D00003A90700CA857D2C1305200397D0FF1F7E
:1037E000E780A0D783A7840C3705FF00CA8593E73D
:1037F000070223A4F40C792C1345240061BF93F72E
:10380000450091CB17550200130545F1EF307211B9
:103810001345440041B793F70501B1C7B7170040FE
:103820001387818883A7470C104389466315D60206
:10383000A18B99CB854503C5F180EF00C07123A40E
:10384000018813450401B9B717550200130505EEA9
:10385000EF30320DEDB70C4317550200130585F01C
:10386000EF30E277F9BF93F70502A1CFB717004019
:103870001387818883A7470C10438546631BD602B4
:10388000A18B8DE3914503C5F180F1258945214543
:10389000EFE0FFD689472387F18023A401881345F1
:1038A0000402CDBD17550200130505EFEF30720776
:1038B000EDB70C4317550200130585F1EF30227266
:1038C000F9BF93F78500A1CB371700400355870355
:1038D0000356A7034C5F938781881167944393072E
:1038E00017007D17F98DB337F50093C7170006064B
:1038F000C2053E96C18117550200130565F0EF30F1
:10390000026E13060064A14503C5F180EF00A07CA0
:103910001345840041B593F7050491CB1755020078
:103920001305C5EFEF30E27F13450404A5B593F707
:10393000051091CB175502001305C5EFEF30627EDD
:103940001345041081BD93F705208DCB1755020058
:10395000130505F0EF30E27C1385C187A131138593
:1039600041878931938781868C431755020013055F
:10397000E5F6EF30C2661345042029BD93F70540F4
:103980000145E38907E017550200130565F6EF309E
:10399000427913450440FDBBB717004003D7E70940
:1039A000218B29C303D7E709411122C6136787007A
:1039B000239FE70883C7E1800944639E87008D4504
:1039C0002145EFE0DFC38D472387F1801931324471
:1039D00041017300203089452145EFE05FC2238714
:1039E0008180EDB773002030411126C2B284314688
:1039F0003386C40222C42E84814506C6EFE02FFE22
:103A00002A8E930534008148B14E13030008254FD8
:103A100093970801C18363FA9706B386D803138688
:103A2000D5FFF296B9A0834F06001308F5FF33586F
:103A300003413378F80103870700631F0802136707
:103A400007F82380E70003480600B35FA34003871D
:103A500007003378F8016314080213678700238096
:103A6000E70009058507E310E5FD05069106630BF0
:103A7000B600B687054545BF136707FED9B713677C
:103A8000E700F1BF85088D0561B7B240224492443A
:103A900041018280011126CA97040020938484305A
:103AA00061464AC84EC62E89AA898145268506CE1A
:103AB00022CCEFE0CFF213D589001375F50FEF306C
:103AC000E232CA85EF302204EF30E22C13844189C0
:103AD0002300A40013D509011375F50FEF3002314F
:103AE000CA85EF304202EF30022BA300A40013F589
:103AF000F90FEF30A22FCA85EF30E200EF30A22994
:103B00002301A400A28526850546F93D6244F240C2
:103B10004249B2492685D244B14505616FE09FBC58
:103B200041118D45116506C6EFE0BF98175502009B
:103B3000130505EDEF30E25E8D452165EFE07F97DF
:103B4000371700408327C70AA166D58F2326F70AB7
:103B5000EFE09FB34D45EFE05FB6970700209387F6
:103B600067243E8561468145EFE06FE7E145EFE080
:103B70007FB797E7FF1F93872776B2408C431305E3
:103B8000B008410101BF23AC05FE1C4191E70100D3
:103B900001000CC18280BA8703A787FF6DFF23ACA9
:103BA000B7FE82801DC18346E5FF1307F00F9147E2
:103BB000639EE600411106C697E0FF1FE780C0D56F
:103BC000B24081473E854101828095473E85828093
:103BD00001E9014582800145B240224441018280D1
:103BE00095654111938505D022C4C98D2A8421058C
:103BF000C2054205C181418106C697E0FF1FE780EB
:103C000080C471D9FD5723200500231285002303AA
:103C1000F5002105D1B7170700201307271F1C4304
:103C2000411122C426C24AC006C601440149BA84D1
:103C300089E7A165D1251DC401A803C7E7FF631A61
:103C4000A7020DCCA165012E9840832784FF63193C
:103C5000E40217070020232BF71AFD57232C04FE3C
:103C6000230FF4FE2285B2402244924402494101CE
:103C7000828011E03E8983A787FF5DBF3E84E5BF58
:103C8000232CF9FED9BFB1CD411122C406C62A8426
:103C90009707002083C7D7172E856375F4008947DF
:103CA00063E8870001370D45B2402244410182801C
:103CB00083A785FF99E703C7E5FF9307F00F630527
:103CC000F700CD351545CDB7238F85FE17050020AC
:103CD0001305C5134D3D22852244B240A165410123
:103CE0009DAC154582809707002023A10712828092
:103CF00097070020938707179C4399E33E858280AE
:103D000003D727006316B70003C70700E308A7FE21
:103D1000DC47E5B7C9C1797122D406D626D24AD08C
:103D20004ECE01444147B3D78540858BA5C31205CC
:103D3000314722953305E5029707002093878716C0
:103D400003A907008544B3948400C204C180BE89DE
:103D50002A990327090011C7032549002EC6029797
:103D6000B24531473304E40283A709003E941C4462
:103D700089E72320090023220900B2502254A58D8F
:103D800002599254F2492E85456182800504E31C54
:103D9000E4F88144DDB72E85828041111397050137
:103DA00022C406C626C24AC041872E84635E07002D
:103DB0009D3511C1C53BA1673D8C2285B24022448F
:103DC0009244024941018280EDD9AA8701474146C8
:103DD000B356E440858A8DCE9207BA97B146B38731
:103DE000D702970600209386E60B03A906008544B8
:103DF000B394E400C204C1803E99832709000325DF
:103E0000490082972320090023220900258C75B7D9
:103E10000507E31FC7FA8144D5BF970700209387A2
:103E2000A7049C53411122C406C61384018199C77B
:103E300082971C403E9523A8A18039A097070020B7
:103E40009387C7019C43EDF70840B747030093876A
:103E5000D73F3305F502B7A72600938737ECB2406A
:103E600022443E9523A8A180410182807DC197070D
:103E700000209387A7FE9C43797122D426D24AD092
:103E80004ECE52CC56CA5AC806D65EC63A8AB689B3
:103E9000328BAE8A2A898297970700209387870002
:103EA0009843BE840144B146C147B30BD4023306E4
:103EB0007701104251EAC165938505F0414597E0CD
:103EC000FF1FE78040981DE5970700209387C7F9FB
:103ED0009C5B2D4589C71145814582972D45B25080
:103EE000225492540259F249624AD24A424BB24B8E
:103EF00045618280970700209387C7F6984329E39E
:103F00009707002023A0A7F6230005009C40054743
:103F10003317870023260500232465012311E500BC
:103F200023224501DE9723A0270123A2570123A4C2
:103F300047010145E38509FA238089004DB73E8793
:103F40005C47F5FF48C7C9B70504E310F4F62145FF
:103F500079B7094582809707002083C777EB6371A3
:103F6000F502170700201307A7EF93171500084362
:103F70003E9583570500DD8D2310B50001458280F5
:103F80000D4582809707002083C797E86373F50289
:103F9000170700201307C7EC93171500084393C5B4
:103FA000F5FF3E9583570500FD8D2310B5000145B3
:103FB00082800D458280130705FF1377F70FFD47B9
:103FC00063E9E70AB146B306D50297070020938755
:103FD00067ED984389473697184349CF011122CCA2
:103FE0004EC60544935945003D893315A40013146A
:103FF0000501418026CA4E85AE84A2854AC806CEF8
:10400000C5392A89814731CDA2854E85A53F9707BD
:1040100000209387A7E49C4382979707002083D7CB
:1040200067E9338797022A84814613060064B3B791
:10403000970213050732B335E500BE95EF202273D2
:10404000B307850097060020938646E63E87D44254
:1040500063E4A70063E4D7003387D7402324E90053
:104060008147F2406244D2444249B2493E850561EB
:10407000828089473E858280011126CA06CE22CCE5
:104080004AC84EC6BD47894463EFA702314733078C
:10409000E502970700209387E7E09C438944BA979D
:1040A0009C4395C305443314A400420441802E89E7
:1040B0000145A2853539AA89814411C5A2850145EA
:1040C000D13523A42901F240624426854249D244D5
:1040D000B249056182809707002083C777D3636464
:1040E000F50001458280011197070020938707D7CB
:1040F00056C283AA070006CE22CC26CA4AC84EC69C
:1041000052C4638D0A0A170A0020130A2ADA83248C
:104110004A00B74736FE938707C8AE899705002047
:1041200083D545D9BE94B387C5022A843289814696
:10413000B3B5C50213850732B337F5001306006423
:10414000BE95EF20C26263EBA406829A9705002019
:1041500083D545D6B3872503AA8413060064814618
:10416000B3B5250313850732B337F500BE95EF20AD
:104170000260B3079500BE8403274A0063E4A700EA
:1041800063E4E700B384E740CE852285953601C518
:1041900004C505452DA0936504F0C205C1814145C4
:1041A00097D0FF1FE780206A05E5970700209387D7
:1041B000A7CB9C5B81C7A285114582970145F24040
:1041C0006244D2444249B249224A924A05618280FD
:1041D00097070020938707C99C439DE3970700201A
:1041E00023A2A7C885472326050004C5231135014E
:1041F00023008500A300F5002322050059BFBA87DC
:10420000D84775FFC8C7F9BF59C9797122D426D2DA
:104210004AD04ECE52CC56CA5EC662C466C206D6DC
:104220005AC83689328AAE89AA844144314C970AE9
:104230000020938A2AC7854C930B0003330B840319
:1042400003A70A005A971C43B1E79375F400B3958E
:10425000BC0013554440C2055286C1811375F50F49
:104260009D3D0DC983A70A000145DA9784C323A2A7
:1042700037016304090023008900B250225492548C
:104280000259F249624AD24A424BB24B224C924CFA
:10429000456182800504E31374FB2145F9BF09459C
:1042A0008280411122C426C24AC006C62A842E89B1
:1042B000B2841535CA852285EFF09FA305CD9705F9
:1042C000002083D525BFB38795022A841306006496
:1042D0008146B3B5950213850732B337F500BE9515
:1042E000EF20E24848C00145B240224492440249CE
:1042F000410182802145CDBF411122C426C24AC05E
:1043000006C62A892E84EFF0BF9EAA8419C1231104
:104310000500A2854A85BD319707002083C747AFB6
:10432000639B27019707002083D707B35D8C97070E
:104330000020239387B2014591E01945B240224401
:1043400092440249410182809307F00263E8A70486
:104350004111B14722C43304F50226C2970400205C
:10436000938444B49C4006C6A297984389470DC3E2
:104370009377F5008545B395F500C205C18111819C
:10438000A53F9C40A29723A0070023A207008147D6
:10439000B240224492443E854101828089473E8555
:1043A0008280411106C622C4EFF09F9411E50145B9
:1043B000B24022444101828097070020938707AAD8
:1043C0009C430045829797070020938727AE636838
:1043D000A402D843B74636FE938606C83305A440E8
:1043E0003697E376E5FC13070064B335E50203D6A0
:1043F000870081463305E502EF20623755BFD84379
:104400003A94C1BF411122C426C2170400201304EC
:10441000E4A9970400209384A49F944858409707E8
:1044200000209387A7A306C69C436393E608829760
:104430005440B74736FE938707C8B6973387A7001F
:104440003A856364F7006364D7003305D740970467
:104450000020938424BF9C4C81CF97070020938732
:1044600067C594433707CDFF7D179C46F98F9CC6DF
:1044700011E14840970700209387079FDC538297FC
:1044800019E59C4C8DC3EF40610BEF30E1609C4C13
:1044900099CB970700209387E7C19843B70633006D
:1044A0001C47D58F1CC7B2402244924441018280F0
:1044B000829798489707002083C7579C54401D8FC8
:1044C000B307A7003E8563E4E700E3E2D7F833854E
:1044D000D740B5BF411106C69707002023A6A79C69
:1044E0000295B2409707002023A0A79401454101FF
:1044F0008280994763E9B7008A0597070020938770
:10450000E793BE9588C182804111714681451705A8
:1045100000201305A59206C69707002023A4079440
:104520009707002023A207989707002023A8079247
:1045300097C0FF1FE780A04C130680028145170536
:1045400000201305E58C97C0FF1FE780404BEF90DC
:1045500091119707002083C7979213D527008D8B61
:104560003E958D473305F502854539051375F50FE1
:1045700097070020238FA78899473305F502130575
:10458000052497D0FF1FE780002C17070020232B5E
:10459000A79059CD99471706002003468687330612
:1045A000F60281451306062497C0FF1FE7802045C9
:1045B000970700209387078F9C439387072417074B
:1045C0000020232BF78617070020034787840A075C
:1045D000BA97170700202325F788EFF0CFF0052BB7
:1045E000970700209387478594439707002083C748
:1045F000378213972700369717F6FFFF1306C67109
:1046000010C3138717001377F70F0A07369717F6AB
:10461000FFFF1306C67810C313873700890793F787
:10462000F70F8A0797F5FF1FA384E57EB69790C31F
:10463000B2404101828097F7FF1F83C7777D17F74C
:10464000FF1F0347077D63F3E70217F7FF1F1307F9
:10465000A77E18439386170017F6FF1FA30AD67A82
:1046600093962700369708C33E8582809307F00F04
:10467000E5BF1C41638A071641777D8FB70600208E
:1046800089476314D7160357450063000716411185
:1046900022C419462A849305F00F690506C697C0FF
:1046A000FF1FE780E03F05478D47630AE5121C4482
:1046B00081CB5858994763040712185C63010712AD
:1046C0001306C003814517F5FF1F1305E57997C051
:1046D000FF1FE780C0321306C003A28517F5FF1F36
:1046E0001305857897C0FF1FE780E02D17F7FF1FA0
:1046F0000357477897F7FF1F9387077719E7130743
:10470000001097F6FF1F2397E67617F7FF1F034762
:10471000877611E7054797F6FF1F238EE67417F794
:10472000FF1F0357677511E76D4797F6FF1F239526
:10473000E67417F7FF1F0347177411E7154797F63D
:10474000FF1FA38AE67217F7FF1F0347077311E7DE
:10475000054797F6FF1F2382E67217F7FF1F0347EF
:10476000D77119E703C7F70097F6FF1FA387E67015
:1047700017F7FF1F0347877011E7354797F6FF1FAD
:10478000238EE66E17F7FF1F0347976F19E713078E
:10479000800297F6FF1FA385E66E17F7FF1F0347FA
:1047A000F76D19E71307D00297F6FF1FA388E66C91
:1047B0000347840119E71307C00397F6FF1F2381FE
:1047C000E66C9C5791C7829797F7FF1F2396A764C3
:1047D000FD5717070020A301F7943D338147B240EE
:1047E00022443E854101828089473E8582800111B5
:1047F0004EC697F9FF1F9389696B83A7090006CE00
:1048000022CC26CA4AC852C4829713090064B33521
:10481000250303DA89008146528633052503EF100C
:10482000127597F7FF1F9387A75E804FAA840145F3
:104830006306940233858440636E940003A54900A7
:1048400052868146B335A9023305A902EF103272B0
:10485000018D269597F7FF1F23A8975CF2406244CD
:10486000D2444249B249224A05618280011122CCD8
:104870000A852E84414697450200938525B206CECF
:10488000EF20826A180806043A94035504FF97F74C
:10489000FF1F83D74762F2406244AA9737450F0053
:1048A000130505243355F5020561828097F7FF1F34
:1048B00083D7676051471D45637CF70279471945E7
:1048C0006378F7021307200315456373F702130794
:1048D000B0041145637EF700130740060D45637968
:1048E000F7001307600909456374F70013B5B70FA4
:1048F0008280011122CC06CE2A842EC6EFF0EFD1A1
:10490000B245F240818D33A5A5022295624413750C
:10491000F50F05618280011122CC06CE2A842EC6B5
:10492000EFF0AFCFB245F240818D33A5A5022295BD
:1049300062444205418105618280011122CC06CE8C
:104940002A842EC6EFF06FCDB245F240818D33B58B
:10495000A502229562440561828097F7FF1F938725
:10496000A750985739CB411122C426C206C6BE842F
:10497000029717F7FF1F0357274A2A8415CBBA87D8
:104980006373A700AA87C207C183BA866373E40072
:10499000A286C206C182958F5147635BF700DC5443
:1049A00091C38297EF30112397F7FF1F2396874615
:1049B000B2402244924441018280828097F7FF1FD7
:1049C0009387874ADC57011106CEAA8581C72AC67C
:1049D0008297B245C1C59C410545B5CFDC41A5CF05
:1049E00083D78500ADCB83D7A500B5C783C7C500E6
:1049F000BDE3414617F5FF1F1305454B97C0FF1F49
:104A0000E78060FC97F7FF1F9387474A9C4317F79F
:104A1000FF1F2325F74497F7FF1F83C777468DE7CE
:104A20009307800217F5FF1F0355C5483305F502AC
:104A300037460F001306062481468145EF10325396
:104A400097F7FF1FA38EA74217050000130565DA2D
:104A5000EFF05FA80145F2400561828097F7FF1FE4
:104A600083C7E7411397870161876354070497F76A
:104A7000FF1F23AD073A97C7FF1F9387C73717F765
:104A8000FF1F2325F7427D5797F7FF1F23A2E74219
:104A9000B7873200938727A197F6FF1F23ACF64014
:104AA00097F7FF1F238A0740B7C7004023A4E726D4
:104AB00091BF13F7170005CFB7872003938707D05F
:104AC00017F7FF1F2328F73EB707C0A817F7FF1FE8
:104AD0002320F73E97C7FF1F9387073517F7FF1F60
:104AE0002326F73C97F7FF1F2388073C21BF6177F8
:104AF00097F6FF1F2390E63C81CB9307003217F710
:104B0000FF1F231AF73AC9B793072003CDBF01113E
:104B100022CC17F4FF1F13042435084406CE26CAFE
:104B20004AC801E90545F2406244D2444249056160
:104B300082805C58E5DB185C75D7700085458297EC
:104B40001844B247E300F7FE9305E00417F5FF1F92
:104B50000355453297D0FF1FE780E0CE17F7FF1FC0
:104B60002328A72C61D117F6FF1F0356A630930503
:104B7000F00F97C0FF1FE78080E8814417F9FF1FFF
:104B80001309092997F7FF1F83C7E72E0326090298
:104B900063C1F402328597D0FF1FE780E0D701455B
:104BA00097F7FF1F23A6072897F7FF1F23A40728BF
:104BB0009DBF97F5FF1F83D5E52BB387950208446A
:104BC000185C898185043E9508C2029765BF011172
:104BD00056C297FAFF1F938A2A2983A78A0022CCFC
:104BE0004AC84EC606CE26CA52C45AC0AA892E84C6
:104BF00032896385072203A74A03630707147D47A9
:104C00006366A71497F4FF1F9384842003AA040209
:104C100063170A0A9565938515E017F5FF1F03557D
:104C2000652597D0FF1FE78000C297F7FF1F23A1DC
:104C3000A7202A86630A051083A74A0303A58A00D2
:104C400097F5FF1F83D505238981829783A78A0063
:104C500003AA040217F7FF1F232EF71C8947639C42
:104C6000F908C1476312F40E97F5FF1F83D585201D
:104C7000938505FC9147B3C5F5028A05D29503C714
:104C800005009307A005631DF70A83C71500639904
:104C9000370B4A852286910597C0FF1FE780A0D277
:104CA0009C505285639347150145F2406244D244BB
:104CB0004249B249224A924A024B05618280D85049
:104CC000E38EE7F89565938525E017F5FF1F0355FB
:104CD000651A97D0FF1FE78000B72A8A35C52A8654
:104CE00083A74A0303A58A0097F5FF1F83D585187C
:104CF00089818297A5B78D47639DF900C1476315E8
:104D0000F40497F5FF1F83D5E516938545FDF199CA
:104D1000B5B79147639AF9006318340397F5FF1FFD
:104D200083D54515A115E5B7C147639FF900A14794
:104D300063EC870097F5FF1F83D5C513C115C1BF6D
:104D40009C5052856397470D294585B71307F00698
:104D5000568B6361A70A130A05FE1947334AEA0214
:104D600017F7FF1F0357071197FAFF1F938A4A0A85
:104D7000330AEA023E9A83A74A026395470183A455
:104D80000A029DE49305E00417F5FF1F0355850E05
:104D900097D0FF1FE78020ABAA845DD583274B0304
:104DA00097F5FF1F83D5050D2A8689815285829745
:104DB00091451307A005898193972500A69783C67F
:104DC00007006393E60483C61700639C36038505DA
:104DD0008A052286A6954A8597C0FF1FE780A0BE58
:104DE00083A70A02E38297EC268597D0FF1FE7800E
:104DF000A0B25DBD1307E007E368A7F4130A05F945
:104E000085B783D5270045BF83A70A02E38E97F2B3
:104E1000268597D0FF1FE78020B03DB797F7FF1F8B
:104E2000938707FF8C538DD191479306A005898303
:104E3000139727002E9703460700E317D6F0034683
:104E40001700631C360185078A072286BE954A85AE
:104E500097C0FF1FE78020B781BD83572700C1BFE0
:104E600097F7FF1F93874700984739C79C5FA9C7EB
:104E700005476313E504411122C417F4FF1F13040F
:104E800024F9105006C60DC6485097F5FF1F83D56C
:104E900065FE89818297085097D0FF1FE780C0A7E1
:104EA00097F7FF1F23A607F897F7FF1F23A407F81C
:104EB000B2402244410182808280011117F7FF1F16
:104EC000130787FA4EC68329870022CC26CA4AC810
:104ED00006CE52C456C2AA842E843289638A09201F
:104EE0001C5FBA8A99EB2945F2406244D244424998
:104EF000B249224A924A056182805C5BEDD7FD4748
:104F000063E9A70E97F9FF1F938989F083A7090228
:104F1000B1CB03A58A0083A749026395A7068947F9
:104F20006393F408C147E310F4FC17F5FF1F035522
:104F300065F49147130505FC3345F50293172500E9
:104F400003A509022286CA853E959307A005230082
:104F5000F500A3009500110597C0FF1FE780A0A6EC
:104F6000014559B79305E00417F5FF1F035585F078
:104F700097D0FF1FE780208D97F7FF1F23AAA7EA8E
:104F800049F995B783A74A0303A6090297F5FF1FBE
:104F900083D545EE8981829783A78A0017F7FF1F83
:104FA000232AF7E8ADBF8D47639EF400C147E31C99
:104FB000F4F217F5FF1F0355E5EB130545FD937755
:104FC000C5FFBDBF9147639AF400E31E94F017F547
:104FD000FF1F035525EA2115DDB7C147E395F4F01E
:104FE000A147E3E287F017F5FF1F0355A5E8411538
:104FF000F9B79307F00663EAA706930705FE19477A
:10500000B3C7E70217F7FF1F0357C7E617FAFF1FDB
:10501000130A0AE0B387E702BE9983270A02A9CFE1
:1050200083274A02639A370703250A029146130829
:10503000A005FD5593D72600C207C183139727000B
:105040002A9703460700631D060783481700035687
:10505000270063959806B306D64063CF860485077C
:105060008A072286CA853E95C5BD9307E007E3EC13
:10507000A7E6930705F979B79305E00417F5FF1F35
:10508000035545DF97C0FF1FE780E07B97F7FF1FC1
:1050900023A0A7DA51F581BD83A74A0303260A029C
:1050A00097F5FF1F83D505DD89814E85829797F798
:1050B000FF1F23A137D98DBFA300B700B2869DBFC4
:1050C000B385860017F6FF1F0356C6DA910513064F
:1050D00006FCE3FAC5E0130634001376C60F11068A
:1050E000B29623000701A30097002311D70085BFC4
:1050F00097F7FF1F9387C7D19453BE89A1C203A519
:10510000090291461308A005FD5593D72600C20752
:10511000C183139727002A970346070063160605E5
:10512000834817000356270063989800B306D640BB
:10513000E3D786F2A300B700B286C1BF8357C7008A
:1051400017F5FF1F034525D39305E0043305F5024A
:105150004205418197C0FF1FE780E06E97F7FF1F70
:1051600023A8A7CC49FD41B317F6FF1F035686D0ED
:1051700097F5FF1F83C525D0B385C502338686000A
:105180001106E3E2C5D681BF01458280011106CE3A
:105190002EC6EF80B03601C9B245F2400355250056
:1051A00005616FC09074F240494505618280A3801B
:1051B000018C2380018C23A4018A23A6018A23A8C1
:1051C000018A23AA018A23A2018A23A0018A97F7D0
:1051D000FF1F9387A7D0930640382391D702F1761B
:1051E0001307400B938606B82391E7002392D7025A
:1051F00011679D46130600059305000A1305007DFF
:105200002392E7002393D70241478546130810F8FD
:105210002395E7002396E7002399E700239AE70008
:10522000239BE700239CE7002394E70223900700D9
:105230002393B7002394B7002397C7002398C70090
:10524000239DA700239E0700239F070023900702AA
:105250002395D70223960703239707029308F007A5
:10526000239807022392E7042393E704239FE7048C
:105270002390E7062391E7062392E7062399170375
:105280001307C01C239AD702239BD702239C070233
:10529000239D0702239E0702239F070223900704F2
:1052A0002391D70423940704239507042396D70456
:1052B0002397C7042398C7042399A704239A0704B4
:1052C000239B0704239C0704239DC704239EC70434
:1052D0002393A7062394070623950706239607061C
:1052E0002397B7062398B70623990706239AE7065C
:1052F0005147239DE7067D57239B0706239C0706FE
:10530000239ED706239F07062390070823910708AB
:10531000239207092393E7088280011126CAAA84F1
:10532000214522CC06CE2E8432C636C43AC2EFE0E6
:105330003F8A1DC9A24612473246930700FD23004B
:10534000F5009947A30095002301F5002303D5003C
:10535000A303E5002312C500AA8522856244F2401A
:10536000D24405616FE03F92F2406244D24405614D
:10537000828023A4A18A828023A6A18A828023A876
:10538000A18A828023AAA18A8280011122CC4AC8E4
:1053900006CE26CA2A890144B30489006368B40092
:1053A000F2406244D2444249056182802EC6EFE059
:1053B000DFA693170501C183A183B2452380F400C2
:1053C0009307140093F7F70F850463F9B700CA97A2
:1053D00009042380A7001374F40F7DBF3E847DBFB2
:1053E000C16717F5FF1F0355C5ADFD176304F5022F
:1053F000411117F6FF1F034666C29385818B06C6CF
:10540000EF80C06DB240FD5717F7FF1F231BF7AAAF
:1054100041018280828009C925151375F50F133566
:10542000850E13451500828001458280239005007A
:10543000C9C6797122D426D24ECE52CC5AC806D6CD
:105440004AD056CA5EC63684328AAE892A8B8144D7
:1054500063F34407B307940083C70700138914005C
:105460004209939A070193DA0A01135909016384E7
:105470000A04CA976341FA04B307240183CB0700E7
:105480005E85513F0DC99387FAFF2390F900639021
:105490006B03130519002295B250225492540259FD
:1054A000F249624AD24A424BB24B45618280D6945D
:1054B000C204C18071BF0145C5B701458280411159
:1054C00026C2AE8422C497F7FF1F23A3C7A097F775
:1054D000FF1F23ADB79E97F7FF1F23A7A79E2A8420
:1054E00041469305F00F26854AC006C6054997B088
:1054F000FF1FE780E05A6310250597F7FF1F93878A
:10550000E79B884BC145513541469305F00F2285F5
:1055100097B0FF1FE780C058854463189502224466
:1055200097F7FF1F93878799B24092440249C84773
:10553000C145410199BD41468145268597B0FF1F70
:10554000E7800056E31225FD4DBF41468145228587
:1055500097B0FF1FE780C054E30395FCB24022449C
:105560009244024941018280411122C426C22E8404
:10557000AA8413060002814517F5FF1F1305059441
:1055800006C697B0FF1FE780804797F7FF1FA388E5
:10559000979297F7FF1F238587A8EFC0503785475D
:1055A00019C181474945B240224417F7FF1F23071D
:1055B000F790924441018280814781CD19C9854786
:1055C000631BF50083C7550093E707FCA382F50032
:1055D00085473E85828089476317F50083C755005C
:1055E00093F7F703E5B70D478547E314E5FE03C7D7
:1055F00055001377F70313670704A382E500D1BFB3
:1056000081478DC105C103C755009306000C85472E
:105610001377070C6308D700930600048D476303D4
:10562000D70089473E858280411122C4005D06C6AD
:1056300026C21DC8AA84085009C597C0FF1FE7806D
:10564000A02D485009C597C0FF1FE780E02C0854E3
:1056500009C597C0FF1FE780202C228597C0FF1F38
:10566000E780802B23AC0402B240224492444101E3
:10567000828009ED97F7FF1F83C7678417F5FF1F27
:105680001305458581CB13858189828017F5FF1F1E
:1056900013054584828017F5FF1F034545828280EC
:1056A00097F7FF1F93878781C847828097F7FF1F6F
:1056B0009387C780884B828097F7FF1F9387078067
:1056C000DC4B8843828097E7FF1F9387277FD84B67
:1056D0001C4385071CC317E5FF1F0345557E930731
:1056E000F00F6305F50091656FE0FF868280011180
:1056F00022CC06CE2E8432C6EF8000719147B2458F
:10570000631FF5009387418B9C438DC303A3070060
:10571000630E030022856244F24005610283938791
:10572000C18A9C4381C703A34700DDB7F2406244AE
:10573000054505618280011122CC2A84035545006C
:1057400006CE26CA4AC84EC6EF80204A35C52A89E9
:10575000834405008349C500C13D4A85EF80F0259B
:1057600003554400EF80806583C7018CB1CB6399FA
:10577000970483C5118C2685EFF05FA119E1238082
:10578000018C03554400EF8020689147631FF500AA
:105790000357440097E7FF1F83D7A7726317F700EB
:1057A000FD5717E7FF1F231EF770F2406244D244F3
:1057B0004249B2490561828081499304F00F6DB777
:1057C0009307F00FE38FF4FA834664000356440016
:1057D000034524004E87A685EFF03FB45DB779718D
:1057E0005EC6AA8B2E8552CC56CA5AC806D622D47B
:1057F00026D24AD04ECEAE8A328B368AEF80E03E39
:105800007DC1045D2A89E5C09C50614599C313059B
:1058100040039C5481C751054205418163050A003C
:10582000710542054181DC5081C75D05420541811A
:10583000EFE00FBA2A8445C96146814597B0FF1F42
:10584000E780E01B97E9FF1F83C9496C6394090057
:1058500083490900930700FD2300F400A947A30032
:1058600074012301F400230364018C5023125401BA
:105870001305840191C908C47146930A440397B083
:10588000FF1FE780401456858C5491C948C4514687
:10589000930A450197B0FF1FE780E0125685630C1D
:1058A0000A0008C87146D285930AC50197B0FF1F48
:1058B000E78060115685CC5099C548C85D4697B0C1
:1058C000FF1FE7804010A2854E85EFE0CFBB22543A
:1058D000B2509254F249624AD24A424BB24B4A8584
:1058E0000259456191B3B250225492540259F2497F
:1058F000624AD24A424BB24B4561828001114EC688
:10590000AA892E854AC806CE22CC26CA2E89EF80C7
:10591000C02D21C997E4FF1F83C4445F99E08344ED
:1059200005001945EFE0CFAA2A8405CD8145194627
:1059300097B0FF1FE780A00C930700FD2300F40041
:10594000B947A30034012301F40023122401A285E6
:105950006244F2404249B2492685D24405616FE073
:105960008FB2F2406244D2444249B249056182801A
:1059700039715ECEAA8B2E8526DA4ED652D456D2F7
:105980005AD006DE22DC4AD8AE84328BB68A3A8AF6
:10599000BE8942C6EF80602521CD2A894145EFE0CE
:1059A0002FA32A8431C54146814597B0FF1FE78068
:1059B000000517E5FF1F0345655519E1034509007B
:1059C000930700FD2300F400BD472301F400B24714
:1059D000A30074012312940023046401A30454015E
:1059E00023054401A30534015CC4A285EFE0AFA9FF
:1059F000F2506254D2544259B259225A925A025B1E
:105A0000F24B21618280797126D2AA8439454AD02D
:105A10004ECE06D622D42EC6B2893689EFE04F9BF1
:105A200021C1B2459307000D2310F500B1472A8428
:105A30002312B5002301F500CE851905194697B04C
:105A4000FF1FE78040F823062401A2852254B250AC
:105A50000259F24913F5F40F925445616FE0AFA279
:105A6000B250225492540259F2494561828017E79C
:105A7000FF1F0347D7449307F00F630DF70641114B
:105A800026C2AA84394522C406C64AC0EFE04F9414
:105A90002A8439C9930700FD2300F500A30095006F
:105AA0002301050097E5FF1F9385C5420D051946A3
:105AB00097B0FF1FE78020F117E9FF1F1309094086
:105AC00083578900A28517E5FF1F0345553F23151E
:105AD000F400834719002306F4002244B2409244A4
