:040000006F20002944
:100004000000000000000000900000208A0400208E
:10001400A9BDF9F3900000200000000000000000DA
:10002400900000209000002000000000000000006C
:10003400900000200000000090000020000000005C
:100044009000002090000020D8460000900000207E
:1000540090000020900000209000002090000020DC
:100064009000002090000020900000209E050020B9
:100074007E050020900000209000002090000020C9
:1000840090000020900000209000002090000020AC
:1000940001A073270080218B9387018509CB7327E7
:1000A400008023A8E18498435D9B731007800F10A0
:1000B400000037170040930670052300D704930609
:1000C40080FA2300D7040F1000008346B70493F688
:1000D400F60DA305D7042300070473260080944378
:1000E400A18AD18E7390068023A801840F1000008A
:1000F40093760502638406180347A700118B25E74E
:1001040073270080218B09CB7327008023A8E18407
:1001140098435D9B731007800F1000003717004051
:10012400930670052300D704930680FA2300D704AE
:100134000F1000008346A70093E646002305D7006E
:1001440023000704F32600809843218B558F7310F6
:10015400078023A801840F1000001307004B01003F
:1001640001007D176DFF73270080218B09CB732756
:10017400008023A8E18498435D9B731007800F10CF
:10018400000037170040930670052300D704930638
:1001940080FA2300D7040F1000007D892314A700E0
:1001A400010001000100010023000704F326008080
:1001B4009843218B558F7310078023A801840F1057
:1001C400000073270080218B09CB7327008023A8AC
:1001D400E18498435D9B731007800F10000037176C
:1001E4000040930670052300D704930680FA230089
:1001F400D7040F1000000F100000B72600401306AC
:100204001005A383C68023000704F32600809843C7
:10021400218B558F7310078023A801840F100000D1
:1002240073270080218B09CB7327008023A8E184E6
:1002340098435D9B731007800F1000003717004030
:10024400930670052300D704930680FA2300D7048D
:100254000F1000008346B70493E60608A305D704ED
:1002640023000704732700809C43A18BD98F7390CC
:10027400078023A801840F10000082809376050470
:10028400638B06140347A700418B25E7732700807F
:10029400218B09CB7327008023A8E18498435D9BBD
:1002A400731007800F100000371700409306700585
:1002B4002300D704930680FA2300D7040F1000000C
:1002C4008346A70093E606012305D700230007040D
:1002D400F32600809843218B558F7310078023A841
:1002E40001840F1000001307007D010001007D1739
:1002F4006DFF73270080218B09CB7327008023A80F
:10030400E18498435D9B731007800F10000037173A
:100314000040930670052300D704930680FA230057
:10032400D7040F1000009376F50193E60604231416
:10033400D700010001000100010023000704F32697
:1003440000809843218B558F7310078023A8018464
:100354000F100000130760046310E5047327008086
:10036400218B09CB7327008023A8E18498435D9BEC
:10037400731007800F1000003717004093067005B4
:100384002300D704930680FA2300D7040F1000003B
:10039400B72600400946B5B573270080218B09CBE9
:1003A4007327008023A8E18498435D9B7310078022
:1003B4000F10000037170040930670052300D70480
:1003C400930680FA2300D7040F100000B7260040DC
:1003D400130620053DB573270080218B09CB7327B5
:1003E400008023A8E18498435D9B731007800F105D
:1003F400000037170040930670052300D7049306C6
:1004040080FA2300D7040F1000008356870093E678
:10041400060C2314D700C5BB411181460146814512
:10042400114506C62121F3270080A18B93860185FF
:1004340089CBF327008023A8F1849C42DD9B739031
:1004440007800F100000B7170040130770052380C2
:10045400E704130780FA2380E7040F10000003C7A2
:100464006704136717002383E704238007047327B3
:1004740000809C42A18BD98F7390078023A80184AC
:100484000F100000B240410182808146014681453F
:100494001145692EF3270080A18B1387018589CB31
:1004A400F327008023A8F1841C43DD9B739007800D
:1004B4000F100000B7170040930670052380D7047F
:1004C400930680FA2380D7040F100000FD5623966C
:1004D400D70223800704F32600801C43A18BD58F09
:1004E4007390078023A801840F100000F327008075
:1004F400A18B89CBF327008023A8F1841C43DD9BC7
:10050400739007800F100000B71700409306700522
:100514002380D704930680FA2380D7040F100000A9
:1005240083C6670493E616002383D7042380070455
:10053400F32600801C43A18BD58F7390078023A8DA
:1005440001840F10000001A0BD473305F50201002E
:100554007D1575FD8280411122C426C206C6AA8477
:10056400014463179400B2402244924441018280C2
:1005740005041305803E4204C13F4180DDB7B7172F
:100584000040130700032388E702854723ACF18466
:1005940073002030411106C6EF00F002F5BF373773
:1005A4000040834747409946BD8B638FD71431473A
:1005B4006385E7001147639BE71A011122CE26CC1D
:1005C4004ACA4EC852C656C4373400409749000040
:1005D400938949A19304100317AA02E0130A0A801D
:1005E4001309200397AA02E0938A4A8081470347AC
:1005F400A44063EFE7109747000083C7A79E639B5F
:1006040097005285977002E0E7800034974000E03D
:10061400E78040F59747000083C7C79C639B270189
:100624005685977002E0E7802032974000E0E7802B
:1006340040F9174700000347E79A93073003631E06
:10064400F700179502E01305657B977002E0E780D9
:10065400A02F974000E0E780A0FC17470000034765
:10066400679893074003631EF700179502E013058C
:10067400257A977002E0E780202D974000E0E7801C
:100684000000174700000347E79593075003631ED4
:10069400F700179502E013052579977002E0E780CB
:1006A400A02A974000E0E780C0AC1747000003474A
:1006B4006793930780036319F700854503C5C180D9
:1006C400974000E0E78020609747000083C7879148
:1006D400130790036398E704B71700409306700567
:1006E4002380D704130780FA2380E7040946238371
:1006F400C7042380D7042380E70403C76704136770
:1007040017002383E70401A0834757407300203078
:10071400834684403387F90085072300D70093F785
:10072400F70FF1B51307A0036393E702179502E0EF
:1007340013058570977002E0E78000212946930530
:10074400004003C5D186974000E0E780A06E834750
:10075400A44093F7F70FE39B07E87244E24452493D
:10076400C249324AA24A0561730020307300203026
:100774002303048015472303E48001002302A4809B
:10078400828083076480E3CE07FE23030480828093
:1007940083076480E3CE07FE034544808280830799
:1007A4006480E3CE07FE2302A4808280411126C424
:1007B4004AC24EC006C61377F50BAD47AA892E89E7
:1007C40095446306F70019456537653F8D444E85AA
:1007D4004537FD59FD1463983401B240A2441249CF
:1007E400824941018280135509011375F50F453F74
:1007F4002209CDB7011126CC06CEB7040800513723
:100804001545BD37713769372AC6A53F32459377F9
:10081400150089EB136515001375F50FF240E244DA
:1008240005618280FD14E9FC0145CDBF397126DCE8
:100834004ADA4ED852D656D45AD25ED006DE62CEAA
:1008440066CCB7E700E07D5783AA070022C603AA57
:10085400470023A0E71823A2E718B717004013079F
:1008640070052380E704130780FA2380E70483C715
:100874004704930B75FFB684E20793FBFB0F854691
:10088400AA892E8B328937240040E187015763FA05
:1008940076016308D5008946130700026313D50067
:1008A4000157D98F93F7F70FB71C00402382FC043C
:1008B40011472303E4801305F00F5D3D094CD13546
:1008C400636D7C11B7050700DA9537870700795502
:1008D40063F2E504B3879500636EF702370B0800F3
:1008E400A94733EB65016399F90689E48144513DD5
:1008F40026850DA0DA850945553D05090345F9FF0F
:10090400FD14050B693D81C49377FB0FFDF7DD35BD
:1009140069FD7D55B7170040130770052380E70470
:10092400130780FA2380E70403C74704418B23821B
:10093400E704F250B7E700E023A0571123A24711C0
:10094400E25432445259C259325AA25A125B825B5F
:10095400724CE24C21618280A5476395F906856952
:100964001309F00FB3069900B3742B01B69413491D
:10097400F9FFB3749900856B33796901416B9387EF
:10098400F9FFB3F7270199E363FC340193D94900D4
:10099400C147E3E637FF99BF0569C1697D19D9B736
:1009A4001305800D638869011305000263847901CE
:1009B40013051008CA85DD3B353D21DD4E99B3840E
:1009C4003441D9B7DA852D45D533CA94E30099F279
:1009D40005097D3BA30FA9FED5BF9387F9FF93F7C4
:1009E400F70F6361FC0C83C71C0413073008631FF3
:1009F400F70437070800636BEB04B3079B00B706E3
:100A0400100063F5D704334BEB0089476393F90671
:100A14008980D549E38C04ECDA850945413B110909
:100A24000327C9FF91472320E48003076480E34E32
:100A340007FE23033481FD17EDFBFD14110B81C464
:100A44009377FB0FE9FF7D3371F5E1B5B7170040EC
:100A540003C75704B70708001377070219E3B787DA
:100A640007007955E378FBEA33079B00E3FFE7F8D7
:100A740055B58547E382F9F2DA852D45053B93891F
:100A8400F4FFE38504E6293393F7390091EB8326D9
:100A940004800327090093074900E39AE6E43E89AA
:100AA400CE84F1BFB5476396F9001305900BC931A5
:100AB40035BDB1471305B00AE38BF9FE994763913D
:100AC400F904B7050800B365BB002D45C531814461
:100AD4008D4BA149753963967401832704802320C3
:100AE400F9008504E39834FF8327048013172B014E
:100AF400635507002312F900D5BB2322F900FDB387
:100B04009D476399F90281451305B0044531BD44FD
:100B14002320090023220900FD599D3993F774000D
:100B2400CA9703C70700FD14398D2380A700E396F5
:100B340034FF6DBBA1476392F9046D398144630DA1
:100B44000B008D479304C0036308FB009304000566
:100B540063048B01930440041375C507E30895D817
:100B64001945393139390545213126850D3909456C
:100B74003D314931E31C05D669BB91476399F900BE
:100B840013056006F536F53E130590090DB7E38F9E
:100B940009D4F154A9BB19CD91CD09CE814733872E
:100BA400F500834607003307F50085072300D700C7
:100BB400E317F6FE828019C991C909CA910583A772
:100BC400C5FF11057D16232EF5FEC5BF828001C920
:100BD40019C62A960505A30FB5FEE31DA6FE82805D
:100BE40081473307F5000307070019E33E85828038
:100BF4008507C5BF01112E8626CAAA8413150601CE
:100C04009305F004418122CC06CE32C6EF00F05B9E
:100C14002A8401C53246A685BD3F2285F24062443E
:100C2400D24405618280854715C18DC105C28147C3
:100C3400B306F5003387F50083C6060003470700B3
:100C44006398E6008507E315F6FE85473E858280B6
:100C54008147EDBF9307F6FFBE952A966313C5003F
:100C64008280FD1583C715000505A30FF5FEFDB7AA
:100C7400AA87014581CF09CE3E96850703C7F7FFB2
:100C84006317B700E39BC7FE054582808280014558
:100C9400828079719387C18B22D4804306D626D271
:100CA4004AD04ECE52CC56CA5AC85EC65DCCB7C4E2
:100CB400C901014B9389418B9384F437173A00009F
:100CC400130A4A35973A0000938A8A381739000084
:100CD4001309493C8357240085E35C44631B0B00E0
:100CE40023AEF18A832BC4002285EF00705A5E8400
:100CF400B9A82326FB00FDB783A7090082971C44EB
:100D04003307F5406376F500032749001D8F2A97C2
:100D140063E0E4089737000023A4073483552400D4
:100D240003450400974000E0E780E0F95C40584444
:100D3400A1CB0C4403264900AE97BE8663E4B700FA
:100D440063E4C700B386C74014C4228B3A8459F0C5
:100D5400973700009387C72F9C4B09476370F706AA
:100D6400F91717370000232DF72EB250225492544E
:100D74000259F249624AD24A424BB24B45618280DF
:100D840063150B0023AEE18AB1BF2326EB0099BFA4
:100D940003274A0209CF63EFA7003385A74083A73F
:100DA4000A016376F5009737000023ABA72A228B4C
:100DB400404471BF03274900BA97C5B7973700006D
:100DC40023A0072A5DB7411122C41734000013047D
:100DD400A42A1C4006C626C24AC091C782979737E8
:100DE400000023AB07289737000083C7B742858BE1
:100DF400973400009384C44195C397370000A38BB4
:100E0400074083C774001547637AF700C12B83C773
:100E14007400F5178A07A2979C4382971C4491C3D8
:100E240082971389818A0327090017360000034635
:100E340036229737000083C7A72193961700BA96E6
:100E440083D60600C5CE9737000083C7672063E1C9
:100E5400C70C97370000238D071E1C4063950712AB
:100E64009737000083C7573B91CF83C7740093F72C
:100E7400F70F89EB97370000A380073A978001E0CA
:100E8400E78020B39387418B9C43638E070E97378B
:100E9400000093872720DC43173700002322F71C28
:100EA400CD3B973700009387E716DC53E9CF17371C
:100EB40000001307E719184B9737000083C7D716AC
:100EC4006363F70C83C774001547636EF70A97379B
:100ED400000083C76738918BDDE703260900973646
:100EE400000083C6F61663C6D70A2244B240924471
:100EF40002494101179302E06700037A850793F7DB
:100F0400F70F973600002385F614E3E4C7F225BFF4
:100F140086073E9783550700231007002398018A0C
:100F24009387018C9C431735000003456512131702
:100F34002500BA979C43829783D7018B173700000B
:100F44000347071193C7F7FF7D8D931717000327F6
:100F540009003E97835707005D8D2310A70097373C
:100F6400000083C7E70E91C78507173700002301E8
:100F7400F70E173700000347A70D9737000083C704
:100F8400370DE378F7ECB240224492440249410120
:100F94008280139717003297035707006DF7850770
:100FA40099B7AD6737C70040BD072326F7200F1058
:100FB4000000973700009387A709C84F8327872627
:100FC400BD66BD0693C7F7FF99836A052326D7201C
:100FD4005D8D82804111B7170040985F3AC6945FD7
:100FE4003247E39CE6FE3245410182801305F00F4F
:100FF4008280011122CC604126CA4AC84EC652C41E
:1010040006CEAA841D4A130965058549BC44636458
:10101400F4000545B9A003C7D40083474400631A0C
:10102400470503C784026304F7000040C5B70347BC
:10103400540083C75405E31AF7FE1946CA851305FD
:101044006400D536E31335FF0347C40083C7940215
:10105400E31DF7FC0357E40083D7A402E317F7FC6E
:101064000145F2406244D2444249B249224A0561F0
:101074008280E31CF7FA0347540083C75405E31640
:10108400F7FA1946CA8513056400713EE31F35F962
:10109400C1BF0111973700009387C72322CC03A453
:1010A400070C26CA06CE2AC42EC6854419E4014577
:1010B400F2406244D2440561828083479100034731
:1010C4001400858B6304F7000044CDB719469305DB
:1010D400A10013052400813EE31895FE0545C9BF10
:1010E400138741981C439306001094C30100010028
:1010F400010001001C4323A0070083461500034898
:101104002500A2064208C29603480500C296034879
:1011140035006208C29694D783465500034865009B
:10112400A2064208C29603484500C29603487500C9
:101134006208C296D4D7834695000348A500A20648
:101144004208C29603488500C2960348B500620867
:10115400C29694DB8346D5000348E500A206420804
:10116400C2960348C5000345F500C2966205AA96D7
:10117400D4DB83C6150003C52500A2064205AA9642
:1011840003C50500AA9603C535006205AA9694CF47
:1011940083C6550003C56500A2064205AA9603C589
:1011A4004500AA9603C575006205AA96D4CF83C6E6
:1011B400950003C5A500A2064205AA9603C58500AD
:1011C400AA9603C5B5006205AA9694D383C6D50032
:1011D40003C5E500A2064205AA9603C5C50083C55A
:1011E400F500AA96E205AE96D4D3D443F59AD4C3B7
:1011F400D44393E61600D4C3944393E6160094C3F1
:10120400BA879443D842058B59E3984E014523008D
:10121400E6009843184F2183A300E6009843184F33
:1012240041832301E6009843184F6183A301E6003C
:101234009C43D84F2302E600D84F2183A302E60043
:10124400D84F41832303E600D84F6183A303E6000C
:1012540098532304E60098532183A304E60098538B
:1012640041832305E60098536183A305E600D85320
:101274002306E600D8532183A306E600D85341830E
:101284002307E600DC53E183A307F6008280010014
:101294008DBF138781981443411122C49C5E4AC0B8
:1012A40006C6998326C2858B3A8413894198D1C78F
:1012B4009C5E973400009384A4F593F7F7F99CDEC1
:1012C40017370000034727F593070008631BF7004F
:1012D400832709009C4393F7070417370000230C66
:1012E400F7F283C7040093F707048DC39387418BF8
:1012F4009C4382979737000023A4A7F283C7040076
:1013040093F7F70B173700002304F7F083C7440063
:1013140093F707049DE3854717370000A30CF7EE06
:10132400938741999C43096798C7130700FC973634
:1013340000002381E6EED844F8D31C40985F118363
:10134400058B09CB985F3D9B98DF054797360000D6
:101354002382E6EC985F1D83058B11CB985F13778E
:10136400F7F798DF8547173700002305F7EA832747
:101374000900D8430583058B19C7D843759BD8C387
:10138400D843799BD8C3B2402244924402494101D4
:101394008280397106DE16DC1ADA1ED82AD62ED4DB
:1013A40032D236D03ACE3ECC42CA46C872C676C491
:1013B4007AC27EC0F93DF250E2525253C2533255C2
:1013C400A255125682567247E2475248C248324EDC
:1013D400A24E124F824F21617300203093874199AE
:1013E4009443973700009387A7E203C70700058B50
:1013F40011CB97370000238F07E097370000A38BAA
:1014040007E0828003C71700058B65F7F85271FF68
:1014140083C75700DDB713888198032708001C5F32
:101424009583858BD1E709C61C5BBD832300F60039
:1014340085CA83270800985B46079357670163565C
:10144400070093E707C0C207C18303970600C207DA
:10145400C18709C7BA970947B3C7E7022390F600C3
:1014640085CD834715008DCB9736000083C6A6DA59
:1014740093F606041387970089478DCA3A95034764
:101484000500854699471376F7066311D60262076D
:101494006187B947634C0700832708009C5FED838D
:1014A4008D8B17370000A30AF7D681473E858280CB
:1014B4008547EDBF411122C406C6138441991840E3
:1014C4002DE9AE877453FDFE3E85B2859737000043
:1014D400238107D4977001E0E780E0229387819805
:1014E4009C43B70680009843558F98C3D857719B87
:1014F400D8D797370000A38F07D097370000A38968
:1015040007D01C40094798C314401737000013073D
:1015140027D083472700858B89EB83473700858B4A
:10152400D9C397370000238707CEB2402244410134
:1015340082808D47631EF500938781989C43B7068C
:1015440080009843558F98C3D857719BD8D76DBFE7
:101554008547E31BF5FA5447F977FD17F58F5CC708
:101564000F1000001C40096798C7130700F81736CE
:1015740000002301E6CA138781981043184231837F
:101584000D8B11E713076019F8D3D4C7B5BF184200
:10159400094631830D8B6315C7001307E043EDB78C
:1015A4001307E01BD5B7FC52ADF741B75D71A2C478
:1015B400A6C22A84130680022800AE84930510086C
:1015C40086C6CAC04EDE52DCEFF06FE03545977038
:1015D40001E0E780A04F138381988327030093766B
:1015E400F41F138EC19923A40700984B938E41993D
:1015F400370FFCFF1367F70398CBF84F130510F868
:10160400B7020400137707E0558FF8CF9843F576B7
:10161400FD16758F98C39843B7063300930380254E
:101624001377F7E798C3984311497D1F1377F7E7BA
:101634001367071098C303270E008549930F800290
:101644001C47D58F1CC783A70E001307900D3400C9
:10165400B8CB014793553700A69583C70500137689
:101664007700B3D7C740858BE1C383270300832862
:101674000E00239C07042390070603A8C8021378CE
:10168400D8FF23A6080383A807001378F70793F865
:1016940008F833E8080123A0070103A847023368C8
:1016A400580023A2070383A80E00014823A278064A
:1016B40003DA07066307480303A80703038A06003F
:1016C4001358F80062081358884163580A0103A8A4
:1016D40007031358F8002380060103D8070613787C
:1016E400F80F03AA480663060A0003DA8705E37FB6
:1016F40049FB03A847023378E80123A20703838741
:101704000600635CF40003C805003396C900134661
:10171400F6FF337606012380C5003E8663D3A70017
:101724002A8613158601618505071377F70F850649
:10173400E312F7F3B640264496440649F259625A36
:1017440061618280938641999C42D84713161701A0
:1017540063550602984713161701635006027D5716
:10176400B8D7173700001307A78E584F0507173649
:101774000000232DE68E116798C798470D83058BCB
:101784001DCB173700000347C7A813671700173688
:1017940000002300E6A8130700F817360000230B07
:1017A400E6A6214798C71387819810435856719B22
:1017B4001367170058D69847058B0DC717370000D5
:1017C400034717A51367170017360000A302E6A402
:1017D400054798C71387819810435856719B136720
:1017E400170058D698470983058B09E7984705835E
:1017F400058B21CF984717360000130666A1138581
:1018040081980983058B63030710184118433183BA
:101814000D8B75EBAC4B184E93F50502034717007F
:10182400CDCD79EF13077006D8CF034706001367B1
:10183400170017360000230DE69C114798C718417E
:101844005C57F19B93E717005CD79C42984793162B
:10185400370163D606029736000083C626AFC18AD5
:1018640017370000130707A7C5CE03478707136779
:10187400070297360000238BE6AC056798C79847A4
:101884009316270163D10602173700000347879890
:101894006207618763570700054797360000238B6B
:1018A400E696096798C798479316070163D6060218
:1018B4009736000083C696A9858A17370000130758
:1018C40067A1ADCE0347970713672700973600003B
:1018D400A38EE6A6216798C7828029D7854563151C
:1018E400B7001307B00689B789456315B700130716
:1018F400F0061DBF8D456315B700130730072DB7DC
:101904001307500715B71307600739BF034736009D
:101914001367170017360000A30DE68E094739BF79
:10192400834687070946BD8A6388C600034787073D
:101934008D463D8BE313D7F4114725BF83469707A4
:10194400918AC9DA034797071367870041B739714A
:1019540006DE16DC1ADA1ED82AD62ED432D236D0B7
:101964003ACE3ECC42CA46C872C676C47AC27EC05B
:10197400D13BF250E2525253C2533255A255125641
:1019840082567247E2475248C248324EA24E124F24
:10199400824F216173002030938741999843856772
:1019A400938707777CD39387C1999C4383A60709C0
:1019B400139656006358060083A60709139666001B
:1019C400634406007453FDF2828061C1AA87014515
:1019D400DDCD8D07C207C183F19BC207C183130705
:1019E4004003636BF702138781A20843138701A2A4
:1019F40014436396A602172700001307A761185B18
:101A0400014551C74111C20706C60545DD8D029740
:101A1400B240014541018280138741A2F9B70357BF
:101A2400650035E303574500636FF704B306F740D9
:101A34002146637CD60203280500938687001D8F08
:101A4400AA966117172600000356E6602392E60063
:101A540023A006012393060014C12312F5001307E3
:101A640086FF972600002398E65E2313B50097258A
:101A7400000083D5455EB387F54017270000231C7B
:101A8400F75C210582800841ADB7014582808280E0
:101A940009CD938781A203A30700938701A283A89A
:101AA400070081469A8763E31701828003A8070031
:101AB4006369F50A6367A80A13878700E367E5FE8D
:101AC40003D66700216705076317E60003C741953E
:101AD4000507238AE194972500009385655703D66B
:101AE400470003D7650023930700329742074183D9
:101AF400172500002311E55663886702138541A268
:101B040008416303F50203D5660019ED83D7460047
:101B140023A0060121073E9621062392C60097279B
:101B24000000239AE752B6879843E30017F9938697
:101B340041A29442E30BD7F683566700BDF683D6E1
:101B44004700035647001843A106B2962392D700D4
:101B540098C383D76500A10717270000231DF74EFC
:101B64008280BE86C28781B703278511630207126C
:101B7400411122C406C68347C5008345E5042A846F
:101B840093F7C70F2306F500834697000356C70053
:101B940013958601618563F2C508635B05060345F9
:101BA400870093F6F607A304D700054693E62700BB
:101BB4006314C50093E617002306D4005C43890729
:101BC4005CC3A30AB400032504112E864C43090503
:101BD400EFE07FFC8327841103465401D44303D7E9
:101BE400C700B296118FD4C32396E7008947A30D8B
:101BF400F400034764039727000083C7C742637850
:101C0400F7048347C40093E707012306F40081A087
:101C140093E717002306F4006DB79376F60F635D20
:101C2400050203458700854513E627006314B500C4
:101C340013E617002306C400A30AD400A304070074
:101C44008547A30DF400832784119C43DDF3B24040
:101C5400224401454101828093E717002306F400E2
:101C6400A30AD400A3040700032504114C43090567
:101C7400EFE07FF28327841103465401D44303D752
:101C8400C700B296118FD4C32396E7008D4755BF82
:101C940005458280938701A49C43411122C406C652
:101CA400858B2A84C5EF4165130525F5972002E04D
:101CB400E780803045C58347A5002315F5008327B9
:101CC4000412BDE72320A4122322A4128547231162
:101CD400F404232005008347640154412316F500CE
:101CE4000347D4002304E5000547A304E5001727B0
:101CF40000001307E751184F1385170215811C4381
:101D04007D151375F50F9CC25C43DCC21C479CC651
:101D14005C47DCC61C4B9CCA5C4BDCCA1C4F9CCE8B
:101D24005C4FDCCE19CD9386060213070702C1BFB0
:101D34008327441288C3835724042322A4128507CB
:101D440079B79727000083D76759850717270000BD
:101D54002316F758B2402244410182808347C400CD
:101D640023090400054593C747002306F400DDB7A3
:101D74008347850193F7E70FC5EF83479501CDEBC3
:101D8400034625018346C50009CA83456503172711
:101D940000000347572963E7E50013F7060151CB19
:101DA400014709C6C18A0357651C81C68356A51C11
:101DB400369741C31307C712172500000355052E94
:101DC400B335A70237460F00411113060624814696
:101DD40022C426C206C67D543305A702975002E0EA
:101DE400E780401B9727000083C75724B384A700CC
:101DF400972700009387074E03A7870983270709BE
:101E040063F387003E84184375FB9387418B9C439F
:101E1400829781476364A400B307A440B24022447C
:101E2400B3B7970093C7170092443E85410182805F
:101E340081473E8582809387419998437C53FDFF77
:101E44008280797126D206D622D44AD04ECE52CC84
:101E540056CA5AC85EC68347550303447513AA84F9
:101E64003E941374F40F9307400263F6870013043F
:101E7400B4FD1374F40F03AA841383AAC413A38BAD
:101E8400841222865285D685975002E0E780000BA3
:101E9400058915E503CBD41201498149337B6403D9
:101EA400930B50024A865285D685975002E0E7800C
:101EB400E008058915C5639169031374F90F238B31
:101EC4008412B250225492540259F249624AD24ABC
:101ED400424BB24B456182808509E20993D989411D
:101EE4000509E31179FDE1BF83278509035605043C
:101EF400797193D60701BD8EC206C182358E135700
:101F0400764093575640898B058B5D8F93573640A7
:101F1400918B5D8F93571640A18B5D8F931716009D
:101F2400C18B5D8F9317360093F707025D8F93176C
:101F340056009355860093F707041E065D8F1376AB
:101F4400F60F518F93D7554013D63540118A898B9C
:101F5400D18F13D67540D18F13D61540218AD18FD6
:101F640013961500418AD18F139635001376060215
:101F7400D18F13965500137606049E05D18F93F5E1
:101F8400F50FCD8FA20745465D8F3307C70222D4D4
:101F94002A8426D252CC56CA032A8413832AC41311
:101FA4005AC806D63697420741839357774013554C
:101FB40057400989858BC98F135537401189C98FBB
:101FC400135517402189C98F131517004189C98FEB
:101FD4001315370013750502C98F13155700935550
:101FE4008700137505041E07C98F1377F70FD98F60
:101FF40013D5354013D755401189098B498F13D513
:102004007540498F13D515402189498F13951500C3
:102014004189498F1395350013750502498F13952E
:102024005500137505049E05498F93F5F50F4D8FE3
:102034002207D98FB387C7024AD04ECE5EC662C488
:10204400B697C207C18313D7774013D55740098980
:10205400058B498F13D537401189498F13D5174004
:102064002189498F139517004189498F13953700AA
:1020740013750502498F1395570093D5870013757F
:1020840005049E07498F93F7F70FD98F13D5354071
:1020940013D755401189098B498F13D57540498F42
:1020A40013D515402189498F139515004189498F0E
:1020B4001395350013750502498F13955500137553
:1020C40005049E05498F93F5F50F4D8F2207D98F8F
:1020D400B387C702130650025285D685B697BD8EC4
:1020E40093940601C18033F6C402137BF60F975014
:1020F40002E0E780A0E405890DED8347D41201498D
:102104008149B3849702130C5002C1804A865285D8
:10211400D685975002E0E78060E20589937BF90F4A
:1021240011C563863403850993F9F90F0509E31F83
:1021340089FD230B6413B250225492540259F2497C
:10214400624AD24A424BB24B224C456182805E8B3A
:10215400CDB7797122D406D683C735002E842316D1
:102164000100A307F10083C74500100802C023073C
:10217400F10083C755008A8502C2A306F10002C498
:1021840002C802CA02CC02CEEFE09FF50347F10178
:102194008347040001456310F7020347E1018347C5
:1021A400140001456319F7000345D1018347240056
:1021B4001D8D13351500B2502254456182800111E2
:1021C400972700009387071122CC03A4870C26CA03
:1021D4004AC84EC606CEAA8413092500854915C0EF
:1021E40083C7140003473400858B6304F700405C05
:1021F400FDB71946930544004A85EFE0DFA2E318D2
:1022040035FF2285F2406244D2444249B249056115
:1022140082804111972700009387C70B22C403A42F
:10222400870C26C24AC006C693042500054901E866
:102234002285B24022449244024941018280A6850B
:102244001305A4023937E30525FF405CCDB74111DE
:10225400972700009387070822C403A4870C26C28B
:102264004AC006C693042500054901E82285B24008
:1022740022449244024941018280A6851305A401A7
:0C228400C93DE30525FF405CCDB700001C
:10229000971100209381019617610020130181D6C8
:1022A0001305400097E5FF1F9385C5D5170600204D
:1022B000130606FE63FAC5008322050023A055001D
:1022C00011059105E3EAC5FE1785020013050549CE
:1022D000970500209385C5FB1386C18463FAC5006A
:1022E0008322050023A0550011059105E3EAC5FEF0
:1022F0001385018597250020938585106377B500A8
:10230000232005001105E36DB5FEFD42739002BC6C
:102310008D4273904280930280087390023097E25E
:10232000FF1F938222CE93E2320073905230371710
:102330000040930770052300F704930780FA2300F9
:10234000F7040F1000003C47B70600FAE116F58FBE
:10235000B70600069506D58F3CC7972200009382EA
:10236000C2A773901234730020303D432A876373F1
:10237000C3029377F700BDEFADE5937606FF3D8A84
:10238000BA960CC34CC30CC74CC74107E36BD7FECE
:1023900011E28280B306C3408A0697020000969637
:1023A0006780A6002307B700A306B7002306B7007F
:1023B000A305B7002305B700A304B7002304B700A3
:1023C000A303B7002303B700A302B7002302B7009B
:1023D000A301B7002301B700A300B7002300B70093
:1023E000828093F5F50F93968500D58D9396050120
:1023F000D58D61B793962700970200009696868246
:10240000E78086FA9680C1171D8F3E96E374C3F865
:10241000A5B7B717004003C777051377E70FA38B5E
:10242000E704130700F8A38DE7043D47238CE70476
:1024300013075003A38CE704828041112A83014EC5
:10244000930E407E130F0019930F400663E66E143F
:102450009308001913034006B3781503854E0D4FFA
:10246000A14F337365020D891335150063E0BE1665
:102470001308F6FF7946729842081358080133078B
:10248000C70213D61700BE0732976146B3F6C602DD
:1024900013068070B386C6023697A166F58F420791
:1024A0005D8FB716004083C7F60293F70708A307AE
:1024B000F1000346F10083C7F60293F70708E3949F
:1024C000C7FE8347F100B716004093F7F70F638903
:1024D0000714F3270080A18B938601856398071466
:1024E0000F100000B7170040130670052380C704C3
:1024F000130680FA2380C7040F10000023AA0703E5
:1025000003C6170313660608A388C70223800704BF
:10251000732600809C42A18BD18F7390078023A8E3
:1025200001840F1000001166B71500407D16DC59BC
:10253000C85DA98FF18FE5FFF3270080A18B89CBC0
:10254000F327008023A8F1849C42DD9B73900780D1
:102550000F100000B7170040130670052380C70452
:10256000130680FA2380C7040F100000D8DB03C7CE
:10257000170313670704A388E70223800704732760
:1025800000809C42A18BD98F7390078023A801847F
:102590000F100000410182807D133368E30393082C
:1025A000E016630E08003368F3039308D01663083F
:1025B00008009378330093B818009388D81633082E
:1025C0001E01131E0801135E0E0149B56393E50356
:1025D0000548638608000148630303002A887108E0
:1025E0007298FD15131E0801C205135E0E01C1810C
:1025F000B5BD13F8150063F4BF007908D5B71338DB
:102600001800E5BF83C7F60293F70708A307F10098
:102610000346F10083C7F60293F70708E394C7FE69
:102620008347F10093F7F70FF1DF65B5F3270080DB
:1026300023A8F1849C42DD9B7390078055B5914798
:1026400063EEB70217670200130707508A05BA95B1
:102650009C41BA978287B717004003A7470B1345E1
:10266000F5FF698F23AAE70A03A7070B698F23A841
:10267000E70A03A7070A798D23A0A70A8280B71764
:10268000004083A6470B1347F5FFF98E23AAD70A0C
:1026900083A6070B558D23A8A70A83A6070A758F63
:1026A00023A0E70A8280B717004003A7470B498F92
:1026B00023AAE70A03A7070B1345F5FF45BFB71782
:1026C000004083A6470B1347F5FF758F23AAE70A3F
:1026D00003A7070A598D4DB7B717004003A7470B4B
:1026E000498FEDB7914763EEB702176702001307F2
:1026F000E7468A05BA959C41BA978287B71700408A
:1027000003A7470D1345F5FF698F23AAE70C03A71D
:10271000070D698F23A8E70C03A7070C798D23A069
:10272000A70C8280B717004083A6470D1347F5FF1B
:10273000F98E23AAD70C83A6070D558D23A8A70CC5
:1027400083A6070C758F23A0E70C8280B717004083
:1027500003A7470D498F23AAE70C03A7070D1345CD
:10276000F5FF45BFB717004083A6470D1347F5FF98
:10277000758F23AAE70C03A7070C598D4DB7B71720
:10278000004003A7470D498FEDB79357E50093F736
:102790000730C98FC2070547C1836382E5048DC135
:1027A0000947638DE5040D476380E5063717004050
:1027B000231FF70883562709D58F2319F70882802E
:1027C000371700400356670993C6F7FFF18E231BA6
:1027D000D7088326C70C558D2326A70CC1BF3717F2
:1027E00000400356670993C6F7FFF18E231BD708F5
:1027F0008326870C558D2324A70C4DBF3717004027
:1028000083566709DD8EE1B73717004083566709A5
:10281000DD8EE9BFB74700401147A381E7000947B4
:102820002380E700130700062380E70003C7170093
:1028300013670701A380E70003C717001377E70FAB
:10284000A380E7008280894737470040631DF50079
:102850008347170093E70704A300F700B74700403A
:10286000A381A70082808347170093F7F70BEDB78A
:10287000B747004003C707001377F70E2380E70030
:10288000131705012E9541834205239CE7004181E2
:10289000239EA7002396B70025472383E70003C79D
:1028A000170013671700A380E70003C76700058BB5
:1028B0006DDF03C717001377E70FA380E70082805F
:1028C000B717004003D5870042054181937705047F
:1028D00091EB9377F5013755E801130505803345F2
:1028E000F50282809377050C130700046397E700D5
:1028F0009377F50137459C1CCDB72165130505D0AD
:102900008280B7F700E08847CC478280814737371D
:102910000040A14663C4C700328582800345B740AA
:10292000E38EA6FE3385F5000345050085072304E5
:10293000A740CDB7970700209387C7AB9C431727C5
:1029400000201307E7AB3E95636EE50017570020A4
:102950001307474B6368A70017070020232CA7A87D
:102960003E858280FD57EDBF411122C406C62A84F0
:10297000813F2947B307E502B2408D83B3D7870271
:1029800022449507B3D7E70237370040C207C18317
:102990002316F7404101828071654111130505201E
:1029A00006C6D937B7370040130770F82381E740D0
:1029B0000D47A381E74013070004A380E7400547C4
:1029C0002387E740B2404101828037370040834788
:1029D00027401A0593F7F703C98F93F7F70F2301E1
:1029E000F7408280B737004003C7174019C9D98D17
:1029F000A380B74003C70740136787002380E740E1
:102A0000828093C5F5FFF98DA380B7408280411184
:102A100093962500AA852D4506C697E0FF1FE780FF
:102A200020E1B240014541018280411126C29394C8
:102A3000250022C44AC02A843289A686AA85014676
:102A4000254506C697E0FF1FE78080DEA6864A86FA
:102A5000A285294597E0FF1FE78080DDB240224430
:102A600092440249014541018280011122CC06CEE7
:102A70003714004026CA4AC84EC652C4834474055F
:102A8000034AB405834984050349940559328347B1
:102A9000A40593F4F40F137AFA0F93E71700230DAC
:102AA000F40493F9F90F1379F90FB717004003C72E
:102AB000A705058B6DFF03D5C705A38D4705238C9F
:102AC0003705A38C2705A38B9704F2406244D244B8
:102AD0004249B249224A056182804111939705011A
:102AE00022C406C6C1872E8463DD0700EF10706C18
:102AF00019C1EF10F0642165218DB24022444101DB
:102B0000828093F7150013C51500E5FB9397250107
:102B100063D20708EF60E128B717004083C7E702D8
:102B200093F7C70F93E7170073270080218B9386D5
:102B3000018509CB7327008023A8E18498425D9B1F
:102B4000731007800F100000371700401306700540
:102B50002300C704130680FA2300C7040F100000E7
:102B60002307F70223000704732700809C42A18BF0
:102B7000D98F7390078023A801840F10000037F6C7
:102B80000200130606E0896503C54185EF20402A4F
:102B900009659DB7939715010145E3D007F61765C1
:102BA00002001305A503EF40F25913060064916576
:102BB00003C54185EF20C02711653DBF1D71494602
:102BC000976502009385C5011775020013058558A6
:102BD00086CE97E0FF1FE780400501E917650200F8
:102BE00013054501EF40125601A0B7F600E07957F2
:102BF00098CAFD57DCCA0567B7E700E023A0E710D5
:102C00001306F00290C223A0E7180F10000013066D
:102C1000C0038145480897E0FF1FE78080FB9707C6
:102C20000020938727BC3ECA896793870780231CAF
:102C3000F100A167938707E03ECEB70701059387B0
:102C400007103ED0ED472312F10285472303F1021E
:102C5000970700009387E7DBBEC4970700009387C0
:102C600007DDBEC6B7F50700970700009387A7C921
:102C700035473EDA814697070000938747DF7000AB
:102C8000E10519452304E102A305E1023EDE97E0D8
:102C9000FF1FE780E0B958088147994670003E96CB
:102CA0000346060085070507A30CC700E398D7FE77
:102CB000D24791C70357810185676373F70001A06D
:102CC0004808EF20605FAA8501C917650200130557
:102CD000A5F3EF40F23201A0F64025618280411158
:102CE000170500001305A5DF06C622C4EF204059D2
:102CF000138441852300A4001928034504002244BD
:102D0000B24013060032896541016F206012411103
:102D100006C6F3270080A18B9386018589CBF32714
:102D2000008023A8F1849C42DD9B739007800F10E4
:102D30000000B7170040130770052380E70413074E
:102D400080FA2380E7040F10000003C7F70213671F
:102D50007700A387E70223800704732700809C4243
:102D6000A18BD98F7390078023A801840F100000D6
:102D70001305407E81470147814605468545EFF0B2
:102D8000CFEBB240014541016F207007B305B04061
:102D900017650200130545E96F409226011122CC08
:102DA0002316C10032846C0003C6D18606CEEF60C4
:102DB000902CA28517650200130505E8EF40522408
:102DC000F24062448547238EF184056182800111BF
:102DD00022CC36C606CE2E84EF10305CB246374683
:102DE0000F00130606243376C50291CAB285176513
:102DF00002001305A5E532C6EF4092203246228537
:102E00006244F240814505616FA0112881E9B285D5
:102E100017650200130585E46F40921E8547639D88
:102E2000F500176502001305A5E409C61765020041
:102E3000130505E56F40123189476398F500176562
:102E400002001305E5E47DD682808D47E39EF5FE02
:102E5000176502001305C5E471DEB285176502002F
:102E6000130545E555BF03C7C1869307100363F0FB
:102E7000E70682809315340089051946A6954A8590
:102E800097E0FF1FE78060DA05ED05041374F40F87
:102E900083C7C186E360F4FE8E0789073385F4009B
:102EA0001946CA8597E0FF1FE78020CF83C7C186F8
:102EB00013973700BA948507A38034012386F186DF
:102EC000F2406244D2444249B24905618280011114
:102ED00022CC26CA4AC84EC606CEAE892A890144EB
:102EE000938401A675B7834725004947636EF75A57
:102EF000176702001307C7C78A07BA979C435D711B
:102F0000A2C486C6A6C2CAC04EDE52DC56DA5AD861
:102F10005ED662D466D26AD06ECEBA972A84828791
:102F2000314697650200938565DA1765020013053F
:102F3000E5DAEF40F20C17650200130565DEEF409D
:102F400072202644B64096440649F259625AD25A33
:102F5000425BB25B225C925C025DF24D01468545AC
:102F60000D4561616F90417D8348C5000348550060
:102F70008347650003477500834685000346950037
:102F80008345A50017650200130585DAEF40520757
:102F9000832A04018349C40063950A0283454400DF
:102FA000130554002644B64096440649F259625A25
:102FB000D25A425BB25B225C925C025DF24D61616F
:102FC0005DB5E38D09FC17650200130525DAEF40B6
:102FD000320381445149176A0200130A2ADA93F72F
:102FE000F40F63F437016394241F2945EF40520521
:102FF0009387F9FF416B01493EC4054C976C020071
:10300000938CCCBB130D5400938DA186791BA247E2
:10301000E356F9F8338A2A0183440A00C1D0B38702
:103020002401E3DD37F7834B1A00A68517650200FC
:10303000130545D55E86EF40A27C93878BFF93F7FF
:10304000F70F6362FC269386F4FF93FBF60F638C05
:103050000B2493072900DE9763C7F924DE851765E3
:1030600002001305E5D3EF40A27981473307FA0048
:10307000034527003EC6EF40A27CB247850713F701
:10308000F70FE36577FF2945EF40827BAD4763F19A
:1030900077238147B1453306FA003387FC000346A6
:1030A000260003470700631CE63E8507E395B7FE4D
:1030B000DE86314697650200938545C1176502009B
:1030C0001305850BEF40C273834764000348540027
:1030D0000347740083468400034694008345A4009C
:1030E000176502001305850DEF40827117F6FF1F6B
:1030F0000356863083C59186176502001305450F78
:10310000EF4002701765020013050511EF409203AE
:10311000EF9001651305400697D0FF1FE780E0435D
:1031200083C7918699E797F7FF1F83D7E72C638DB5
:103130006703176502001305A5C8EF40B20017F535
:10314000FF1F0355652BEFB0C14DA3840186F957CE
:103150001305401F17F7FF1F2310F72A238E018442
:1031600097D0FF1FE780603F03464400EA86814511
:103170000145EF9001592A8A25E5096605441306A1
:1031800006909305002003C5D186A38481862385FC
:103190000186EF10F049014697650200938505B35B
:1031A00017650200130505C4EF408265A38581867B
:1031B000B640264496440649F259625AD25A425BB6
:1031C000B25B225C925C025DF24D61618280B387EA
:1031D0009A0083C5070052858504EF40626201B5FD
:1031E000AA8517650200130565C2EF40626183C5B9
:1031F0000D0017650200130565C4850593F5F50FED
:103200002385B186EF40C25FB14717650200130501
:10321000E5C76304FA02C147176502001305C5C379
:10322000630DFA009D47176502001305E5C9631693
:10323000FA0017650200130525C7EF40A27003C707
:10324000A186914763F0E70417650200130585C95D
:10325000EF40426F1305007D23850186238601869A
:10326000A385018697D0FF1FE780202F0146854563
:103270000D45EF90614C17650200130565CAEF40DC
:10328000626C15A01305803E97D0FF1FE780E02CED
:1032900017650200130585CAEF40C26A01468545DD
:1032A0000D45EF906149850426991379F90F85B38F
:1032B0005E86B14517650200130505CBEF40425409
:1032C000DDB783C7B186E39507EE97650200938566
:1032D000E59F17650200130525CCEF4062520146B9
:1032E00085450D4523860186A3850186EF90C1445F
:1032F000176502001305C5A22644B6409644064948
:10330000F259625AD25A425BB25B225C925C025D15
:10331000F24D61616F4002639305002003C5D186C1
:10332000EF1050528345140017650200130505CABB
:10333000EF40024D83451400D1E58947A384F1860F
:103340008357A4009765020093854598176502008E
:10335000130505CB17F7FF1F2310F70A8547238EA8
:10336000F184EF40E24997F5FF1F83D5E508176523
:1033700002001305E5CAEF40A24813060064A14508
:1033800003C5D186EF10D02A0564130604C8C145D1
:1033900003C5D186EF10D029130604962644B64003
:1033A00096440649F259625AD25A425BB25B225C99
:1033B000925C025DF24D03C5D186930500106161F8
:1033C0006F10102717650200130545C7EF404243F1
:1033D000176502001305C5C8EF40C2562386018653
:1033E000A3850186B9BEA3840186F9579305001011
:1033F00003C5D18617F7FF1F2310F700238401862A
:103400002391018623900186239F018423860186D0
:10341000238E0184A3850186EF10D042834564008A
:10342000176502001305C5C5EF40823D9765020090
:103430009385C58917650200130545C6EF40423CD8
:1034400009B6176502001305E5C77DB517650200CB
:10345000130545C855B50348550083476500034724
:10346000750083468500034695008345A5001765D2
:103470000200130525C7EF40A2380DB603485500DA
:103480008347650003477500834685000346950022
:103490008345A50017650200130505C8E9BF176538
:1034A00002001305A5CAE1BB8280597193970501FB
:1034B000A6D286D6A2D4CAD0CECED2CCD6CADAC8AC
:1034C000DEC6E2C4E6C2EAC06EDEC187AE8463D463
:1034D000074403C5D186EF10C04D2A8415C50347A4
:1034E00005009307000B631EF70083C79186094709
:1034F00083454500930A8500638AE7025685EF609D
:1035000090142285EF10C0432164258C2285B6508B
:10351000265496540659F649664AD64A464BB64B47
:10352000264C964C064DF25D656182800D476381A5
:10353000E50205476390E50203478500631AF70239
:103540008345C50017650200130585D0EF40422B67
:10355000238E0184034744009307F007631AF700A2
:103560008355840017650200130505D0EF404229FA
:10357000834744002D476382E70205476392E702D1
:1035800003478400A9466317D7028345C400176523
:103590000200130525CEEF40A226238E018491A8B8
:1035A0004D476393E702176502001305E5CEEF4030
:1035B0006239E5B7C946631DD7048345C400176562
:1035C0000200130525CCC1BF6D476393E70417655F
:1035D0000200130565CDEF40A22201499769020060
:1035E000938909CD8357A4006368F9002945EF400A
:1035F00022258345440019B75C444E85CA9783C58C
:10360000070005094209EF40A21F13590901D9BF5C
:1036100003C7818679DF85466313D70A1D47639CFC
:10362000E7028357840085CB5C44176502001305CD
:10363000A5C883C5170003C6370003C7070083C7A3
:103640002700A2052206D98D5D8E2393B186239291
:10365000C186EF40E21A834744001D476392E704A6
:1036600003471400E947E396E7F883D561869DC9CF
:10367000894703D64186176502001305A5C6238432
:10368000F186EF40E21783C6D18603D6418683D503
:10369000618617F5FF1F035525D6EF60201B91BFEC
:1036A0000547D1B717650200130585C8EF40822989
:1036B00017F5FF1F035545D4EFA0B1761DBF89460E
:1036C0006313D71E2547638DE708834744002547CA
:1036D0006390E71C03471400E947E39CE7F0176594
:1036E0000200130525D8EF40E22583D50186176532
:1036F0000200130565D9EF40A21083D52186176516
:103700000200130565DAEF40A20F83D72186638399
:1037100007188D472384F1869387618683D7070036
:1037200017650200130545DA231CF10093874186D3
:1037300083D70700231DF10093072020231EF100EB
:1037400093079002230FF100EF40C21F03C6D186FA
:103750002C0817F5FF1F035525CAEF60E01B51BD6C
:1037600083558400BDD12D6A17650200130545BE3F
:10377000930B0AE1EF40C2080149554D9D4D176B6F
:103780000200130B6BC3130A2AE0176C0200130C20
:10379000ECC683578400E37AF9F20358A400176556
:1037A00002001305E5BDB30728030328C4003E98B3
:1037B0008347480003473800034618008345080044
:1037C00083492800A207B3ECE700220666874D8EE6
:1037D000CE86CA8542C6EF40A2020357A4003248F3
:1037E0006315A70B03476800834658005A852207D4
:1037F000558FBA853AC6EF40A2003247631A770167
:1038000023909187E685176502001305E5BB39A073
:103810006318470123919187E6856285EF30527ED8
:103820002945EF40E20117650200130565C0EF303E
:10383000327D93F7290099C717650200130545C02B
:10384000EF30127C93F7890099C7176502001305C2
:10385000A5BFEF30F27A93F7090199C71765020007
:10386000130505BFEF30D27993F909026388090087
:1038700017650200130545BEEF309278294505090A
:10388000EF30127C1379F90F29B7E31EB7F999BF0E
:103890000547A1B5176502001305C5C5EF40820AAB
:1038A00023840186DDB98D46E315D7D42547639B74
:1038B000E70483578400B9C758441306006493058E
:1038C0000008834717000347070003C5D186A207F6
:1038D000D98F239FF184238E0184EF10605583D507
:1038E000E185176502001305A5C3EF30727183D51A
:1038F000018617650200130565C6EF3072702384D8
:103900000186C5B917650200130585CAEF40820319
:10391000238E0184EDB793F7150085C317F6FF1FBB
:103920001306069797F5FF1F9385459703C5D18624
:10393000EF80115813C41400D1BE93F70520B1C70E
:1039400017650200130505CAEF30D27F41657D156A
:10395000EFA0314DA3840186F957176502001305C6
:10396000E5CB17F7FF1F2319F7A823860186A38548
:103970000186238E0184EF30F27C014685450D459A
:10398000EF80915B13C4042051B693F78500A9CB57
:10399000ED77938707E0231CF100AD652392018644
:1039A00023930186239F018423900186239101861E
:1039B0008547938505E017650200130525C9238413
:1039C000F186EF30F26383C6D18609462C0817F5DD
:1039D000FF1F035565A2EF60201613C484003DB697
:1039E00093F7050185C3130780258146130640061A
:1039F000D14517F5FF1F035525A0EFA0114213C4B1
:103A0000040129B693F705028DC701478946094687
:103A1000814517F5FF1F0355259EEFA0D142AA85CA
:103A200017650200130585C5EF30925D13C40402CB
:103A3000F1BC93F70504D9CB83C7C185B5EB938758
:103A4000018683D7070001478146231CF100054604
:103A50008547C94517F5FF1F0355059A231DF1003A
:103A600023100102EF501077835581012ACE17658C
:103A700002001305E5C1EF30B258F24795CB1307AA
:103A8000A0052380E70003C6D1862C0817F5FF1F89
:103A900003558596EF50D06819ED85479305A0052D
:103AA00017650200130545C0238EF184EF3052558F
:103AB00013C40404A1BC2808C945EF60C0381765C9
:103AC00002001305A5C1EF30F267DDB793F70508D3
:103AD000B5CF83C7C185BDE39387E18583D7070051
:103AE00001478146231CF10009468947C94517F55E
:103AF000FF1F03556590231DF10023100102EF50B5
:103B0000706D835581012ACE17650200130505BE2D
:103B1000EF30124FF2479DC3054423808700F247E0
:103B200003C6D1862C08A380070017F5FF1F035595
:103B3000A58CEF50F05E11E5238E818413C4040838
:103B4000F1B2C9452808EF600030CDBF93F70510EA
:103B500085C717F5FF1F0355258AEFA0D12B0566F2
:103B6000130606969305001003C5D186EF10402C6E
:103B700013C404106FF09F9993F705400144E38745
:103B8000079803C79186894713C405406317F71048
:103B9000C16717F7FF1F03572786F917630FF70E43
:103BA00083D50186638B050E03C7C18585476312E4
:103BB000F702176502001305A5B4EF30B2581306DB
:103BC00040069305004003C5D186EF1060266FF0D4
:103BD000FF93176502001305A5B6EF3072429307F5
:103BE00000102310F1029387018683D70700014755
:103BF0008146231CF1005146D1479305200517E566
:103C0000FF1F0355657F231DF100EF50B05C2ACEE6
:103C10002DCD8147D14672473E9785072300F70097
:103C2000E39BD7FE17650200130505B5EF30523D43
:103C3000814497690200938929B65149F2474E851C
:103C4000A69783C507008504EF30923BE39824FFD5
:103C50002945EF30F23E2C0817E5FF1F0355C579C3
:103C6000EF50304DAA8517650200130525B395C1A5
:103C7000176502001305C5B6EF309238930520058D
:103C80002808EF60401C6FF07F881765020013055D
:103C900065B8EF30324B6FF07F8717650200130570
:103CA00065BAEF30324A094683C59186176502002E
:103CB0001305C5BAEF30D23497E5FF1F83D5C5731E
:103CC000176502001305C5BCEF30923383D501861A
:103CD00017650200130585BEEF3092326FF01F8327
:103CE000011117F5FFFF1305857C06CE22CCEF10DE
:103CF00020591384D186A3840186F9572300A40098
:103D000097550200938585FC17650200130505BED3
:103D100017E7FF1F2312F76E23840186238601868F
:103D2000A3850186238E0184239101862390018639
:103D3000239F0184EF30D22C856593850596094534
:103D4000EF304030D1451D45EF30C02F9305400680
:103D50002145EF30202F930540063545EF30802E6A
:103D600089472304F1007000854791451305F04011
:103D7000A304F100A305F10002C623050100EF90A2
:103D800051573000854513058040EF90915613063A
:103D90009100854513059040EF90B1551306A100A1
:103DA00085451305A040EF90D1541306B100854519
:103DB0001305D040EF90F153EF60D0390345040074
:103DC000EF60A065034504008545EF00906FF24069
:103DD00062440561828041111305800406C622C435
:103DE00097C0FF1FE780202B371400408327840AE9
:103DF0008D451305002093E707202324F40AEFE004
:103E00001F848327840A85451305001093E7071054
:103E10002324F40AEFE0BF82EFE01FB81765020029
:103E200013054533EF301232EF003010EFE01FD9A9
:103E3000EFE0FFEAEFA07101653517650200130599
:103E4000E5AEEF303230EF00502717650200130562
:103E5000E5AEEF30322FAD2C97C0FF1FE780C07367
:103E6000371700405C5FCA07C9832310F5008357EA
:103E7000A703C207C1832311F50083578703C20735
:103E8000C1832312F50082808357050083D6050085
:103E90000357250003D62500958FB7662605938620
:103EA00006C0B387D702118F9306007D03554500E6
:103EB0003307D702BA9703D74500198D79473305E1
:103EC000E5021307803E3345E5023E958280835527
:103ED0002500411122C42A84176502001305C5A6D6
:103EE00006C6EF30F211835544002244B2401765F4
:103EF00002001305A5A641016F309210B7170040CC
:103F000083A7470C9386418990424111918B06C645
:103F10005D8E15E213858188A1378547056623AA42
:103F2000F188130606969305000203C5C180B240CE
:103F300041016F00F06F90423687854603C5C1800E
:103F4000631ED606A5CF93050002EF10A00F1385C0
:103F5000018839379385818813850188353723AAED
:103F6000A186AA871307100303C5C1809305000427
:103F7000635FF7021307B0126349F700894723AA6A
:103F8000F1881306003CC1455DB71307B05D854558
:103F9000635FF70093050002EF10C00A930500204D
:103FA00003C5C180EF00F051914503C5C180EF000A
:103FB0005051B24023AA01884101828010438946B2
:103FC0006319D6029DE7C145EF10C00713858187AD
:103FD000413D93850188138581877D3513077025C1
:103FE00083C7C18089456354A700930500403E857F
:103FF0007DBFA38801861C431C4381454DBF4111F1
:104000008D451305000406C622C426C2371400409D
:10401000EFE04FED8327840C8D45056593E707049A
:104020002324F40CEFE00FEC0327840C85648D450A
:10403000458F2324E40C0565EFE06FE08327840AB5
:104040008D450945C58F2324F40AEFE0AFE98327A6
:10405000840C8D451305000293E727002324F40CFC
:10406000EFE04FE88327C40C8D45054593E7070231
:104070002326F40CEFE00FE78327840C8D4513050E
:10408000002093E717002324F40CEFE0AFE583272B
:10409000C40C93050020176502001305E58C93E717
:1040A00007202326F40CEF30A27585451305002068
:1040B000EFE04FE38325440C2244B24092448981CF
:1040C0008589176502001305A5A141016F30427370
:1040D0004111170500001305E52106C6EF10401A2F
:1040E000AA852386A180176502001305A58BEF30F2
:1040F0002271B7050800176502001305658CEF30C3
:104100002270854537050800EFE0CFDDB7050400D4
:10411000176502001305458EEF30826E8545370521
:104120000400EFE02FDC9145176502001305859030
:10413000EF30026D85451145EFE0CFDA9145176507
:1041400002001305E592EF30A26B89451145EFE0BF
:10415000CFE38947A385F18037070400B7E700E084
:1041600023A0E710B24023AA0188410149BD83C7BB
:10417000A180411113B7170022C406C62385E18030
:1041800017E4FF1F1304042B8D4513050020B9E32A
:10419000EFE04FD5371700408327870C0C403705D9
:1041A000000193E707207D152324F70C492593058B
:1041B00000201765020013052590EF306264224449
:1041C000B24083C5A180176502001305E592410145
:1041D0006F300263EFE00FD1371700408327C70C21
:1041E0000C40416593E70720130505F02326F70CE3
:1041F0003D2D93050020176502001305E58D75BF61
:1042000083C70187411113B7170022C406C623884C
:10421000E18637140040A5EF8327840C1305800C3A
:1042200093E707042324F40C8327C40C93E71700B7
:104230002326F40C8327C40C93E707022326F40CEF
:1042400097C0FF1FE78060318327840C3705FF008C
:1042500093E707022324F40C97E7FF1F9387871D3A
:104260008C43F1238327C40C176502001305458A8C
:1042700093E707042326F40CEF30C26C2244B240CB
:1042800013052003410117C3FF1F6700032D832778
:10429000840C1305800C93E707042324F40C832774
:1042A000C40C93E717002326F40C8327C40C93E770
:1042B00007022326F40C97C0FF1FE780002A8327FC
:1042C000840C1305F00F93E717002324F40C97E7F1
:1042D000FF1F938767168C43992B8327C40C1765A0
:1042E00002001305658393E707042326F40C69B7DE
:1042F000411122C406C626C24AC093F715002E8477
:1043000085C3176502001305A581EF30A263CD3D7B
:1043100013451400B2402244924402494101828074
:1043200093F72500ADCB1765020013056580B71420
:104330000040EF30226183A7C40C1305400693E7C9
:10434000170023A6F40C97C0FF1FE780002183A766
:10435000C40C4165130505F093E7070223A6F40C8E
:1043600097E7FF1F9387070D03A90700CA85C1219F
:104370001305200397C0FF1FE780201E83A7840C2E
:104380003705FF00CA8593E7070223A4F40C4521F3
:104390001345240041B793F745009DCF1755020000
:1043A0001305057AEF30025AB717004003A7C70C70
:1043B00001451367070223A6E70C03A7C70C136781
:1043C000170023A6E70C97E7FF1F9387A7068C43E8
:1043D000B929134544003DBF93F70501B1C7B7178D
:1043E00000401387418983A7470C10438946631512
:1043F000D602918B99CB854503C5C180EF00700C27
:1044000023AA01881345040131B71755020013058B
:104410002574EF302253EDB70C43175502001305F6
:10442000A576EF30E23DF9BF93F70502A9CFB717A4
:1044300000401387418983A7470C10438546631CBE
:10444000D602918B95E3914503C5C180EF007007BB
:1044500089451145EFE06FB38947A385F18023AA11
:104460000188134504027DB5175502001305057533
:10447000EF30424DEDB70C43175502001305857719
:10448000EF300238F9BF93F78500A1CB3717004012
:10449000035587030356A7034C5F93874189116730
:1044A0009443930717007D17F98DB337F50093C731
:1044B00017000606C2053E96C18117550200130576
:1044C0006576EF30E23313060064A14503C5C18071
:1044D000EF0010161345840035BD93F7050491CB0A
:1044E000175502001305C575EF30C2451345040486
:1044F00015B593F7051091CB175502001305C57537
:10450000EF3042441345041031B593F705209DCB9D
:104510001755020013050576EF30C24213858188D6
:10452000EFF0FF9A13850188EFF07F9A9387418718
:104530008C43175502001305A57CEF30622C134500
:104540000420C9BB93F705400145E38507DC1755F7
:1045500002001305257CEF30E23E134504405DBBAD
:10456000411106C683C7918017E7FF1F130787EC29
:10457000B716004095CB83A7860C0C433705000186
:1045800093E7070423A4F60C7D15552483C5918079
:10459000B24093B51500A384B180175502001305EE
:1045A000E57B41016F30C22583A7C60C41650C43F2
:1045B00093E7070423A6F60C130505F0F9B783C7A4
:1045C000818013B7170041112384E18006C617E7E5
:1045D000FF1F130727E6B716004095E783A7860C51
:1045E00005660C43D18F3705000123A4F60C7D1519
:1045F0003D2CB24083C58180175502001305057715
:1046000041016F30E21F83A7C60C05664165D18F5B
:1046100023A6F60C0C43130505F0D9BF83C77180A0
:1046200013B717004111A383E18006C617E7FF1FE8
:10463000130747E0B716004095E783A7860A05668B
:104640000C43D18F3705000123A4F60A7D15C5223E
:10465000B24083C5718017550200130525724101D0
:104660006F30021A83A7C60A05664165D18F23A65B
:10467000F60A0C43130505F0D9BF83C7618013B751
:10468000170041112383E18006C617E7FF1F1307B8
:1046900067DAB716004095E783A7860C0C43370509
:1046A000000193E7270023A4F60C7D154922B240B0
:1046B00083C56180175502001305856D41016F3078
:1046C000221483A7C60C41650C4393E7270023A659
:1046D000F60C130505F0D9BFB717004003D7E7095B
:1046E000118B31C303D7E709411122C61367470075
:1046F000239FE70883C7B1800944639F87008D45E6
:104700001145EFE08F888D47A385F180EFF00FFF13
:10471000324441017300203089451145EFE0EF86B6
:10472000A3858180E5B77300203041111755020041
:104730001305C56706C6EF30E22095450545EFE055
:104740006FAA1755020013056567EF30A21F3737B0
:104750000040834727402D4593E717002301F7408A
:10476000EFE0AFA61755020013054566EF30821D36
:10477000B240B7E700E03707000823A0E710410187
:104780008280411126C2B28431463386C40222C4DB
:104790002E84814506C6EFD05FBD2A8E9305340076
:1047A0008148B14E13030008254F93970801C18338
:1047B00063FA9706B386D8031386D5FFF296B9A09D
:1047C000834F06001308F5FF335803413378F8018F
:1047D00003870700631F0802136707F82380E700B9
:1047E00003480600B35FA340038707003378F8014E
:1047F00063140802136787002380E7000905850713
:10480000E310E5FD05069106630BB600B687054586
:1048100045BF136707FED9B71367E700F1BF8508E7
:104820008D0561B7B240224492444101828001115A
:1048300026CA97F4FF1F9384247C61464AC84EC65B
:104840002E89AA898145268506CE22CCEFD0FFB1DC
:1048500013D589001375F50FEF20725BCA85EF2021
:10486000B22CEF2072551384018A2300A40013D5C3
:1048700009011375F50FEF209259CA85EF20D22A4E
:10488000EF209253A300A40013F5F90FEF20325844
:10489000CA85EF207229EF2032522301A400A2859D
:1048A00026850546F93D6244F2404249B2492685D3
:1048B000D244B14505616FD0BFFB41118D451165F3
:1048C00006C6EFD0DFD7175502001305A567EF30F6
:1048D00062078D452165EFD09FD6371700408327AB
:1048E000C70AA166D58F2326F70AEFD0BFF24D4540
:1048F000EFD07FF597F7FF1F938707703E856146DE
:104900008145EFD09FA6E145EFD09FF697E7FF1FC7
:104910009387C7B2B2408C434165130505F041014E
:1049200039B723AC05FE1C4191E7010001000CC121
:104930008280BA8703A787FF6DFF23ACB7FE828012
:104940001DC18346E5FF1307F00F9147639EE60004
:10495000411106C697D0FF1FE780C013B2408147C0
:104960003E854101828095473E85828001E901456F
:1049700082800145B2402244410182809565411107
:10498000938505D022C4C98D2A842105C20542051C
:10499000C181418106C697D0FF1FE780400371D9CE
:1049A000FD5723200500231285002303F500210570
:1049B000D1B71387418A1C43411122C426C24AC081
:1049C00006C601440149BA8489E7A165A52D0DC435
:1049D00001A803C7E7FF6318A7021DC8A165D52476
:1049E0009840832784FF6317E40223A2F18AFD57CE
:1049F000232C04FE230FF4FE2285B240224492446D
:104A000002494101828011E03E8983A787FF6DBF83
:104A10003E84E5BF232CF9FED9BFA1CD411122C4AC
:104A200006C62A8497F7FF1F83C797622E85637592
:104A3000F400894763E8870021370D45B2402244DE
:104A40004101828083A785FF99E703C7E5FF9307AC
:104A5000F00F6305F700ED351545CDB7238F85FEC3
:104A60001385418A7D3D22852244B240A1654101E2
:104A700089AC1545828023A2018A82809387C18BED
:104A80009C4399E33E85828003D727006316B700D5
:104A900003C70700E308A7FEDC47E5B7BDCD797182
:104AA00022D406D626D24AD04ECE01444147B3D7AF
:104AB0008540858BB1CF1205314722953305E5023C
:104AC0009387C18A03A907008544B3948400C20474
:104AD000C180BE892A990327090011C7032549000F
:104AE0002EC60297B24531473304E40283A709007A
:104AF0003E941C4489E72320090023220900B25078
:104B00002254A58D02599254F2492E854561828026
:104B10000504E31EE4F88144DDB72E85828041114F
:104B20001397050122C406C626C24AC041872E84B7
:104B3000635E0700BD3D11C12135A1673D8C228513
:104B4000B24022449244024941018280EDD9AA87B1
:104B500001474146B356E440858A9DCA9207BA97F9
:104B6000B146B387D7029386C18A03A9060085445C
:104B7000B394E400C204C1803E9983270900032551
:104B8000490082972320090023220900258C45BF74
:104B90000507E311C7FC8144D5BF97F7FF1F938733
:104BA00067479C53411122C406C61384018199C7EB
:104BB00082971C403E9523A8A18029A09387418B12
:104BC0009C43FDF70840B74703009387D73F330561
:104BD000F502B7A72600938737ECB24022443E95F2
:104BE00023A8A1804101828079C99387418B9C438E
:104BF000797122D426D24AD04ECE52CC56CA5AC847
:104C000006D65EC63A8AB689328BAE8A2A898297E0
:104C10009387C18A9843BE840144B146C147B30B10
:104C2000D40233067701104251E6C165938505F041
:104C3000414597D0FF1FE78080D91DE597F7FF1FFB
:104C40009387473D9C5B2D4589C7114581458297D8
:104C50002D45B250225492540259F249624AD24A26
:104C6000424BB24B456182809387C18B98431DEFC5
:104C700023AEA18A230005009C4005473317870017
:104C800023260500232465012311E5002322450185
:104C9000DE9723A0270123A2570123A44701014542
:104CA000E38909FA238089006DB73E875C47F5FFE9
:104CB00048C7C9B70504E314F4F6214559BF0945AF
:104CC000828097F7FF1F83C7B738637FF50013878C
:104CD000818A9317150008433E9583570500DD8DA3
:104CE0002310B500014582800D45828097F7FF1F94
:104CF00083C717366371F5021387818A93171500EE
:104D0000084393C5F5FF3E9583570500FD8D23109D
:104D1000B500014582800D458280130705FF13779A
:104D2000F70FFD4763E5E70AB146B306D50293875F
:104D3000C18A984389473697184359CB011122CC31
:104D40004EC60544935945003D893315A4001314FC
:104D50000501418026CA4E85AE84A2854AC806CE8A
:104D6000313B2A89814721CDA2854E8541379387E2
:104D7000418B9C43829797F7FF1F83D72732338756
:104D800097022A84814613060064B3B7970213057D
:104D90000732B335E500BE95EF20821FB3078500CB
:104DA00097F6FF1F9386062F3E87D44263E4A70041
:104DB00063E4D7003387D7402324E9008147F240DA
:104DC0006244D2444249B2493E85056182808947A6
:104DD0003E858280011126CA06CE22CC4AC84EC624
:104DE000BD47894463EEA70231473307E502938745
:104DF000C18A9C438944BA979C439DC3054433149C
:104E0000A400420441802E890145A285EFF01FC70E
:104E1000AA89814411C5A2850145C93D23A4290160
:104E2000F240624426854249D244B24905618280FB
:104E300097F7FF1F83C7D7216364F5000145828080
:104E400001119387418B56C283AA070006CE22CC5C
:104E500026CA4AC84EC652C4638E0A0A17FAFF1FF2
:104E6000130A4A2383244A00B74736FE938707C8AC
:104E7000AE8997F5FF1F83D56522BE94B387C5021F
:104E80002A8432898146B3B5C50213850732B33708
:104E9000F50013060064BE95EF20820F63ECA406B4
:104EA000829A97F5FF1F83D5651FB3872503AA84D0
:104EB000130600648146B3B5250313850732B33763
:104EC000F500BE95EF20C20CB3079500BE84032702
:104ED0004A0063E4A70063E4E700B384E740CE85BB
:104EE0002285EFF0BFB901C504C505452DA0936526
:104EF00004F0C205C181414597D0FF1FE78020AD76
:104F000005E597F7FF1F9387E7109C5B81C7A28594
:104F1000114582970145F2406244D2444249B24968
:104F2000224A924A056182809387C18B9C438DE31C
:104F300023AEA18A85472326050004C52311350128
:104F400023008500A300F5002322050079BFBA875E
:104F5000D84775FFC8C7F9BF49C9797122D426D28D
:104F60004AD04ECE52CC56CA5EC662C466C206D67F
:104F70005AC83689328AAE89AA844144314C938A10
:104F8000C18A854C930B0003330B840303A70A00EB
:104F90005A971C43B1E79375F400B395BC001355C1
:104FA0004440C2055286C1811375F50F51350DC9B4
:104FB00083A70A000145DA9784C323A2370163045B
:104FC000090023008900B250225492540259F24938
:104FD000624AD24A424BB24B224C924C456182808B
:104FE0000504E31374FB2145F9BF09458280411193
:104FF00022C426C24AC006C62A842E89B2840D3D28
:10500000CA852285EFF09FA705CD97F5FF1F83D5B1
:10501000E508B38795022A84130600648146B3B578
:10502000950213850732B337F500BE95EF1052761F
:1050300048C00145B2402244924402494101828065
:105040002145CDBF411122C426C24AC006C62A89C5
:105050002E84EFF0BFA2AA8419C123110500A285F6
:105060004A85EFF0BFC897F7FF1F83C767FE6397B6
:10507000270183D7018B5D8C2398818A014591E0BC
:105080001945B2402244924402494101828093076B
:10509000F00263E6A7044111B14722C43304F502CC
:1050A00026C29384C18A9C4006C6A297984389472A
:1050B0000DC39377F5008545B395F500C205C18111
:1050C000118149379C40A29723A0070023A2070023
:1050D0008147B240224492443E8541018280894703
:1050E0003E858280411106C622C4EFF03F9911E54A
:1050F0000145B2402244410182809387418B9C4309
:105100000045829797F7FF1F9387C7F86368A4024B
:10511000D843B74636FE938606C83305A440369773
:10512000E378E5FC13070064B335E50203D6870096
:1051300081463305E502EF10B26565BFD8433A9466
:10514000C1BF411106C623ACA18A0295B24097F7B0
:10515000FF1F23ABA7F0014541018280994763E916
:10516000B7008A0597F7FF1F938707F1BE9588C19F
:10517000828041117146814517F5FF1F1305C5EF68
:1051800006C623AE018A23AC018A23AA018A97C0EE
:10519000FF1FE78000A413068002814517F5FF1F5B
:1051A000130505EB97C0FF1FE780A0A2EF904154C5
:1051B00097F7FF1F83C777E713D527008D8B3E95A1
:1051C0008D473305F502854539051375F50F97F7BA
:1051D000FF1F2380A7E899473305F502130505242F
:1051E00097C0FF1FE780A07E23A6A18A59C59947D3
:1051F00017F6FF1F0346E6E53306F6028145130660
:10520000062497C0FF1FE780C09C9387C18A9C43F8
:105210009387072423A0F18C17F7FF1F034767E349
:105220000A07BA9723A4F18AEFF0FF840523938736
:10523000018C944397F7FF1F83C797E113972700CB
:105240003697170600001306A68510C313871700AC
:105250001377F70F0A073697170600001306668CB8
:1052600010C313873700890793F7F70F8A0797F55D
:10527000FF1FA38FE5DCB69790C3B2404101828047
:1052800097F7FF1F83C7D7DC17F7FF1F034767DCBC
:1052900063F1E7021387018C18439386170017F612
:1052A000FF1FA307D6DA93962700369708C33E85DB
:1052B00082809307F00FE5BF1C4163880716417792
:1052C0007D8FB706002089476312D7160357450024
:1052D000630E0714411122C419462A849305F00F66
:1052E000690506C697C0FF1FE780C09805478D4730
:1052F0006308E5121C4481CB585899476302071292
:10530000185C630F07101306C003814517F5FF1FD4
:10531000130545D097C0FF1FE780A08B1306C0037D
:10532000A28517F5FF1F1305E5CE97C0FF1FE78085
:10533000C08617F7FF1F0357A7CE97F7FF1F938766
:1053400067CD19E71307001097F6FF1F239AE6CCE5
:1053500017F7FF1F0347E7CC11E7054797F6FF1F35
:105360002381E6CC17F7FF1F0357C7CB11E76D4723
:1053700097F6FF1F2398E6CA17F7FF1F034777CA60
:1053800011E7154797F6FF1FA38DE6C817F7FF1F14
:10539000034767C911E7054797F6FF1F2385E6C84E
:1053A00017F7FF1F034737C819E703C7F70097F63A
:1053B000FF1FA38AE6C617F7FF1F0347E7C611E7DB
:1053C000354797F6FF1F2381E6C617F7FF1F0347F0
:1053D000F7C519E71307800297F6FF1FA388E6C4F5
:1053E00017F7FF1F034757C419E71307D00297F6B3
:1053F000FF1FA38BE6C20347840119E71307C0030D
:1054000097F6FF1F2384E6C29C5791C7829797F7B0
:10541000FF1F2393A7C4FD57A387F1A0993B8147A2
:10542000B24022443E854101828089473E85828088
:1054300001114EC697F9FF1F9389C9C583A70900BB
:1054400006CE22CC26CA4AC852C4829713090064E9
:10545000B335250303DA89008146528633052503D7
:10546000EF10123397F7FF1F938787BE804FAA84F0
:1054700001456306940233858440636E940003A55E
:10548000490052868146B335A9023305A902EF10BF
:105490003230018D269597F7FF1F23A797BCF24066
:1054A0006244D2444249B249224A056182800111D4
:1054B00022CC0A852E8441469735020093850571DA
:1054C00006CEEF208228180806043A94035504FFFC
:1054D00097F7FF1F83D7A7BCF2406244AA973745CE
:1054E0000F00130505243355F5020561828097F7F7
:1054F000FF1F83D7C7BA51471D45637CF702794721
:1055000019456378F7021307200315456373F70203
:105510001307B0041145637EF700130740060D45DD
:105520006379F7001307600909456374F70013B541
:10553000B70F8280011122CC06CE2A842EC6EFF04E
:10554000CFE5B245F240818D33A5A5022295624494
:105550001375F50F05618280011122CC06CE2A84D5
:105560002EC6EFF08FE3B245F240818D33A5A50240
:10557000229562444205418105618280011122CC5D
:1055800006CE2A842EC6EFF04FE1B245F240818D5F
:1055900033B5A502229562440561828097F7FF1F0B
:1055A000938747A7985739CB411122C426C206C614
:1055B000BE84029717F7FF1F035707AA2A8415CB4B
:1055C000BA876373A700AA87C207C183BA866373C9
:1055D000E400A286C206C182958F5147635BF70043
:1055E000DC5491C38297EF30C17B97F7FF1F23955F
:1055F00087A6B2402244924441018280828097F77C
:10560000FF1F938727A1DC57011106CEAA8581C70A
:105610002AC68297B245D1C19C410545A5CFDC4140
:10562000B5CB83D78500BDC783D7A500A5C783C7E2
:10563000C500ADE3414617F5FF1F1305A5A597B0BB
:10564000FF1FE780805597F7FF1F9387A7A49C4310
:1056500023AAF18A97F7FF1F83C7579D8DE793070A
:10566000800217F5FF1F035565A33305F502374682
:105670000F001306062481468145EF10721197F73B
:10568000FF1FA385A79A170500001305A5DAEFF001
:105690005FAB0145F2400561828097F7FF1F83C72A
:1056A000C7981397870161876354070497F7FF1F13
:1056B00023AE079A97C7FF1F9387E78E17F7FF1F41
:1056C000232AF79C7D5797F7FF1F23A7E79CB787EF
:1056D0003200938727A197F6FF1F23A1F69C97F727
:1056E000FF1F238F079AB7C7004023A4E726A1BF57
:1056F00013F7170005CFB7872003938707D017F755
:10570000FF1F232DF798B707C0A817F7FF1F232502
:10571000F79897C7FF1F9387278C17F7FF1F232B37
:10572000F79697F7FF1F238D079631BF617797F69E
:10573000FF1F2395E69681CB9307003217F7FF1FD3
:10574000231FF794C9B793072003CDBF011122CCC3
:1057500017F4FF1F1304048C084406CE26CA4AC857
:1057600001E90545F2406244D24442490561828024
:105770005C58E5DB185C75D7700085458297184446
:10578000B247E300F7FE9305E00417F5FF1F03554A
:10579000258997C0FF1FE780802317F7FF1F232964
:1057A000A78C61D117F6FF1F035686879305F00F6C
:1057B00097B0FF1FE780E041814417F9FF1F1309ED
:1057C000298997F7FF1F83C7C7850326090263C18D
:1057D000F402328597C0FF1FE780C02B014597F781
:1057E000FF1F23A7078897F7FF1F23A507889DBFE3
:1057F00097F5FF1F83D5C582B38795020844185CCF
:10580000898185043E9508C2029765BF011156C281
:1058100097FAFF1F938A0A8083A78A0022CC4AC87E
:105820004EC606CE26CA52C45AC0AA892E843289D0
:105830006385072203A74A03630707147D4763664E
:10584000A71497F4FF1F9384A48003AA040263178C
:105850000A0A9565938515E017E5FF1F0355457CFA
:1058600097C0FF1FE780A01697F7FF1F23A2A7800E
:105870002A86630A051083A74A0303A58A0097E5D1
:10588000FF1F83D5E5798981829783A78A0003AAC0
:10589000040217E7FF1F232FF77C8947639CF90851
:1058A000C1476312F40E97E5FF1F83D56577938593
:1058B00005FC9147B3C5F5028A05D29503C70500DB
:1058C0009307A005631DF70A83C715006399370B7B
:1058D0004A852286910597B0FF1FE780002C9C50D7
:1058E0005285639347150145F2406244D2444249D0
:1058F000B249224A924A024B05618280D850E38E17
:10590000E7F89565938525E017E5FF1F0355457179
:1059100097C0FF1FE780A00B2A8A35C52A8683A778
:105920004A0303A58A0097E5FF1F83D5656F898128
:105930008297A5B78D47639DF900C1476315F404AD
:1059400097E5FF1F83D5C56D938545FDF199B5B7E3
:105950009147639AF9006318340397E5FF1F83D5D5
:10596000256CA115E5B7C147639FF900A14763EC1A
:10597000870097E5FF1F83D5A56AC115C1BF9C505D
:1059800052856397470D294585B71307F006568B57
:105990006361A70A130A05FE1947334AEA0217E7AB
:1059A000FF1F0357E76797EAFF1F938A6A6A330A64
:1059B000EA023E9A83A74A026395470183A40A023A
:1059C0009DE49305E00417E5FF1F0355656597C047
:1059D000FF1FE780C0FFAA845DD583274B0397E5AF
:1059E000FF1F83D5E5632A86898152858297914579
:1059F0001307A005898193972500A69783C6070002
:105A00006393E60483C61700639C360385058A0505
:105A10002286A6954A8597B0FF1FE780001883A7C6
:105A20000A02E38297EC268597C0FF1FE780800675
:105A30005DBD1307E007E368A7F4130A05F985B70E
:105A400083D5270045BF83A70A02E38E97F22685F8
:105A500097C0FF1FE78000043DB797E7FF1F9387BC
:105A6000275F8C538DD191479306A00589831397A7
:105A700027002E9703460700E317D6F003461700CA
:105A8000631C360185078A072286BE954A8597B032
:105A9000FF1FE780801081BD83572700C1BF97E7B4
:105AA000FF1F93872757984739C79C5FA9C70547AA
:105AB0006313E504411122C417E4FF1F1304445982
:105AC000105006C60DC6485097E5FF1F83D54555B3
:105AD00089818297085097C0FF1FE780A0FB97E756
