:040000006F20802DC0
:100004000000000000000000900000208A0400208E
:10001400A9BDF9F3900000200000000000000000DA
:10002400900000209000002000000000000000006C
:10003400900000200000000090000020000000005C
:1000440090000020900000208A3F000090000020D3
:1000540090000020900000209000002090000020DC
:100064009000002090000020900000209E050020B9
:100074007E050020900000209000002090000020C9
:1000840090000020900000209000002090000020AC
:1000940001A073270080218B9387818509CB732767
:1000A400008023ACE18498435D9B731007800100BA
:1000B400010037170040930670052300D704930608
:1000C40080FA2300D704010001008346B70493F6A5
:1000D400F60DA305D7042300070473260080944378
:1000E400A18AD18E7390068023AC018401000100A3
:1000F40093760502638406180347A700118B25E74E
:1001040073270080218B09CB7327008023ACE18403
:1001140098435D9B7310078001000100371700406E
:10012400930670052300D704930680FA2300D704AE
:10013400010001008346A70093E646002305D7008B
:1001440023000704F32600809843218B558F7310F6
:10015400078023AC0184010001001307004B010058
:1001640001007D176DFF73270080218B09CB732756
:10017400008023ACE18498435D9B731007800100E9
:10018400010037170040930670052300D704930637
:1001940080FA2300D704010001007D892314A700FD
:1001A400010001000100010023000704F326008080
:1001B4009843218B558F7310078023AC0184010071
:1001C400010073270080218B09CB7327008023ACA7
:1001D400E18498435D9B7310078001000100371789
:1001E4000040930670052300D704930680FA230089
:1001F400D7040100010001000100B72600401306E6
:100204001005A383C68023000704F32600809843C7
:10021400218B558F7310078023AC018401000100EA
:1002240073270080218B09CB7327008023ACE184E2
:1002340098435D9B7310078001000100371700404D
:10024400930670052300D704930680FA2300D7048D
:10025400010001008346B70493E60608A305D7040A
:1002640023000704732700809C43A18BD98F7390CC
:10027400078023AC01840100010082809376050489
:10028400638B06140347A700418B25E7732700807F
:10029400218B09CB7327008023ACE18498435D9BB9
:1002A40073100780010001003717004093067005A2
:1002B4002300D704930680FA2300D7040100010029
:1002C4008346A70093E606012305D700230007040D
:1002D400F32600809843218B558F7310078023AC3D
:1002E4000184010001001307007D010001007D1756
:1002F4006DFF73270080218B09CB7327008023AC0B
:10030400E18498435D9B7310078001000100371757
:100314000040930670052300D704930680FA230057
:10032400D704010001009376F50193E60604231433
:10033400D700010001000100010023000704F32697
:1003440000809843218B558F7310078023AC018460
:1003540001000100130760046310E50473270080A3
:10036400218B09CB7327008023ACE18498435D9BE8
:1003740073100780010001003717004093067005D1
:100384002300D704930680FA2300D7040100010058
:10039400B72600400946B5B573270080218B09CBE9
:1003A4007327008023ACE18498435D9B731007801E
:1003B4000100010037170040930670052300D7049D
:1003C400930680FA2300D70401000100B7260040F9
:1003D400130620053DB573270080218B09CB7327B5
:1003E400008023ACE18498435D9B73100780010077
:1003F400010037170040930670052300D7049306C5
:1004040080FA2300D704010001008356870093E695
:10041400060C2314D700C5BB411181460146814512
:10042400114506C6F92EF3270080A18B938681859A
:1004340089CBF327008023ACF1849C42DD9B73902D
:10044400078001000100B7170040130770052380DF
:10045400E704130780FA2380E7040100010003C7BF
:100464006704136717002383E704238007047327B3
:1004740000809C42A18BD98F7390078023AC0184A8
:1004840001000100B240410182808146014681455C
:100494001145852EF3270080A18B1387818589CB95
:1004A400F327008023ACF1841C43DD9B7390078009
:1004B40001000100B7170040930670052380D7049C
:1004C400930680FA2380D70401000100FD56239689
:1004D400D70223800704F32600801C43A18BD58F09
:1004E4007390078023AC018401000100F32700808E
:1004F400A18B89CBF327008023ACF1841C43DD9BC3
:100504007390078001000100B7170040930670053F
:100514002380D704930680FA2380D70401000100C6
:1005240083C6670493E616002383D7042380070455
:10053400F32600801C43A18BD58F7390078023ACD6
:1005440001840100010001A0BD473305F50201004B
:100554007D1575FD8280411122C426C206C6AA8477
:10056400014463179400B2402244924441018280C2
:1005740005041305803E4204C13F4180DDB7B7172F
:100584000040130700032388E702854723A0F18670
:1005940073002030411106C6EF005001F5BF373714
:1005A4000040834747409946BD8B638FD71431473A
:1005B4006385E70011476396E718011122CE26CC24
:1005C4004ACA4EC852C656C4373400409749000040
:1005D4009389C99893041003179A02E0130A8ABCFA
:1005E40013092003979A02E0938ACABC8147034700
:1005F400A44063EFE7109747000083C72796639BE7
:1006040097005285977002E0E7800017974000E05A
:10061400E78060809747000083C74794639B270166
:100624005685977002E0E7802015974000E0E78048
:100634006084174700000347679293073003631EE3
:10064400F700179502E01305E5B7977002E0E7801D
:10065400A012974000E0E780C087174700000347D7
:10066400E78F93074003631EF700179502E0130515
:10067400A5B6977002E0E7802010974000E0E7807D
:10068400208B174700000347678D93075003631EB1
:10069400F700179502E01305A5B5977002E0E7800F
:1006A400A00D973000E0E780E037174700000347CC
:1006B400E78A930780036319F700854503C54181E1
:1006C400974000E0E78040EE1747000003470789A2
:1006D400930790036318F704B71700409306700557
:1006E4002380D704130780FA2380E7040946238371
:1006F400C7042380D7042380E70403C76704136770
:1007040017002383E70401A0834757407300203078
:10071400834684403387F90085072300D70093F785
:10072400F70FF1B58347A44093F7F70FE39007EC75
:100734007244E2445249C249324AA24A05617300F2
:100744002030730020302303048015472303E48002
:1007540001002302A480828083076480E3CE07FE25
:1007640023030480828083076480E3CE07FE03456D
:100774004480828083076480E3CE07FE2302A48042
:100784008280411126C44AC24EC006C61377F50BB7
:10079400AD47AA892E8995446306F7001945653744
:1007A400653F8D444E854537FD59FD1463983401EA
:1007B400B240A24412498249410182801355090181
:1007C4001375F50F453F2209CDB7011126CC06CE8E
:1007D400B704080051371545BD37713769372AC644
:1007E400A53F32459377150089EB13651500137502
:1007F400F50FF240E24405618280FD14E9FC0145F5
:10080400CDBF397126DC4ADA4ED852D656D45AD2E4
:100814005ED006DE62CE66CCB7E700E07D5783AAE1
:10082400070022C603AA470023A0E71823A2E7185B
:10083400B7170040130770052380E704130780FAF5
:100844002380E70483C74704930B75FFB684E2074C
:1008540093FBFB0F8546AA892E8B328937240040EF
:10086400E187015763FA76016308D50089461307C7
:1008740000026313D5000157D98F93F7F70FB71C04
:1008840000402382FC0411472303E4801305F00F86
:100894005D3D094CD135636D7C11B7050700DA95D0
:1008A40037870700795563F2E504B3879500636ED3
:1008B400F702370B0800A94733EB65016399F90682
:1008C40089E48144513D26850DA0DA850945553DCD
:1008D40005090345F9FFFD14050B693D81C49377B0
:1008E400FB0FFDF7DD3569FD7D55B7170040130794
:1008F40070052380E704130780FA2380E70403C705
:100904004704418B2382E704F250B7E700E023A0B9
:10091400571123A24711E25432445259C259325A50
:10092400A25A125B825B724CE24C21618280A54721
:100934006395F90685691309F00FB3069900B3743A
:100944002B01B6941349F9FFB3749900856B33797D
:100954006901416B9387F9FFB3F7270199E363FCBE
:10096400340193D94900C147E3E637FF99BF0569CC
:10097400C1697D19D9B71305800D63886901130511
:1009840000026384790113051008CA85DD3B353DF7
:1009940021DD4E99B3843441D9B7DA852D45D53359
:1009A400CA94E30099F205097D3BA30FA9FED5BFC4
:1009B4009387F9FF93F7F70F6361FC0C83C71C045B
:1009C40013073008631FF70437070800636BEB0451
:1009D400B3079B00B706100063F5D704334BEB0055
:1009E40089476393F9068980D549E38C04ECDA8559
:1009F4000945413B11090327C9FF91472320E4809E
:100A040003076480E34E07FE23033481FD17EDFBE7
:100A1400FD14110B81C49377FB0FE9FF7D3371F54E
:100A2400E1B5B717004003C75704B70708001377A9
:100A3400070219E3B78707007955E378FBEA330720
:100A44009B00E3FFE7F855B58547E382F9F2DA85C1
:100A54002D45053B9389F4FFE38504E6293393F799
:100A6400390091EB8326048003270900930749008A
:100A7400E39AE6E43E89CE84F1BFB5476396F90074
:100A84001305900BC93135BDB1471305B00AE38B8B
:100A9400F9FE99476391F904B7050800B365BB00F3
:100AA4002D45C53181448D4BA14975396396740137
:100AB400832704802320F9008504E39834FF8327E7
:100AC400048013172B01635507002312F900D5BBCB
:100AD4002322F900FDB39D476399F902814513056B
:100AE400B0044531BD442320090023220900FD59E7
:100AF4009D3993F77400CA9703C70700FD14398D15
:100B04002380A700E39634FF6DBBA1476392F904E9
:100B14006D398144630D0B008D479304C003630852
:100B2400FB009304000563048B01930440041375D4
:100B3400C507E30895D819453931393905452131B7
:100B440026850D3909453D314931E31C05D669BB7C
:100B540091476399F90013056006F536F53E1305D0
:100B640090090DB7E38F09D4F154A9BB19CD91CDE8
:100B740009CE81473387F500834607003307F50024
:100B840085072300D700E317F6FE828019C991C9AF
:100B940009CA910583A7C5FF11057D16232EF5FE0D
:100BA400C5BF828001C919C62A960505A30FB5FEE3
:100BB400E31DA6FE828081473307F5000307070083
:100BC40019E33E8582808507C5BF01112E8626CA9A
:100BD400AA84131506019305F004418122CC06CEA4
:100BE40032C6EF00B0602A8401C53246A685BD3FF7
:100BF4002285F2406244D24405618280854715C152
:100C04008DC105C28147B306F5003387F50083C65D
:100C14000600034707006398E6008507E315F6FE20
:100C240085473E8582808147EDBF9307F6FFBE95D9
:100C34002A966313C5008280FD1583C71500050538
:100C4400A30FF5FEFDB7AA87014581CF09CE3E96D5
:100C5400850703C7F7FF6317B700E39BC7FE054586
:100C64008280828001458280797197370000938762
:100C7400273C22D4804306D626D24AD04ECE52CC2C
:100C840056CA5AC85EC679C0B7C4C901014B973960
:100C94000000938969399384F437173A0000130AE2
:100CA4006A39973A0000938A6A33173900001309A6
:100CB400A93C8357240095E35C44631D0B0017375C
:100CC40000002327F736832BC4002285EF00305F12
:100CD4005E84B9A82326FB00FDB783A70900829789
:100CE4001C443307F5406376F500032749001D8F44
:100CF4002A9763E2E4089737000023A9072E835557
:100D0400240003450400974000E0E780E0895C404C
:100D14005844A1CB0C4403264900AE97BE8663E435
:100D2400B70063E4C700B386C74014C4228B3A8477
:100D340049F0973700009387672A9C4B09476372F1
:100D4400F706F917173700002322F72AB250225466
:100D540092540259F249624AD24A424BB24B45611B
:100D6400828063170B009737000023A3E72CA1BFF1
:100D74002326EB0089BF03274A0209CF63EFA700AC
:100D84003385A74083A70A016376F50097370000EF
:100D940023AEA724228B404461BF03274900BA979E
:100DA400C5B79737000023A307244DB7411122C4C8
:100DB40017340000130444251C4006C626C24AC04A
:100DC40091C782979737000023A007249737000024
:100DD40083C75744858B973400009384644395C339
:100DE40097370000A388074283C774001547637AC6
:100DF400F700E52B83C77400F5178A07A2979C4375
:100E040082971C4491C38297173900001309092261
:100E140003270900173600000346561C97370000C5
:100E240083C7C71B93961700BA9683D60600D5CE00
:100E34009737000083C7871A63E3C70C973700000E
:100E4400238E07181C40639D07129737000083C741
:100E5400B73C91CF83C7740093F7F70F89EB9737AB
:100E64000000A38B073A977001E0E780807A9737F8
:100E740000009387671B9C43638407109737000027
:100E84009387871FDC43173700002321F716E93BBC
:100E9400973700009387071ADC53FDC31737000008
:100EA4001307C713184B9737000083C7F7196369F3
:100EB400F70C83C7740015476364F70C9737000079
:100EC40083C7C739918BCDEF0326090097360000FD
:100ED40083C6D61063CCD70A2244B2409244024956
:100EE4004101174300E0670023B7850793F7F70F25
:100EF400973600002384F60EE3E2C7F215BF860797
:100F04003E97835507002310070097370000239B63
:100F14000710973700009387E70E9C4317350000AE
:100F24000345C50B13172500BA979C43829797373F
:100F3400000083D7270F173700000347270A93C7FA
:100F4400F7FF7D8D93171700032709003E978357FA
:100F540007005D8D2310A7009737000083C707089B
:100F640091C7850717370000230AF70617370000D3
:100F74000347C7069737000083C75706E370F7ECAB
:100F8400B2402244924402494101828013971700DF
:100F94003297035707006DF785072DBFAD6737C735
:100FA4000040BD072326F7200F10000097370000EC
:100FB4009387C702C84F83278726BD66BD0693C79C
:100FC400F7FF99836A052326D7205D8D828041111E
:100FD400B7170040985F3AC6945F3247E39CE6FE39
:100FE4003245410182801305F00F8280011122CC29
:100FF400604126CA4AC84EC652C406CEAA841D4AB7
:10100400130965058549BC446364F4000545B9A02A
:1010140003C7D40083474400631A470503C7840207
:101024006304F7000040C5B70347540083C7540561
:10103400E31AF7FE1946CA8513056400C136E313A3
:1010440035FF0347C40083C79402E31DF7FC03572D
:10105400E40083D7A402E317F7FC0145F24062449D
:10106400D2444249B249224A05618280E31CF7FA1C
:101074000347540083C75405E316F7FA1946CA8593
:1010840013056400A53EE31F35F9C1BF011197376D
:1010940000009387272822CC03A4070C26CA06CE77
:1010A4002AC42EC6854419E40145F2406244D24460
:1010B400056182808347910003471400858B630494
:1010C400F7000044CDB719469305A1001305240089
:1010D4003536E31895FE0545C9BF173700001307D9
:1010E40027121C439306001094C301000100010061
:1010F40001001C4323A00700834615000348250074
:10110400A2064208C29603480500C2960348350069
:101114006208C29694D78346550003486500A20628
:101124004208C29603484500C29603487500620807
:10113400C296D4D7834695000348A500A206420868
:10114400C29603488500C2960348B5006208C29659
:1011540094DB8346D5000348E500A2064208C29604
:101164000348C5000345F500C2966205AA96D4DB80
:1011740083C6150003C52500A2064205AA9603C529
:101184000500AA9603C535006205AA9694CF83C6C6
:10119400550003C56500A2064205AA9603C545008D
:1011A400AA9603C575006205AA96D4CF83C6950096
:1011B40003C5A500A2064205AA9603C58500AA9602
:1011C40003C5B5006205AA9694D383C6D50003C5AA
:1011D400E500A2064205AA9603C5C50083C5F5002D
:1011E400AA96E205AE96D4D3D443F59AD4C3D44395
:1011F40093E61600D4C3944393E6160094C3BA87C7
:101204009443D842058B59E3984E01452300E600E8
:101214009843184F2183A300E6009843184F418355
:101224002301E6009843184F6183A301E6009C4321
:10123400D84F2302E600D84F2183A302E600D84FFB
:1012440041832303E600D84F6183A303E600985348
:101254002304E60098532183A304E60098534183B2
:101264002305E60098536183A305E600D8532306BB
:10127400E600D8532183A306E600D853418323070D
:10128400E600DC53E183A307F600828001008DBFF2
:1012940017370000130707F71443411122C49C5E5B
:1012A4004AC006C6998326C2858B3A841739000042
:1012B400130909F5D1CB9C5E97340000938444F55F
:1012C40093F7F7F99CDE173700000347C7F4930739
:1012D4000008631BF700832709009C4393F7070466
:1012E400173700002309F7F283C7040093F70704B4
:1012F4009DC397370000938727D39C4382979737E2
:10130400000023AFA7F083C7040093F7F70B173748
:101314000000230FF7EE83C7440093F707048DE71B
:10132400854717370000A307F7EE97370000938728
:10133400E7EF9C43096798C7130700FC9736000042
:10134400238AE6ECD844F8D31C40985F1183058BBC
:1013540009CB985F3D9B98DF054797360000238BA8
:10136400E6EA985F1D83058B11CB985F1377F7F737
:1013740098DF854717370000230EF7E88327090015
:10138400D8430583058B19C7D843759BD8C3D84365
:10139400799BD8C3B24022449244024941018280DD
:1013A400397106DE16DC1ADA1ED82AD62ED432D2C9
:1013B40036D03ACE3ECC42CA46C872C676C47AC249
:1013C4007EC0F935F250E2525253C2533255A255FF
:1013D400125682567247E2475248C248324EA24ED3
:1013E400124F824F2161730020309737000093879A
:1013F400E7E3944397370000938787E103C7070027
:10140400058B11CB97370000238607E09737000040
:10141400A38207E0828003C71700058B65F7F852A3
:1014240071FF83C75700DDB717380000130888DD44
:10143400032708001C5F9583858BD1E709C61C5BD5
:10144400BD832300F60085CA83270800985B4607FE
:10145400935767016356070093E707C0C207C18328
:1014640003970600C207C18709C7BA970947B3C7DC
:10147400E7022390F60085CD834715008DCB973680
:10148400000083C646D993F606041387970089475C
:101494008DCA3A9503470500854699471376F706A2
:1014A4006311D60262076187B947634C070083273B
:1014B40008009C5FED838D8B17370000A30FF7D4D2
:1014C40081473E8582808547EDBF411122C406C60F
:1014D40017340000130484D518403DE9AE877453D3
:1014E400FDFE3E85B28597370000238407D29770AE
:1014F40001E0E78080E5973700009387A7D09C43FD
:10150400B70680009843558F98C3D857719BD8D796
:1015140097370000A38007D097370000A38A07CE2F
:101524001C40094798C3144017370000130747CEDF
:1015340083472700858B89EB83473700858BD9C781
:1015440097370000238807CCB240224441018280AF
:101554008D476310F502973700009387A7CA9C4311
:10156400B70680009843558F98C3D857719BD8D736
:101574005DBF8547E319F5FA5447F977FD17F58FF1
:101584005CC70F1000001C40096798C7130700F8D8
:10159400173600002300E6C817370000130787C674
:1015A4001043184231830D8B11E713076019F8D3E8
:1015B400D4C795BF1842094631830D8B6315C70004
:1015C4001307E043EDB71307E01BD5B7FC52ADF3A7
:1015D400A5BF5D71A2C4A6C22A8413068002280096
:1015E400AE849305100886C6CAC04EDE52DCEFF006
:1015F4006FDB3545977001E0E78040141733000036
:10160400130343C0832703009376F41F173E00009F
:10161400130E0EC723A40700984B973E0000938E29
:10162400EEC0370FFCFF1367F70398CBF84F130591
:1016340010F8B7020400137707E0558FF8CF9843EA
:10164400F576FD16758F98C39843B7063300930358
:1016540080251377F7E798C3984311497D1F1377C3
:10166400F7E71367071098C303270E008549930F04
:1016740080021C47D58F1CC783A70E001307900D4B
:101684003400B8CB014793553700A69583C70500AE
:1016940013767700B3D7C740858BE1C38327030054
:1016A40083280E00239C07042390070603A8C8027E
:1016B4001378D8FF23A6080383A807001378F70735
:1016C40093F808F833E8080123A0070103A84702A8
:1016D4003368580023A2070383A80E00014823A2FD
:1016E400780603DA07066307480303A80703038A97
:1016F40006001358F80062081358884163580A0119
:1017040003A807031358F8002380060103D807062B
:101714001378F80F03AA480663060A0003DA87055C
:10172400E37F49FB03A847023378E80123A20703B8
:1017340083870600635CF40003C805003396C90080
:101744001346F6FF337606012380C5003E8663D335
:10175400A7002A8613158601618505071377F70FFD
:101764008506E312F7F3B640264496440649F25937
:10177400625A6161828097360000938626AB9C4250
:10178400D847131617016355060298471316170115
:10179400635006027D57B8D7173700001307078434
:1017A400584F0507173600002328E684116798C7A9
:1017B40098470D83058B1DC317370000034767A5A2
:1017C40013671700173600002305E6A4130700F873
:1017D400173600002300E6A4214798C79847058BD5
:1017E40009CF173700000347B7A21367170017364E
:1017F4000000A30FE6A0054798C798470983058B07
:1018040009E798470583058B31CF984717360000C1
:10181400130606A0173500001305C59E0983058B22
:10182400630307101841184331830D8B75EBAC4BE0
:10183400184E93F5050203471700CDCD79EF130732
:101844007006D8CF03470600136717001736000049
:101854002300E69C114798C718415C57F19B93E716
:1018640017005CD79C4298479316370163D606024B
:101874009736000083C686B1C18A17370000130764
:1018840067A9C5CE03478707136707029736000089
:10189400238EE6AE056798C798479316270163D150
:1018A4000602173700000347E7966207618763570C
:1018B4000700054797360000238EE694096798C70A
:1018C40098479316070163D606029736000083C62D
:1018D400F6AB858A173700001307C7A3ADCE0347BD
:1018E40097071367270097360000A381E6AA2167AC
:1018F40098C7828029D785456315B7001307B006BA
:1019040089B789456315B7001307F0061DBF8D45D8
:101914006315B700130730072DB71307500715B722
:101924001307600739BF03473600136717001736DC
:101934000000A300E68E094739BF8346870709469E
:10194400BD8A6388C600034787078D463D8BE31332
:10195400D7F4114725BF83469707918AC9DA03470D
:1019640097071367870041B7397106DE16DC1ADA68
:101974001ED82AD62ED432D236D03ACE3ECC42CA43
:1019840046C872C676C47AC27EC0F533F250E252BB
:101994005253C2533255A255125682567247E247E9
:1019A4005248C248324EA24E124F824F21617300F8
:1019B400203097370000938767879843856793871C
:1019C40007777CD3973700009387878B9C4383A644
:1019D4000709139656006358060083A60709139651
:1019E4006600634406007453FDF2828071C5AA87C1
:1019F4000145E9C58D07C207C183F19BC207C183B5
:101A040013074003636FF7021737000013070790AB
:101A14000843173700001307E78E14436398A602A0
:101A24001727000013070761185B014541CB4111DB
:101A3400C20706C60545DD8D0297B2400145410146
:101A44008280173700001307278CD9B70357650026
:101A540035E303574500636FF704B306F7402146A7
:101A6400637CD60203280500938687001D8FAA96FF
:101A74006117172600000356C6562392E60023A0DA
:101A840006012393060014C12312F500130786FFF1
:101A9400972600002397E6542313B50097250000EA
:101AA40083D52554B387F54017270000231BF7522D
:101AB4002105828008419DB70145828082800DC145
:101AC400973700009387878403A3070097370000A4
:101AD4009387478383A8070081469A8763E31701A6
:101AE400828003A80700636DF50A636BA80A138755
:101AF4008700E367E5FE03D66700216705076317E0
:101B0400E60003C7C19205072386E19297250000EA
:101B14009385C54C03D6470003D76500239307007C
:101B240032974207418317250000231CE54A638A44
:101B34006702172500001305257D08416303F5029C
:101B440003D5660019ED83D7460023A006012107BB
:101B54003E9621062392C600972700002393E74868
:101B6400B6879843E30E17F7972600009386C67945
:101B74009442E307D7F683566700BDF283D6470045
:101B8400035647001843A106B2962392D70098C380
:101B940083D76500A107172700002314F744828028
:101BA400BE86C28725BF0327851163020712411130
:101BB40022C406C68347C5008345E5042A8493F7F7
:101BC400C70F2306F500834697000356C7001395F5
:101BD4008601618563F2C508635B050603458700DA
:101BE40093F6F607A304D700054693E6270063148B
:101BF400C50093E617002306D4005C4389075CC341
:101C0400A30AB400032504112E864C430905EFE012
:101C1400FFF58327841103465401D44303D7C70037
:101C2400B296118FD4C32396E7008947A30DF4001D
:101C3400034764039727000083C7E7406378F704EA
:101C44008347C40093E707012306F40081A093E7C8
:101C540017002306F4006DB79376F60F635D050253
:101C640003458700854513E627006314B50013E692
:101C740017002306C400A30AD400A3040700854761
:101C8400A30DF400832784119C43DDF3B240224466
:101C940001454101828093E717002306F400A30A5B
:101CA400D400A3040700032504114C430905EFE005
:101CB400FFEB8327841103465401D44303D7C700A1
:101CC400B296118FD4C32396E7008D4755BF0545BF
:101CD4008280972700009387A7769C43411122C4F2
:101CE40006C6858B2A84C5EF4165130525F5972023
:101CF40002E0E780A00D45C58347A5002315F50044
:101D040083270412BDE72320A4122322A4128547AB
:101D14002311F4042320050083476401544123164E
:101D2400F5000347D4002304E5000547A304E500B8
:101D3400172700001307C74D184F13851702158185
:101D44001C437D151375F50F9CC25C43DCC21C4714
:101D54009CC65C47DCC61C4B9CCA5C4BDCCA1C4F53
:101D64009CCE5C4FDCCE19CD938606021307070286
:101D7400C1BF8327441288C3835724042322A41297
:101D8400850779B79727000083D747598507172711
:101D940000002315F758B240224441018280834752
:101DA400C40023090400054593C747002306F40033
:101DB400DDB78347850193F7E70FD5EF8347950197
:101DC400DDEB034625018346C50009CA8345650347
:101DD400172700000347372763E7E50013F70601D9
:101DE40041CF014709C6C18A0357651C81C6835682
:101DF400A51C369751C31307C712172500000355B6
:101E04002528B335A70237460F00411113060624CF
:101E1400814622C426C206C67D543305A7029750C4
:101E240002E0E78020FA9727000083C73722B384B3
:101E3400A700972700009387E74D03A78709832707
:101E4400070963F387003E84184375FB9727000056
:101E54009387871D9C43829781476364A400B307DB
:101E6400A440B2402244B3B7970093C717009244EA
:101E74003E854101828081473E858280972700000C
:101E84009387C73A98437C53FDFF8280797126D2A9
:101E940006D622D44AD04ECE52CC56CA5AC85EC6B2
:101EA4008347550303447513AA843E941374F40FB3
:101EB4009307400263F687001304B4FD1374F40F10
:101EC40003AA841383AAC413A38B84122286528583
:101ED400D685975002E0E78060E9058915E503CBD4
:101EE400D41201498149337B6403930B50024A861F
:101EF4005285D685975002E0E78040E7058915C5ED
:101F0400639169031374F90F238B8412B250225422
:101F140092540259F249624AD24A424BB24B456149
:101F240082808509E20993D989410509E31179FD84
:101F3400E1BF8327850903560504797193D6070108
:101F4400BD8EC206C182358E1357764093575640D4
:101F5400898B058B5D8F93573640918B5D8F93579B
:101F64001640A18B5D8F93171600C18B5D8F93175D
:101F7400360093F707025D8F93175600935586003A
:101F840093F707041E065D8F1376F60F518F93D7D0
:101F9400554013D63540118A898BD18F13D675409D
:101FA400D18F13D61540218AD18F13961500418AFB
:101FB400D18F1396350013760602D18F13965500F0
:101FC400137606049E05D18F93F5F50FCD8FA207E6
:101FD40045465D8F3307C70222D42A8426D252CCC9
:101FE40056CA032A8413832AC4135AC806D63697BA
:101FF4004207418393577740135557400989858B8E
:10200400C98F135537401189C98F1355174021893A
:10201400C98F131517004189C98F1315370013751C
:102024000502C98F131557009355870013750504CE
:102034001E07C98F1377F70FD98F13D5354013D7E0
:1020440055401189098B498F13D57540498F13D594
:1020540015402189498F139515004189498F13959E
:10206400350013750502498F139555001375050442
:102074009E05498F93F5F50F4D8F2207D98FB387AE
:10208400C7024AD04ECE5EC662C4B697C207C183A9
:1020940013D7774013D557400989058B498F13D53A
:1020A40037401189498F13D517402189498F1395DA
:1020B40017004189498F1395370013750502498F1D
:1020C4001395570093D58700137505049E07498F10
:1020D40093F7F70FD98F13D5354013D7554011898E
:1020E400098B498F13D57540498F13D51540218924
:1020F400498F139515004189498F13953500137540
:102104000502498F13955500137505049E05498FE3
:1021140093F5F50F4D8F2207D98FB387C7021306A6
:1021240050025285D685B697BD8E93940601C18020
:1021340033F6C402137BF60F975002E0E78000C326
:1021440005890DED8347D41201498149B38497026F
:10215400130C5002C1804A865285D685975002E0FE
:10216400E780C0C00589937BF90F11C563863403EA
:10217400850993F9F90F0509E31F89FD230B6413FE
:10218400B250225492540259F249624AD24A424B02
:10219400B24B224C456182805E8BCDB7797122D4DB
:1021A40006D683C735002E8423160100A307F10049
:1021B40083C74500100802C02307F10083C75500F8
:1021C4008A8502C2A306F10002C402C802CA02CC74
:1021D40002CEEFE09FF00347F1018347040001457D
:1021E4006310F7020347E1018347140001456319B3
:1021F400F7000345D101834724001D8D13351500D5
:10220400B2502254456182800111972700009387C0
:10221400671022CC03A4870C26CA4AC84EC606CE31
:10222400AA8413092500854915C083C714000347F0
:102234003400858B6304F700405CFDB719469305B1
:1022440044004A85EFE09F9BE31835FF2285F24066
:102254006244D2444249B2490561828041119727C0
:1022640000009387270B22C403A4870C26C24AC00C
:1022740006C693042500054901E82285B24022449C
:102284009244024941018280A6851305A40239378C
:10229400E30525FF405CCDB74111972700009387E4
:1022A400670722C403A4870C26C24AC006C6930447
:1022B4002500054901E82285B2402244924402499E
:1022C40041018280A6851305A401C93DE30525FFCC
:0422D400405CCDB7E6
:1022D800971100209381019617610020130101D204
:1022E8001305400097E5FF1F938545D11706002089
:1022F800130606FE63FAC5008322050023A05500D5
:1023080011059105E3EAC5FE1775020013058570EE
:10231800970500209385C5FB1386418563FAC500A0
:102328008322050023A0550011059105E3EAC5FEA7
:102338001385818597250020938585116377B500DE
:10234800232005001105E36DB5FEFD42739002BC24
:102358008D4273904280930280087390023097E216
:10236800FF1F9382A2C993E23200739052309712F2
:1023780000009382823273901234730020303D4300
:102388002A876373C3029377F700BDEFADE59376B1
:1023980006FF3D8ABA960CC34CC30CC74CC741070D
:1023A800E36BD7FE11E28280B306C3408A06970228
:1023B800000096966780A6002307B700A306B7001B
:1023C8002306B700A305B7002305B700A304B70089
:1023D8002304B700A303B7002303B700A302B70081
:1023E8002302B700A301B7002301B700A300B70079
:1023F8002300B700828093F5F50F93968500D58D5D
:1024080093960501D58D61B7939627009702000032
:1024180096968682E78086FA9680C1171D8F3E962B
:10242800E374C3F8A5B7B717004003C77705137758
:10243800E70FA38BE704130700F8A38DE7043D47D4
:10244800238CE70413075003A38CE704828041110F
:102458002A83014E930E407E130F0019930F4006F6
:1024680063E66E149308001913034006B378150346
:10247800854E0D4FA14F337365020D891335150035
:1024880063E0BE161308F6FF79467298420813589F
:1024980008013307C70213D61700BE0732976146F3
:1024A800B3F6C60213068070B386C6023697A166D5
:1024B800F58F42075D8FB716004083C7F60293F782
:1024C8000708A307F1000346F10083C7F60293F754
:1024D8000708E394C7FE8347F100B716004093F757
:1024E800F70F63890714F3270080A18B93868185F2
:1024F8006398071401000100B71700401306700520
:102508002380C704130680FA2380C7040100010052
:1025180023AA070303C6170313660608A388C7027E
:1025280023800704732600809C42A18BD18F73906F
:10253800078023AC0184010001001166B715004033
:102548007D16DC59C85DA98FF18FE5FFF327008060
:10255800A18B89CBF327008023ACF1849C42DD9BBF
:102568007390078001000100B7170040130670053B
:102578002380C704130680FA2380C70401000100E2
:10258800D8DB03C7170313670704A388E702238070
:102598000704732700809C42A18BD98F7390078012
:1025A80023AC018401000100410182807D1333685E
:1025B800E3039308E016630E08003368F3039308F7
:1025C800D016630808009378330093B818009388EE
:1025D800D81633081E01131E0801135E0E0149B5F3
:1025E8006393E50305486386080001486303030015
:1025F8002A8871087298FD15131E0801C205135E1A
:102608000E01C181B5BD13F8150063F4BF00790848
:10261800D5B713381800E5BF83C7F60293F7070844
:10262800A307F1000346F10083C7F60293F70708F2
:10263800E394C7FE8347F10093F7F70FF1DF65B521
:10264800F327008023ACF1849C42DD9B73900780C4
:1026580055B5914763EEB702176702001307473174
:102668008A05BA959C41BA978287B717004003A795
:10267800470B1345F5FF698F23AAE70A03A7070B42
:10268800698F23A8E70A03A7070A798D23A0A70A59
:102698008280B717004083A6470B1347F5FFF98ED2
:1026A80023AAD70A83A6070B558D23A8A70A83A6B2
:1026B800070A758F23A0E70A8280B717004003A78F
:1026C800470B498F23AAE70A03A7070B1345F5FF12
:1026D80045BFB717004083A6470B1347F5FF758F13
:1026E80023AAE70A03A7070A598D4DB7B717004071
:1026F80003A7470B498FEDB7914763EEB7021767FA
:102708000200130727288A05BA959C41BA97828741
:10271800B717004003A7470D1345F5FF698F23AA94
:10272800E70C03A7070D698F23A8E70C03A7070C7D
:10273800798D23A0A70C8280B717004083A6470D88
:102748001347F5FFF98E23AAD70C83A6070D558DDD
:1027580023A8A70C83A6070C758F23A0E70C8280FB
:10276800B717004003A7470D498F23AAE70C03A713
:10277800070D1345F5FF45BFB717004083A6470D62
:102788001347F5FF758F23AAE70C03A7070C598D8C
:102798004DB7B717004003A7470D498FEDB79357BB
:1027A800E50093F70730C98FC2070547C1836382E5
:1027B800E5048DC10947638DE5040D476380E5068F
:1027C80037170040231FF70883562709D58F231989
:1027D800F7088280371700400356670993C6F7FF4A
:1027E800F18E231BD7088326C70C558D2326A70CEB
:1027F800C1BF371700400356670993C6F7FFF18E2C
:10280800231BD7088326870C558D2324A70C4DBF7F
:102818003717004083566709DD8EE1B73717004048
:1028280083566709DD8EE9BFB74700401147A3818A
:10283800E70009472380E700130700062380E70025
:1028480003C7170013670701A380E70003C7170032
:102858001377E70FA380E700828089473747004056
:10286800631DF5008347170093E70704A300F700EB
:10287800B7470040A381A70082808347170093F7DA
:10288800F70BEDB7B747004003C707001377F70EFC
:102898002380E700131705012E9541834205239CE9
:1028A800E7004181239EA7002396B700254723838D
:1028B800E70003C7170013671700A380E70003C7E3
:1028C8006700058B6DDF03C717001377E70FA38039
:1028D800E7008280B717004003D587004205418191
:1028E8009377050491EB9377F5013755E8011305C4
:1028F80005803345F50282809377050C13070004A1
:102908006397E7009377F50137459C1CCDB72165A0
:10291800130505D08280B7F700E08847CC4782804E
:10292800814737370040A14663C4C700328582809B
:102938000345B740E38EA6FE3385F5000345050041
:1029480085072304A740CDB797070020938787AE54
:102958009C43172700201307A7AF3E95636EE50039
:1029680017570020130787496368A7001707002037
:102978002322A7AC3E858280FD57EDBF411122C4BA
:1029880006C62A84813F2947B307E502B2408D83F2
:10299800B3D7870222449507B3D7E70237370040F9
:1029A800C207C1832316F740410182807165411136
:1029B8001305052006C6D937B7370040130770F846
:1029C8002381E7400D47A381E74013070004A38054
:1029D800E74005472387E740B24041018280373707
:1029E8000040834727401A0593F7F703C98F93F7E9
:1029F800F70F2301F7408280B737004003C717401D
:102A080019C9D98DA380B74003C70740136787004A
:102A18002380E740828093C5F5FFF98DA380B740F6
:102A28008280411193962500AA852D4506C697E018
:102A3800FF1FE780C0DCB24001454101828041119F
:102A480026C29394250022C44AC02A843289A686C5
:102A5800AA850146254506C697E0FF1FE78020DACC
:102A6800A6864A86A285294597E0FF1FE78020D9D8
:102A7800B240224492440249014541018280011139
:102A880022CC06CE3714004026CA4AC84EC652C4C5
:102A980083447405034AB4058349840503499405AE
:102AA80059328347A40593F4F40F137AFA0F93E786
:102AB8001700230DF40493F9F90F1379F90FB717D9
:102AC800004003C7A705058B6DFF03D5C705A38D78
:102AD8004705238C3705A38C2705A38B9704F24061
:102AE8006244D2444249B249224A05618280411176
:102AF8009397050122C406C6C1872E8463DD0700AB
:102B0800EF10C07519C1EF10406E2165218DB240DC
:102B180022444101828093F7150013C51500E5FB97
:102B28009397250163D20708EF50716FB7170040DC
:102B380083C7E70293F7C70F93E71700732700804F
:102B4800218B9386818509CB7327008023ACE18490
:102B580098425D9B73100780010001003717004001
:102B6800130670052300C704130680FA2300C70460
:102B7800010001002307F7022300070473270080E0
:102B88009C42A18BD98F7390078023AC01840100EC
:102B9800010037F60200130606E0896503C5E185E2
:102BA800EF10D03709659DB7939715010145E3D01C
:102BB80007F6176502001305E5E3EF40323B1306FD
:102BC8000064916503C5E185EF10503511653DBF7F
:102BD8001D71494697650200938505E21775020045
:102BE8001305058F86CE97E0FF1FE780E00001E917
:102BF80017650200130585E1EF40523701A0B7F6CB
:102C080000E0795798CAFD57DCCA0567B7E700E0C6
:102C180023A0E7101306F00290C223A0E7180100D2
:102C280001001306C0038145480897E0FF1FE780AD
:102C380020F7970700209387E7B13ECA89679387F3
:102C48000780231CF100A167938707E03ECEB707F2
:102C58000105938707103ED0ED472312F1028547FF
:102C68002303F102970700009387E7DBBEC49707A9
:102C78000000938707DDBEC6B7F507009707000079
:102C88009387A7C935473EDA81469707000093879F
:102C980047DF7000E10519452304E102A305E102BD
:102CA8003EDE97E0FF1FE78080B5580881479946C8
:102CB80070003E960346060085070507A30CC7006B
:102CC800E398D7FED24791C703578101856763739D
:102CD800F70001A04808EF10507EAA8501C91765C2
:102CE80002001305E5D3EF40321401A0F640256138
:102CF80082804111170500001305A5DF06C622C40E
:102D0800EF10F0771384E1852300A4001928034508
:102D180004002244B24013060032896541016F1055
:102D2800F01F411106C6F3270080A18B9386818589
:102D380089CBF327008023ACF1849C42DD9B739000
:102D4800078001000100B7170040130770052380B2
:102D5800E704130780FA2380E7040100010003C792
:102D6800F70213677700A387E70223800704732716
:102D780000809C42A18BD98F7390078023AC01847B
:102D8800010001001305407E814701478146054641
:102D98008545EFF0CFEBB240014541016F20802619
:102DA800B305B04017650200130585C96F40D20707
:102DB800011122CC2316C10032846C0003C611878E
:102DC80006CEEF602055A28517650200130545C899
:102DD800EF409205F240624485472382F1860561FF
:102DE8008280011122CC36C606CE2E84EF104067B1
:102DF800B24637460F00130606243376C50291CA39
:102E0800B285176502001305E5C532C6EF40D20149
:102E1800324622856244F240814505616FA04179BE
:102E280081E9B285176502001305C5C46F40C27FEA
:102E38008547639DF500176502001305E5C409C6BB
:102E480017650200130545C56F40521289476398FC
:102E5800F50017650200130525C57DD682808D47CC
:102E6800E39EF5FE17650200130505C571DEB28500
:102E780017650200130585C555BF03C7018793076A
:102E8800100363F0E706828093153400890519461C
:102E9800A6954A8597E0FF1FE78000D605ED050453
:102EA8001374F40F83C70187E360F4FE8E07890764
:102EB8003385F4001946CA8597E0FF1FE780C0CA2A
:102EC80083C7018713973700BA948507A380340115
:102ED8002388F186F2406244D2444249B2490561EE
:102EE8008280011122CC26CA4AC84EC606CEAE89B7
:102EF8002A8901449384019975B783472500494776
:102F08006366F71E17670200130707A98A07BA97AF
:102F18009C43411122C406C626C24AC0BA972A84D5
:102F2800828705041374F40F83C70187637DF40057
:102F38009315340089051946A6954A8597E0FF1F21
:102F4800E78080CB79DD83C70187639287041765A3
:102F58000200130525BAEF407201014685450D456B
:102F680023880186EF90414E17650200130585B747
:102F78002244B2409244024941016F40227F0144F9
:102F88009384019917F9FF1F1309494B71BF1765FE
:102F98000200130565B7EF40627D938701990E041F
:102FA800930624003E9403461400BE9681450145CD
:102FB800EF9021460566130606C89305002003C551
:102FC8001187EF10A075176502001305E5B44DB71A
:102FD8009305002003C51187EF1090168345140050
:102FE800B9E58947A387F1868357A40013060064CF
:102FF800A1452393F18003C5118785472382F18674
:103008000564EF10A071130604C8C14503C51187F4
:10301800EF10C070130604969305001003C51187BE
:10302800EF10C06F17650200130505B091B717655B
:103038000200130565B0EF40225F17650200130513
:1030480065AAEF40A272238801862244B2409244C6
:103058000249014685450D4541016F90E13EA38730
:103068000186F9579305001003C511872393F18052
:10307800238701862394018623880186238201867B
:10308800EF10100C8345640017650200130585AC2A
:10309800EF408259176502001305C5A4EF40026D81
:1030A8006DB7176502001305A5ACD9B51765020001
:1030B800130505AD75BD17650200130565ADEF4035
:1030C800E26A83454400130554002244B240924406
:1030D800024941015DB317650200130565ACC5B728
:1030E800B24022449244024941018280828039716F
:1030F8009397050126DA06DE22DC4AD84ED652D44A
:10310800C187AE8463D8072A03C51187EF1000155D
:103118002A8415C5034705009307000B631EF700B3
:1031280083C7F18609478345450093098500638273
:10313800E7024E85EF6080772285EF10000B21654E
:10314800258DF2506254D2544259B259225A216103
:1031580082800D476381E50205476390E5020347D6
:103168008500631AF7028345C50017650200130539
:1031780065A4EF40624B238201860347440093070E
:10318800F007631AF70083558400176502001305DA
:10319800E5A3EF406249834744002D476382E70275
:1031A80005476394E70203478400A9466319D702D9
:1031B8008345C40017650200130505A2EF40C24607
:1031C8002382018683454400ADB74D476393E702E8
:1031D80017650200130585A2EF404259D5B7C946C5
:1031E800631BD7048345C400176502001305C59FF8
:1031F800F1B76D476391E70417650200130505A150
:10320800EF4082420149176A0200130AAAA08357B5
:10321800A4006366F9002945EF40024565B75C44A0
:103228005285CA9783C5070005094209EF40C23F86
:1032380013590901E9BF03C7E18649D785466317D2
:10324800D7081D47639CE7028357840085CB5C44FD
:10325800176502001305859C83C5170003C6370050
:1032680003C7070083C72700A2052206D98D5D8EF4
:103278002396B1862395C186EF40023B83474400DD
:103288001D476393E70403471400E947E39CE7F20B
:1032980083D5C18685D989472387F186896793872E
:1032A800272003D6A1862316F10083C6118793072A
:1032B800A00203D561802314B1002315C1002307A0
:1032C800F100EF608002FDBD0547C9B78946631C60
:1032D800D7082547639EE7028357840095CB584457
:1032E800930500041306006483471700034707008B
:1032F80003C51187A207D98F2394F186EF100042E6
:1033080083D581861765020013050594EF40C23105
:103318008347440025476396E70403471400E947B9
:10332800E392E7EA8D472387F1869387C18683D79F
:10333800070003C611872C002314F1009387A18688
:1033480083D7070003D561802315F1009307202058
:103358002316F100930790022307F100EF60E005C0
:1033680095B5054775BF8D46E31ED7E4254763909D
:10337800E7048357840085CF584493050008130653
:103388000064834717000347070003C51187A20796
:10339800D98F2393F18623820186EF10203883D5B5
:1033A8006186176502001305A58CEF40E227238785
:1033B800018609BD93F7150085C317F6FF1F13068D
:1033C80026F197F5FF1F938565F103C51187EF80F7
:1033D800B17E13C51400B5B393F7052081CB4165C1
:1033E8007D15EFA0517F13C50420A1BB93F785007D
:1033F80095CB8967938727812314F100239401864D
:103408002395018623960186854783C61187094639
:103418002C0003D561802387F186EF60401813C51F
:10342800840005B393F7050191CF130780258146E2
:1034380013064006D14503D56180EFA0517913C525
:10344800040101B393F705029DC301478946094664
:10345800814503D56180EFA0517AAA8517650200DE
:1034680013058584EF40421C13C50402D9B993F7AC
:1034780005046385070C83C74186D9E317F7FF1F47
:10348800034787FB83D7818603D5618051C3231403
:10349800F1000147854781460546C9452315F100D6
:1034A80023180100EF507079835581002AC61765EB
:1034B80002001305A580EF402217B247B1C31307D6
:1034C800A0052380E70003C611872C0003D561807F
:1034D800EF50306F0DE985472382F18697F7FF1F7C
:1034E80083C787F593B71700130600649305000494
:1034F80003C5118717F7FF1F2300F7F4EF10002209
:1035080013C504043DB9C9452800EF60203ACDBF72
:1035180003C611872C002314F100EF50D0696DF118
:1035280085472382F18697F7FF1F83C7E7F093B794
:10353800170017F7FF1F2301F7F0D9B793F705080E
:10354800B5CB83C74186B9EF9387618683D70700D8
:10355800014781462314F10009468947C94503D527
:1035680061802315F10023180100EF50106D835579
:1035780081002AC61755020013050576EF40C20AD6
:10358800B2478DC3054423808700B24703C611871D
:103598002C00A380070003D56180EF50906211E5ED
:1035A8002382818613C5040869BEC9452800EF60D7
:1035B800E02FCDBF93F705100145E38407B803D585
:1035C8006180EFA0916005661306069693050010CA
:1035D80003C51187EF10801413C504109DB601119F
:1035E800170500001305E5B006CE22CCEF102069C0
:1035F8001384118785652300A400938505960945E2
:10360800EF30C04CD1451D45EF30404C9305400686
:103618002145EF30A04B930540063545EF30004B70
:1036280089472304F1007000854791451305F04050
:10363800A304F100A305F10002C623050100EFA0D1
:10364800C11D3000854513058040EFA0011D1306FC
:103658009100854513059040EFA0211C1306A10099
:1036680085451305A040EFA0411B1306B100854511
:103678001305D040EFA0611AEF60305403450400F1
:10368800EF601000034504008545EF003071F240FB
:1036980062440561828041111305800406C622C474
:1036A80097D0FF1FE780A09E371400408327840A25
:1036B8008D451305002093E707202324F40AEFE043
:1036C8005FF98327840A85451305001093E70710DF
:1036D8002324F40AEFE0FFF7EFF04FAD176502007F
:1036E800130505DFEF408208EF00D00EEFF04FCE54
:1036F800EFF02FE0EFA0B150DD35175502001305AC
:10370800E55EEF40A206EF00F0251755020013050D
:10371800E55EEF40A205952497D0FF1FE78040E7BC
:10372800371700405C5FCA07C9832310F500835729
:10373800A703C207C1832311F50083578703C20774
:10374800C1832312F50082808357050083D60500C4
:103758000357250003D62500958FB766260593865F
:1037680006C0B387D702118F9306007D0355450025
:103778003307D702BA9703D74500198D7947330520
:10378800E5021307803E3345E5023E958280835566
:103798002500411122C42A84175502001305C55675
:1037A80006C6EF307268835544002244B24017556C
:1037B80002001305A55641016F301267B717004084
:1037C80083A7470C9386818990424111918B06C645
:1037D8005D8E15E21385C188A1378547056623AC40
:1037E800F188130606969305000203C54181B2408D
:1037F80041016F00B07290423687854603C541810A
:10380800631ED606A5CF93050002EF10601313853B
:10381800418839379385C18813854188353723AC6A
:10382800A186AA871307100303C5418193050004E5
:10383800635FF7021307B0126349F700894723ACA7
:10384800F1881306003CC1455DB71307B05D854597
:10385800635FF70093050002EF10800E93050020C8
:1038680003C54181EF009053914503C54181EF00A5
:10387800F052B24023AC018841018280104389464E
:103888006319D6029DE7C145EF10800B1385C187E8
:10389800413D938541881385C1877D351307702580
:1038A80083C7418189456354A700930500403E853D
:1038B8007DBFA38A01861C431C4381454DBF41112E
:1038C8008D451305000406C622C426C237140040DD
:1038D800EFE09FE28327840C8D45056593E7070495
:1038E8002324F40CEFE05FE10327840C85648D4505
:1038F800458F2324E40C0565EFE0BFD58327840AB0
:103908008D450945C58F2324F40AEFE0FFDE8327A0
:10391800840C8D451305000293E727002324F40C3B
:10392800EFE09FDD8327C40C8D45054593E707022B
:103938002326F40CEFE05FDC8327840C930500203A
:10394800175502001305453E93E717002324F40C8E
:10395800EF30924D854513050020EFE0FFD9832510
:10396800440C2244B240924489818589175502004B
:103978001305055341016F30324B41111705000003
:103988001305E52106C6EF10802FAA85238AA1809A
:10399800175502001305053DEF301249B705080019
:1039A800175502001305C53DEF3012488545370508
:1039B8000800EFE07FD4B70504001755020013058F
:1039C800A53FEF307246854537050400EFE0DFD2AA
:1039D8009145175502001305E541EF30F24485453E
:1039E8001145EFE07FD19145175502001305454475
:1039F800EF30924389451145EFE07FDA8947A38983
:103A0800F18037070400B7E700E023A0E710B240D1
:103A180023AC0188410165B583C72181411113B7E2
:103A2800170022C406C62389E18017F4FF1F130478
:103A3800E4A48D4513050020B9E3EFE0FFCB371769
:103A480000408327870C0C403705000193E70720C7
:103A58007D152324F70C49259305002017550200EE
:103A680013058541EF30523C2244B24083C5218181
:103A7800175502001305454441016F30F23AEFE053
:103A8800BFC7371700408327C70C0C40416593E731
:103A98000720130505F02326F70C3D2D930500207C
:103AA800175502001305453F75BF83C7418741116C
:103AB80013B7170022C406C6238AE18637140040CC
:103AC800A5EF8327840C1305800C93E707042324B0
:103AD800F40C8327C40C93E717002326F40C8327E0
:103AE800C40C93E707022326F40C97D0FF1FE78046
:103AF80040A68327840C3705FF0093E70702232499
:103B0800F40C97F7FF1F938767978C43F12383275C
:103B1800C40C175502001305A53B93E70704232699
:103B2800F40CEF30B2442244B240130520034101A3
:103B380017D3FF1F6700E3A18327840C1305800CAC
:103B480093E707042324F40C8327C40C93E7170096
:103B58002326F40C8327C40C93E707022326F40CCE
:103B680097D0FF1FE780E09E8327840C1305F00F92
:103B780093E717002324F40C97F7FF1F93874790C8
:103B88008C43992B8327C40C175502001305C534A1
:103B980093E707042326F40C69B7411122C406C62B
:103BA80026C24AC093F715002E8485C31755020014
:103BB80013050533EF30923BCD3D13451400B24059
:103BC8002244924402494101828093F72500ADCBFB
:103BD800175502001305C531B7140040EF301239EC
:103BE80083A7C40C1305400693E7170023A6F40C1B
:103BF80097D0FF1FE780E09583A7C40C41651305A4
:103C080005F093E7070223A6F40C97F7FF1F9387A5
:103C1800E78603A90700CA85C1211305200397D0A9
:103C2800FF1FE780009383A7840C3705FF00CA8530
:103C380093E7070223A4F40C45211345240041B758
:103C480093F745009DCF175502001305652BEF30FC
:103C5800F231B717004003A7C70C014513670702E5
:103C680023A6E70C03A7C70C1367170023A6E70CC6
:103C780097F7FF1F938787808C43B9291345440022
:103C88003DBF93F70501B1C7B71700401387818976
:103C980083A7470C104389466315D602918B99CBAD
:103CA800854503C54181EF00700F23AC018813459A
:103CB800040131B71755020013058525EF30122B83
:103CC800EDB70C431755020013050528EF30D21540
:103CD800F9BF93F70502A9CFB71700401387818969
:103CE80083A7470C10438546631CD602918B95E346
:103CF800914503C54181EF00700A89451145EFE000
:103D08001FAA8947A389F18023AC018813450402BF
:103D18007DB51755020013056526EF303225EDB73E
:103D28000C43175502001305E528EF30F20FF9BFD1
:103D380093F78500A1CB3717004003558703035637
:103D4800A7034C5F938781891167944393071700F2
:103D58007D17F98DB337F50093C717000606C2051E
:103D68003E96C181175502001305C527EF30D20BC7
:103D780013060064A14503C54181EF00301A1345BD
:103D8800840035BD93F7050491CB17550200130540
:103D98002527EF30B21D1345040415B593F7051018
:103DA80091CB1755020013052527EF30321C134518
:103DB800041031B593F705209DCB17550200130564
:103DC8006527EF30B21A1385C188EFF05F9C138521
:103DD8004188EFF0DF9B938781878C43175502005A
:103DE8001305052EEF30520413450420C9BB93F781
:103DF80005400145E38507DC175502001305852DAD
:103E0800EF30D216134504405DBB411106C683C787
:103E1800118117E7FF1F13076766B716004095CB98
:103E280083A7860C0C433705000193E7070423A4F6
:103E3800F60C7D15552483C51181B24093B5150044
:103E4800A388B180175502001305452D41016F3035
:103E5800A27D83A7C60C41650C4393E7070423A6FC
:103E6800F60C130505F0F9B783C7018113B71700DE
:103E780041112388E18006C617E7FF1F1307076073
:103E8800B716004095E783A7860C05660C43D18FCB
:103E98003705000123A4F60C7D153D2CB24083C5DF
:103EA8000181175502001305652841016F30C2775B
:103EB80083A7C60C05664165D18F23A6F60C0C4373
:103EC800130505F0D9BF83C7F18013B71700411157
:103ED800A387E18006C617E7FF1F1307275AB716FF
:103EE800004095E783A7860A05660C43D18F3705FE
:103EF800000123A4F60A7D15C522B24083C5F180CE
:103F0800175502001305852341016F30E27183A71D
:103F1800C60A05664165D18F23A6F60A0C43130528
:103F280005F0D9BF83C7E18013B717004111238774
:103F3800E18006C617E7FF1F13074754B71600406E
:103F480095E783A7860C0C433705000193E7270004
:103F580023A4F60C7D154922B24083C5E18017558C
:103F680002001305E51E41016F30026C83A7C60CE1
:103F780041650C4393E7270023A6F60C130505F0CB
:103F8800D9BFB717004003D7E709118B31C303D74F
:103F9800E709411122C613674700239FE70883C733
:103FA80031810944639F87008D451145EFE02FFF5C
:103FB8008D47A389F180EFF07F803244410173007F
:103FC800203089451145EFE08FFDA3898180E5B751
:103FD800730020304111175502001305251906C634
:103FE800EF30C27895450545EFE01FA1175502004F
:103FF8001305C518EF3082773737004083472740CD
:104008002D4593E717002301F740EFE05F9D175513
:1040180002001305A517EF306275B240B7E700E05C
:104028003707000823A0E71041018280411126C20A
:10403800B28431463386C40222C42E84814506C622
:10404800EFE0EFB32A8E930534008148B14E130395
:104058000008254F93970801C18363FA9706B38632
:10406800D8031386D5FFF296B9A0834F060013082C
:10407800F5FF335803413378F80103870700631FBE
:104088000802136707F82380E70003480600B35FB8
:10409800A340038707003378F80163140802136705
:1040A80087002380E70009058507E310E5FD05067D
:1040B8009106630BB600B687054545BF136707FE33
:1040C800D9B71367E700F1BF85088D0561B7B2401E
:1040D8002244924441018280011126CA970400209B
:1040E800938484E861464AC84EC62E89AA898145C8
:1040F800268506CE22CCEFE08FA813D5890013754C
:10410800F50FEF304233CA85EF308204EF30422D8D
:104118001384418A2300A40013D509011375F50FF0
:10412800EF306231CA85EF30A202EF30622BA30074
:10413800A40013F5F90FEF300230CA85EF304201C1
:10414800EF30022A2301A400A28526850546F93D01
:104158006244F2404249B2492685D244B1450561DC
:104168006FE04FF241118D45116506C6EFE06FCE45
:10417800175502001305C514EF30425F8D452165C0
:10418800EFE02FCD371700408327C70AA166D58FE8
:104198002326F70AEFE04FE94D45EFE00FEC9707CC
:1041A8000020938767DC3E8561468145EFE02F9DBF
:1041B800E145EFE02FED97E7FF1F9387A72CB2406B
:1041C8008C434165130505F0410139B723AC05FE61
:1041D8001C4191E7010001000CC18280BA8703A746
:1041E80087FF6DFF23ACB7FE82801DC18346E5FFC4
:1041F8001307F00F9147639EE600411106C697E04A
:10420800FF1FE780808BB24081473E854101828055
:1042180095473E85828001E9014582800145B2408B
:1042280022444101828095654111938505D022C4BD
:10423800C98D2A842105C2054205C181418106C66E
:1042480097D0FF1FE780407A71D9FD5723200500DA
:10425800231285002303F5002105D1B71707002095
:10426800130707D71C43411122C426C24AC006C6F9
:1042780001440149BA8489E7A165D9251DC401A86B
:1042880003C7E7FF631AA7020DCCA165012E98406A
:10429800832784FF6319E40217070020232AF7D233
:1042A800FD57232C04FE230FF4FE2285B24022443E
:1042B800924402494101828011E03E8983A787FF29
:1042C8005DBF3E84E5BF232CF9FED9BFB1CD4111B6
:1042D80022C406C62A849707002083C7B7CF2E8535
:1042E8006375F400894763E8870001370D45B240DC
:1042F80022444101828083A785FF99E703C7E5FF30
:104308009307F00F6305F700CD351545CDB7238F1B
:1043180085FE170500201305A5CB4D3D22852244B7
:10432800B240A16541019DAC1545828097070020E8
:1043380023A007CA8280970700209387E7CE9C4373
:1043480099E33E85828003D727006316B70003C729
:104358000700E308A7FEDC47E5B7C9C1797122D495
:1043680006D626D24AD04ECE01444147B3D785401F
:10437800858BA5C31205314722953305E5029707BA
:104388000020938767CE03A907008544B39484006F
:10439800C204C180BE892A990327090011C70325D1
:1043A80049002EC60297B24531473304E40283A779
:1043B80009003E941C4489E72320090023220900B0
:1043C800B2502254A58D02599254F2492E85456166
:1043D80082800504E31CE4F88144DDB72E858280E1
:1043E80041111397050122C406C626C24AC0418757
:1043F8002E84635E07009D3511C1C53BA1673D8CC6
:104408002285B24022449244024941018280EDD97A
:10441800AA8701474146B356E440858A8DCE920764
:10442800BA97B146B387D702970600209386C6C3CA
:1044380003A906008544B394E400C204C1803E99F0
:104448008327090003254900829723200900232296
:104458000900258C75B70507E31FC7FA8144D5BF46
:1044680097070020938787BC9C53411122C406C636
:104478001384818199C782971C403E9523ACA18003
:1044880039A0970700209387A7B99C43EDF7084008
:10449800B74703009387D73F3305F502B7A7260030
:1044A800938737ECB24022443E9523ACA18041016A
:1044B80082807DC197070020938787B69C437971D6
:1044C80022D426D24AD04ECE52CC56CA5AC806D684
:1044D8005EC63A8AB689328BAE8A2A89829797074E
:1044E8000020938767B89843BE840144B146C1470A
:1044F800B30BD40233067701104251EAC1659385A4
:1045080005F0414597D0FF1FE780004E1DE597074E
:1045180000209387A7B19C5B2D4589C7114581452C
:1045280082972D45B250225492540259F249624A58
:10453800D24A424BB24B456182809707002093874D
:10454800A7AE984329E39707002023AFA7AC230021
:1045580005009C40054733178700232605002324C0
:1045680065012311E50023224501DE9723A02701D9
:1045780023A2570123A447010145E38509FA2380B3
:1045880089004DB73E875C47F5FF48C7C9B70504A2
:10459800E310F4F6214579B7094582809707002092
:1045A80083C757A36371F50217070020130787A76E
:1045B8009317150008433E9583570500DD8D23109A
:1045C800B500014582800D4582809707002083C78A
:1045D80077A06373F502170700201307A7A49317A2
:1045E8001500084393C5F5FF3E9583570500FD8DDB
:1045F8002310B500014582800D458280130705FF11
:104608001377F70FFD4763E9E70AB146B306D5020A
:1046180097070020938747A59843894736971843FB
:1046280049CF011122CC4EC60544935945003D8916
:104638003315A40013140501418026CA4E85AE84A3
:10464800A2854AC806CEC5392A89814731CDA285B7
:104658004E85A53F970700209387879C9C438297A8
:104668009707002083D747A1338797022A8481467A
:1046780013060064B3B7970213050732B335E50094
:10468800BE95EF206273B3078500970600209386D6
:10469800269E3E87D44263E4A70063E4D7003387AD
:1046A800D7402324E9008147F2406244D24442497A
:1046B800B2493E850561828089473E858280011125
:1046C80026CA06CE22CC4AC84EC6BD47894463EFE7
:1046D800A70231473307E502970700209387C79859
:1046E8009C438944BA979C4395C305443314A4005A
:1046F800420441802E890145A2853539AA89814421
:1047080011C5A2850145D13523A42901F24062448F
:1047180026854249D244B249056182809707002024
:1047280083C7578B6364F5000145828001119707A1
:1047380000209387E78E56C283AA070006CE22CCB4
:1047480026CA4AC84EC652C4638E0A0A170A0020EF
:10475800130A0A9283244A00B74736FE938707C88C
:10476800AE899705002083D52591BE94B387C502ED
:104778002A8432898146B3B5C50213850732B33717
:10478800F50013060064BE95EF20026363ECA406EF
:10479800829A9705002083D5258EB3872503AA849E
:1047A800130600648146B3B5250313850732B33772
:1047B800F500BE95EF204260B3079500BE8403273D
:1047C8004A0063E4A70063E4E700B384E740CE85CA
:1047D8002285EFF05FB601C504C505452DA0936598
:1047E80004F0C205C181414597D0FF1FE780C01F73
:1047F80005E597070020938767839C5B81C7A2859F
:10480800114582970145F2406244D2444249B24977
:10481800224A924A05618280970700209387C780C1
:104828009C439DE39707002023A0A7808547232664
:10483800050004C52311350123008500A300F500F8
:104848002322050059BFBA87D84775FFC8C7F9BFE3
:1048580059C9797122D426D24AD04ECE52CC56CAE2
:104868005EC662C466C206D65AC83689328AAE891E
:10487800AA844144314C97FAFF1F938AEA7E854CFB
:10488800930B0003330B840303A70A005A971C43B6
:10489800B1E79375F400B395BC0013554440C205C5
:1048A8005286C1811375F50F953D0DC983A70A007E
:1048B8000145DA9784C323A2370163040900230062
:1048C8008900B250225492540259F249624AD24A9B
:1048D800424BB24B224C924C456182800504E31353
:1048E80074FB2145F9BF09458280411122C426C2C3
:1048F8004AC006C62A842E89B2840D35CA85228507
:10490800EFF07FA305CD97F5FF1F83D5E576B38735
:1049180095022A84130600648146B3B5950213856F
:104928000732B337F500BE95EF20024948C001456C
:10493800B240224492440249410182802145CDBFC0
:10494800411122C426C24AC006C62A892E84EFF025
:104958009F9EAA8419C123110500A2854A85B531F5
:1049680097F7FF1F83C70767639B270197F7FF1F09
:1049780083D7C76A5D8C97F7FF1F2391876A014524
:1049880091E01945B2402244924402494101828093
:104998009307F00263E8A7044111B14722C4330426
:1049A800F50226C297F4FF1F9384046C9C4006C648
:1049B800A297984389470DC39377F5008545B3952A
:1049C800F500C205C1811181A53F9C40A29723A093
:1049D800070023A207008147B240224492443E8543
:1049E8004101828089473E858280411106C622C4E2
:1049F800EFF07F9411E50145B240224441018280E5
:104A080097F7FF1F9387C7619C430045829797F7E5
:104A1800FF1F9387E7656368A402D843B74636FE4D
:104A2800938606C83305A4403697E376E5FC13075A
:104A38000064B335E50203D6870081463305E502F5
:104A4800EF20823755BFD8433A94C1BF411122C4E1
:104A580026C217F4FF1F1304A46197F4FF1F938461
:104A680064579448584097F7FF1F9387675B06C6BB
:104A78009C436393E60882975440B74736FE938772
:104A880007C8B6973387A7003A856364F70063645D
:104A9800D7003305D74097F4FF1F9384E4769C4CE6
:104AA80081CF97F7FF1F9387277D94433707CDFF63
:104AB8007D179C46F98F9CC611E1484097F7FF1F68
:104AC8009387C756DC53829719E59C4C8DC3EF40FA
:104AD800810BEF3001619C4C99CB97F7FF1F9387AF
:104AE800A7799843B70633001C47D58F1CC7B24037
:104AF80022449244410182808297984897F7FF1F89
:104B080083C7175454401D8FB307A7003E8563E43D
:104B1800E700E3E2D7F83385D740B5BF411106C6B1
:104B280097F7FF1F23A4A7540295B24097F7FF1FDA
:104B380023AEA74A014541018280994763E9B7003E
:104B48008A0597F7FF1F9387A74BBE9588C1828078
:104B580041117146814517F5FF1F1305654A06C6C1
:104B680097F7FF1F23A2074C97F7FF1F23A00750B3
:104B780097F7FF1F23A6074A97C0FF1FE780400249
:104B880013068002814517F5FF1F1305A54497C03A
:104B9800FF1FE780E000EF90B11197F7FF1F83C771
:104BA800574A13D527008D8B3E958D473305F5025F
:104BB800854539051375F50F97F7FF1F238DA74016
:104BC80099473305F5021305052497D0FF1FE780A1
:104BD800A0E117F7FF1F2329A74859CD994717F6D2
:104BE800FF1F0346463F3306F60281451306062497
:104BF80097C0FF1FE780C0FA97F7FF1F9387C74644
:104C08009C439387072417F7FF1F2329F73E17F7BD
:104C1800FF1F0347473C0A07BA9717F7FF1F2323CD
:104C2800F740EFF0AFF0052B97F7FF1F9387073D8D
:104C3800944397F7FF1F83C7F739139727003697D1
:104C480017F6FFFF1306A67110C313871700137713
:104C5800F70F0A07369717F6FFFF1306A67810C353
:104C680013873700890793F7F70F8A0797F5FF1F10
:104C7800A382E536B69790C3B2404101828097F788
:104C8800FF1F83C7373517F7FF1F0347C73463F381
:104C9800E70217F7FF1F13076736184393861700B5
:104CA80017F6FF1FA308D63293962700369708C336
:104CB8003E8582809307F00FE5BF1C41638A071683
:104CC80041777D8FB706002089476314D7160357AD
:104CD800450063000716411122C419462A8493052A
:104CE800F00F690506C697C0FF1FE78080F50547E6
:104CF8008D47630AE5121C4481CB585899476304D1
:104D08000712185C630107121306C003814517F5E3
:104D1800FF1F1305A53197C0FF1FE78060E8130642
:104D2800C003A28517F5FF1F1305453097C0FF1F65
:104D3800E78080E317F7FF1F0357073097F7FF1F38
:104D48009387C72E19E71307001097F6FF1F2395BF
:104D5800E62E17F7FF1F0347472E11E7054797F67B
:104D6800FF1F238CE62C17F7FF1F0357272D11E78A
:104D78006D4797F6FF1F2393E62C17F7FF1F03478E
:104D8800D72B11E7154797F6FF1FA388E62A17F7D1
:104D9800FF1F0347C72A11E7054797F6FF1F238020
:104DA800E62A17F7FF1F0347972919E703C7F700F4
:104DB80097F6FF1FA385E62817F7FF1F0347472825
:104DC80011E7354797F6FF1F238CE62617F7FF1FD5
:104DD8000347572719E71307800297F6FF1FA38396
:104DE800E62617F7FF1F0347B72519E71307D00271
:104DF80097F6FF1FA386E6240347840119E71307E4
:104E0800C00397F6FF1F238FE6229C5791C782970E
:104E180097F7FF1F2394A71CFD5717F7FF1FA30F32
:104E2800F74A3D338147B24022443E8541018280A2
:104E380089473E85828001114EC697F9FF1F9389E5
:104E4800292383A7090006CE22CC26CA4AC852C401
:104E5800829713090064B335250303DA8900814674
:104E6800528633052503EF10327597F7FF1F938796
:104E78006716804FAA8401456306940233858440EF
:104E8800636E940003A5490052868146B335A90292
:104E98003305A902EF105272018D269597F7FF1F6F
:104EA80023A69714F2406244D2444249B249224AA6
:104EB80005618280011122CC0A852E8441469745DE
:104EC8000200938525B206CEEF20A26A18080604D0
:104ED8003A94035504FF97F7FF1F83D7071AF24048
:104EE8006244AA9737450F00130505243355F50288
:104EF8000561828097F7FF1F83D7271851471D4503
:104F0800637CF702794719456378F7021307200392
:104F180015456373F7021307B0041145637EF70064
:104F2800130740060D456379F70013076009094523
:104F38006374F70013B5B70F8280011122CC06CE37
:104F48002A842EC6EFF0CFD1B245F240818D33A529
:104F5800A502229562441375F50F0561828001113F
:104F680022CC06CE2A842EC6EFF08FCFB245F2406F
:104F7800818D33A5A50222956244420541810561D0
:104F88008280011122CC06CE2A842EC6EFF04FCDA6
:104F9800B245F240818D33B5A50222956244056180
:104FA800828097F7FF1F93876708985739CB41117D
:104FB80022C426C206C6BE84029717F7FF1F0357EE
:104FC800E7012A8415CBBA876373A700AA87C207AB
:104FD800C183BA866373E400A286C206C182958F34
:104FE8005147635BF700DC5491C38297EF3031235C
:104FF80097F7FF1F239487FEB24022449244410151
:105008008280828097F7FF1F93874702DC57011140
:1050180006CEAA8581C72AC68297B245C1C59C41DA
:105028000545B5CFDC41A5CF83D78500ADCB83D768
:10503800A500B5C783C7C500BDE3414617F5FF1FE7
:105048001305050397C0FF1FE78000B297F7FF1FFE
:10505800938707029C4317F7FF1F2323F7FC97F753
:10506800FF1F83C737FE8DE79307800217F5FF1FE1
:10507800035585003305F50237460F00130606244D
:1050880081468145EF10525397F7FF1FA38CA7FA6B
:1050980017050000130565DAEFF05FA80145F24037
:1050A8000561828097F7FF1F83C7A7F913978701C8
:1050B80061876354070497F7FF1F23AB07F297C76D
:1050C800FF1F938767ED17F7FF1F2323F7FA7D5715
:1050D80097F7FF1F23A0E7FAB7873200938727A126
:1050E80097F6FF1F23AAF6F897F7FF1F238807F8FC
:1050F800B7C7004023A4E72691BF13F7170005CFD1
:10510800B7872003938707D017F7FF1F2326F7F6E3
:10511800B707C0A817F7FF1F232EF7F497C7FF1F7D
:105128009387A7EA17F7FF1F2324F7F497F7FF1FC2
:10513800238607F421BF617797F6FF1F239EE6F2C7
:1051480081CB9307003217F7FF1F2318F7F2C9B76F
:1051580093072003CDBF011122CC17F4FF1F1304BE
:10516800E4EC084406CE26CA4AC801E90545F240DF
:105178006244D2444249056182805C58E5DB185C90
:1051880075D77000854582971844B247E300F7FE4B
:105198009305E00417F5FF1F035505EA97D0FF1F95
:1051A800E780808417F7FF1F2326A7E461D117F64D
:1051B800FF1F035666E89305F00F97C0FF1FE780AF
:1051C800209E814417F9FF1F1309C9E097F7FF1FB5
:1051D80083C7A7E60326090263C1F402328597D084
:1051E800FF1FE780808D014597F7FF1F23A407E085
:1051F80097F7FF1F23A207E09DBF97F5FF1F83D5F1
:10520800A5E3B38795020844185C898185043E9517
:1052180008C2029765BF011156C297FAFF1F938A09
:10522800EAE083A78A0022CC4AC84EC606CE26CA20
:1052380052C45AC0AA892E8432896385072203A7DB
:105248004A03630707147D476366A71497F4FF1F93
:10525800938444D803AA040263170A0A95659385C0
:1052680015E017F5FF1F035525DD97C0FF1FE780E1
:10527800A07797F7FF1F23AFA7D62A86630A0510E2
:1052880083A74A0303A58A0097F5FF1F83D5C5DACC
:105298008981829783A78A0003AA040217F7FF1F50
:1052A800232CF7D48947639CF908C1476312F40E8D
:1052B80097F5FF1F83D545D8938505FC9147B3C55E
:1052C800F5028A05D29503C705009307A005631D5B
:1052D800F70A83C715006399370B4A85228691051B
:1052E80097C0FF1FE78040889C50528563934715FD
:1052F8000145F2406244D2444249B249224A924AA4
:10530800024B05618280D850E38EE7F89565938556
:1053180025E017F5FF1F035525D297C0FF1FE7802B
:10532800A06C2A8A35C52A8683A74A0303A58A0062
:1053380097F5FF1F83D545D089818297A5B78D47FB
:10534800639DF900C1476315F40497F5FF1F83D5E2
:10535800A5CE938545FDF199B5B79147639AF900B4
:105368006318340397F5FF1F83D505CDA115E5B75D
:10537800C147639FF900A14763EC870097F5FF1FBA
:1053880083D585CBC115C1BF9C5052856397470D06
:10539800294585B71307F006568B6361A70A130AD8
:1053A80005FE1947334AEA0217F7FF1F0357C7C814
:1053B80097FAFF1F938A0AC2330AEA023E9A83A722
:1053C8004A026395470183A40A029DE49305E00419
:1053D80017F5FF1F035545C697C0FF1FE780C0603C
:1053E800AA845DD583274B0397F5FF1F83D5C5C4D2
:1053F8002A8689815285829791451307A00589815C
:1054080093972500A69783C607006393E60483C68F
:105418001700639C360385058A052286A6954A856A
:1054280097B0FF1FE780407483A70A02E38297ECD6
:10543800268597C0FF1FE78040685DBD1307E0071A
:10544800E368A7F4130A05F985B783D5270045BF94
:1054580083A70A02E38E97F2268597C0FF1FE7808D
:10546800C0653DB797F7FF1F9387C7B68C538DD19B
:1054780091479306A0058983139727002E97034623
:105488000700E317D6F003461700631C36018507AB
:105498008A072286BE954A8597B0FF1FE780C06CB1
:1054A80081BD83572700C1BF97F7FF1F938707B8B0
:1054B800984739C79C5FA9C705476313E50441119D
:1054C80022C417F4FF1F1304E4B0105006C60DC61B
:1054D800485097F5FF1F83D525B6898182970850D4
:1054E80097C0FF1FE780605D97F7FF1F23A407B0F1
:1054F80097F7FF1F23A207B0B240224441018280E0
:105508008280011117F7FF1F130747B24EC6832980
:10551800870022CC26CA4AC806CE52C456C2AA84DC
:105528002E843289638A09201C5FBA8A99EB29453F
:10553800F2406244D2444249B249224A924A056141
:1055480082805C5BEDD7FD4763E9A70E97F9FF1FE3
:10555800938949A883A70902B1CB03A58A0083A729
:1055680049026395A70689476393F408C147E31086
:10557800F4FC17F5FF1F035525AC9147130505FCEF
:105588003345F5029317250003A509022286CA852B
:105598003E959307A0052300F500A300950011058B
:1055A80097B0FF1FE780405C014559B79305E004B9
:1055B80017F5FF1F035545A897C0FF1FE780C04296
:1055C80097F7FF1F23A8A7A249F995B783A74A030E
:1055D80003A6090297F5FF1F83D505A6898182973F
:1055E80083A78A0017F7FF1F2328F7A0ADBF8D47B1
:1055F800639EF400C147E31CF4F217F5FF1F03553F
:10560800A5A3130545FD9377C5FFBDBF9147639AD1
:10561800F400E31E94F017F5FF1F0355E5A12115CB
:10562800DDB7C147E395F4F0A147E3E287F017F54A
:10563800FF1F035565A04115F9B79307F00663EA04
:10564800A706930705FE1947B3C7E70217F7FF1F19
:105658000357879E17FAFF1F130ACA97B387E702F3
:10566800BE9983270A02A9CF83274A02639A37077C
:1056780003250A0291461308A005FD5593D7260075
:10568800C207C183139727002A9703460700631DA3
:105698000607834817000356270063959806B30644
:1056A800D64063CF860485078A072286CA853E9539
:1056B800C5BD9307E007E3ECA7E6930705F979B7BB
:1056C8009305E00417F5FF1F0355059797C0FF1FC3
:1056D800E780803197F7FF1F23AEA79051F581BD72
:1056E80083A74A0303260A0297F5FF1F83D5C594AB
:1056F80089814E85829797F7FF1F23AF378F8DBF1C
:10570800A300B700B2869DBFB385860017F6FF1FBA
:10571800035686929105130606FCE3FAC5E01306C4
:1057280034001376C60F1106B29623000701A300B2
:1057380097002311D70085BF97F7FF1F93878789A5
:105748009453BE89A1C203A5090291461308A00576
:10575800FD5593D72600C207C183139727002A97C0
:1057680003460700631606058348170003562700FB
:1057780063989800B306D640E3D786F2A300B70033
:10578800B286C1BF8357C70017F5FF1F0345E58AD7
:105798009305E0043305F5024205418197C0FF1FD8
:1057A800E780802497F7FF1F23A6A78449FD41B30C
:1057B80017F6FF1F0356468897F5FF1F83C5E58731
:1057C800B385C502338686001106E3E2C5D681BFDC
:1057D80001458280011106CE2EC6EF80D03601C960
:1057E800B245F2400355250005616FC0B074F24020
:1057F800494505618280A388018C2388018C23ACEC
:10580800018A23AE018A23A0018C23A2018C23AA3A
:10581800018A23A8018A97F7FF1F93876788930651
:1058280040382391D702F1761307400B938606B8C8
:105838002391E7002392D70211679D4613060005BE
:105848009305000A1305007D2392E7002393D702EE
:1058580041478546130810F82395E7002396E7008B
:105868002399E700239AE700239BE700239CE7009E
:105878002394E702239007002393B7002394B700EB
:105888002397C7002398C700239DA700239E0700DE
:10589800239F0700239007022395D7022396070327
:1058A800239707029308F007239807022392E70437
:1058B8002393E704239FE7042390E7062391E70651
:1058C8002392E706239917031307C01C239AD702CC
:1058D800239BD702239C0702239D0702239E0702CE
:1058E800239F0702239007042391D70423940704D6
:1058F800239507042396D7042397C7042398C7043E
:105908002399A704239A0704239B0704239C0704CD
:10591800239DC704239EC7042393A7062394070641
:1059280023950706239607062397B7062398B706F5
:1059380023990706239AE7065147239DE7067D57D3
:10594800239B0706239C0706239ED706239F07064B
:105958002390070823910708239207092393E70850
:105968008280011126CAAA84214522CC06CE2E8423
:1059780032C636C43AC2EFE01F8A1DC9A246124792
:105988003246930700FD2300F5009947A3009500D0
:105998002301F5002303D500A303E5002312C50066
:1059A800AA8522856244F240D24405616FE01F92C5
:1059B800F2406244D2440561828023ACA18A82808D
:1059C80023AEA18A828023A0A18C828023A2A18CED
:1059D8008280011122CC4AC806CE26CA2A890144EF
:1059E800B30489006368B400F2406244D244424977
:1059F800056182802EC6EFE0BFA693170501C1831B
:105A0800A183B2452380F4009307140093F7F70F9E
:105A1800850463F9B700CA9709042380A7001374A3
:105A2800F40F7DBF3E847DBFC16717E5FF1F035597
:105A38008565FD176304F502411117E6FF1F03464C
:105A4800267A9385818C06C6EF80E06DB240FD57BB
:105A580017E7FF1F2319F76241018280828009C975
:105A680025151375F50F1335850E1345150082801E
:105A78000145828023900500C9C6797122D426D2B7
:105A88004ECE52CC5AC806D64AD056CA5EC63684BE
:105A9800328AAE892A8B814463F34407B3079400A2
:105AA80083C70700138914004209939A070193DA00
:105AB8000A011359090163840A04CA976341FA0465
:105AC800B307240183CB07005E85513F0DC9938737
