:040000006F208030BD
:100004000000000000000000900000208A0400208E
:10001400A9BDF9F3900000200000000000000000DA
:10002400900000209000002000000000000000006C
:10003400900000200000000090000020000000005C
:1000440090000020900000207E3C000090000020E2
:1000540090000020900000209000002090000020DC
:100064009000002090000020900000209E050020B9
:100074007E050020900000209000002090000020C9
:1000840090000020900000209000002090000020AC
:1000940001A073270080218B9387018509CB7327E7
:1000A400008023A8E18498435D9B731007800100BE
:1000B400010037170040930670052300D704930608
:1000C40080FA2300D704010001008346B70493F6A5
:1000D400F60DA305D7042300070473260080944378
:1000E400A18AD18E7390068023A8018401000100A7
:1000F40093760502638406180347A700118B25E74E
:1001040073270080218B09CB7327008023A8E18407
:1001140098435D9B7310078001000100371700406E
:10012400930670052300D704930680FA2300D704AE
:10013400010001008346A70093E646002305D7008B
:1001440023000704F32600809843218B558F7310F6
:10015400078023A80184010001001307004B01005C
:1001640001007D176DFF73270080218B09CB732756
:10017400008023A8E18498435D9B731007800100ED
:10018400010037170040930670052300D704930637
:1001940080FA2300D704010001007D892314A700FD
:1001A400010001000100010023000704F326008080
:1001B4009843218B558F7310078023A80184010075
:1001C400010073270080218B09CB7327008023A8AB
:1001D400E18498435D9B7310078001000100371789
:1001E4000040930670052300D704930680FA230089
:1001F400D7040100010001000100B72600401306E6
:100204001005A383C68023000704F32600809843C7
:10021400218B558F7310078023A8018401000100EE
:1002240073270080218B09CB7327008023A8E184E6
:1002340098435D9B7310078001000100371700404D
:10024400930670052300D704930680FA2300D7048D
:10025400010001008346B70493E60608A305D7040A
:1002640023000704732700809C43A18BD98F7390CC
:10027400078023A80184010001008280937605048D
:10028400638B06140347A700418B25E7732700807F
:10029400218B09CB7327008023A8E18498435D9BBD
:1002A40073100780010001003717004093067005A2
:1002B4002300D704930680FA2300D7040100010029
:1002C4008346A70093E606012305D700230007040D
:1002D400F32600809843218B558F7310078023A841
:1002E4000184010001001307007D010001007D1756
:1002F4006DFF73270080218B09CB7327008023A80F
:10030400E18498435D9B7310078001000100371757
:100314000040930670052300D704930680FA230057
:10032400D704010001009376F50193E60604231433
:10033400D700010001000100010023000704F32697
:1003440000809843218B558F7310078023A8018464
:1003540001000100130760046310E50473270080A3
:10036400218B09CB7327008023A8E18498435D9BEC
:1003740073100780010001003717004093067005D1
:100384002300D704930680FA2300D7040100010058
:10039400B72600400946B5B573270080218B09CBE9
:1003A4007327008023A8E18498435D9B7310078022
:1003B4000100010037170040930670052300D7049D
:1003C400930680FA2300D70401000100B7260040F9
:1003D400130620053DB573270080218B09CB7327B5
:1003E400008023A8E18498435D9B7310078001007B
:1003F400010037170040930670052300D7049306C5
:1004040080FA2300D704010001008356870093E695
:10041400060C2314D700C5BB411181460146814512
:10042400114506C63921F3270080A18B93860185E7
:1004340089CBF327008023A8F1849C42DD9B739031
:10044400078001000100B7170040130770052380DF
:10045400E704130780FA2380E7040100010003C7BF
:100464006704136717002383E704238007047327B3
:1004740000809C42A18BD98F7390078023A80184AC
:1004840001000100B240410182808146014681455C
:1004940011454526F3270080A18B1387018589CB5D
:1004A400F327008023A8F1841C43DD9B739007800D
:1004B40001000100B7170040930670052380D7049C
:1004C400930680FA2380D70401000100FD56239689
:1004D400D70223800704F32600801C43A18BD58F09
:1004E4007390078023A8018401000100F327008092
:1004F400A18B89CBF327008023A8F1841C43DD9BC7
:100504007390078001000100B7170040930670053F
:100514002380D704930680FA2380D70401000100C6
:1005240083C6670493E616002383D7042380070455
:10053400F32600801C43A18BD58F7390078023A8DA
:1005440001840100010001A0BD473305F50201004B
:100554007D1575FD8280411122C426C206C6AA8477
:10056400014463179400B2402244924441018280C2
:1005740005041305803E4204C13F4180DDB7B7172F
:100584000040130700032388E702854723ACF18466
:1005940073002030411106C6EF005004F5BF373711
:1005A4000040834747409946BD8B6385D718314740
:1005B4006385E7001147639EE71A011126CC4EC8F4
:1005C400C164B709000122CE52C64ACA56C4174AAA
:1005D4000000130A2A9B17240000130424ED9384BB
:1005E40004F0FD198147373700408346A74063E78D
:1005F400D714174700000347E79893071003631ABB
:10060400F704178502E01305256A977002E0E78076
:1006140080E5371900408327C90C832A0400268506
:1006240093E707022326F90CD685973000E0E7808C
:10063400807A1305200305378327890CD68537056F
:10064400FF0093E707022324F90C973000E0E780CA
:100654008078174700000347E79293072003631845
:10066400F702178502E01305E564977002E0E7805E
:1006740080DF371700408327C70C0C40268593E79B
:1006840007022326F70C973000E0E780C074174771
:1006940000000347278F930730036311F7023717CE
:1006A40000408327870C0C403705FF0093E70702BF
:1006B4002324F70C973000E0E780E071174700002F
:1006C4000347478C930740036316F702B7170040AC
:1006D40003A7C70C91660C401367070223A6E70C17
:1006E40003A7C70C4E85558F23A6E70C973000E06F
:1006F400E780606E174700000347C78893075003DD
:100704006318F704B7170040930670052380D704D5
:10071400130780FA2380E70409462383C704238050
:10072400D7042380E70403C76704136717002383F0
:10073400E70401A0834757407300203003468740F5
:10074400B306FA0085072380C60093F7F70F71BD3F
:10075400B737004083C7A74093F7F70FE39407E840
:100764007244E2445249C249324AA24A05617300C2
:100774002030730020302303048015472303E480D2
:1007840001002302A480828083076480E3CE07FEF5
:1007940023030480828083076480E3CE07FE03453D
:1007A4004480828083076480E3CE07FE2302A48012
:1007B4008280411126C44AC24EC006C61377F50B87
:1007C400AD47AA892E8995446306F7001945653714
:1007D400653F8D444E854537FD59FD1463983401BA
:1007E400B240A24412498249410182801355090151
:1007F4001375F50F453F2209CDB7011126CC06CE5E
:10080400B704080051371545BD37713769372AC613
:10081400A53F32459377150089EB136515001375D1
:10082400F50FF240E24405618280FD14E9FC0145C4
:10083400CDBF397126DC4ADA4ED852D656D45AD2B4
:100844005ED006DE62CE66CCB7E700E07D5783AAB1
:10085400070022C603AA470023A0E71823A2E7182B
:10086400B7170040130770052380E704130780FAC5
:100874002380E70483C74704930B75FFB684E2071C
:1008840093FBFB0F8546AA892E8B328937240040BF
:10089400E187015763FA76016308D5008946130797
:1008A40000026313D5000157D98F93F7F70FB71CD4
:1008B40000402382FC0411472303E4801305F00F56
:1008C4005D3D094CD135636D7C11B7050700DA95A0
:1008D40037870700795563F2E504B3879500636EA3
:1008E400F702370B0800A94733EB65016399F90652
:1008F40089E48144513D26850DA0DA850945553D9D
:1009040005090345F9FFFD14050B693D81C493777F
:10091400FB0FFDF7DD3569FD7D55B7170040130763
:1009240070052380E704130780FA2380E70403C7D4
:100934004704418B2382E704F250B7E700E023A089
:10094400571123A24711E25432445259C259325A20
:10095400A25A125B825B724CE24C21618280A547F1
:100964006395F90685691309F00FB3069900B3740A
:100974002B01B6941349F9FFB3749900856B33794D
:100984006901416B9387F9FFB3F7270199E363FC8E
:10099400340193D94900C147E3E637FF99BF05699C
:1009A400C1697D19D9B71305800D638869011305E1
:1009B40000026384790113051008CA85DD3B353DC7
:1009C40021DD4E99B3843441D9B7DA852D45D53329
:1009D400CA94E30099F205097D3BA30FA9FED5BF94
:1009E4009387F9FF93F7F70F6361FC0C83C71C042B
:1009F40013073008631FF70437070800636BEB0421
:100A0400B3079B00B706100063F5D704334BEB0024
:100A140089476393F9068980D549E38C04ECDA8528
:100A24000945413B11090327C9FF91472320E4806D
:100A340003076480E34E07FE23033481FD17EDFBB7
:100A4400FD14110B81C49377FB0FE9FF7D3371F51E
:100A5400E1B5B717004003C75704B7070800137779
:100A6400070219E3B78707007955E378FBEA3307F0
:100A74009B00E3FFE7F855B58547E382F9F2DA8591
:100A84002D45053B9389F4FFE38504E6293393F769
:100A9400390091EB8326048003270900930749005A
:100AA400E39AE6E43E89CE84F1BFB5476396F90044
:100AB4001305900BC93135BDB1471305B00AE38B5B
:100AC400F9FE99476391F904B7050800B365BB00C3
:100AD4002D45C53181448D4BA14975396396740107
:100AE400832704802320F9008504E39834FF8327B7
:100AF400048013172B01635507002312F900D5BB9B
:100B04002322F900FDB39D476399F902814513053A
:100B1400B0044531BD442320090023220900FD59B6
:100B24009D3993F77400CA9703C70700FD14398DE4
:100B34002380A700E39634FF6DBBA1476392F904B9
:100B44006D398144630D0B008D479304C003630822
:100B5400FB009304000563048B01930440041375A4
:100B6400C507E30895D81945393139390545213187
:100B740026850D3909453D314931E31C05D669BB4C
:100B840091476399F90013056006F536F53E1305A0
:100B940090090DB7E38F09D4F154A9BB19CD91CDB8
:100BA40009CE81473387F500834607003307F500F4
:100BB40085072300D700E317F6FE828019C991C97F
:100BC40009CA910583A7C5FF11057D16232EF5FEDD
:100BD400C5BF828001C919C62A960505A30FB5FEB3
:100BE400E31DA6FE828081473307F5000307070053
:100BF40019E33E8582808507C5BF01112E8626CA6A
:100C0400AA84131506019305F004418122CC06CE73
:100C140032C6EF00B0602A8401C53246A685BD3FC6
:100C24002285F2406244D24405618280854715C121
:100C34008DC105C28147B306F5003387F50083C62D
:100C44000600034707006398E6008507E315F6FEF0
:100C540085473E8582808147EDBF9307F6FFBE95A9
:100C64002A966313C5008280FD1583C71500050508
:100C7400A30FF5FEFDB7AA87014581CF09CE3E96A5
:100C8400850703C7F7FF6317B700E39BC7FE054556
:100C94008280828001458280797197370000938732
:100CA400A73B22D4804306D626D24AD04ECE52CC7D
:100CB40056CA5AC85EC679C0B7C4C901014B973930
:100CC40000009389E9389384F437173A0000130A33
:100CD400EA38973A0000938AEA3217390000130978
:100CE400293C8357240095E35C44631D0B001737AC
:100CF40000002323F736832BC4002285EF00305FE6
:100D04005E84B9A82326FB00FDB783A70900829758
:100D14001C443307F5406376F500032749001D8F13
:100D24002A9763E2E4089737000023A5072E83552A
:100D3400240003450400973000E0E78000565C403F
:100D44005844A1CB0C4403264900AE97BE8663E405
:100D5400B70063E4C700B386C74014C4228B3A8447
:100D640049F0973700009387E7299C4B0947637242
:100D7400F706F91717370000232EF728B25022542C
:100D840092540259F249624AD24A424BB24B4561EB
:100D9400828063170B009737000023AFE72AA1BFB7
:100DA4002326EB0089BF03274A0209CF63EFA7007C
:100DB4003385A74083A70A016376F50097370000BF
:100DC40023AAA724228B404461BF03274900BA9772
:100DD400C5B79737000023AF07224DB7411122C48E
:100DE400173400001304C4241C4006C626C24AC09B
:100DF40091C782979737000023AC072297370000EA
:100E040083C7D743858B973400009384E44295C30A
:100E140097370000A384074283C774001547637A99
:100E2400F700E52B83C77400F5178A07A2979C4344
:100E340082971C4491C382971739000013098921B2
:100E440003270900173600000346D61B9737000016
:100E540083C7471B93961700BA9683D60600D5CE50
:100E64009737000083C7071A63E3C70C973700005E
:100E7400238A07181C40639D07129737000083C715
:100E8400373C91CF83C7740093F7F70F89EB9737FB
:100E94000000A387073A977001E0E7806046973720
:100EA40000009387E71A9C43638407109737000078
:100EB4009387071FDC4317370000232DF714E93B02
:100EC4009737000093878719DC53FDC31737000059
:100ED40013074713184B9737000083C777196369C3
:100EE400F70C83C7740015476364F70C9737000049
:100EF40083C74739918BCDEF03260900973600004D
:100F040083C6561063CCD70A2244B24092440249A5
:100F14004101174300E067002383850793F7F70F28
:100F2400973600002380F60EE3E2C7F215BF86076A
:100F34003E97835507002310070097370000239737
:100F44000710973700009387670E9C4317350000FE
:100F54000345450B13172500BA979C43829797378F
:100F6400000083D7A70E173700000347A70993C7CC
:100F7400F7FF7D8D93171700032709003E978357CA
:100F840007005D8D2310A7009737000083C78707EC
:100F940091C78507173700002306F70617370000A7
:100FA400034747069737000083C7D705E370F7EC7C
:100FB400B2402244924402494101828013971700AF
:100FC4003297035707006DF785072DBFAD6737C705
:100FD4000040BD072326F7200F10000097370000BC
:100FE40093874702C84F83278726BD66BD0693C7EC
:100FF400F7FF99836A052326D7205D8D82804111EE
:10100400B7170040985F3AC6945F3247E39CE6FE08
:101014003245410182801305F00F8280011122CCF8
:10102400604126CA4AC84EC652C406CEAA841D4A86
:10103400130965058549BC446364F4000545B9A0FA
:1010440003C7D40083474400631A470503C78402D7
:101054006304F7000040C5B70347540083C7540531
:10106400E31AF7FE1946CA8513056400C136E31373
:1010740035FF0347C40083C79402E31DF7FC0357FD
:10108400E40083D7A402E317F7FC0145F24062446D
:10109400D2444249B249224A05618280E31CF7FAEC
:1010A4000347540083C75405E316F7FA1946CA8563
:1010B40013056400A53EE31F35F9C1BF011197373D
:1010C40000009387A72722CC03A4070C26CA06CEC8
:1010D4002AC42EC6854419E40145F2406244D24430
:1010E400056182808347910003471400858B630464
:1010F400F7000044CDB719469305A1001305240059
:101104003536E31895FE0545C9BF173700001307A8
:10111400A7111C439306001094C3010001000100B1
:1011240001001C4323A00700834615000348250043
:10113400A2064208C29603480500C2960348350039
:101144006208C29694D78346550003486500A206F8
:101154004208C29603484500C296034875006208D7
:10116400C296D4D7834695000348A500A206420838
:10117400C29603488500C2960348B5006208C29629
:1011840094DB8346D5000348E500A2064208C296D4
:101194000348C5000345F500C2966205AA96D4DB50
:1011A40083C6150003C52500A2064205AA9603C5F9
:1011B4000500AA9603C535006205AA9694CF83C696
:1011C400550003C56500A2064205AA9603C545005D
:1011D400AA9603C575006205AA96D4CF83C6950066
:1011E40003C5A500A2064205AA9603C58500AA96D2
:1011F40003C5B5006205AA9694D383C6D50003C57A
:10120400E500A2064205AA9603C5C50083C5F500FC
:10121400AA96E205AE96D4D3D443F59AD4C3D44364
:1012240093E61600D4C3944393E6160094C3BA8796
:101234009443D842058B59E3984E01452300E600B8
:101244009843184F2183A300E6009843184F418325
:101254002301E6009843184F6183A301E6009C43F1
:10126400D84F2302E600D84F2183A302E600D84FCB
:1012740041832303E600D84F6183A303E600985318
:101284002304E60098532183A304E6009853418382
:101294002305E60098536183A305E600D85323068B
:1012A400E600D8532183A306E600D85341832307DD
:1012B400E600DC53E183A307F600828001008DBFC2
:1012C40017370000130787F61443411122C49C5EAC
:1012D4004AC006C6998326C2858B3A841739000012
:1012E400130989F4D1CB9C5E973400009384C4F431
:1012F40093F7F7F99CDE17370000034747F4930789
:101304000008631BF700832709009C4393F7070435
:10131400173700002305F7F283C7040093F7070487
:101324009DC3973700009387A7D29C438297973732
:10133400000023ABA7F083C7040093F7F70B17371C
:101344000000230BF7EE83C7440093F707048DE7EF
:10135400854717370000A303F7EE973700009387FC
:1013640067EF9C43096798C7130700FC9736000092
:101374002386E6ECD844F8D31C40985F1183058B90
:1013840009CB985F3D9B98DF05479736000023877C
:10139400E6EA985F1D83058B11CB985F1377F7F707
:1013A40098DF854717370000230AF7E883270900E9
:1013B400D8430583058B19C7D843759BD8C3D84335
:1013C400799BD8C3B24022449244024941018280AD
:1013D400397106DE16DC1ADA1ED82AD62ED432D299
:1013E40036D03ACE3ECC42CA46C872C676C47AC219
:1013F4007EC0F935F250E2525253C2533255A255CF
:10140400125682567247E2475248C248324EA24EA2
:10141400124F824F21617300203097370000938769
:1014240067E3944397370000938707E103C70700F6
:10143400058B11CB97370000238207E09737000014
:10144400A38E07DE828003C71700058B65F7F85269
:1014540071FF83C75700DDB717380000130808DD94
:10146400032708001C5F9583858BD1E709C61C5BA5
:10147400BD832300F60085CA83270800985B4607CE
:10148400935767016356070093E707C0C207C183F8
:1014940003970600C207C18709C7BA970947B3C7AC
:1014A400E7022390F60085CD834715008DCB973650
:1014B400000083C6C6D893F60604138797008947AD
:1014C4008DCA3A9503470500854699471376F70672
:1014D4006311D60262076187B947634C070083270B
:1014E40008009C5FED838D8B17370000A30BF7D4A6
:1014F40081473E8582808547EDBF411122C406C6DF
:1015040017340000130404D518403DE9AE87745322
:10151400FDFE3E85B28597370000238007D2977081
:1015240001E0E78060B197370000938727D09C43A0
:10153400B70680009843558F98C3D857719BD8D766
:1015440097370000A38C07CE97370000A38607CEF9
:101554001C40094798C31440173700001307C7CD30
:1015640083472700858B89EB83473700858BD9C751
:1015740097370000238407CCB24022444101828083
:101584008D476310F50297370000938727CA9C4361
:10159400B70680009843558F98C3D857719BD8D706
:1015A4005DBF8547E319F5FA5447F977FD17F58FC1
:1015B4005CC70F1000001C40096798C7130700F8A8
:1015C40017360000230CE6C617370000130707C6BA
:1015D4001043184231830D8B11E713076019F8D3B8
:1015E400D4C795BF1842094631830D8B6315C700D4
:1015F4001307E043EDB71307E01BD5B7FC52ADF377
:10160400A5BF5D71A2C4A6C22A8413068002280065
:10161400AE849305100886C6CAC04EDE52DCEFF0D5
:101624006FDB3545977001E0E78020E01733000059
:101634001303C3BF832703009376F41F173E0000F0
:10164400130E8EC623A40700984B973E0000938E7A
:101654006EC0370FFCFF1367F70398CBF84F1305E1
:1016640010F8B7020400137707E0558FF8CF9843BA
:10167400F576FD16758F98C39843B7063300930328
:1016840080251377F7E798C3984311497D1F137793
:10169400F7E71367071098C303270E008549930FD4
:1016A40080021C47D58F1CC783A70E001307900D1B
:1016B4003400B8CB014793553700A69583C705007E
:1016C40013767700B3D7C740858BE1C38327030024
:1016D40083280E00239C07042390070603A8C8024E
:1016E4001378D8FF23A6080383A807001378F70705
:1016F40093F808F833E8080123A0070103A8470278
:101704003368580023A2070383A80E00014823A2CC
:10171400780603DA07066307480303A80703038A66
:1017240006001358F80062081358884163580A01E8
:1017340003A807031358F8002380060103D80706FB
:101744001378F80F03AA480663060A0003DA87052C
:10175400E37F49FB03A847023378E80123A2070388
:1017640083870600635CF40003C805003396C90050
:101774001346F6FF337606012380C5003E8663D305
:10178400A7002A8613158601618505071377F70FCD
:101794008506E312F7F3B640264496440649F25907
:1017A400625A61618280973600009386A6AA9C42A1
:1017B400D8471316170163550602984713161701E5
:1017C400635006027D57B8D7173700001307878385
:1017D400584F0507173600002324E684116798C77D
:1017E40098470D83058B1DC3173700000347E7A4F3
:1017F40013671700173600002301E6A4130700F847
:1018040017360000230CE6A2214798C79847058B9A
:1018140009CF17370000034737A21367170017369D
:101824000000A30BE6A0054798C798470983058BDA
:1018340009E798470583058B31CF98471736000091
:101844001306869F173500001305459E0983058BF3
:10185400630307101841184331830D8B75EBAC4BB0
:10186400184E93F5050203471700CDCD79EF130702
:101874007006D8CF03470600136717001736000019
:10188400230CE69A114798C718415C57F19B93E7DC
:1018940017005CD79C4298479316370163D606021B
:1018A4009736000083C606B1C18A173700001307B4
:1018B400E7A8C5CE034787071367070297360000DA
:1018C400238AE6AE056798C798479316270163D124
:1018D400060217370000034767966207618763575C
:1018E4000700054797360000238AE694096798C7DE
:1018F40098479316070163D606029736000083C6FD
:1019040076AB858A17370000130747A3ADCE03478C
:1019140097071367270097360000A38DE6A8216771
:1019240098C7828029D785456315B7001307B00689
:1019340089B789456315B7001307F0061DBF8D45A8
:101944006315B700130730072DB71307500715B7F2
:101954001307600739BF03473600136717001736AC
:101964000000A30CE68C094739BF83468707094664
:10197400BD8A6388C600034787078D463D8BE31302
:10198400D7F4114725BF83469707918AC9DA0347DD
:1019940097071367870041B7397106DE16DC1ADA38
:1019A4001ED82AD62ED432D236D03ACE3ECC42CA13
:1019B40046C872C676C47AC27EC0F533F250E2528B
:1019C4005253C2533255A255125682567247E247B9
:1019D4005248C248324EA24E124F824F21617300C8
:1019E4002030973700009387E7869843856793876D
:1019F40007777CD3973700009387078B9C4383A694
:101A04000709139656006358060083A60709139620
:101A14006600634406007453FDF2828071C5AA8790
:101A24000145E9C58D07C207C183F19BC207C18384
:101A340013074003636FF702173700001307878FFC
:101A44000843173700001307678E14436398A602F0
:101A54001727000013078760185B014541CB41112C
:101A6400C20706C60545DD8D0297B2400145410116
:101A74008280173700001307A78BD9B70357650077
:101A840035E303574500636FF704B306F740214677
:101A9400637CD60203280500938687001D8FAA96CF
:101AA400611717260000035646562392E60023A02A
:101AB40006012393060014C12312F500130786FFC1
:101AC400972600002393E6542313B50097250000BE
:101AD40083D5A553B387F540172700002317F75282
:101AE4002105828008419DB70145828082800DC115
:101AF400973700009387078403A3070097370000F4
:101B04009387C78283A8070081469A8763E31701F6
:101B1400828003A80700636DF50A636BA80A138724
:101B24008700E367E5FE03D66700216705076317AF
:101B3400E60003C7419205072382E192972500003E
:101B44009385454C03D6470003D7650023930700CC
:101B5400329742074183172500002318E54A638A18
:101B64006702172500001305A57C08416303F502ED
:101B740003D5660019ED83D7460023A0060121078B
:101B84003E9621062392C60097270000239FE7462E
:101B9400B6879843E30E17F7972600009386467995
:101BA4009442E307D7F683566700BDF283D6470015
:101BB400035647001843A106B2962392D70098C350
:101BC40083D76500A107172700002310F7448280FC
:101BD400BE86C28725BF0327851163020712411100
:101BE40022C406C68347C5008345E5042A8493F7C7
:101BF400C70F2306F500834697000356C7001395C5
:101C04008601618563F2C508635B050603458700A9
:101C140093F6F607A304D700054693E6270063145A
:101C2400C50093E617002306D4005C4389075CC310
:101C3400A30AB400032504112E864C430905EFE0E2
:101C4400FFF58327841103465401D44303D7C70007
:101C5400B296118FD4C32396E7008947A30DF400ED
:101C6400034764039727000083C767406378F7043A
:101C74008347C40093E707012306F40081A093E798
:101C840017002306F4006DB79376F60F635D050223
:101C940003458700854513E627006314B50013E662
:101CA40017002306C400A30AD400A3040700854731
:101CB400A30DF400832784119C43DDF3B240224436
:101CC40001454101828093E717002306F400A30A2B
:101CD400D400A3040700032504114C430905EFE0D5
:101CE400FFEB8327841103465401D44303D7C70071
:101CF400B296118FD4C32396E7008D4755BF05458F
:101D0400828097270000938727769C43411122C441
:101D140006C6858B2A84C5EF4165130525F59720F2
:101D240002E0E78080D945C58347A5002315F50067
:101D340083270412BDE72320A4122322A41285477B
:101D44002311F4042320050083476401544123161E
:101D5400F5000347D4002304E5000547A304E50088
:101D6400172700001307474D184F138517021581D5
:101D74001C437D151375F50F9CC25C43DCC21C47E4
:101D84009CC65C47DCC61C4B9CCA5C4BDCCA1C4F23
:101D94009CCE5C4FDCCE19CD938606021307070256
:101DA400C1BF8327441288C3835724042322A41267
:101DB400850779B79727000083D7C7588507172762
:101DC40000002311F758B240224441018280834726
:101DD400C40023090400054593C747002306F40003
:101DE400DDB78347850193F7E70FD5EF8347950167
:101DF400DDEB034625018346C50009CA8345650317
:101E0400172700000347B72663E7E50013F7060129
:101E140041CF014709C6C18A0357651C81C6835651
:101E2400A51C369751C31307C71217250000035585
:101E3400A527B335A70237460F0041111306062420
:101E4400814622C426C206C67D543305A702975094
:101E540002E0E78000C69727000083C7B721B38458
:101E6400A700972700009387674D03A78709832757
:101E7400070963F387003E84184375FB9727000026
:101E84009387071D9C43829781476364A400B3072B
:101E9400A440B2402244B3B7970093C717009244BA
:101EA4003E854101828081473E85828097270000DC
:101EB4009387473A98437C53FDFF8280797126D2F9
:101EC40006D622D44AD04ECE52CC56CA5AC85EC682
:101ED4008347550303447513AA843E941374F40F83
:101EE4009307400263F687001304B4FD1374F40FE0
:101EF40003AA841383AAC413A38B84122286528553
:101F0400D685975002E0E78040B5058915E503CBF7
:101F1400D41201498149337B6403930B50024A86EE
:101F24005285D685975002E0E78020B3058915C510
:101F3400639169031374F90F238B8412B2502254F2
:101F440092540259F249624AD24A424BB24B456119
:101F540082808509E20993D989410509E31179FD54
:101F6400E1BF8327850903560504797193D60701D8
:101F7400BD8EC206C182358E1357764093575640A4
:101F8400898B058B5D8F93573640918B5D8F93576B
:101F94001640A18B5D8F93171600C18B5D8F93172D
:101FA400360093F707025D8F93175600935586000A
:101FB40093F707041E065D8F1376F60F518F93D7A0
:101FC400554013D63540118A898BD18F13D675406D
:101FD400D18F13D61540218AD18F13961500418ACB
:101FE400D18F1396350013760602D18F13965500C0
:101FF400137606049E05D18F93F5F50FCD8FA207B6
:1020040045465D8F3307C70222D42A8426D252CC98
:1020140056CA032A8413832AC4135AC806D6369789
:102024004207418393577740135557400989858B5D
:10203400C98F135537401189C98F1355174021890A
:10204400C98F131517004189C98F131537001375EC
:102054000502C98F1315570093558700137505049E
:102064001E07C98F1377F70FD98F13D5354013D7B0
:1020740055401189098B498F13D57540498F13D564
:1020840015402189498F139515004189498F13956E
:10209400350013750502498F139555001375050412
:1020A4009E05498F93F5F50F4D8F2207D98FB3877E
:1020B400C7024AD04ECE5EC662C4B697C207C18379
:1020C40013D7774013D557400989058B498F13D50A
:1020D40037401189498F13D517402189498F1395AA
:1020E40017004189498F1395370013750502498FED
:1020F4001395570093D58700137505049E07498FE0
:1021040093F7F70FD98F13D5354013D7554011895D
:10211400098B498F13D57540498F13D515402189F3
:10212400498F139515004189498F1395350013750F
:102134000502498F13955500137505049E05498FB3
:1021440093F5F50F4D8F2207D98FB387C702130676
:1021540050025285D685B697BD8E93940601C180F0
:1021640033F6C402137BF60F975002E0E780E08E4B
:1021740005890DED8347D41201498149B38497023F
:10218400130C5002C1804A865285D685975002E0CE
:10219400E780A08C0589937BF90F11C5638634030E
:1021A400850993F9F90F0509E31F89FD230B6413CE
:1021B400B250225492540259F249624AD24A424BD2
:1021C400B24B224C456182805E8BCDB7797122D4AB
:1021D40006D683C735002E8423160100A307F10019
:1021E40083C74500100802C02307F10083C75500C8
:1021F4008A8502C2A306F10002C402C802CA02CC44
:1022040002CEEFE09FF00347F1018347040001454C
:102214006310F7020347E101834714000145631982
:10222400F7000345D101834724001D8D13351500A4
:10223400B250225445618280011197270000938790
:10224400E70F22CC03A4870C26CA4AC84EC606CE82
:10225400AA8413092500854915C083C714000347C0
:102264003400858B6304F700405CFDB71946930581
:1022740044004A85EFE09F9BE31835FF2285F24036
:102284006244D2444249B249056182804111972790
:1022940000009387A70A22C403A4870C26C24AC05D
:1022A40006C693042500054901E82285B24022446C
:1022B4009244024941018280A6851305A40239375C
:1022C400E30525FF405CCDB74111972700009387B4
:1022D400E70622C403A4870C26C24AC006C6930498
:1022E4002500054901E82285B2402244924402496E
:1022F40041018280A6851305A401C93DE30525FF9C
:04230400405CCDB7B5
:10230800971100209381019617610020130101CFD6
:102318001305400097E5FF1F938545CE170600205B
:10232800130606FE63FAC5008322050023A05500A4
:1023380011059105E3EAC5FE177502001305851915
:10234800970500209385C5FB1386C18463FAC500F1
:102358008322050023A0550011059105E3EAC5FE77
:102368001385018597250020938505116377B500AE
:10237800232005001105E36DB5FEFD42739002BCF4
:102388008D4273904280930280087390023097E2E6
:10239800FF1F9382A2C693E23200739052309712C5
:1023A80000009382823273901234730020303D43D0
:1023B8002A876373C3029377F700BDEFADE5937681
:1023C80006FF3D8ABA960CC34CC30CC74CC74107DD
:1023D800E36BD7FE11E28280B306C3408A069702F8
:1023E800000096966780A6002307B700A306B700EB
:1023F8002306B700A305B7002305B700A304B70059
:102408002304B700A303B7002303B700A302B70050
:102418002302B700A301B7002301B700A300B70048
:102428002300B700828093F5F50F93968500D58D2C
:1024380093960501D58D61B7939627009702000002
:1024480096968682E78086FA9680C1171D8F3E96FB
:10245800E374C3F8A5B7B717004003C77705137728
:10246800E70FA38BE704130700F8A38DE7043D47A4
:10247800238CE70413075003A38CE70482804111DF
:102488002A83014E930E407E130F0019930F4006C6
:1024980063E66E149308001913034006B378150316
:1024A800854E0D4FA14F337365020D891335150005
:1024B80063E0BE161308F6FF79467298420813586F
:1024C80008013307C70213D61700BE0732976146C3
:1024D800B3F6C60213068070B386C6023697A166A5
:1024E800F58F42075D8FB716004083C7F60293F752
:1024F8000708A307F1000346F10083C7F60293F724
:102508000708E394C7FE8347F100B716004093F726
:10251800F70F63890714F3270080A18B9386018541
:102528006398071401000100B717004013067005EF
:102538002380C704130680FA2380C7040100010022
:1025480023AA070303C6170313660608A388C7024E
:1025580023800704732600809C42A18BD18F73903F
:10256800078023A80184010001001166B715004007
:102578007D16DC59C85DA98FF18FE5FFF327008030
:10258800A18B89CBF327008023A8F1849C42DD9B93
:102598007390078001000100B7170040130670050B
:1025A8002380C704130680FA2380C70401000100B2
:1025B800D8DB03C7170313670704A388E702238040
:1025C8000704732700809C42A18BD98F73900780E2
:1025D80023A8018401000100410182807D13336832
:1025E800E3039308E016630E08003368F3039308C7
:1025F800D016630808009378330093B818009388BE
:10260800D81633081E01131E0801135E0E0149B5C2
:102618006393E503054863860800014863030300E4
:102628002A8871087298FD15131E0801C205135EE9
:102638000E01C181B5BD13F8150063F4BF00790818
:10264800D5B713381800E5BF83C7F60293F7070814
:10265800A307F1000346F10083C7F60293F70708C2
:10266800E394C7FE8347F10093F7F70FF1DF65B5F1
:10267800F327008023A8F1849C42DD9B7390078098
:1026880055B5914763EEB70217670200130747FD78
:102698008A05BA959C41BA978287B717004003A765
:1026A800470B1345F5FF698F23AAE70A03A7070B12
:1026B800698F23A8E70A03A7070A798D23A0A70A29
:1026C8008280B717004083A6470B1347F5FFF98EA2
:1026D80023AAD70A83A6070B558D23A8A70A83A682
:1026E800070A758F23A0E70A8280B717004003A75F
:1026F800470B498F23AAE70A03A7070B1345F5FFE2
:1027080045BFB717004083A6470B1347F5FF758FE2
:1027180023AAE70A03A7070A598D4DB7B717004040
:1027280003A7470B498FEDB7914763EEB7021767C9
:102738000200130727F48A05BA959C41BA97828745
:10274800B717004003A7470D1345F5FF698F23AA64
:10275800E70C03A7070D698F23A8E70C03A7070C4D
:10276800798D23A0A70C8280B717004083A6470D58
:102778001347F5FFF98E23AAD70C83A6070D558DAD
:1027880023A8A70C83A6070C758F23A0E70C8280CB
:10279800B717004003A7470D498F23AAE70C03A7E3
:1027A800070D1345F5FF45BFB717004083A6470D32
:1027B8001347F5FF758F23AAE70C03A7070C598D5C
:1027C8004DB7B717004003A7470D498FEDB793578B
:1027D800E50093F70730C98FC2070547C1836382B5
:1027E800E5048DC10947638DE5040D476380E5065F
:1027F80037170040231FF70883562709D58F231959
:10280800F7088280371700400356670993C6F7FF19
:10281800F18E231BD7088326C70C558D2326A70CBA
:10282800C1BF371700400356670993C6F7FFF18EFB
:10283800231BD7088326870C558D2324A70C4DBF4F
:102848003717004083566709DD8EE1B73717004018
:1028580083566709DD8EE9BFB74700401147A3815A
:10286800E70009472380E700130700062380E700F5
:1028780003C7170013670701A380E70003C7170002
:102888001377E70FA380E700828089473747004026
:10289800631DF5008347170093E70704A300F700BB
:1028A800B7470040A381A70082808347170093F7AA
:1028B800F70BEDB7B747004003C707001377F70ECC
:1028C8002380E700131705012E9541834205239CB9
:1028D800E7004181239EA7002396B700254723835D
:1028E800E70003C7170013671700A380E70003C7B3
:1028F8006700058B6DDF03C717001377E70FA38009
:10290800E7008280B717004003D587004205418160
:102918009377050491EB9377F5013755E801130593
:1029280005803345F50282809377050C1307000470
:102938006397E7009377F50137459C1CCDB7216570
:10294800130505D08280B7F700E08847CC4782801E
:10295800814737370040A14663C4C700328582806B
:102968000345B740E38EA6FE3385F5000345050011
:1029780085072304A740CDB797070020938787AE24
:102988009C4317270020130727AF3E95636EE50089
:1029980017570020130787466368A700170700200A
:1029A8002322A7AC3E858280FD57EDBF411122C48A
:1029B80006C62A84813F2947B307E502B2408D83C2
:1029C800B3D7870222449507B3D7E70237370040C9
:1029D800C207C1832316F740410182807165411106
:1029E8001305052006C6D937B7370040130770F816
:1029F8002381E7400D47A381E74013070004A38024
:102A0800E74005472387E740B240410182803737D6
:102A18000040834727401A0593F7F703C98F93F7B8
:102A2800F70F2301F7408280B737004003C71740EC
:102A380019C9D98DA380B74003C70740136787001A
:102A48002380E740828093C5F5FFF98DA380B740C6
:102A58008280411193962500AA852D4506C697E0E8
:102A6800FF1FE780C0DCB24001454101828041116F
:102A780026C29394250022C44AC02A843289A68695
:102A8800AA850146254506C697E0FF1FE78020DA9C
:102A9800A6864A86A285294597E0FF1FE78020D9A8
:102AA800B240224492440249014541018280011109
:102AB80022CC06CE3714004026CA4AC84EC652C495
:102AC80083447405034AB40583498405034994057E
:102AD80059328347A40593F4F40F137AFA0F93E756
:102AE8001700230DF40493F9F90F1379F90FB717A9
:102AF800004003C7A705058B6DFF03D5C705A38D48
:102B08004705238C3705A38C2705A38B9704F24030
:102B18006244D2444249B249224A05618280411145
:102B28009397050122C406C6C1872E8463DD07007A
:102B3800EF10E04119C1EF10603A2165218DB240D4
:102B480022444101828093F7150013C51500E5FB67
:102B58009397250163D20708EF50513BB717004000
:102B680083C7E70293F7C70F93E71700732700801F
:102B7800218B9386018509CB7327008023A8E184E4
:102B880098425D9B731007800100010037170040D1
:102B9800130670052300C704130680FA2300C70430
:102BA800010001002307F7022300070473270080B0
:102BB8009C42A18BD98F7390078023A801840100C0
:102BC800010037F60200130606E0896503C5418552
:102BD800EF10F00309659DB7939715010145E3D000
:102BE80007F6176502001305E5AFEF401207130655
:102BF8000064916503C54185EF10700111653DBF03
:102C08001D71494697650200938505AE1765020058
:102C18001305053886CE97E0FF1FE780E00001E93D
:102C280017650200130585ADEF40320301A0B7F622
:102C380000E0795798CAFD57DCCA0567B7E700E096
:102C480023A0E7101306F00290C223A0E7180100A2
:102C580001001306C0038145480897E0FF1FE7807D
:102C680020F797070020938767B13ECA8967938743
:102C78000780231CF100A167938707E03ECEB707C2
:102C88000105938707103ED0ED472312F1028547CF
:102C98002303F102970700009387E7DBBEC4970779
:102CA8000000938707DDBEC6B7F507009707000049
:102CB8009387A7C935473EDA81469707000093876F
:102CC80047DF7000E10519452304E102A305E1028D
:102CD8003EDE97E0FF1FE78080B558088147994698
:102CE80070003E960346060085070507A30CC7003B
:102CF800E398D7FED24791C703578101856763736D
:102D0800F70001A04808EF10504AAA8501C91765C5
:102D180002001305E59FEF40026001A0F64025611F
:102D280082804111170500001305A5DF06C622C4DD
:102D3800EF10F043138441852300A40019280345AC
:102D480004002244B24013060032896541016F1025
:102D5800006C411106C6F3270080A18B938601857C
:102D680089CBF327008023A8F1849C42DD9B7390D4
:102D7800078001000100B717004013077005238082
:102D8800E704130780FA2380E7040100010003C762
:102D9800F70213677700A387E702238007047327E6
:102DA80000809C42A18BD98F7390078023A801844F
:102DB800010001001305407E814701478146054611
:102DC8008545EFF0CFEBB240014541016F1090729D
:102DD800B305B04017650200130585956F40A253EF
:102DE800011122CC2316C10032846C0003C69186DF
:102DF80006CEEF600021A2851765020013054594F1
:102E0800EF406251F24062448547238EF1840561A8
:102E18008280011122CC36C606CE2E84EF10603394
:102E2800B24637460F00130606243376C50291CA08
:102E3800B285176502001305E59132C6EF40A24D31
:102E4800324622856244F240814505616FA02145E2
:102E580081E9B285176502001305C5906F40A24B42
:102E68008547639DF500176502001305E59009C6BF
:102E780017650200130545916F40225E89476398E4
:102E8800F50017650200130525917DD682808D47D0
:102E9800E39EF5FE176502001305059171DEB28504
:102EA800176502001305859155BF03C781869307EF
:102EB800100363F0E70682809315340089051946EC
:102EC800A6954A8597E0FF1FE78000D605ED050423
:102ED8001374F40F83C78186E360F4FE8E078907B5
:102EE8003385F4001946CA8597E0FF1FE780C0CAFA
:102EF80083C7818613973700BA948507A380340166
:102F08002384F186F2406244D2444249B2490561C1
:102F18008280011122CC26CA4AC84EC606CEAE8986
:102F28002A8901449384819875B7834725004947C6
:102F38006366F71E17570200130707758A07BA97C3
:102F48009C43411122C406C626C24AC0BA972A84A5
:102F5800828705041374F40F83C78186637DF400A8
:102F68009315340089051946A6954A8597E0FF1FF1
:102F7800E78080CB79DD83C78186639287041765F4
:102F8800020013052586EF40424D014685450D4553
:102F980023840186EF90211A1765020013058583A3
:102FA8002244B2409244024941016F40024B01441D
:102FB8009384819817F9FF1F1309494B71BF17654F
:102FC800020013056583EF404249938781980E04F8
:102FD800930624003E9403461400BE96814501459D
:102FE800EF9001120566130606C89305002003C575
:102FF8009186EF10C041176502001305E5804DB7B3
:103008009305002003C59186EF1080628345140064
:10301800B9E58947A383F1868357A40013060064A2
:10302800A1452393F18003C591868547238EF184BA
:103038000564EF10C03D130604C8C14503C5918659
:10304800EF10E03C130604969305001003C5918623
:10305800EF10E03B175502001305057C91B7175593
:1030680002001305657CEF40022B1755020013057B
:103078006576EF40823E238401862244B240924422
:103088000249014685450D4541016F90C10AA38358
:103098000186F9579305001003C591862393F180A3
:1030A800238301862390018623840186238E01844D
:1030B800EF10005883456400175502001305857802
:1030C800EF406225175502001305C570EF40E2383E
:1030D8006DB7175502001305A578D9B51755020025
:1030E8001305057975BD1755020013056579EF407D
:1030F800C23683454400130554002244B24092442A
:10310800024941015DB31755020013056578C5B73B
:10311800B24022449244024941018280828039713E
:103128009397050126DA06DE22DC4AD84ED652D419
:10313800C187AE8463D8072A03C59186EF00306142
:103148002A8415C5034705009307000B631EF70083
:1031580083C77186094783454500930985006382C3
:10316800E7024E85EF6060432285EF003057216506
:10317800258DF2506254D2544259B259225A2161D3
:1031880082800D476381E50205476390E5020347A6
:103198008500631AF7028345C50017550200130519
:1031A8006570EF404217238E01840347440093075C
:1031B800F007631AF70083558400175502001305BA
:1031C800E56FEF404215834744002D476382E702CD
:1031D80005476394E70203478400A9466319D702A9
:1031E8008345C400175502001305056EEF40A2126F
:1031F800238E018483454400ADB74D476393E702AE
:10320800175502001305856EEF402225D5B7C9462C
:10321800631BD7048345C400175502001305C56B0B
:10322800F1B76D476391E704175502001305056D63
:10323800EF40620E0149175A0200130AAA6C83571D
:10324800A4006366F9002945EF40E21065B75C44C5
:103258005285CA9783C5070005094209EF40A20BAA
:1032680013590901E9BF03C7618649D78546631722
:10327800D7081D47639CE7028357840085CB5C44CD
:10328800175502001305856883C5170003C6370064
:1032980003C7070083C72700A2052206D98D5D8EC4
:1032A8002392B1862391C186EF40E206834744000A
:1032B8001D476393E70403471400E947E39CE7F2DB
:1032C80083D5418685D989472383F1868967938782
:1032D800272003D621862316F10083C691869307FB
:1032E800A00203D561802314B1002315C100230770
:1032F800F100EF50704EFDBD0547C9B78946631C04
:10330800D7082547639EE7028357840095CB584426
:10331800930500041306006483471700034707005A
:1033280003C59186A207D98F2390F186EF10200E4E
:1033380083D501861755020013050560EF30B27D6D
:103348008347440025476396E70403471400E94789
:10335800E392E7EA8D472383F1869387418683D7F3
:10336800070003C691862C002314F1009387218659
:1033780083D7070003D561802315F1009307202028
:103388002316F100930790022307F100EF50D05164
:1033980095B5054775BF8D46E31ED7E4254763906D
:1033A800E7048357840085CF584493050008130623
:1033B8000064834717000347070003C59186A207E7
:1033C800D98F239FF184238E0184EF10400483D585
:1033D800E185175502001305A558EF30D2732383F2
:1033E800018609BD93F7150085C317F6FF1F13065D
:1033F80026F197F5FF1F938565F103C59186EF8048
:10340800914A13C51400B5B393F7052081CB4165E4
:103418007D15EFA0314B13C50420A1BB93F78500A0
:1034280095CB8967938727812314F1002390018620
:103438002391018623920186854783C69186094692
:103448002C0003D561802383F186EF50306413C5C7
:10345800840005B393F7050191CF130780258146B2
:1034680013064006D14503D56180EFA0314513C549
:10347800040101B393F705029DC301478946094634
:10348800814503D56180EFA03146AA851755020012
:1034980013058550EF30326813C50402D9B993F784
:1034A80005046385070C83C7C185D9E317F7FF1F98
:1034B800034787FB83D7018603D5618051C3231453
:1034C800F1000147854781460546C9452315F100A6
:1034D80023180100EF505045835581002AC617551F
:1034E80002001305A54CEF301263B247B1C31307AE
:1034F800A0052380E70003C691862C0003D56180D0
:10350800EF50103B0DE98547238EF18497F7FF1F95
:1035180083C787F593B71700130600649305000463
:1035280003C5918617F7FF1F2300F7F4EF00306EED
:1035380013C504043DB9C9452800EF600006CDBF96
:1035480003C691862C002314F100EF50B0356DF1BD
:103558008547238EF18497F7FF1F83C7E7F093B75A
:10356800170017F7FF1F2301F7F0D9B793F70508DE
:10357800B5CB83C7C185B9EF9387E18583D70700AA
:10358800014781462314F10009468947C94503D5F7
:1035980061802315F10023180100EF50F03883559E
:1035A80081002AC61755020013050542EF30B256AE
:1035B800B2478DC3054423808700B24703C691866E
:1035C8002C00A380070003D56180EF50702E11E511
:1035D800238E818413C5040869BEC9452800EF50AD
:1035E800D07BCDBF93F705100145E38407B803D519
:1035F8006180EFA0712C05661306069693050010EE
:1036080003C59186EF00B06013C504109DB6011183
:10361800170500001305E5B006CE22CCEF102035C3
:103628001384918685652300A40093850596094532
:10363800EF30C018D1451D45EF30401893054006BE
:103648002145EF30A017930540063545EF300017A8
:1036580089472304F1007000854791451305F04020
:10366800A304F100A305F10002C623050100EF90B1
:10367800B1693000854513058040EF90F168130665
:103688009100854513059040EF9011681306A1003D
:1036980085451305A040EF9031671306B1008545B5
:1036A8001305D040EF905166EF60102003450400E9
:1036B800EF60E04B034504008545EF00503DF240C4
:1036C80062440561828041111305800406C622C444
:1036D8003714004097D0FF1FE780609B8327840A38
:1036E8008D451305002093E707202324F40AEFE013
:1036F8005FF98327840A85451305001093E70710AF
:103708002324F40AEFE0FFF7EFF04FAD176502004E
:1037180013050588EF3072547D23EFF06FCEEFF07C
:103728004FE0EFA0B11CE535175502001305052B36
:10373800EF30B252EF002072175502001305052B27
:10374800EF30B251F12A8D4513050002EFE0DFFD9D
:103758008327C40C8D45116593E707022326F40CD3
:10376800EFE09FFC8327C40C1167D98F2326F40C44
:1037780097D0FF1FE780C0E1371700405C5FCA079A
:10378800C9832310F5008357A703C207C1832311F8
:10379800F50083578703C207C1832312F50082808F
:1037A8008357050083D605000357250003D6250057
:1037B800958FB7662605938606C0B387D702118F03
:1037C8009306007D035545003307D702BA9703D700
:1037D8004500198D79473305E5021307803E3345C7
:1037E800E5023E95828083552500411122C42A8432
:1037F800175502001305452006C6EF30D231835510
:1038080044002244B2401755020013052520410107
:103818006F307230B717004083A7470C9386018931
:1038280090424111A18B22C406C65D8E03C4F1806B
:1038380015E21385418889378547056623A8F188ED
:10384800130606969305000222852244B2404101E0
:103858006F00F03B9042368785466310D608B5CF97
:10386800930500022285EF00B05C1385C1872937D4
:10387800938541881385C187253723A8A186AA8700
:103888001307100303C5F18093050004635FF70273
:103898001307B0126349F700894723A8F188130674
:1038A800003CC1455DB71307B05D8545635FF70010
:1038B80093050002EF00D0579305002003C5F1805F
:1038C800EF00F01C914503C5F180EF00501CB24099
:1038D800224423A801884101828010438946631A43
:1038E800D60285EBC1452285EF00905413854187A8
:1038F80061359385C187138541875D351307702529
:1039080083C7F18089456354A700930500403E852D
:103918006DBF238701861C431C438145228575B7EB
:103928004111170500001305450E06C6EF102004C7
:10393800AA85A387A180175502001305E50DEF306E
:10394800921D85452145EFE03FDE89452145EFE0A1
:103958001FE889472387F180B240B7E700E03707BF
:10396800040023A0E71023A801884101828083C7AF
:10397800D186411113B7170022C406C6A386E18673
:1039880037140040A1E78327C40C11671305800C86
:10399800D98F2326F40C97D0FF1FE78080BB83279D
:1039A800840C3705FF0093E707022324F40C97F7EC
:1039B800FF1F938727AF8C4309292244B240130580
:1039C8002003410117D3FF1F6700A3B88327C40C46
:1039D8001305800C93E707022326F40C97D0FF1FEA
:1039E800E78020B78327840C1167B240D98F23243E
:1039F800F40C224497F7FF1F938707AB8C431305FA
:103A0800F00F4101D9A6411122C406C626C24AC0F8
:103A180093F715002E8485C31755020013058501F9
:103A2800EF30B223A93713451400B2402244924420
:103A380002494101828093F72500ADCB175502005A
:103A480013054500EF307221B714004083A7C40C5A
:103A5800116713054006D98F23A6F40C97D0FF1FD2
:103A6800E78020AF83A7C40C4165130505F093E7F1
:103A7800070223A6F40C97F7FF1F9387A7A203A9B1
:103A88000700CA8599261305200397D0FF1FE780F2
:103A980040AC83A7840C3705FF00CA8593E707026B
:103AA80023A4F40C1D261345240041B793F74500C1
:103AB800A9C3175502001305E5F9EF30121AB71715
:103AC800004003A7C70C916637050001136707027A
:103AD80023A6E70C03A7C70C7D15558F23A6E70C73
:103AE80097F7FF1F9387079C8C43C5241345440011
:103AF8002DBF93F70501B1C7B71700401387018998
:103B080083A7470C104389466315D602A18B99CB2E
:103B1800854503C5F180EF00807723A80188134508
:103B2800040121B7175502001305C5F3EF30F2124F
:103B3800EDB70C4317550200130545F6EF30A27D8B
:103B4800F9BF93F70502A9CFB7170040138701897A
:103B580083A7470C10438546631CD602A18B95E3C7
:103B6800914503C5F180EF00807289452145EFE05A
:103B78001FC689472387F18023A8018813450402BB
:103B88006DB5175502001305A5F4EF30120DEDB70A
:103B98000C4317550200130525F7EF30C277F9BF1C
:103BA80093F78500A1CB37170040035587030356C9
:103BB800A7034C5F93870189116794439307170004
:103BC8007D17F98DB337F50093C717000606C205B0
:103BD8003E96C18117550200130505F6EF30A27312
:103BE80013060064A14503C5F180EF005002134598
:103BF800840025BD93F7050491CB175502001305E2
:103C080065F5EF3092051345040405B593F70510E3
:103C180091CB17550200130565F5EF3012041345D3
:103C2800041021B593F705208DCB17550200130515
:103C3800A5F5EF3092021385418875361385C18743
:103C48005D36938701878C4317550200130585FC61
:103C5800EF30626C13450420C9BB93F7054001455A
:103C6800E38507DC17550200130505FCEF30E27EFB
:103C7800134504405DBBB717004003D7E709218B04
:103C880029C303D7E709411122C613678700239F79
:103C9800E70883C7E1800944639E87008D45214575
:103CA800EFE0FFB28D472387F180AD363244410102
:103CB8007300203089452145EFE07FB1238781805B
:103CC800EDB773002030411117550200130545FA6E
:103CD80006C6EF30827895450545EFE0FFD41755C5
:103CE80002001305E5F9EF30427737370040834784
:103CF80027402D4593E717002301F740EFE03FD118
:103D0800175502001305C5F8EF302275B240B7E722
:103D180000E03707000823A0E71041018280411125
:103D280026C2B28431463386C40222C42E84814519
:103D380006C6EFE0CFE72A8E930534008148B14EDE
:103D480013030008254F93970801C18363FA970668
:103D5800B386D8031386D5FFF296B9A0834F060021
:103D68001308F5FF335803413378F8010387070038
:103D7800631F0802136707F82380E700034806005B
:103D8800B35FA340038707003378F8016314080280
:103D9800136787002380E70009058507E310E5FD21
:103DA80005069106630BB600B687054545BF136740
:103DB80007FED9B71367E700F1BF85088D0561B71E
:103DC800B2402244924441018280011126CA9704DC
:103DD80000209384E41B61464AC84EC62E89AA89EE
:103DE8008145268506CE22CCEFE06FDC13D589000D
:103DF8001375F50FEF300233CA85EF304204EF3008
:103E0800022D1384C1892300A40013D50901137559
:103E1800F50FEF302231CA85EF306202EF30222BE6
:103E2800A300A40013F5F90FEF30C22FCA85EF30B5
:103E38000201EF30C2292301A400A2852685054688
:103E4800F93D6244F2404249B2492685D244B1451F
:103E580005616FE03FA641118D45116506C6EFE08B
:103E68005F82175502001305A5F1EF30025F8D45FB
:103E78002165EFE01F81371700408327C70AA16635
:103E8800D58F2326F70AEFE03F9D4D45EFE0FF9FD2
:103E9800970700209387C70F3E8561468145EFE06D
:103EA8000FD1E145EFE01FA197E7FF1F9387076058
:103EB800B2408C434165130505F0410139B723AC85
:103EC80005FE1C4191E7010001000CC18280BA8700
:103ED80003A787FF6DFF23ACB7FE82801DC1834611
:103EE800E5FF1307F00F9147639EE600411106C6F0
:103EF80097E0FF1FE78060BFB24081473E854101E0
:103F0800828095473E85828001E90145828001458E
:103F1800B24022444101828095654111938505D0C4
:103F280022C4C98D2A842105C2054205C181418167
:103F380006C697E0FF1FE78020AE71D9FD57232002
:103F48000500231285002303F5002105D1B71707C3
:103F580000201307670A1C43411122C426C24AC025
:103F680006C601440149BA8489E7A165D1251DC463
:103F780001A803C7E7FF631AA7020DCCA165012EAC
:103F88009840832784FF6319E4021707002023253C
:103F9800F706FD57232C04FE230FF4FE2285B240BA
:103FA8002244924402494101828011E03E8983A75C
:103FB80087FF5DBF3E84E5BF232CF9FED9BFB1CD95
:103FC800411122C406C62A849707002083C7170315
:103FD8002E856375F400894763E8870001370D452E
:103FE800B24022444101828083A785FF99E703C735
:103FF800E5FF9307F00F6305F700CD351545CDB7FD
:10400800238F85FE17050020130505FF4D3D2285EA
:104018002244B240A16541019DAC154582809707B5
:10402800002023AB07FC8280970700209387470274
:104038009C4399E33E85828003D727006316B70027
:1040480003C70700E308A7FEDC47E5B7C9C17971D4
:1040580022D406D626D24AD04ECE01444147B3D701
:104068008540858BA5C31205314722953305E502A6
:10407800970700209387C70103A907008544B394D5
:104088008400C204C180BE892A990327090011C788
:10409800032549002EC60297B24531473304E4028E
:1040A80083A709003E941C4489E7232009002322A2
:1040B8000900B2502254A58D02599254F2492E8516
:1040C800456182800504E31CE4F88144DDB72E8550
:1040D800828041111397050122C406C626C24AC030
:1040E80041872E84635E07009D3511C1C53BA167DA
:1040F8003D8C2285B240224492440249410182808B
:10410800EDD9AA8701474146B356E440858A8DCE4A
:104118009207BA97B146B387D702970600209386CD
:1041280026F703A906008544B394E400C204C180BD
:104138003E99832709000325490082972320090017
:1041480023220900258C75B70507E31FC7FA8144A8
:10415800D5BF970700209387E7EF9C53411122C4EE
:1041680006C61384018199C782971C403E9523A8EF
:10417800A18039A097070020938707ED9C43EDF7AE
:104188000840B74703009387D73F3305F502B7A721
:104198002600938737ECB24022443E9523A8A1809D
:1041A800410182807DC1970700209387E7E99C43FE
:1041B800797122D426D24AD04ECE52CC56CA5AC889
:1041C80006D65EC63A8AB689328BAE8A2A89829723
:1041D800970700209387C7EB9843BE840144B146F4
:1041E800C147B30BD40233067701104251EAC165C7
:1041F800938505F0414597E0FF1FE780E0811DE5C5
:1042080097070020938707E59C5B2D4589C71145D3
:10421800814582972D45B250225492540259F24951
:10422800624AD24A424BB24B4561828097070020CE
:10423800938707E2984329E39707002023AAA7E07A
:10424800230005009C4005473317870023260500F7
:10425800232465012311E50023224501DE9723A0CD
:10426800270123A2570123A447010145E38509FA41
:10427800238089004DB73E875C47F5FF48C7C9B71B
:104288000504E310F4F6214579B7094582809707BC
:10429800002083C7B7D66371F502170700201307FC
:1042A800E7DA9317150008433E9583570500DD8D1F
:1042B8002310B500014582800D45828097070020B4
:1042C80083C7D7D36373F50217070020130707D8EE
:1042D80093171500084393C5F5FF3E9583570500CE
:1042E800FD8D2310B500014582800D45828013079E
:1042F80005FF1377F70FFD4763E9E70AB146B306F1
:10430800D502970700209387A7D8984389473697FF
:10431800184349CF011122CC4EC605449359450094
:104328003D893315A40013140501418026CA4E8522
:10433800AE84A2854AC806CEC5392A89814731CDBF
:10434800A2854E85A53F970700209387E7CF9C431A
:1043580082979707002083D7A7D4338797022A84A8
:10436800814613060064B3B7970213050732B335C5
:10437800E500BE95EF202273B3078500970600205D
:10438800938686D13E87D44263E4A70063E4D700CE
:104398003387D7402324E9008147F2406244D2445E
:1043A8004249B2493E850561828089473E858280BF
:1043B800011126CA06CE22CC4AC84EC6BD4789443A
:1043C80063EFA70231473307E50297070020938779
:1043D80027CC9C438944BA979C4395C3054433141E
:1043E800A400420441802E890145A2853539AA8955
:1043F800814411C5A2850145D13523A42901F24084
:10440800624426854249D244B249056182809707B1
:10441800002083C7B7BE6364F5000145828001119F
:1044280097070020938747C256C283AA070006CE83
:1044380022CC26CA4AC84EC652C4638D0A0A170A35
:104448000020130A6AC583244A00B74736FE9387BB
:1044580007C8AE899705002083D585C4BE94B38765
:10446800C5022A8432898146B3B5C502138507324D
:10447800B337F50013060064BE95EF20C26263EB04
:10448800A406829A9705002083D585C1B3872503A2
:10449800AA84130600648146B3B525031385073241
:1044A800B337F500BE95EF200260B3079500BE84D0
:1044B80003274A0063E4A70063E4E700B384E74006
:1044C800CE852285953601C504C505452DA0936581
:1044D80004F0C205C181414597D0FF1FE780C05352
:1044E80005E5970700209387E7B69C5B81C7A285FF
:1044F800114582970145F2406244D2444249B2498B
:10450800224A924A0561828097070020938747B420
:104518009C439DE39707002023ACA7B28547232639
:10452800050004C52311350123008500A300F5000B
:104538002322050059BFBA87D84775FFC8C7F9BFF6
:1045480059C9797122D426D24AD04ECE52CC56CAF5
:104558005EC662C466C206D65AC83689328AAE8931
:10456800AA844144314C970A0020938A6AB2854C48
:10457800930B0003330B840303A70A005A971C43C9
:10458800B1E79375F400B395BC0013554440C205D8
:104598005286C1811375F50F9D3D0DC983A70A0089
:1045A8000145DA9784C323A2370163040900230075
:1045B8008900B250225492540259F249624AD24AAE
:1045C800424BB24B224C924C456182800504E31366
:1045D80074FB2145F9BF09458280411122C426C2D6
:1045E8004AC006C62A842E89B2841535CA85228512
:1045F800EFF09FA305CD9705002083D565AAB38763
:1046080095022A84130600648146B3B59502138582
:104618000732B337F500BE95EF20E24848C00145A0
:10462800B240224492440249410182802145CDBFD3
:10463800411122C426C24AC006C62A892E84EFF038
:10464800BF9EAA8419C123110500A2854A85BD31E0
:104658009707002083C7879A639B27019707002045
:1046680083D7479E5D8C97070020239D879C014533
:1046780091E01945B24022449244024941018280A6
:104688009307F00263E8A7044111B14722C4330439
:10469800F50226C2970400209384849F9C4006C696
:1046A800A297984389470DC39377F5008545B3953D
:1046B800F500C205C1811181A53F9C40A29723A0A6
:1046C800070023A207008147B240224492443E8556
:1046D8004101828089473E858280411106C622C4F5
:1046E800EFF09F9411E50145B240224441018280D8
:1046F80097070020938747959C4300458297970723
:104708000020938767996368A402D843B74636FEAA
:10471800938606C83305A4403697E376E5FC13076D
:104728000064B335E50203D6870081463305E50208
:10473800EF20623755BFD8433A94C1BF411122C414
:1047480026C217040020130424959704002093849C
:10475800E48A94485840970700209387E78E06C656
:104768009C436393E60882975440B74736FE938785
:1047780007C8B6973387A7003A856364F700636470
:10478800D7003305D74097040020938464AA9C4C33
:1047980081CF970700209387A7B094433707CDFFB1
:1047A8007D179C46F98F9CC611E148409707002069
:1047B8009387478ADC53829719E59C4C8DC3EF4059
:1047C800610BEF30E1609C4C99CB970700209387F1
:1047D80027AD9843B70633001C47D58F1CC7B24096
:1047E800224492444101828082979848970700208A
:1047F80083C7978754401D8FB307A7003E8563E49E
:10480800E700E3E2D7F83385D740B5BF411106C6C4
:104818009707002023A0A7880295B24097F7FF1FAB
:1048280023AAA77E014541018280994763E9B70021
:104838008A0597F7FF1F9387277FBE9588C18280D7
:1048480041117146814517F5FF1F1305E57D06C621
:1048580097F7FF1F23AE077E9707002023AC078238
:1048680097F7FF1F23A2077E97C0FF1FE7804036F8
:1048780013068002814517F5FF1F1305257897C099
:10488800FF1FE780E034EF90911197F7FF1F83C770
:10489800D77D13D527008D8B3E958D473305F502BF
:1048A800854539051375F50F97F7FF1F2389A774F9
:1048B80099473305F5021305052497D0FF1FE780B4
:1048C800A01517F7FF1F2325A77C59CD994717F681
:1048D800FF1F0346C6723306F602814513060624F7
:1048E80097C0FF1FE780C02E97F7FF1F9387477A6F
:1048F8009C439387072417F7FF1F2325F77217F7A1
:10490800FF1F0347C76F0A07BA9717F7FF1F232F21
:10491800F772EFF0CFF0052B97F7FF1F938787709B
:10492800944397F7FF1F83C7776D13972700369730
:1049380017F6FFFF1306C67110C313871700137706
:10494800F70F0A07369717F6FFFF1306C67810C346
:1049580013873700890793F7F70F8A0797F5FF1F23
:10496800A38EE568B69790C3B2404101828097F75D
:10497800FF1F83C7B76817F7FF1F0347476863F32D
:10498800E70217F7FF1F1307E76918439386170015
:1049980017F6FF1FA304D66693962700369708C319
:1049A8003E8582809307F00FE5BF1C41638A071696
:1049B80041777D8FB706002089476314D7160357C0
:1049C800450063000716411122C419462A8493053D
:1049D800F00F690506C697C0FF1FE78080290547C5
:1049E8008D47630AE5121C4481CB585899476304E4
:1049F8000712185C630107121306C003814517F5F7
:104A0800FF1F1305256597C0FF1FE780601C13066D
:104A1800C003A28517F5FF1F1305C56397C0FF1FC5
:104A2800E780801717F7FF1F0357876397F7FF1F64
:104A38009387476219E71307001097F6FF1F239122
:104A4800E66217F7FF1F0347C76111E7054797F6A7
:104A5800FF1F2388E66017F7FF1F0357A76011E7BA
:104A68006D4797F6FF1F239FE65E17F7FF1F034763
:104A7800575F11E7154797F6FF1FA384E65E17F700
:104A8800FF1F0347475E11E7054797F6FF1F238C73
:104A9800E65C17F7FF1F0347175D19E703C7F70021
:104AA80097F6FF1FA381E65C17F7FF1F0347C75B55
:104AB80011E7354797F6FF1F2388E65A17F7FF1FB8
:104AC8000347D75A19E71307800297F6FF1FA38FEA
:104AD800E65817F7FF1F0347375919E71307D0029E
:104AE80097F6FF1FA382E6580347840119E71307C7
:104AF800C00397F6FF1F238BE6569C5791C78297F2
:104B080097F7FF1F2390A750FD5717F7FF1FA30B19
:104B1800F77E3D338147B24022443E854101828081
:104B280089473E85828001114EC697F9FF1F9389F8
:104B3800A95683A7090006CE22CC26CA4AC852C461
:104B4800829713090064B335250303DA8900814687
:104B5800528633052503EF10127597F7FF1F9387C9
:104B6800E749804FAA84014563069402338584404F
:104B7800636E940003A5490052868146B335A902A5
:104B88003305A902EF103272018D269597F7FF1FA2
:104B980023A29748F2406244D2444249B249224A89
:104BA80005618280011122CC0A852E8441469745F1
:104BB8000200938525B206CEEF20826A1808060403
:104BC8003A94035504FF97F7FF1F83D7874DF240A8
:104BD8006244AA9737450F00130505243355F5029B
:104BE8000561828097F7FF1F83D7A74B51471D4563
:104BF800637CF702794719456378F70213072003A6
:104C080015456373F7021307B0041145637EF70077
:104C1800130740060D456379F70013076009094536
:104C28006374F70013B5B70F8280011122CC06CE4A
:104C38002A842EC6EFF0EFD1B245F240818D33A51C
:104C4800A502229562441375F50F05618280011152
:104C580022CC06CE2A842EC6EFF0AFCFB245F24062
:104C6800818D33A5A50222956244420541810561E3
:104C78008280011122CC06CE2A842EC6EFF06FCD99
:104C8800B245F240818D33B5A50222956244056193
:104C9800828097F7FF1F9387E73B985739CB4111DD
:104CA80022C426C206C6BE84029717F7FF1F035701
:104CB80067352A8415CBBA876373A700AA87C2070A
:104CC800C183BA866373E400A286C206C182958F47
:104CD8005147635BF700DC5491C38297EF3011238F
:104CE80097F7FF1F23908732B24022449244410134
:104CF8008280828097F7FF1F9387C735DC570111A1
:104D080006CEAA8581C72AC68297B245C1C59C41ED
:104D18000545B5CFDC41A5CF83D78500ADCB83D77B
:104D2800A500B5C783C7C500BDE3414617F5FF1FFA
:104D38001305853697C0FF1FE78000E697F7FF1F2A
:104D4800938787359C4317F7FF1F232FF72E97F775
:104D5800FF1F83C7B7318DE79307800217F5FF1F41
:104D6800035505343305F50237460F0013060624AC
:104D780081468145EF10325397F7FF1FA388A72E6E
:104D880017050000130565DAEFF05FA80145F2404A
:104D98000561828097F7FF1F83C7272D1397870127
:104DA80061876354070497F7FF1F23A7072697C750
:104DB800FF1F9387672117F7FF1F232FF72C7D57B6
:104DC80097F7FF1F23ACE72CB7873200938727A1FB
:104DD80097F6FF1F23A6F62C97F7FF1F2384072CAF
:104DE800B7C7004023A4E72691BF13F7170005CFE4
:104DF800B7872003938707D017F7FF1F2322F72AC7
:104E0800B707C0A817F7FF1F232AF72897C7FF1F60
:104E18009387A71E17F7FF1F2320F72897F7FF1F71
:104E28002382072821BF617797F6FF1F239AE6267A
:104E380081CB9307003217F7FF1F2314F726C9B752
:104E480093072003CDBF011122CC17F4FF1F1304D1
:104E58006420084406CE26CA4AC801E90545F2403E
:104E68006244D2444249056182805C58E5DB185CA3
:104E780075D77000854582971844B247E300F7FE5E
:104E88009305E00417F5FF1F0355851D97D0FF1FF5
:104E9800E78080B817F7FF1F2322A71861D117F6FC
:104EA800FF1F0356E61B9305F00F97C0FF1FE7800F
:104EB80020D2814417F9FF1F1309491497F7FF1FE0
:104EC80083C7271A0326090263C1F402328597D0E3
:104ED800FF1FE78080C1014597F7FF1F23A0071434
:104EE80097F7FF1F23AE07129DBF97F5FF1F83D5C6
:104EF8002517B38795020844185C898185043E9577
:104F080008C2029765BF011156C297FAFF1F938A1C
:104F18006A1483A78A0022CC4AC84EC606CE26CA7F
:104F280052C45AC0AA892E8432896385072203A7EE
:104F38004A03630707147D476366A71497F4FF1FA6
:104F48009384C40B03AA040263170A0A9565938520
:104F580015E017F5FF1F0355A51097D0FF1FE78031
:104F6800A0AB97F7FF1F23ABA70A2A86630A051091
:104F780083A74A0303A58A0097F5FF1F83D5450E2B
:104F88008981829783A78A0003AA040217F7FF1F63
:104F98002328F7088947639CF908C1476312F40E70
:104FA80097F5FF1F83D5C50B938505FC9147B3C5BE
:104FB800F5028A05D29503C705009307A005631D6E
:104FC800F70A83C715006399370B4A85228691052E
:104FD80097C0FF1FE78040BC9C50528563934715DC
:104FE8000145F2406244D2444249B249224A924AB7
:104FF800024B05618280D850E38EE7F8956593856A
:1050080025E017F5FF1F0355A50597D0FF1FE7807B
:10501800A0A02A8A35C52A8683A74A0303A58A0041
:1050280097F5FF1F83D5C50389818297A5B78D475B
:10503800639DF900C1476315F40497F5FF1F83D5F5
:105048002502938545FDF199B5B79147639AF90013
:105058006318340397F5FF1F83D58500A115E5B7BD
:10506800C147639FF900A14763EC870097F5FF1FCD
:1050780083D505FFC115C1BF9C5052856397470D65
:10508800294585B71307F006568B6361A70A130AEB
:1050980005FE1947334AEA0217F7FF1F035747FC73
:1050A80097FAFF1F938A8AF5330AEA023E9A83A782
:1050B8004A026395470183A40A029DE49305E0042C
:1050C80017F5FF1F0355C5F997D0FF1FE780C09458
:1050D800AA845DD583274B0397F5FF1F83D545F831
:1050E8002A8689815285829791451307A00589816F
:1050F80093972500A69783C607006393E60483C6A3
:105108001700639C360385058A052286A6954A857D
:1051180097C0FF1FE78040A883A70A02E38297ECA5
:10512800268597D0FF1FE780409C5DBD1307E007E9
:10513800E368A7F4130A05F985B783D5270045BFA7
:1051480083A70A02E38E97F2268597D0FF1FE78090
:10515800C0993DB797F7FF1F938747EA8C538DD1C6
:1051680091479306A0058983139727002E97034636
:105178000700E317D6F003461700631C36018507BE
:105188008A072286BE954A8597C0FF1FE780C0A080
:1051980081BD83572700C1BF97F7FF1F938787EB10
:1051A800984739C79C5FA9C705476313E5044111B0
:1051B80022C417F4FF1F130464E4105006C60DC67A
:1051C800485097F5FF1F83D5A5E989818297085034
:1051D80097D0FF1FE780609197F7FF1F23A007E490
:1051E80097F7FF1F23AE07E2B240224441018280B5
:1051F8008280011117F7FF1F1307C7E54EC68329E1
:10520800870022CC26CA4AC806CE52C456C2AA84EF
:105218002E843289638A09201C5FBA8A99EB294552
:10522800F2406244D2444249B249224A924A056154
:1052380082805C5BEDD7FD4763E9A70E97F9FF1FF6
:105248009389C9DB83A70902B1CB03A58A0083A789
:1052580049026395A70689476393F408C147E31099
:10526800F4FC17F5FF1F0355A5DF9147130505FC4F
:105278003345F5029317250003A509022286CA853E
:105288003E959307A0052300F500A300950011059E
:1052980097C0FF1FE7804090014559B79305E00488
:1052A80017F5FF1F0355C5DB97C0FF1FE780C076C2
:1052B80097F7FF1F23A4A7D649F995B783A74A03F1
:1052C80003A6090297F5FF1F83D585D9898182979F
:1052D80083A78A0017F7FF1F2324F7D4ADBF8D4794
:1052E800639EF400C147E31CF4F217F5FF1F035552
:1052F80025D7130545FD9377C5FFBDBF9147639A31
:10530800F400E31E94F017F5FF1F035565D521152A
:10531800DDB7C147E395F4F0A147E3E287F017F55D
:10532800FF1F0355E5D34115F9B79307F00663EA64
:10533800A706930705FE1947B3C7E70217F7FF1F2C
:10534800035707D217FAFF1F130A4ACBB387E7029E
:10535800BE9983270A02A9CF83274A02639A37078F
:1053680003250A0291461308A005FD5593D7260088
:10537800C207C183139727002A9703460700631DB6
:105388000607834817000356270063959806B30657
:10539800D64063CF860485078A072286CA853E954C
:1053A800C5BD9307E007E3ECA7E6930705F979B7CE
:1053B8009305E00417F5FF1F035585CA97C0FF1F23
:1053C800E780806597F7FF1F23AAA7C451F581BD21
:1053D80083A74A0303260A0297F5FF1F83D545C80A
:1053E80089814E85829797F7FF1F23AB37C38DBFFF
:1053F800A300B700B2869DBFB385860017F6FF1FCE
:10540800035606C69105130606FCE3FAC5E0130623
:1054180034001376C60F1106B29623000701A300C5
:1054280097002311D70085BF97F7FF1F938707BD04
:105438009453BE89A1C203A5090291461308A00589
:10544800FD5593D72600C207C183139727002A97D3
:10545800034607006316060583481700035627000E
:1054680063989800B306D640E3D786F2A300B70046
:10547800B286C1BF8357C70017F5FF1F034565BE36
:105488009305E0043305F5024205418197C0FF1FEB
:10549800E780805897F7FF1F23A2A7B849FD41B3BB
:1054A80017F6FF1F0356C6BB97F5FF1F83C565BBDD
:1054B800B385C502338686001106E3E2C5D681BFEF
:1054C80001458280011106CE2EC6EF80B03601C993
:1054D800B245F2400355250005616FC09074F24053
:1054E800494505618280A384018C2384018C23A80B
:1054F800018A23AA018A23AC018A23AE018A23A642
:10550800018A23A4018A97F7FF1F9387E7BB9306B5
:1055180040382391D702F1761307400B938606B8DB
:105528002391E7002392D70211679D4613060005D1
:105538009305000A1305007D2392E7002393D70201
:1055480041478546130810F82395E7002396E7009E
:105558002399E700239AE700239BE700239CE700B1
:105568002394E702239007002393B7002394B700FE
:105578002397C7002398C700239DA700239E0700F1
:10558800239F0700239007022395D702239607033A
:10559800239707029308F007239807022392E7044A
:1055A8002393E704239FE7042390E7062391E70664
:1055B8002392E706239917031307C01C239AD702DF
:1055C800239BD702239C0702239D0702239E0702E1
:1055D800239F0702239007042391D70423940704E9
:1055E800239507042396D7042397C7042398C70451
:1055F8002399A704239A0704239B0704239C0704E1
:10560800239DC704239EC7042393A7062394070654
:1056180023950706239607062397B7062398B70608
:1056280023990706239AE7065147239DE7067D57E6
:10563800239B0706239C0706239ED706239F07065E
:105648002390070823910708239207092393E70863
:105658008280011126CAAA84214522CC06CE2E8436
:1056680032C636C43AC2EFE03F8A1DC9A246124785
:105678003246930700FD2300F5009947A3009500E3
:105688002301F5002303D500A303E5002312C50079
:10569800AA8522856244F240D24405616FE03F92B8
:1056A800F2406244D2440561828023A8A18A8280A4
:1056B80023AAA18A828023ACA18A828023AEA18AF0
:1056C8008280011122CC4AC806CE26CA2A89014402
:1056D800B30489006368B400F2406244D24442498A
:1056E800056182802EC6EFE0DFA693170501C1830E
:1056F800A183B2452380F4009307140093F7F70FB2
:10570800850463F9B700CA9709042380A7001374B6
:10571800F40F7DBF3E847DBFC16717F5FF1F03559A
:105728000599FD176304F502411117F6FF1F03469B
:10573800A6AD9385018C06C6EF80C06DB240FD57BB
:1057480017F7FF1F2315F79641018280828009C948
:1057580025151375F50F1335850E13451500828031
:105768000145828023900500C9C6797122D426D2CA
:105778004ECE52CC5AC806D64AD056CA5EC63684D1
:10578800328AAE892A8B814463F34407B3079400B5
:1057980083C70700138914004209939A070193DA13
:1057A8000A011359090163840A04CA976341FA0478
:1057B800B307240183CB07005E85513F0DC993874A
:1057C800FAFF2390F90063906B03130519002295E3
:1057D800B250225492540259F249624AD24A424B78
:1057E800B24B45618280D694C204C18071BF014525
:1057F800C5B701458280411126C2AE8422C497F7FD
:10580800FF1F23ADC78A97F7FF1F23A7B78A97F70C
:10581800FF1F23A1A78A2A8441469305F00F2685F6
:105828004AC006C6054997B0FF1FE7808044631049
:10583800250597F7FF1F93872787884BC145513563
:1058480041469305F00F228597B0FF1FE78060421D
:10585800854463189502224497F7FF1F9387C784EE
:10586800B24092440249C847C145410199BD4146E9
:105878008145268597B0FF1FE780A03FE31225FDED
:105888004DBF41468145228597B0FF1FE780603EA6
:10589800E30395FCB24022449244024941018280CC
:1058A800411122C426C22E84AA841306000281450F
:1058B80017E5FF1F1305457F06C697B0FF1FE78052
:1058C800203197E7FF1FA382977E97F7FF1F238F4B
:1058D8008792EFC05037854719C181474945B24083
:1058E800224417E7FF1F2301F77C9244410182807D
:1058F800814781CD19C98547631BF50083C75500CA
:1059080093E707FCA382F50085473E858280894797
:105918006317F50083C7550093F7F703E5B70D47FD
:105928008547E314E5FE03C755001377F7031367AC
:105938000704A382E500D1BF81478DC105C103C714
:1059480055009306000C85471377070C6308D700AA
:10595800930600048D476303D70089473E858280FC
:10596800411122C4005D06C626C21DC8AA8408507B
:1059780009C597C0FF1FE7804017485009C597C061
:10598800FF1FE7808016085409C597C0FF1FE780EE
:10599800C015228597C0FF1FE780201523AC04029D
:1059A800B240224492444101828009ED97E7FF1FEB
:1059B80083C7A76F17E5FF1F1305857081CB138574
:1059C800018A828017E5FF1F1305856F828017E51E
:1059D800FF1F0345856D828097E7FF1F9387C76C7C
:1059E800C847828097E7FF1F9387076C884B8280A0
:1059F80097E7FF1F9387476BDC4B8843828097E7C5
:105A0800FF1F9387676AD84B1C4385071CC317E59C
:105A1800FF1F034595699307F00F6305F50091652E
:105A28006FE0FF868280011122CC06CE2E8432C61A
:105A3800EF8000719147B245631FF5009387C18BD2
:105A48009C438DC303A30700630E030022856244B1
:105A5800F240056102839387418B9C4381C703A36E
:105A68004700DDB7F24062440545056182800111B7
:105A780022CC2A840355450006CE26CA4AC84EC6FB
:105A8800EF80204A35C52A89834405008349C5002B
:105A9800C13D4A85EF80F02503554400EF808065BD
:105AA80083C7818CB1CB6399970483C5918C268574
:105AB800EFF05FA119E12384018C03554400EF80C6
:105AC80020689147631FF5000357440097E7FF1FBD
