:040000006F20C02885
:100004000000000000000000900000208A0400208E
:10001400A9BDF9F3900000200000000000000000DA
:10002400900000209000002000000000000000006C
:10003400900000200000000090000020000000005C
:100044009000002090000020D84200009000002082
:1000540090000020900000209000002090000020DC
:100064009000002090000020900000209E050020B9
:100074007E050020900000209000002090000020C9
:1000840090000020900000209000002090000020AC
:1000940001A073270080218B9387018509CB7327E7
:1000A400008023A8E18498435D9B731007800F10A0
:1000B400000037170040930670052300D704930609
:1000C40080FA2300D7040F1000008346B70493F688
:1000D400F60DA305D7042300070473260080944378
:1000E400A18AD18E7390068023A801840F1000008A
:1000F40093760502638406180347A700118B25E74E
:1001040073270080218B09CB7327008023A8E18407
:1001140098435D9B731007800F1000003717004051
:10012400930670052300D704930680FA2300D704AE
:100134000F1000008346A70093E646002305D7006E
:1001440023000704F32600809843218B558F7310F6
:10015400078023A801840F1000001307004B01003F
:1001640001007D176DFF73270080218B09CB732756
:10017400008023A8E18498435D9B731007800F10CF
:10018400000037170040930670052300D704930638
:1001940080FA2300D7040F1000007D892314A700E0
:1001A400010001000100010023000704F326008080
:1001B4009843218B558F7310078023A801840F1057
:1001C400000073270080218B09CB7327008023A8AC
:1001D400E18498435D9B731007800F10000037176C
:1001E4000040930670052300D704930680FA230089
:1001F400D7040F1000000F100000B72600401306AC
:100204001005A383C68023000704F32600809843C7
:10021400218B558F7310078023A801840F100000D1
:1002240073270080218B09CB7327008023A8E184E6
:1002340098435D9B731007800F1000003717004030
:10024400930670052300D704930680FA2300D7048D
:100254000F1000008346B70493E60608A305D704ED
:1002640023000704732700809C43A18BD98F7390CC
:10027400078023A801840F10000082809376050470
:10028400638B06140347A700418B25E7732700807F
:10029400218B09CB7327008023A8E18498435D9BBD
:1002A400731007800F100000371700409306700585
:1002B4002300D704930680FA2300D7040F1000000C
:1002C4008346A70093E606012305D700230007040D
:1002D400F32600809843218B558F7310078023A841
:1002E40001840F1000001307007D010001007D1739
:1002F4006DFF73270080218B09CB7327008023A80F
:10030400E18498435D9B731007800F10000037173A
:100314000040930670052300D704930680FA230057
:10032400D7040F1000009376F50193E60604231416
:10033400D700010001000100010023000704F32697
:1003440000809843218B558F7310078023A8018464
:100354000F100000130760046310E5047327008086
:10036400218B09CB7327008023A8E18498435D9BEC
:10037400731007800F1000003717004093067005B4
:100384002300D704930680FA2300D7040F1000003B
:10039400B72600400946B5B573270080218B09CBE9
:1003A4007327008023A8E18498435D9B7310078022
:1003B4000F10000037170040930670052300D70480
:1003C400930680FA2300D7040F100000B7260040DC
:1003D400130620053DB573270080218B09CB7327B5
:1003E400008023A8E18498435D9B731007800F105D
:1003F400000037170040930670052300D7049306C6
:1004040080FA2300D7040F1000008356870093E678
:10041400060C2314D700C5BB411181460146814512
:10042400114506C61921F3270080A18B9386018507
:1004340089CBF327008023A8F1849C42DD9B739031
:1004440007800F100000B7170040130770052380C2
:10045400E704130780FA2380E7040F10000003C7A2
:100464006704136717002383E704238007047327B3
:1004740000809C42A18BD98F7390078023A80184AC
:100484000F100000B240410182808146014681453F
:100494001145612EF3270080A18B1387018589CB39
:1004A400F327008023A8F1841C43DD9B739007800D
:1004B4000F100000B7170040930670052380D7047F
:1004C400930680FA2380D7040F100000FD5623966C
:1004D400D70223800704F32600801C43A18BD58F09
:1004E4007390078023A801840F100000F327008075
:1004F400A18B89CBF327008023A8F1841C43DD9BC7
:10050400739007800F100000B71700409306700522
:100514002380D704930680FA2380D7040F100000A9
:1005240083C6670493E616002383D7042380070455
:10053400F32600801C43A18BD58F7390078023A8DA
:1005440001840F10000001A0BD473305F50201002E
:100554007D1575FD8280411122C426C206C6AA8477
:10056400014463179400B2402244924441018280C2
:1005740005041305803E4204C13F4180DDB7B7172F
:100584000040130700032388E702854723ACF18466
:1005940073002030411106C6EF00D002F5BF373793
:1005A4000040834747409946BD8B638FD71431473A
:1005B4006385E7001147639AE71A011122CE26CC1E
:1005C4004ACA4EC852C656C4373400409749000040
:1005D4009389493093041003179A02E0130A8AD2CC
:1005E40013092003979A02E0938ACAD281470347EA
:1005F400A44063EFE7109747000083C7A72D639BD0
:1006040097005285977002E0E78080F3974000E0FE
:10061400E78040B59747000083C7C72B639B27013A
:100624005685977002E0E780A0F1974000E0E780EC
:1006340040B9174700000347E72993073003631EB7
:10064400F700179502E01305E5CD977002E0E78007
:1006540020EF974000E0E780A0BC17470000034765
:10066400672793074003631EF700179502E01305FD
:10067400A5CC977002E0E780A0EC974000E0E7800B
:1006840000C0174700000347E72493075003631E85
:10069400F700179502E01305A5CB977002E0E780F9
:1006A40020EA973000E0E7806055174700000347D1
:1006B4006722930780036319F700854503C5D1803A
:1006C400974000E0E78020209747000083C78720F9
:1006D400130790036398E704B71700409306700567
:1006E4002380D704130780FA2380E7040946238371
:1006F400C7042380D7042380E70403C76704136770
:1007040017002383E70401A0834757407300203078
:10071400834684403387F90085072300D70093F785
:10072400F70FF1B51307A0036392E702179502E0F0
:10073400130505C3977002E0E78080E0930500404D
:1007440003C59186974000E0E780E0178347A44003
:1007540093F7F70FE39C07E87244E2445249C24915
:10076400324AA24A0561730020307300203023030B
:10077400048015472303E48001002302A4808280BF
:1007840083076480E3CE07FE23030480828083070B
:100794006480E3CE07FE034544808280830764803F
:1007A400E3CE07FE2302A4808280411126C44AC2FC
:1007B4004EC006C61377F50BAD47AA892E8995441A
:1007C4006306F70019456537653F8D444E85453707
:1007D400FD59FD1463983401B240A2441249824980
:1007E40041018280135509011375F50F453F220914
:1007F400CDB7011126CC06CEB704080051371545F4
:10080400BD37713769372AC6A53F3245937715003E
:1008140089EB136515001375F50FF240E244056189
:100824008280FD14E9FC0145CDBF397126DC4ADA2A
:100834004ED852D656D45AD25ED006DE62CE66CC9C
:10084400B7E700E07D5783AA070022C603AA470042
:1008540023A0E71823A2E718B71700401307700571
:100864002380E704130780FA2380E70483C747043F
:10087400930B75FFB684E20793FBFB0F8546AA89A9
:100884002E8B328937240040E187015763FA7601C1
:100894006308D5008946130700026313D500015786
:1008A400D98F93F7F70FB71C00402382FC0411473C
:1008B4002303E4801305F00F5D3D094CD135636DCE
:1008C4007C11B7050700DA9537870700795563F27D
:1008D400E504B3879500636EF702370B0800A94758
:1008E40033EB65016399F90689E48144513D26851A
:1008F4000DA0DA850945553D05090345F9FFFD14A9
:10090400050B693D81C49377FB0FFDF7DD3569FD68
:100914007D55B7170040130770052380E7041307BC
:1009240080FA2380E70403C74704418B2382E7044A
:10093400F250B7E700E023A0571123A24711E25475
:1009440032445259C259325AA25A125B825B724CD7
:10095400E24C21618280A5476395F90685691309F4
:10096400F00FB3069900B3742B01B6941349F9FF41
:10097400B3749900856B33796901416B9387F9FFEF
:10098400B3F7270199E363FC340193D94900C147C4
:10099400E3E637FF99BF0569C1697D19D9B7130526
:1009A400800D6388690113050002638479011305CE
:1009B4001008CA85DD3B353D21DD4E99B3843441B1
:1009C400D9B7DA852D45D533CA94E30099F20509E0
:1009D4007D3BA30FA9FED5BF9387F9FF93F7F70FCC
:1009E4006361FC0C83C71C0413073008631FF704FE
:1009F40037070800636BEB04B3079B00B7061000CE
:100A040063F5D704334BEB0089476393F906898078
:100A1400D549E38C04ECDA850945413B11090327E8
:100A2400C9FF91472320E48003076480E34E07FE57
:100A340023033481FD17EDFBFD14110B81C493775F
:100A4400FB0FE9FF7D3371F5E1B5B717004003C72C
:100A54005704B70708001377070219E3B78707009D
:100A64007955E378FBEA33079B00E3FFE7F855B5D4
:100A74008547E382F9F2DA852D45053B9389F4FF36
:100A8400E38504E6293393F7390091EB8326048048
:100A94000327090093074900E39AE6E43E89CE84DC
:100AA400F1BFB5476396F9001305900BC93135BD05
:100AB400B1471305B00AE38BF9FE99476391F90432
:100AC400B7050800B365BB002D45C53181448D4B86
:100AD400A149753963967401832704802320F900A2
:100AE4008504E39834FF8327048013172B0163558F
:100AF40007002312F900D5BB2322F900FDB39D475B
:100B04006399F90281451305B0044531BD4423209E
:100B1400090023220900FD599D3993F77400CA97EF
:100B240003C70700FD14398D2380A700E39634FF23
:100B34006DBBA1476392F9046D398144630D0B00C9
:100B44008D479304C0036308FB009304000563040A
:100B54008B01930440041375C507E30895D8194520
:100B6400393139390545213126850D3909453D315C
:100B74004931E31C05D669BB91476399F900130514
:100B84006006F536F53E130590090DB7E38F09D4D9
:100B9400F154A9BB19CD91CD09CE81473387F50016
:100BA400834607003307F50085072300D700E317C2
:100BB400F6FE828019C991C909CA910583A7C5FFA8
:100BC40011057D16232EF5FEC5BF828001C919C605
:100BD4002A960505A30FB5FEE31DA6FE8280814774
:100BE4003307F5000307070019E33E858280850774
:100BF400C5BF01112E8626CAAA84131506019305C2
:100C0400F004418122CC06CE32C6EF00F05B2A8488
:100C140001C53246A685BD3F2285F2406244D244D6
:100C240005618280854715C18DC105C28147B30620
:100C3400F5003387F50083C6060003470700639871
:100C4400E6008507E315F6FE85473E8582808147E9
:100C5400EDBF9307F6FFBE952A966313C500828005
:100C6400FD1583C715000505A30FF5FEFDB7AA877B
:100C7400014581CF09CE3E96850703C7F7FF631769
:100C8400B700E39BC7FE05458280828001458280D0
:100C940079719387818B22D4804306D626D24AD099
:100CA4004ECE52CC56CA5AC85EC65DCCB7C4C90132
:100CB400014B9389018B9384F437174A0000130A7C
:100CC4006AC4974A0000938AAAC717490000130907
:100CD40069CB8357240085E35C44631B0B0023AC7E
:100CE400F18A832BC4002285EF00705A5E84B9A870
:100CF4002326FB00FDB783A7090082971C44330712
:100D0400F5406376F500032749001D8F2A9763E0B9
:100D1400E4089747000023AD07C283552400034528
:100D24000400974000E0E78000BA5C405844A1CB3F
:100D34000C4403264900AE97BE8663E4B70063E41F
:100D4400C700B386C74014C4228B3A8459F097472E
:100D540000009387E7BE9C4B09476370F706F917B9
:100D6400174700002326F7BEB2502254925402596A
:100D7400F249624AD24A424BB24B456182806315C2
:100D84000B0023ACE18AB1BF2326EB0099BF0327F4
:100D94004A0209CF63EFA7003385A74083A70A015E
:100DA4006376F5009747000023A4A7BA228B40443A
:100DB40071BF03274900BA97C5B79747000023A915
:100DC40007B85DB7411122C4174400001304C4B925
:100DD4001C4006C626C24AC091C7829797470000A6
:100DE40023A407B89747000083C7D7D1858B9744BE
:100DF40000009384E4D095C397470000A38407D0F0
:100E040083C774001547637AF700C12B83C7740046
:100E1400F5178A07A2979C4382971C4491C3829733
:100E24001389418A0327090017460000034656B177
:100E34009747000083C7C7B093961700BA9683D626
:100E44000600C5CE9747000083C787AF63E1C70C90
:100E540097470000238607AE1C4063950712974707
:100E6400000083C777CA91CF83C7740093F7F70F45
:100E740089EB97470000A38907C8977001E0E780D2
:100E8400E06F9387018B9C43638E070E97470000A6
:100E9400938747AFDC4317470000232BF7AACD3BCA
:100EA40097470000938707A6DC53E9CF1747000054
:100EB400130707A9184B9747000083C7F7A5636377
:100EC400F70C83C774001547636EF70A9747000051
:100ED40083C787C7918BDDE7032609009746000087
:100EE40083C616A663C6D70A2244B2409244024976
:100EF4004101179302E0670063C9850793F7F70F71
:100F040097460000238EF6A2E3E4C7F225BF8607C6
:100F14003E9783550700231007002396018A938781
:100F2400C18B9C4317450000034585A11317250079
:100F3400BA979C43829783D7C18A17470000034717
:100F440027A093C7F7FF7D8D931717000327090088
:100F54003E97835707005D8D2310A7009747000035
:100F640083C7079E91C7850717470000230AF79C8C
:100F7400174700000347C79C9747000083C7579C47
:100F8400E378F7ECB2402244924402494101828062
:100F9400139717003297035707006DF7850799B722
:100FA400AD6737C70040BD072326F7200F100000A8
:100FB400974700009387C798C84F83278726BD6645
:100FC400BD0693C7F7FF99836A052326D7205D8D55
:100FD40082804111B7170040985F3AC6945F324748
:100FE400E39CE6FE3245410182801305F00F8280C6
:100FF400011122CC604126CA4AC84EC652C406CE4C
:10100400AA841D4A130965058549BC446364F40038
:101014000545B9A003C7D40083474400631A4705B4
:1010240003C784026304F7000040C5B703475400B4
:1010340083C75405E31AF7FE1946CA8513056400ED
:10104400D536E31335FF0347C40083C79402E31D79
:10105400F7FC0357E40083D7A402E317F7FC014528
:10106400F2406244D2444249B249224A0561828034
:10107400E31CF7FA0347540083C75405E316F7FA51
:101084001946CA8513056400713EE31F35F9C1BFD3
:101094000111974700009387E7B222CC03A4070C01
:1010A40026CA06CE2AC42EC6854419E40145F24058
:1010B4006244D2440561828083479100034714004F
:1010C400858B6304F7000044CDB719469305A1004E
:1010D40013052400813EE31895FE0545C9BF138717
:1010E40001981C439306001094C301000100010001
:1010F40001001C4323A00700834615000348250074
:10110400A2064208C29603480500C2960348350069
:101114006208C29694D78346550003486500A20628
:101124004208C29603484500C29603487500620807
:10113400C296D4D7834695000348A500A206420868
:10114400C29603488500C2960348B5006208C29659
:1011540094DB8346D5000348E500A2064208C29604
:101164000348C5000345F500C2966205AA96D4DB80
:1011740083C6150003C52500A2064205AA9603C529
:101184000500AA9603C535006205AA9694CF83C6C6
:10119400550003C56500A2064205AA9603C545008D
:1011A400AA9603C575006205AA96D4CF83C6950096
:1011B40003C5A500A2064205AA9603C58500AA9602
:1011C40003C5B5006205AA9694D383C6D50003C5AA
:1011D400E500A2064205AA9603C5C50083C5F5002D
:1011E400AA96E205AE96D4D3D443F59AD4C3D44395
:1011F40093E61600D4C3944393E6160094C3BA87C7
:101204009443D842058B59E3984E01452300E600E8
:101214009843184F2183A300E6009843184F418355
:101224002301E6009843184F6183A301E6009C4321
:10123400D84F2302E600D84F2183A302E600D84FFB
:1012440041832303E600D84F6183A303E600985348
:101254002304E60098532183A304E60098534183B2
:101264002305E60098536183A305E600D8532306BB
:10127400E600D8532183A306E600D853418323070D
:10128400E600DC53E183A307F600828001008DBFF2
:10129400138741981443411122C49C5E4AC006C678
:1012A400998326C2858B3A8413890198D1C79C5EA1
:1012B400974400009384C48493F7F7F99CDE17479E
:1012C40000000347478493070008631BF700832744
:1012D40009009C4393F70704174700002305F7828E
:1012E40083C7040093F707048DC39387018B9C4342
:1012F40082979747000023ADA78083C7040093F724
:10130400F70B17370000230DF77E83C7440093F7CC
:1013140007049DE3854717370000A305F77E9387ED
:1013240001999C43096798C7130700FC973600008E
:10133400238AE67CD844F8D31C40985F1183058B3C
:1013440009CB985F3D9B98DF054797360000238BB8
:10135400E67A985F1D83058B11CB985F1377F7F7B7
:1013640098DF854717370000230EF7788327090095
:10137400D8430583058B19C7D843759BD8C3D84375
:10138400799BD8C3B24022449244024941018280ED
:10139400397106DE16DC1ADA1ED82AD62ED432D2D9
:1013A40036D03ACE3ECC42CA46C872C676C47AC259
:1013B4007EC0F93DF250E2525253C2533255A25507
:1013C400125682567247E2475248C248324EA24EE3
:1013D400124F824F21617300203093870199944307
:1013E400973700009387C77103C70700058B11CB9C
:1013F400973700002388077097370000A38407708D
:10140400828003C71700058B65F7F85271FF83C705
:101414005700DDB713884198032708001C5F9583A4
:10142400858BD1E709C61C5BBD832300F60085CA02
:1014340083270800985B46079357670163560700A4
:1014440093E707C0C207C18303970600C207C18799
:1014540009C7BA970947B3C7E7022390F60085CDB9
:10146400834715008DCB9736000083C6C66993F673
:1014740006041387970089478DCA3A9503470500E8
:10148400854699471376F7066311D602620761878A
:10149400B947634C0700832708009C5FED838D8B5D
:1014A40017370000A303F76681473E85828085478E
:1014B400EDBF411122C406C61384019918402DE9D9
:1014C400AE877453FDFE3E85B28597370000238AAC
:1014D4000762977001E0E780A0DF938741989C43FF
:1014E400B70680009843558F98C3D857719BD8D7B7
:1014F40097370000A388076097370000A38207602E
:101504001C40094798C31440173700001307475F6E
:1015140083472700858B89EB83473700858BD9C3A5
:10152400973700002380075EB24022444101828045
:101534008D47631EF500938741989C43B70680004E
:101544009843558F98C3D857719BD8D76DBF85479B
:10155400E31BF5FA5447F977FD17F58F5CC70F10B5
:1015640000001C40096798C7130700F817360000ED
:10157400230AE658138741981043184231830D8B90
:1015840011E713076019F8D3D4C7B5BF1842094649
:1015940031830D8B6315C7001307E043EDB71307C1
:1015A400E01BD5B7FC52ADF741B75D71A2C4A6C22A
:1015B4002A84130680022800AE849305100886C688
:1015C400CAC04EDE52DCEFF06FE03545977001E0A3
:1015D400E780600C13834198832703009376F41FFC
:1015E400138E819923A40700984B938E0199370F8A
:1015F400FCFF1367F70398CBF84F130510F8B702F5
:101604000400137707E0558FF8CF9843F576FD165D
:10161400758F98C39843B7063300930380251377D7
:10162400F7E798C3984311497D1F1377F7E71367CA
:10163400071098C303270E008549930F80021C47A7
:10164400D58F1CC783A70E001307900D3400B8CBA9
:10165400014793553700A69583C705001376770095
:10166400B3D7C740858BE1C38327030083280E00CB
:10167400239C07042390070603A8C8021378D8FF05
:1016840023A6080383A807001378F70793F808F83C
:1016940033E8080123A0070103A847023368580070
:1016A40023A2070383A80E00014823A2780603DAC5
:1016B40007066307480303A80703038A06001358B1
:1016C400F80062081358884163580A0103A8070305
:1016D4001358F8002380060103D807061378F80F7F
:1016E40003AA480663060A0003DA8705E37F49FB79
:1016F40003A847023378E80123A20703838706007F
:10170400635CF40003C805003396C9001346F6FF72
:10171400337606012380C5003E8663D3A7002A865C
:1017240013158601618505071377F70F8506E31204
:10173400F7F3B640264496440649F259625A616169
:101744008280938601999C42D847131617016355EA
:101754000602984713161701635006027D57B8D73F
:10176400173700001307C71D584F05071736000029
:101774002326E61E116798C798470D83058B1DCB5A
:10178400173700000347E7371367170017360000C1
:101794002309E636130700F8173600002304E6365B
:1017A400214798C71387419810435856719B136774
:1017B400170058D69847058B0DC717370000034705
:1017C40037341367170017360000A30BE6320547BA
:1017D40098C71387419810435856719B1367170095
:1017E40058D698470983058B09E798470583058BE5
:1017F40021CF984717360000130686301385419889
:101804000983058B630307101841184331830D8B3B
:1018140075EBAC4B184E93F5050203471700CDCD7D
:1018240079EF13077006D8CF034706001367170034
:10183400173600002306E62C114798C718415C5759
:10184400F19B93E717005CD79C42984793163701A6
:1018540063D606029736000083C6463EC18A173710
:10186400000013072736C5CE03478707136707020F
:10187400973600002384E63C056798C7984793167B
:10188400270163D10602173700000347A727620721
:101894006187635707000547973600002384E626CF
:1018A400096798C798479316070163D606029736C7
:1018B400000083C6B638858A1737000013078730BF
:1018C400ADCE034797071367270097360000A38719
:1018D400E636216798C7828029D785456315B70006
:1018E4001307B00689B789456315B7001307F006D7
:1018F4001DBF8D456315B700130730072DB71307B8
:10190400500715B71307600739BF0347360013673D
:10191400170017360000A306E61E094739BF8346A1
:1019240087070946BD8A6388C600034787078D4633
:101934003D8BE313D7F4114725BF83469707918A5C
:10194400C9DA034797071367870041B7397106DE81
:1019540016DC1ADA1ED82AD62ED432D236D03ACE93
:101964003ECC42CA46C872C676C47AC27EC0D13B57
:10197400F250E2525253C2533255A2551256825675
:101984007247E2475248C248324EA24E124F824F2B
:101994002161730020309387019998438567938769
:1019A40007777CD3938781999C4383A60709139671
:1019B40056006358060083A607091396660063441D
:1019C40006007453FDF2828061C1AA870145DDCD12
:1019D4008D07C207C183F19BC207C183130740036C
:1019E400636BF702138741A208431387C1A1144311
:1019F4006396A602173700001307C7F0185B01456A
:101A040051C74111C20706C60545DD8D0297B24094
:101A1400014541018280138701A2F9B7035765008C
:101A240035E303574500636FF704B306F7402146D7
:101A3400637CD60203280500938687001D8FAA962F
:101A4400611717360000035606F02392E60023A020
:101A540006012393060014C12312F500130786FF21
:101A6400973600002391E6EE2313B5009735000066
:101A740083D565EDB387F540173700002315F7ECE0
:101A8400210582800841ADB701458280828009CD5D
:101A9400938741A203A307009387C1A183A80700EA
:101AA40081469A8763E31701828003A8070063696C
:101AB400F50A6367A80A13878700E367E5FE03D680
:101AC4006700216705076317E60003C7019505074B
:101AD4002388E19497350000938585E603D6470073
:101AE40003D76500239307003297420741831735D4
:101AF4000000231AE5E463886702138501A2084104
:101B04006303F50203D5660019ED83D7460023A0CD
:101B1400060121073E9621062392C600973700004E
:101B24002393E7E2B6879843E30017F9938601A26B
:101B34009442E30BD7F683566700BDF683D647007D
:101B4400035647001843A106B2962392D70098C3C0
:101B540083D76500A107173700002316F7DE8280BC
:101B6400BE86C28781B7032785116302071241111C
:101B740022C406C68347C5008345E5042A8493F737
:101B8400C70F2306F500834697000356C700139535
:101B94008601618563F2C508635B0506034587001A
:101BA40093F6F607A304D700054693E627006314CB
:101BB400C50093E617002306D4005C4389075CC381
:101BC400A30AB400032504112E864C430905EFE053
:101BD4007FFC8327841103465401D44303D7C700F1
:101BE400B296118FD4C32396E7008947A30DF4005E
:101BF400034764039737000083C7E7D16378F7048A
:101C04008347C40093E707012306F40081A093E708
:101C140017002306F4006DB79376F60F635D050293
:101C240003458700854513E627006314B50013E6D2
:101C340017002306C400A30AD400A30407008547A1
:101C4400A30DF400832784119C43DDF3B2402244A6
:101C540001454101828093E717002306F400A30A9B
:101C6400D400A3040700032504114C430905EFE045
:101C74007FF28327841103465401D44303D7C7005A
:101C8400B296118FD4C32396E7008D4755BF0545FF
:101C940082809387C1A39C43411122C406C6858BCD
:101CA4002A84C5EF4165130525F5972002E0E780F6
:101CB40020F045C58347A5002315F50083270412AA
:101CC400BDE72320A4122322A41285472311F40480
:101CD400232005008347640154412316F50003477C
:101CE400D4002304E5000547A304E50017370000EA
:101CF400130707E1184F1385170215811C437D153F
:101D04001375F50F9CC25C43DCC21C479CC65C4740
:101D1400DCC61C4B9CCA5C4BDCCA1C4F9CCE5C4F83
:101D2400DCCE19CD9386060213070702C1BF8327B1
:101D3400441288C3835724042322A412850779B745
:101D44009737000083D787E8850717370000231FDC
:101D5400F7E6B2402244410182808347C40023094C
:101D64000400054593C747002306F400DDB7834705
:101D7400850193F7E70FC5EF83479501CDEB034644
:101D840025018346C50009CA83456503173700004A
:101D9400034777B863E7E50013F7060151CB014722
:101DA40009C6C18A0357651C81C68356A51C36978C
:101DB40041C31307C71217350000035525BDB335BA
:101DC400A70237460F00411113060624814622C498
:101DD40026C206C67D543305A702975002E0E78069
:101DE400E0DA9737000083C777B3B384A700973747
:101DF4000000938727DD03A787098327070963F377
:101E040087003E84184375FB9387018B9C4382971C
:101E140081476364A400B307A440B2402244B3B72B
:101E2400970093C7170092443E8541018280814701
:101E34003E8582809387019998437C53FDFF82807D
:101E4400797126D206D622D44AD04ECE52CC56CA66
:101E54005AC85EC68347550303447513AA843E9447
:101E64001374F40F9307400263F687001304B4FD60
:101E74001374F40F03AA841383AAC413A38B8412C8
:101E840022865285D685975002E0E780A0CA05894C
:101E940015E503CBD41201498149337B6403930BC9
:101EA40050024A865285D685975002E0E78080C862
:101EB400058915C5639169031374F90F238B841283
:101EC400B250225492540259F249624AD24A424BC5
:101ED400B24B456182808509E20993D9894105099C
:101EE400E31179FDE1BF8327850903560504797160
:101EF40093D60701BD8EC206C182358E1357764034
:101F040093575640898B058B5D8F93573640918B41
:101F14005D8F93571640A18B5D8F93171600C18B6D
:101F24005D8F9317360093F707025D8F9317560062
:101F34009355860093F707041E065D8F1376F60FFC
:101F4400518F93D7554013D63540118A898BD18F41
:101F540013D67540D18F13D61540218AD18F13968D
:101F64001500418AD18F1396350013760602D18F5E
:101F740013965500137606049E05D18F93F5F50F3D
:101F8400CD8FA20745465D8F3307C70222D42A842A
:101F940026D252CC56CA032A8413832AC4135AC89D
:101FA40006D63697420741839357774013555740D7
:101FB4000989858BC98F135537401189C98F1355EA
:101FC40017402189C98F131517004189C98F13152B
:101FD400370013750502C98F1315570093558700F1
:101FE400137505041E07C98F1377F70FD98F13D5FF
:101FF400354013D755401189098B498F13D5754046
:10200400498F13D515402189498F139515004189AE
:10201400498F1395350013750502498F13955500A3
:10202400137505049E05498F93F5F50F4D8F22070F
:10203400D98FB387C7024AD04ECE5EC662C4B69764
:10204400C207C18313D7774013D557400989058B3D
:10205400498F13D537401189498F13D517402189EA
:10206400498F139517004189498F139537001375CC
:102074000502498F1395570093D5870013750504FE
:102084009E07498F93F7F70FD98F13D5354013D790
:1020940055401189098B498F13D57540498F13D544
:1020A40015402189498F139515004189498F13954E
:1020B400350013750502498F1395550013750504F2
:1020C4009E05498F93F5F50F4D8F2207D98FB3875E
:1020D400C702130650025285D685B697BD8E9394D7
:1020E4000601C18033F6C402137BF60F975002E059
:1020F400E78040A405890DED8347D4120149814945
:10210400B3849702130C5002C1804A865285D68547
:10211400975002E0E78000A20589937BF90F11C56F
:1021240063863403850993F9F90F0509E31F89FDD3
:10213400230B6413B250225492540259F249624A56
:10214400D24A424BB24B224C456182805E8BCDB762
:10215400797122D406D683C735002E842316010054
:10216400A307F10083C74500100802C02307F1004C
:1021740083C755008A8502C2A306F10002C402C8BF
:1021840002CA02CC02CEEFE09FF50347F101834778
:10219400040001456310F7020347E101834714007B
:1021A40001456319F7000345D101834724001D8DC0
:1021B40013351500B25022544561828001119737BE
:1021C4000000938727A022CC03A4870C26CA4AC800
:1021D4004EC606CEAA8413092500854915C083C7B7
:1021E400140003473400858B6304F700405CFDB79B
:1021F4001946930544004A85EFE0DFA2E31835FF52
:102204002285F2406244D2444249B2490561828047
:102214004111973700009387E79A22C403A4870CDF
:1022240026C24AC006C693042500054901E8228552
:10223400B24022449244024941018280A68513059A
:10224400A4023937E30525FF405CCDB74111973728
:1022540000009387279722C403A4870C26C24AC090
:1022640006C693042500054901E82285B2402244AC
:102274009244024941018280A6851305A401C93D07
:08228400E30525FF405CCDB726
:10228C00971100209381C195176100201301C1D6CD
:10229C001305400097E5FF1F938505D61706002010
:1022AC00130606FE63FAC5008322050023A0550021
:1022BC0011059105E3EAC5FE178502001305859803
:1022CC00970500209385C5FB1386C18463FAC5006E
:1022DC008322050023A0550011059105E3EAC5FEF4
:1022EC0013850185973500209385C59F6377B500CD
:1022FC00232005001105E36DB5FEFD42739002BC71
:10230C008D4273904280930280087390023097E262
:10231C00FF1F938262CE93E23200739052303717D4
:10232C000040930770052300F704930780FA2300FD
:10233C00F7040F1000003C47B70600FAE116F58FC2
:10234C00B70600069506D58F3CC7971200009382FE
:10235C00826773901234730020303D432A87637375
:10236C00C3029377F700BDEFADE5937606FF3D8A88
:10237C00BA960CC34CC30CC74CC74107E36BD7FED2
:10238C0011E28280B306C3408A069702000096963B
:10239C006780A6002307B700A306B7002306B70083
:1023AC00A305B7002305B700A304B7002304B700A7
:1023BC00A303B7002303B700A302B7002302B7009F
:1023CC00A301B7002301B700A300B7002300B70097
:1023DC00828093F5F50F93968500D58D9396050124
:1023EC00D58D61B79396270097020000969686824A
:1023FC00E78086FA9680C1171D8F3E96E374C3F86A
:10240C00A5B7B717004003C777051377E70FA38B62
:10241C00E704130700F8A38DE7043D47238CE7047A
:10242C0013075003A38CE704828041112A83014EC9
:10243C00930E407E130F0019930F400663E66E1443
:10244C009308001913034006B3781503854E0D4FFE
:10245C00A14F337365020D891335150063E0BE1669
:10246C001308F6FF7946729842081358080133078F
:10247C00C70213D61700BE0732976146B3F6C602E1
:10248C0013068070B386C6023697A166F58F420795
:10249C005D8FB716004083C7F60293F70708A307B2
:1024AC00F1000346F10083C7F60293F70708E394A3
:1024BC00C7FE8347F100B716004093F7F70F638907
:1024CC000714F3270080A18B93860185639807146A
:1024DC000F100000B7170040130670052380C704C7
:1024EC00130680FA2380C7040F10000023AA0703E9
:1024FC0003C6170313660608A388C70223800704C4
:10250C00732600809C42A18BD18F7390078023A8E7
:10251C0001840F1000001166B71500407D16DC59C0
:10252C00C85DA98FF18FE5FFF3270080A18B89CBC4
:10253C00F327008023A8F1849C42DD9B73900780D5
:10254C000F100000B7170040130670052380C70456
:10255C00130680FA2380C7040F100000D8DB03C7D2
:10256C00170313670704A388E70223800704732764
:10257C0000809C42A18BD98F7390078023A8018483
:10258C000F100000410182807D133368E303930830
:10259C00E016630E08003368F3039308D016630843
:1025AC0008009378330093B818009388D816330832
:1025BC001E01131E0801135E0E0149B56393E5035A
:1025CC000548638608000148630303002A887108E4
:1025DC007298FD15131E0801C205135E0E01C18110
:1025EC00B5BD13F8150063F4BF007908D5B71338DF
:1025FC001800E5BF83C7F60293F70708A307F1009D
:10260C000346F10083C7F60293F70708E394C7FE6D
:10261C008347F10093F7F70FF1DF65B5F3270080DF
:10262C0023A8F1849C42DD9B7390078055B591479C
:10263C0063EEB702176702001307C7138A05BA9532
:10264C009C41BA978287B717004003A7470B1345E5
:10265C00F5FF698F23AAE70A03A7070B698F23A845
:10266C00E70A03A7070A798D23A0A70A8280B71768
:10267C00004083A6470B1347F5FFF98E23AAD70A10
:10268C0083A6070B558D23A8A70A83A6070A758F67
:10269C0023A0E70A8280B717004003A7470B498F96
:1026AC0023AAE70A03A7070B1345F5FF45BFB71786
:1026BC00004083A6470B1347F5FF758F23AAE70A43
:1026CC0003A7070A598D4DB7B717004003A7470B4F
:1026DC00498FEDB7914763EEB702176702001307F6
:1026EC00A70A8A05BA959C41BA978287B71700400A
:1026FC0003A7470D1345F5FF698F23AAE70C03A722
:10270C00070D698F23A8E70C03A7070C798D23A06D
:10271C00A70C8280B717004083A6470D1347F5FF1F
:10272C00F98E23AAD70C83A6070D558D23A8A70CC9
:10273C0083A6070C758F23A0E70C8280B717004087
:10274C0003A7470D498F23AAE70C03A7070D1345D1
:10275C00F5FF45BFB717004083A6470D1347F5FF9C
:10276C00758F23AAE70C03A7070C598D4DB7B71724
:10277C00004003A7470D498FEDB79357E50093F73A
:10278C000730C98FC2070547C1836382E5048DC139
:10279C000947638DE5040D476380E5063717004054
:1027AC00231FF70883562709D58F2319F708828032
:1027BC00371700400356670993C6F7FFF18E231BAA
:1027CC00D7088326C70C558D2326A70CC1BF3717F6
:1027DC0000400356670993C6F7FFF18E231BD708F9
:1027EC008326870C558D2324A70C4DBF371700402B
:1027FC0083566709DD8EE1B73717004083566709AA
:10280C00DD8EE9BFB74700401147A381E7000947B8
:10281C002380E700130700062380E70003C7170097
:10282C0013670701A380E70003C717001377E70FAF
:10283C00A380E7008280894737470040631DF5007D
:10284C008347170093E70704A300F700B74700403E
:10285C00A381A70082808347170093F7F70BEDB78E
:10286C00B747004003C707001377F70E2380E70034
:10287C00131705012E9541834205239CE7004181E6
:10288C00239EA7002396B70025472383E70003C7A1
:10289C00170013671700A380E70003C76700058BB9
:1028AC006DDF03C717001377E70FA380E700828063
:1028BC00B717004003D58700420541819377050483
:1028CC0091EB9377F5013755E801130505803345F6
:1028DC00F50282809377050C130700046397E700D9
:1028EC009377F50137459C1CCDB72165130505D0B1
:1028FC008280B7F700E08847CC4782808147373722
:10290C000040A14663C4C700328582800345B740AE
:10291C00E38EA6FE3385F5000345050085072304E9
:10292C00A740CDB797070020938787AB9C43172709
:10293C0000201307273B3E95636EE50017570020D8
:10294C001307874B6368A70017070020232AA7A843
:10295C003E858280FD57EDBF411122C406C62A84F4
:10296C00813F2947B307E502B2408D83B3D7870275
:10297C0022449507B3D7E70237370040C207C1831B
:10298C002316F74041018280716541111305052022
:10299C0006C6D937B7370040130770F82381E740D4
:1029AC000D47A381E74013070004A380E7400547C8
:1029BC002387E740B240410182803737004083478C
:1029CC0027401A0593F7F703C98F93F7F70F2301E5
:1029DC00F7408280B737004003C7174019C9D98D1B
:1029EC00A380B74003C70740136787002380E740E5
:1029FC00828093C5F5FFF98DA380B7408280411189
:102A0C0093962500AA852D4506C697E0FF1FE78003
:102A1C0040E1B240014541018280411126C29394AC
:102A2C00250022C44AC02A843289A686AA8501467A
:102A3C00254506C697E0FF1FE780A0DEA6864A86DE
:102A4C00A285294597E0FF1FE780A0DDB240224414
:102A5C0092440249014541018280011122CC06CEEB
:102A6C003714004026CA4AC84EC652C48344740563
:102A7C00034AB405834984050349940559328347B5
:102A8C00A40593F4F40F137AFA0F93E71700230DB0
:102A9C00F40493F9F90F1379F90FB717004003C732
:102AAC00A705058B6DFF03D5C705A38D4705238CA3
:102ABC003705A38C2705A38B9704F2406244D244BC
:102ACC004249B249224A056182804111939705011E
:102ADC0022C406C6C1872E8463DD0700EF10B02C1C
:102AEC0019C1EF1030252165218DB24022444101DE
:102AFC00828093F7150013C51500E5FB939725010C
:102B0C0063D20708EF50D165B717004083C7E702BF
:102B1C0093F7C70F93E7170073270080218B9386D9
:102B2C00018509CB7327008023A8E18498425D9B23
:102B3C00731007800F100000371700401306700544
:102B4C002300C704130680FA2300C7040F100000EB
:102B5C002307F70223000704732700809C42A18BF4
:102B6C00D98F7390078023A801840F10000037F6CB
:102B7C000200130606E0896503C54185EF10706AF3
:102B8C0009659DB7939715010145E3D007F61765C5
:102B9C000200130565C6EF40B21913060064916577
:102BAC0003C54185EF10F06711653DBF1D714946A6
:102BBC0097650200938585C417750200130505A857
:102BCC0086CE97E0FF1FE780600501E917650200DC
:102BDC00130505C4EF40D21501A0B7F600E07957F4
:102BEC0098CAFD57DCCA0567B7E700E023A0E710D9
:102BFC001306F00290C223A0E7180F100000130672
:102C0C00C0038145480897E0FF1FE780A0FB9707AA
:102C1C0000209387674B3ECA896793870780231CE4
:102C2C00F100A167938707E03ECEB70701059387B4
:102C3C0007103ED0ED472312F10285472303F10222
:102C4C00970700009387E7DBBEC4970700009387C4
:102C5C0007DDBEC6B7F50700970700009387A7C925
:102C6C0035473EDA814697070000938747DF7000AF
:102C7C00E10519452304E102A305E1023EDE97E0DC
:102C8C00FF1FE78000BA58088147994670003E96AE
:102C9C000346060085070507A30CC700E398D7FE7B
:102CAC00D24791C70357810185676373F70001A071
:102CBC004808EF20601FAA8501C91765020013059B
:102CCC0065B6EF40A27201A0F640256182804111E9
:102CDC00170500001305A5DF06C622C4EF20401916
:102CEC00138441852300A4001928034504002244C1
:102CFC00B24013060032896541016F1090524111A8
:102D0C0006C6F3270080A18B9386018589CBF32718
:102D1C00008023A8F1849C42DD9B739007800F10E8
:102D2C000000B7170040130770052380E704130752
:102D3C0080FA2380E7040F10000003C7F702136723
:102D4C007700A387E70223800704732700809C4247
:102D5C00A18BD98F7390078023A801840F100000DA
:102D6C001305407E81470147814605468545EFF0B6
:102D7C00CFEBB240014541016F206047B305B04035
:102D8C0017650200130505AC6F404266011122CC99
:102D9C002316C10032846C0003C6918606CEEF6008
:102DAC00606DA285176502001305C5AAEF40026489
:102DBC00F24062448547A38EF18405618280011143
:102DCC0022CC36C606CE2E84EF10701CB246374687
:102DDC000F00130606243376C50291CAB285176517
:102DEC000200130565A832C6EF40426032462285C8
:102DFC006244F240814505616FA0616481E9B2854E
:102E0C0017650200130545A76F40425E8547639D19
:102E1C00F50017650200130565A709C617650200C2
:102E2C001305C5A76F40C27089476398F5001765F5
:102E3C0002001305A5A77DD682808D47E39EF5FE83
:102E4C0017650200130585A771DEB28517650200B0
:102E5C00130505A855BF03C781869307100363F0BC
:102E6C00E70682809315340089051946A6954A8594
:102E7C0097E0FF1FE78080DA05ED05041374F40F6B
:102E8C0083C78186E360F4FE8E0789073385F400DF
:102E9C001946CA8597E0FF1FE78040CF83C781861C
:102EAC0013973700BA948507A38034012384F186E5
:102EBC00F2406244D2444249B24905618280011118
:102ECC0022CC26CA4AC84EC606CEAE892A890144EF
:102EDC009384C1A575B78347250049476361F73CC7
:102EEC00176702001307878B8A07BA979C433971BF
:102EFC0026DA06DE22DC4AD84ED652D456D25AD026
:102F0C00BA97AA848287170900201309298C03CA4F
:102F1C008186CA878145CA8913F4F50F636D4417FE
:102F2C008144176B0200130BEBA613F4F40F6362CE
:102F3C00441F176502001305E5A8EF40625F0144CA
:102F4C009304E002176902001309C9AB176A020067
:102F5C00130A0AAA83C78186636BF41E17650200E5
:102F6C001305C59FEF40C25C014685450D45238482
:102F7C000186EF904138176502001305E596EF4086
:102F8C00225BDDA81306000281450A85EFF0EFBC39
:102F9C008C4883C6C4008147054663E4D7000144CE
:102FAC0099A03387F500034407000347170005CCAD
:102FBC0061171377F70F636BE60C1307F4FF1374A9
:102FCC00F70FFD461377F70F63F3E6007D4489078F
:102FDC00BE9522860A8597E0FF1FE78020BB1C1058
:102FEC00A297238007FE83C54400938A540056851C
:102FFC009D3503C98186630109087D191305E0021B
:10300C001379F90F3309A90217FAFF1F130A0A7C67
:10301C001946D685B30949014E8597E0FF1FE78015
:10302C00E0B683C744001305790022862383F90098
:10303C008A85529597E0FF1FE78040B5A3838902EC
:10304C0023940902239509022386090215C42286BA
:10305C00976502009385458A0A8597E0FF1FE780F4
:10306C00E0BB19C985472386F9028A8517650200DA
:10307C0013058589EF408237F2506254D25442597D
:10308C00B259225A925A025B2161828005043E9405
:10309C009377F40F19B783C6C7021387150093876C
:1030AC00E702B5C69307E002B385F5021765020087
:1030BC001305C5879D05CE95EF4042339305E0027D
:1030CC00B305B4021765020013054595238381806F
:1030DC000E049D05CE95EF4062319387C1A59306F2
:1030EC0024003E9403461400BE9681450145EF90A2
:1030FC00211D0566130606C89305002003C591869D
:10310C00EF10301217650200130545938DBDBA857B
:10311C0021B58347790285CB930A7900DA855685E8
:10312C00EF40C2410DC1D685176502001305C58657
:10313C00EF40C22B9307E002B384F4028547CE9490
:10314C002386F402A5BF85041309E902F9BB3306F3
:10315C009402B387C90083C7770299CB1D064E969C
:10316C00A2855285EF40822805041374F40FDDB359
:10317C00A2854A85EF408227C5BF9305002003C571
:10318C009186EF10502B83C51400ADE18947A383C2
:10319C00F18683D7A40005641306003217F7FF1FCE
:1031AC002312F72493050480854703C59186A38ECB
:1031BC00F184EF10100713060064A14503C5918636
:1031CC00EF103006130604C8C14503C59186EF10F5
:1031DC005005130604969305001003C59186EF1055
:1031EC005004176502001305258751BB17650200B3
:1031FC0013054588EF40821F175502001305C56E55
:10320C00EF40023323840186014685450D45EF903E
:10321C00810E9DB5A3830186F9579305001003C554
:10322C00918617F7FF1F231FF71A23830186239F0D
:10323C0001842390018623910186239201862384A5
:10324C000186A38E0184EF10101F83C564001765DF
:10325C0002001305E583EF406219175502001305B0
:10326C00A568EF40E22C4DB71765020013050584E5
:10327C0039B3176502001305658411B31765020095
:10328C001305C584EF40C22A83C54400138554003E
:10329C00D936DDB31765020013054584E5B7828086
:1032AC000111170500001305E51A06CE22CCEF100C
:1032BC00303C1384918685652300A4009385059684
:1032CC000945EF301017D1451D45EF309016930589
:1032DC0040062145EF30F015930540063545EF309B
:1032EC00501589472304F10070008547914513055B
:1032FC00F040A304F100A305F10002C62305010070
:10330C00EFA0813A3000854513058040EFA0C1390C
:10331C0013069100854513059040EFA0E138130684
:10332C00A10085451305A040EFA001381306B1009C
:10333C0085451305D040EFA02137EF70801D034564
:10334C000400EF607049034504008545EF10A0565A
:10335C00F2406244056182800111C16706CE22CC25
:10336C0026CA17F5FF1F0355E507F9176307F50084
:10337C0003C771868947630AF700175502001305C6
:10338C002577EF40E21A014571A083D7018691E7BA
:10339C001755020013058577EDB72312F10001478D
:1033AC00D14781465146C945231601002313F1002C
:1033BC00EF60201E2AC441C98147D14622473E975F
:1033CC0085072300F700E39BD7FE83554100175573
:1033DC000200130525760144EF4042019754020088
:1033EC009384047883576100636BF4022945EF40A2
:1033FC00E20303C691864C0017F5FF1F035585FEAB
:10340C00EF60A01105E9175502001305E575EF40B3
:10341C0022120545F2406244D24405618280A247E3
:10342C002685A29783C5070005041374F40FEF30AB
:10343C00F27B4DBF4800C945EF60C05C17550200D8
:10344C001305C5733DBF175502001305657415BFF1
:10345C0039719397050126DA06DE22DC4AD84ED65E
:10346C0052D456D25AD05ECE62CC66CA6AC8C187D4
:10347C00AE8463DA072C03C59186EF10C0122A8440
:10348C0015C5034705009307000B631EF70083C7A0
:10349C007186094783454500130B85006388E70255
:1034AC005A85EF6020562285EF10C0082165258DC6
:1034BC00F2506254D2544259B259225A925A025B77
:1034CC00F24B624CD24C424D216182800D4763819C
:1034DC00E50205476390E50203478500631AF7028E
:1034EC008345C500175502001305C56BEF301270EC
:1034FC00A38E0184034744009307F007631AF70077
:10350C0083558400175502001305456BEF30126E7E
:10351C00834744002D476382E70205476392E70225
:10352C0003478400A9466315D7028345C400175589
:10353C00020013056569EF30726BA38E018445A000
:10354C004D476399E706175502001305A57685A02C
:10355C00C9466315D70A0349C40017550200130561
:10356C00A567CA85EF309268954717550200130579
:10357C00A56D630EF90263EE27018D471755020006
:10358C00130545676305F902175502001305C5704D
:10359C0039A8A14717550200130545686309F900BE
:1035AC00BD47175502001305A56CE31FF9FCEF305E
:1035BC00327861B76D476393E70417550200130522
:1035CC002572EF30B2620149975902009389C97193
:1035DC008357A4006368F9002945EF3032658345B1
:1035EC0044007DBD5C444E85CA9783C50700050920
:1035FC004209EF30B25F13590901D9BF03C7618685
:10360C0079DF8546631CD7061D47639CE702835709
:10361C00840085CB5C44175502001305656D83C58A
:10362C00170003C6370003C7070083C72700A2058E
:10363C002206D98D5D8E2392B1862391C186EF30FF
:10364C00F25A834744001D476398E702034714006E
:10365C00E947E396E7F883D54186D1D1894783C6FC
:10366C00918603D6218617F5FF1F0355A5D7238313
:10367C00F186EF50905DA5B70547E1BF8946E31091
:10368C00D7F625476388E704834744002547639AA8
:10369C00E70A03471400E947E393E7F417550200E0
:1036AC001305C56CEF30D26883D50186175502001F
:1036BC001305C57199C9175502001305A569EF309B
:1036CC00F252175502001305E56CEF307266238336
:1036DC000186A5B583578400C5DB8329C400834BC1
:1036EC00A400AD6A014D175C0200130CEC62938AC6
:1036FC000AE1975C0200938CAC6583578400E375F8
:10370C00FDF803C9190083C7090003CA690022091F
:10371C003369F90083C75900220ACA85336AFA0053
:10372C0052866285EF30924C63185A01CA856685C1
:10373C0023902187EF30924B050DDE99137DFD0F01
:10374C006DBF054791BF93F7150085C317F6FF1F93
:10375C00130606B397F5FF1F938545B303C59186F2
:10376C00EF80F13013C51400A1B393F7052081CB82
:10377C0041657D15EFA0512613C5042015BB93F7A9
:10378C008500A1C7ED77938707E02312F100239FF3
:10379C00018423900186239101862392018685471B
:1037AC0017550200130505642383F186EF30525838
:1037BC0083C6918609464C0017F5FF1F035585C239
:1037CC00EF50707313C58400E5B193F7050185C301
:1037DC0013078025814613064006D14517F5FF1FB8
:1037EC00035545C0EFA0D11E13C50401D1B193F709
:1037FC0005028DC7014789460946814517F5FF1F0C
:10380C00035545BEEFA0911FAA851755020013055D
:10381C00A55EEF30B23D13C5040259B993F7050408
:10382C00C9C783C7D185BDE303C7C18583D70186CB
:10383C0017F5FF1F035505BB29CF2312F1000147D4
:10384C00854781460546C945231601002313F1001F
:10385C00EF5030542AC41DC905442300850003C60B
:10386C0091864C0017F5FF1F0355C5B7EF50F04A72
:10387C0011E9A38E818483C7C18593B71700238E6A
:10388C00F18429A0C9454800EF60C01713C5040492
:10389C0005B103C691864C002312F100EF50B047DE
:1038AC0075F58547A38EF184F9B793F70508B5CF65
:1038BC0083C7D185BDE39387E18583D70700014793
:1038CC0081462312F10009468947C94517F5FF1FA8
:1038DC00035545B12313F10023160100EF50704B33
:1038EC00835541002AC41755020013052552EF30A9
:1038FC00F22FA2479DC3054423808700A24703C62D
:10390C0091864C00A380070017F5FF1F035585AD6A
:10391C00EF50B04011E5A38E818413C5040849BE55
:10392C00C9454800EF60000ECDBF93F705109DC34D
:10393C0017F5FF1F035505ABEFA0510905661306DC
:10394C0006969305001003C59186EF10800D13C5E4
:10395C000410B9BE93F7054089C7FD3A13C504405E
:10396C0081BE939745010145E3D407B483C76180B9
:10397C001307F00F638DE7021307E0023387E702AA
:10398C0097F7FF1F938787E4856505469385858D9B
:10399C00175502001305C548BA9705671307878D9D
:1039AC002394E70205472395E702EF30322405659F
:1039BC0013050580A98C13950401A38E0184418104
:1039CC00C5BC41111305800406C622C497C0FF1F55
:1039DC00E780A06B371400408327840A8D451305BC
:1039EC00002093E707202324F40AEFE05FC4832729
:1039FC00840A85451305001093E707102324F40A65
:103A0C00EFE0FFC2EFE05FF817650200130505C396
:103A1C00EF301232EF00B010EFF04F99EFF02FAB08
:103A2C00EFA0017EEFF0DF87175502001305C541AB
:103A3C00EF301230EF00B027175502001305C541C7
:103A4C00EF30122F092E97D0FF1FE78020B43717C5
:103A5C0000405C5FCA07C9832310F5008357A70396
:103A6C00C207C1832311F50083578703C207C183A3
:103A7C002312F50082808357050083D60500035777
:103A8C00250003D62500958FB7662605938606C0BC
:103A9C00B387D702118F9306007D0355450033077A
:103AAC00D702BA9703D74500198D79473305E5023C
:103ABC001307803E3345E5023E95828083552500F1
:103ACC00411122C42A84175502001305A53906C6D4
:103ADC00EF30D211835544002244B24017550200F6
:103AEC001305853941016F307210B717004083A759
:103AFC00470C9386018990424111918B06C65D8ECD
:103B0C0015E213854188A1378547056623A8F188FE
:103B1C00130606969305000203C5D180B2404101FD
:103B2C006F00307090423687854603C5D180631E86
:103B3C00D606A5CF93050002EF10E00F1385C187C1
:103B4C003937938541881385C187353723A8A186DA
:103B5C00AA871307100303C5D18093050004635F84
:103B6C00F7021307B0126349F700894723A8F188BD
:103B7C001306003CC1455DB71307B05D8545635F17
:103B8C00F70093050002EF10000B9305002003C50E
:103B9C00D180EF005052914503C5D180EF00B05158
:103BAC00B24023A8018841018280104389466319E1
:103BBC00D6029DE7C145EF10000813854187413DB2
:103BCC009385C187138541877D351307702583C77E
:103BDC00D18089456354A700930500403E857DBF85
:103BEC00A38601861C431C4381454DBF83C7B1800E
:103BFC00411113B7170022C406C6A385E18017F440
:103C0C00FF1F1304E4818D4513050020A1E7EFE0AD
:103C1C007FAC371700408327870C0C403705000119
:103C2C0093E707207D152324F70CEF00807F930585
:103C3C000020175502001305E524EF30227B2244A7
:103C4C00B24083C5B180175502001305A527410169
:103C5C006F30C279EFE01FA8371700408327C70CDD
:103C6C000C40416593E70720130505F02326F70C5C
:103C7C00EF00207B930500201755020013058522C9
:103C8C006DBF41118D451305000406C622C426C222
:103C9C0037140040EFE01FA48327840C8D45056585
:103CAC0093E707042324F40CEFE0DFA20327840C32
:103CBC0085648D45458F2324E40C0565EFE03F9723
:103CCC008327840A8D450945C58F2324F40AEFE028
:103CDC007FA08327840C8D451305000293E72700F2
:103CEC002324F40CEFE01F9F8327C40C8D4505455E
:103CFC0093E707022326F40CEFE0DF9D8327840C67
:103D0C008D451305002093E717002324F40CEFE0F6
:103D1C007F9C8327C40C93050020175502001305C4
:103D2C00E51B93E707202326F40CEF30226C854526
:103D3C0013050020EFE01F9A553D8325440C2244C7
:103D4C00B2409244898185891755020013050516E6
:103D5C0041016F30A2694111170500001305C51808
:103D6C0006C6EF10E010AA85A386A18017550200A5
:103D7C001305851AEF308267B70508001755020046
:103D8C001305451BEF308266854537050800EFE0CB
:103D9C007F94B7050400175502001305251DEF305D
:103DAC00E264854537050400EFE0DF929145175535
:103DBC0002001305651FEF30626385451145EFE086
:103DCC007F919145175502001305C521EF30026212
:103DDC0089451145EFE07F9A89472386F1803707A3
:103DEC000400B7E700E023A0E710B24023A8018845
:103DFC00410141BD83C7C186411113B7170022C4CD
:103E0C0006C62386E18637140040A5EF8327840C71
:103E1C001305800C93E707042324F40C8327C40CAC
:103E2C0093E717002326F40C8327C40C93E70702AF
:103E3C002326F40C97C0FF1FE78060718327840C46
:103E4C003705FF0093E707022324F40C97E7FF1FC5
:103E5C009387075D8C43F1238327C40C175502000D
:103E6C001305C51C93E707042326F40CEF30426CB2
:103E7C002244B24013052003410117C3FF1F670002
:103E8C00036D8327840C1305800C93E7070423240C
:103E9C00F40C8327C40C93E717002326F40C832718
:103EAC00C40C93E707022326F40C97C0FF1FE7808E
:103EBC00006A8327840C1305F00F93E71700232463
:103ECC00F40C97E7FF1F9387E7558C43992B8327B7
:103EDC00C40C175502001305E51593E707042326B8
:103EEC00F40C69B7411122C406C626C24AC093F726
:103EFC0015002E8485C31755020013052514EF30C9
:103F0C002263CD3D13451400B24022449244024931
:103F1C004101828093F72500ADCB175502001305A4
:103F2C00E512B7140040EF30A26083A7C40C130550
:103F3C00400693E7170023A6F40C97C0FF1FE780F9
:103F4C00006183A7C40C4165130505F093E70702D4
:103F5C0023A6F40C97E7FF1F9387874C03A9070050
:103F6C00CA85C1211305200397C0FF1FE780205E7F
:103F7C0083A7840C3705FF00CA8593E7070223A4A7
:103F8C00F40C45211345240041B793F745009DCF10
:103F9C00175502001305850CEF308259B7170040F6
:103FAC0003A7C70C01451367070223A6E70C03A759
:103FBC00C70C1367170023A6E70C97E7FF1F93871F
:103FCC0027468C43B929134544003DBF93F705019F
:103FDC00B1C7B71700401387018983A7470C10435B
:103FEC0089466315D602918B99CB854503C5D18043
:103FFC00EF00700C23A801881345040131B7175545
:10400C0002001305A506EF30A252EDB70C4317556D
:10401C00020013052509EF30623DF9BF93F7050245
:10402C00A9CFB71700401387018983A7470C10430A
:10403C008546631CD602918B95E3914503C5D180CF
:10404C00EF00700789451145EFE02FF38947238670
:10405C00F18023A80188134504027DB51755020091
:10406C0013058507EF30C24CEDB70C431755020012
:10407C001305050AEF308237F9BF93F78500A1CB02
:10408C0037170040035587030356A7034C5F9387EC
:10409C00018911679443930717007D17F98DB33786
:1040AC00F50093C717000606C2053E96C181175549
:1040BC0002001305E508EF30623313060064A145D6
:1040CC0003C5D180EF00F0151345840035BD93F77F
:1040DC00050491CB1755020013054508EF304245F6
:1040EC001345040415B593F7051091CB1755020031
:1040FC0013054508EF30C2431345041031B593F74F
:10410C0005209DCB1755020013058508EF30424260
:10411C0013854188EFF09F9A1385C187EFF01F9AA2
:10412C00938701878C43175502001305250FEF3039
:10413C00E22B13450420C9BB93F705400145E385E9
:10414C0007DC175502001305A50EEF30623E134530
:10415C0004405DBB411106C683C7A18017E7FF1F52
:10416C001307072CB716004095CB83A7860C0C437E
:10417C003705000193E7070423A4F60C7D1555249D
:10418C0083C5A180B24093B515002385B180175526
:10419C0002001305650E41016F30422583A7C60C42
:1041AC0041650C4393E7070423A6F60C130505F0B1
:1041BC00F9B783C7918013B717004111A384E1802D
:1041CC0006C617E7FF1F1307A725B716004095E78C
:1041DC0083A7860C05660C43D18F3705000123A4F9
:1041EC00F60C7D153D2CB24083C59180175502000D
:1041FC001305850941016F30621F83A7C60C056644
:10420C004165D18F23A6F60C0C43130505F0D9BFDD
:10421C0083C7818013B7170041112384E18006C640
:10422C0017E7FF1F1307C71FB716004095E783A7B3
:10423C00860A05660C43D18F3705000123A4F60AC4
:10424C007D15C522B24083C5818017550200130528
:10425C00A50441016F30821983A7C60A0566416522
:10426C00D18F23A6F60A0C43130505F0D9BF83C7DB
:10427C00718013B717004111A383E18006C617E7BD
:10428C00FF1F1307E719B716004095E783A7860CA5
:10429C000C433705000193E7270023A4F60C7D158A
:1042AC004922B24083C571801755020013050500E1
:1042BC0041016F30A21383A7C60C41650C4393E7F1
:1042CC00270023A6F60C130505F0D9BFB71700403D
:1042DC0003D7E709118B31C303D7E709411122C674
:1042EC0013674700239FE70883C7C1800944639F76
:1042FC0087008D451145EFE04FC88D472386F1802F
:10430C00EFF0AFFE32444101730020308945114576
:10431C00EFE0AFC623868180E5B7730020304111F2
:10432C0017550200130545FA06C6EF306220954575
:10433C000545EFE02FEA175502001305E5F9EF30BC
:10434C00221F37370040834727402D4593E717003E
:10435C002301F740EFE06FE6175502001305C5F88F
:10436C00EF30021DB240B7E700E03707000823A08A
:10437C00E71041018280411126C2B2843146338656
:10438C00C40222C42E84814506C6EFD01FFD2A8E9E
:10439C00930534008148B14E13030008254F9397C1
:1043AC000801C18363FA9706B386D8031386D5FF39
:1043BC00F296B9A0834F06001308F5FF335803415A
:1043CC003378F80103870700631F0802136707F8A7
:1043DC002380E70003480600B35FA3400387070070
:1043EC003378F80163140802136787002380E70011
:1043FC0009058507E310E5FD05069106630BB6007C
:10440C00B687054545BF136707FED9B71367E700A5
:10441C00F1BF85088D0561B7B24022449244410139
:10442C008280011126CA970400209384244B614694
:10443C004AC84EC62E89AA898145268506CE22CC2D
:10444C00EFD0BFF113D589001375F50FEF20F25A99
:10445C00CA85EF20322CEF20F2541384C18923003B
:10446C00A40013D509011375F50FEF201259CA8555
:10447C00EF20522AEF201253A300A40013F5F90FDA
:10448C00EF20B257CA85EF20F228EF20B25123015A
:10449C00A400A28526850546F93D6244F2404249B6
:1044AC00B2492685D244B14505616FE06FBB41111D
:1044BC008D45116506C6EFE08F9717550200130561
:1044CC00E5F6EF30E2068D452165EFE04F963717A4
:1044DC0000408327C70AA166D58F2326F70AEFE091
:1044EC006FB24D45EFE02FB5970700209387073F3C
:1044FC003E8561468145EFD05FE6E145EFE04FB682
:10450C0097E7FF1F938747F2B2408C434165130531
:10451C0005F0410139B723AC05FE1C4191E70100C0
:10452C0001000CC18280BA8703A787FF6DFF23AC03
:10453C00B7FE82801DC18346E5FF1307F00F91473C
:10454C00639EE600411106C697D0FF1FE780A0537B
:10455C00B24081473E854101828095473E858280ED
:10456C0001E9014582800145B2402244410182802B
:10457C0095654111938505D022C4C98D2A842105E6
:10458C00C2054205C181418106C697D0FF1FE78055
:10459C00204371D9FD5723200500231285002303E6
:1045AC00F5002105D1B71387018A1C43411122C4A0
:1045BC0026C24AC006C601440149BA8489E7A165EE
:1045CC009D2D0DC401A803C7E7FF6318A7021DC8E2
:1045DC00A165D5249840832784FF6317E40223A0A8
:1045EC00F18AFD57232C04FE230FF4FE2285B240E2
:1045FC002244924402494101828011E03E8983A702
:10460C0087FF6DBF3E84E5BF232CF9FED9BFA1CD3A
:10461C00411122C406C62A849707002083C797310C
:10462C002E856375F400894763E8870021370D45B3
:10463C00B24022444101828083A785FF99E703C7DA
:10464C00E5FF9307F00F6305F700ED351545CDB782
:10465C00238F85FE1385018A7D3D22852244B2403D
:10466C00A165410189AC1545828023A0018A828015
:10467C009387818B9C4399E33E85828003D72700E7
:10468C006316B70003C70700E308A7FEDC47E5B7CE
:10469C00BDCD797122D406D626D24AD04ECE014455
:1046AC004147B3D78540858BB1CF12053147229551
:1046BC003305E5029387818A03A907008544B394E7
:1046CC008400C204C180BE892A990327090011C73E
:1046DC00032549002EC60297B24531473304E40244
:1046EC0083A709003E941C4489E723200900232258
:1046FC000900B2502254A58D02599254F2492E85CC
:10470C00456182800504E31EE4F88144DDB72E8503
:10471C00828041111397050122C406C626C24AC0E5
:10472C0041872E84635E0700BD3D11C12135A16711
:10473C003D8C2285B2402244924402494101828040
:10474C00EDD9AA8701474146B356E440858A9DCAF4
:10475C009207BA97B146B387D7029386818A03A989
:10476C0006008544B394E400C204C1803E998327BB
:10477C000900032549008297232009002322090000
:10478C00258C45BF0507E311C7FC8144D5BF9707AE
:10479C000020938767169C53411122C406C61384CC
:1047AC00018199C782971C403E9523A8A18029A01E
:1047BC009387018B9C43FDF70840B7470300938711
:1047CC00D73F3305F502B7A72600938737ECB240E5
:1047DC0022443E9523A8A1804101828079C9938708
:1047EC00018B9C43797122D426D24AD04ECE52CC26
:1047FC0056CA5AC806D65EC63A8AB689328BAE8A73
:10480C002A8982979387818A9843BE840144B14652
:10481C00C147B30BD40233067701104251E6C16590
:10482C00938505F0414597D0FF1FE78060191DE582
:10483C00970700209387470C9C5B2D4589C7114532
:10484C00814582972D45B250225492540259F24917
:10485C00624AD24A424BB24B456182809387818B2C
:10486C0098431DEF23ACA18A230005009C4005470B
:10487C003317870023260500232465012311E50047
:10488C0023224501DE9723A0270123A2570123A44D
:10489C0047010145E38909FA238089006DB73E87FA
:1048AC005C47F5FF48C7C9B70504E314F4F6214586
:1048BC0059BF094582809707002083C7B707637FDC
:1048CC00F5001387418A9317150008433E958357CB
:1048DC000500DD8D2310B500014582800D458280D9
:1048EC009707002083C717056371F5021387418A68
:1048FC0093171500084393C5F5FF3E9583570500A4
:10490C00FD8D2310B500014582800D458280130773
:10491C0005FF1377F70FFD4763E5E70AB146B306CA
:10492C00D5029387818A984389473697184359CB88
:10493C00011122CC4EC60544935945003D893315CF
:10494C00A40013140501418026CA4E85AE84A285AD
:10495C004AC806CE313B2A89814721CDA2854E8596
:10496C0041379387018B9C4382979707002083D70D
:10497C002701338797022A84814613060064B3B754
:10498C00970213050732B335E500BE95EF20021FE1
:10499C00B307850097060020938606FE3E87D44217
:1049AC0063E4A70063E4D7003387D7402324E900EE
:1049BC008147F2406244D2444249B2493E85056186
:1049CC00828089473E858280011126CA06CE22CC80
:1049DC004AC84EC6BD47894463EDA7023147330729
:1049EC00E5029387818A9C438944BA979C4395C37B
:1049FC0005443314A400420441802E890145A2854C
:104A0C008539AA89814411C5A2850145D13D23A4CC
:104A1C002901F240624426854249D244B2490561DB
:104A2C0082809707002083C7F7F06364F500014587
:104A3C00828001119387018B56C283AA070006CE90
:104A4C0022CC26CA4AC84EC652C4638E0A0A170A1A
:104A5C000020130A6AF283244A00B74736FE938774
:104A6C0007C8AE899705002083D585F1BE94B3871E
:104A7C00C5022A8432898146B3B5C5021385073233
:104A8C00B337F50013060064BE95EF20220F63ECDC
:104A9C00A406829A9705002083D585EEB38725035B
:104AAC00AA84130600648146B3B525031385073227
:104ABC00B337F500BE95EF20620CB3079500BE84AA
:104ACC0003274A0063E4A70063E4E700B384E740EC
:104ADC00CE852285EFF0DFB901C504C505452DA0B3
:104AEC00936504F0C205C181414597D0FF1FE78053
:104AFC0020ED05E597070020938707E09C5B81C7B5
:104B0C00A285114582970145F2406244D244424944
:104B1C00B249224A924A056182809387818B9C43D9
:104B2C008DE323ACA18A85472326050004C52311F8
:104B3C00350123008500A300F5002322050079BF71
:104B4C00BA87D84775FFC8C7F9BF49C9797122D44C
:104B5C0026D24AD04ECE52CC56CA5EC662C466C26B
:104B6C0006D65AC83689328AAE89AA844144314C59
:104B7C00938A818A854C930B0003330B840303A720
:104B8C000A005A971C43B1E79375F400B395BC0027
:104B9C0013554440C2055286C1811375F50F51352A
:104BAC000DC983A70A000145DA9784C323A23701F4
:104BBC006304090023008900B25022549254025914
:104BCC00F249624AD24A424BB24B224C924C45615A
:104BDC0082800504E31374FB2145F9BF09458280EB
:104BEC00411122C426C24AC006C62A842E89B28428
:104BFC000D3DCA852285EFF0BFA705CD9705002096
:104C0C0083D505D8B38795022A84130600648146A0
:104C1C00B3B5950213850732B337F500BE95EF1087
:104C2C00F27548C00145B240224492440249410108
:104C3C0082802145CDBF411122C426C24AC006C67E
:104C4C002A892E84EFF0DFA2AA8419C12311050052
:104C5C00A2854A8571319707002083C7A7CD63973A
:104C6C00270183D7C18A5D8C2396818A014591E007
:104C7C001945B24022449244024941018280930773
:104C8C00F00263E6A7044111B14722C43304F502D4
:104C9C0026C29384818A9C4006C6A2979843894772
:104CAC000DC39377F5008545B395F500C205C18119
:104CBC00118151379C40A29723A0070023A2070023
:104CCC008147B240224492443E854101828089470B
:104CDC003E858280411106C622C4EFF07F9911E512
:104CEC000145B2402244410182809387018B9C4351
:104CFC000045829797070020938707C86368A40232
:104D0C00D843B74636FE938606C83305A44036977B
:104D1C00E378E5FC13070064B335E50203D687009E
:104D2C0081463305E502EF10726565BFD8433A94AE
:104D3C00C1BF411106C623AAA18A0295B2409707AA
:104D4C00002023A5A7C0014541018280994763E952
:104D5C00B7008A0597070020938747C0BE9588C186
:104D6C00828041117146814517050020130505BF4E
:104D7C0006C623AC018A23AA018A23A8018A97C0FC
:104D8C00FF1FE78020E413068002814517050020F1
:104D9C00130545BA97C0FF1FE780C0E2EF90A15002
:104DAC009707002083C7B7B613D527008D8B3E9588
:104DBC008D473305F502854539051375F50F9707B2
:104DCC000020238AA7B699473305F502130505245D
:104DDC0097D0FF1FE780C0BE23A4A18A59C599476D
:104DEC0017060020034626B53306F6028145130646
:104DFC00062497C0FF1FE780E0DC9387818A9C43E1
:104E0C009387072423AEF18A170700200347A7B224
:104E1C000A07BA9723A2F18AEFF03F8505239387FF
:104E2C00C18B94439707002083C7D7B013972700F3
:104E3C003697170600001306E68510C31387170074
:104E4C001377F70F0A073697170600001306A68C80
:104E5C0010C313873700890793F7F70F8A07970555
:104E6C000020A389E5ACB69790C3B2404101828083
:104E7C009707002083C717AC170700200347A7AB81
:104E8C0063F1E7021387C18B18439386170017064B
:104E9C000020A301D6AA93962700369708C33E8517
:104EAC0082809307F00FE5BF1C416388071641779A
:104EBC007D8FB706002089476312D716035745002C
:104ECC00630E0714411122C419462A849305F00F6E
:104EDC00690506C697C0FF1FE780E0D805478D47D8
:104EEC006308E5121C4481CB58589947630207129A
:104EFC00185C630F07101306C003814517050020CB
:104F0C001305859F97C0FF1FE780C0CB1306C00316
:104F1C00A285170500201305259E97C0FF1FE7806B
:104F2C00E0C6170700200357E79D970700209387DB
:104F3C00A79C19E713070010970600202394E69C02
:104F4C00170700200347279C11E705479706002009
:104F5C00238BE69A170700200357079B11E76D4731
:104F6C00970600202392E69A170700200347B7996B
:104F7C0011E7154797060020A387E698170700202E
:104F8C000347A79811E7054797060020238FE6965D
:104F9C00170700200347779719E703C7F700970611
:104FAC000020A384E696170700200347279611E7F5
:104FBC00354797060020238BE694170700200347FC
:104FCC00379519E71307800297060020A382E69411
:104FDC00170700200347979319E71307D00297068A
:104FEC000020A385E6920347840119E71307C00349
:104FFC0097060020238EE6909C5791C782979707BF
:10500C000020239DA792FD57A385F1A0993B8147D2
:10501C00B24022443E854101828089473E85828090
:10502C0001114EC6970900209389099583A70900A1
:10503C0006CE22CC26CA4AC852C4829713090064F1
:10504C00B335250303DA89008146528633052503DF
:10505C00EF10D232970700209387C78D804FAA8418
:10506C0001456306940233858440636E940003A566
:10507C00490052868146B335A9023305A902EF10C7
:10508C00F22F018D26959707002023A1978CF240D3
:10509C006244D2444249B249224A056182800111DC
:1050AC0022CC0A852E844146973502009385C57320
:1050BC0006CEEF204228180806043A94035504FF44
:1050CC009707002083D7E78BF2406244AA973745B5
:1050DC000F00130505243355F502056182809707EF
:1050EC00002083D7078A51471D45637CF702794717
:1050FC0019456378F7021307200315456373F7020C
:10510C001307B0041145637EF700130740060D45E5
:10511C006379F7001307600909456374F70013B549
:10512C00B70F8280011122CC06CE2A842EC6EFF056
:10513C000FE6B245F240818D33A5A502229562445B
:10514C001375F50F05618280011122CC06CE2A84DD
:10515C002EC6EFF0CFE3B245F240818D33A5A50208
:10516C00229562444205418105618280011122CC65
:10517C0006CE2A842EC6EFF08FE1B245F240818D27
:10518C0033B5A502229562440561828097F7FF1F13
:10519C0093878776985739CB411122C426C206C60D
:1051AC00BE84029717F7FF1F035747792A8415CB44
:1051BC00BA876373A700AA87C207C183BA866373D1
:1051CC00E400A286C206C182958F5147635BF7004B
:1051DC00DC5491C38297EF30A17897F7FF1F239F80
:1051EC008774B2402244924441018280828097F7B6
:1051FC00FF1F93876770DC57011106CEAA8581C704
:10520C002AC68297B245D1C19C410545A5CFDC4148
:10521C00B5CB83D78500BDC783D7A500A5C783C7EA
:10522C00C500ADE3414617F5FF1F1305E57497C0A4
:10523C00FF1FE780A09597F7FF1F9387E7739C43A9
:10524C0023A8F18A97F7FF1F83C7976C8DE7930705
:10525C00800217F5FF1F0355A5723305F50237467B
:10526C000F001306062481468145EF10321197F783
:10527C00FF1FA38FA768170500001305A5DAEFF031
:10528C005FAB0145F2400561828097F7FF1F83C732
:10529C0007681397870161876354070497F7FF1F0B
:1052AC0023A8076A97C7FF1F938707CF17F7FF1F1E
:1052BC002324F76C7D5797F7FF1F23A1E76CB78763
:1052CC003200938727A197F6FF1F23ABF66A97F757
:1052DC00FF1F2389076AB7C7004023A4E726A1BF95
:1052EC0013F7170005CFB7872003938707D017F75D
:1052FC00FF1F2327F768B707C0A817F7FF1F232F37
:10530C00F76697C7FF1F938747CC17F7FF1F232517
:10531C00F76697F7FF1F2387076631BF617797F60C
:10532C00FF1F239FE66481CB9307003217F7FF1F03
:10533C002319F764C9B793072003CDBF011122CC01
:10534C0017F4FF1F1304445B084406CE26CA4AC850
:10535C0001E90545F2406244D2444249056182802C
:10536C005C58E5DB185C75D770008545829718444E
:10537C00B247E300F7FE9305E00417F5FF1F035552
:10538C00655897C0FF1FE780A06317F7FF1F232303
:10539C00A75C61D117F6FF1F0356C6569305F00F95
:1053AC0097C0FF1FE7800082814417F9FF1F130984
:1053BC00695897F7FF1F83C707550326090263C176
:1053CC00F402328597C0FF1FE780E06B014597F729
:1053DC00FF1F23A1075897F7FF1F23AF07569DBF49
:1053EC0097F5FF1F83D50552B38795020844185CC7
:1053FC00898185043E9508C2029765BF011156C28A
:10540C0097FAFF1F938A4A4F83A78A0022CC4AC877
:10541C004EC606CE26CA52C45AC0AA892E843289D8
:10542C006385072203A74A03630707147D47636656
:10543C00A71497F4FF1F9384E44F03AA0402631785
:10544C000A0A9565938515E017F5FF1F0355854BE3
:10545C0097C0FF1FE780C05697F7FF1F23ACA74EDE
:10546C002A86630A051083A74A0303A58A0097F5C9
:10547C00FF1F83D525498981829783A78A0003AAB8
:10548C00040217F7FF1F2329F74C8947639CF9087F
:10549C00C1476312F40E97F5FF1F83D5A54693857C
:1054AC0005FC9147B3C5F5028A05D29503C70500E3
:1054BC009307A005631DF70A83C715006399370B83
:1054CC004A852286910597B0FF1FE780206C9C507F
:1054DC005285639347150145F2406244D2444249D8
:1054EC00B249224A924A024B05618280D850E38E1F
:1054FC00E7F89565938525E017F5FF1F0355854063
:10550C0097C0FF1FE780C04B2A8A35C52A8683A720
:10551C004A0303A58A0097F5FF1F83D5A53E898111
:10552C008297A5B78D47639DF900C1476315F404B5
:10553C0097F5FF1F83D5053D938545FDF199B5B7CB
:10554C009147639AF9006318340397F5FF1F83D5CD
:10555C00653BA115E5B7C147639FF900A14763EC13
:10556C00870097F5FF1F83D5E539C115C1BF9C5046
:10557C0052856397470D294585B71307F006568B5F
:10558C006361A70A130A05FE1947334AEA0217F7A3
:10559C00FF1F0357273797FAFF1F938AAA39330A3D
:1055AC00EA023E9A83A74A026395470183A40A0242
:1055BC009DE49305E00417F5FF1F0355A53497C030
:1055CC00FF1FE780E03FAA845DD583274B0397F547
:1055DC00FF1F83D525332A86898152858297914571
:1055EC001307A005898193972500A69783C607000A
:1055FC006393E60483C61700639C360385058A050E
:10560C002286A6954A8597B0FF1FE780205883A76E
:10561C000A02E38297EC268597C0FF1FE780A0461D
:10562C005DBD1307E007E368A7F4130A05F985B716
:10563C0083D5270045BF83A70A02E38E97F2268500
:10564C0097C0FF1FE78020443DB797F7FF1F938754
:10565C00672E8C538DD191479306A00589831397A0
:10566C0027002E9703460700E317D6F003461700D2
:10567C00631C360185078A072286BE954A8597B03A
:10568C00FF1FE780A05081BD83572700C1BF97F74C
:10569C00FF1F93876726984739C79C5FA9C70547A3
:1056AC006313E504411122C417F4FF1F130484286B
:1056BC00105006C60DC6485097F5FF1F83D585249C
:1056CC0089818297085097C0FF1FE780C03B97F7EE
:1056DC00FF1F23A1072897F7FF1F23AF0726B24010
:1056EC002244410182808280011117F7FF1F1307AA
:1056FC00A7204EC68329870022CC26CA4AC806CECC
:10570C0052C456C2AA842E843289638A09201C5F33
:10571C00BA8A99EB2945F2406244D2444249B249D3
:10572C00224A924A056182805C5BEDD7FD4763E9B2
:10573C00A70E97F9FF1F9389E91F83A70902B1CB25
:10574C0003A58A0083A749026395A706894763933B
:10575C00F408C147E310F4FC17F5FF1F0355851A35
:10576C009147130505FC3345F5029317250003A556
:10577C0009022286CA853E959307A0052300F500F1
:10578C00A3009500110597B0FF1FE780204001454D
:10579C0059B79305E00417F5FF1F0355A51697C0DD
:1057AC00FF1FE780E02197F7FF1F23A5A71A49F9F0
:1057BC0095B783A74A0303A6090297F5FF1F83D564
:1057CC0065148981829783A78A0017F7FF1F232509
:1057DC00F718ADBF8D47639EF400C147E31CF4F28C
:1057EC0017F5FF1F03550512130545FD9377C5FFEC
:1057FC00BDBF9147639AF400E31E94F017F5FF1FA9
:10580C00035545102115DDB7C147E395F4F0A147C9
:10581C00E3E287F017F5FF1F0355C50E4115F9B7E5
:10582C009307F00663EAA706930705FE1947B3C76B
:10583C00E70217F7FF1F0357E70C17FAFF1F130AAE
:10584C006A0FB387E702BE9983270A02A9CF832781
:10585C004A02639A370703250A0291461308A005EA
:10586C00FD5593D72600C207C183139727002A97AB
:10587C0003460700631D06078348170003562700DD
:10588C0063959806B306D64063CF860485078A07CE
:10589C002286CA853E95C5BD9307E007E3ECA7E6D3
:1058AC00930705F979B79305E00417F5FF1F035526
:1058BC00650597C0FF1FE780A01097F7FF1F23AB6C
:1058CC00A70851F581BD83A74A0303260A0297F561
:1058DC00FF1F83D5250389814E85829797F7FF1F7C
:1058EC0023AC37078DBFA300B700B2869DBFB3852D
:1058FC00860017F6FF1F0356E6009105130606FCFB
:10590C00E3FAC5E0130634001376C60F1106B296FF
:10591C0023000701A30097002311D70085BF97F739
:10592C00FF1F938727019453BE89A1C203A50902C7
:10593C0091461308A005FD5593D72600C207C183D5
:10594C00139727002A97034607006316060583481A
:10595C0017000356270063989800B306D640E3D788
:10596C0086F2A300B700B286C1BF8357C70017F5F4
:10597C00FF1F034545F99305E0043305F502420585
:10598C00418197C0FF1FE780A00397F7FF1F23A358
:10599C00A7FC49FD41B317F6FF1F0356A6F697F572
:1059AC00FF1F83C545F6B385C502338686001106F5
:1059BC00E3E2C5D681BF01458280011106CE2EC619
:1059CC00EF80702701C9B245F240035525000561EF
:1059DC006FC0D05AF240494505618280A384018E84
:1059EC002384018E23A8018C23AA018C23AC018C67
:1059FC0023AE018C23A6018C23A4018C97F7FF1FE7
:105A0C00938787F8370684033707B40090D337C6DB
:105A1C00070098C3130606B83747A000D8C3D0D3E5
:105A2C003707100041669306070AB7055000930824
:105A3C00060194C723A4170393860501930816F84F
:105A4C00D4C723A61703B706D007B7087F001308DF
:105A5C00070513850601410723A81703B0C3930854
:105A6C0016009386060513861500D8CBF8C323A819
:105A7C00070188CF23AE070023AA170323AC070224
:105A8C0023AE070223A40704F0C7B4CB23AA070450
:105A9C00ACCF23AE0705B8D33707A000F8D7130750
:105AAC00000AB8DB1307C01CF8DB37071400B8DF9B
:105ABC000547F8DF130710F8E8D323A4070623A043
:105ACC00070823A2E7088280011126CAAA8421456F
