:040000006F20002944
:100004000000000000000000900000208A0400208E
:10001400A9BDF9F3900000200000000000000000DA
:10002400900000209000002000000000000000006C
:10003400900000200000000090000020000000005C
:100044009000002090000020BA480000900000209A
:1000540090000020900000209000002090000020DC
:100064009000002090000020900000209E050020B9
:100074007E050020900000209000002090000020C9
:1000840090000020900000209000002090000020AC
:1000940001A073270080218B9387018509CB7327E7
:1000A400008023A8E18498435D9B731007800F10A0
:1000B400000037170040930670052300D704930609
:1000C40080FA2300D7040F1000008346B70493F688
:1000D400F60DA305D7042300070473260080944378
:1000E400A18AD18E7390068023A801840F1000008A
:1000F40093760502638406180347A700118B25E74E
:1001040073270080218B09CB7327008023A8E18407
:1001140098435D9B731007800F1000003717004051
:10012400930670052300D704930680FA2300D704AE
:100134000F1000008346A70093E646002305D7006E
:1001440023000704F32600809843218B558F7310F6
:10015400078023A801840F1000001307004B01003F
:1001640001007D176DFF73270080218B09CB732756
:10017400008023A8E18498435D9B731007800F10CF
:10018400000037170040930670052300D704930638
:1001940080FA2300D7040F1000007D892314A700E0
:1001A400010001000100010023000704F326008080
:1001B4009843218B558F7310078023A801840F1057
:1001C400000073270080218B09CB7327008023A8AC
:1001D400E18498435D9B731007800F10000037176C
:1001E4000040930670052300D704930680FA230089
:1001F400D7040F1000000F100000B72600401306AC
:100204001005A383C68023000704F32600809843C7
:10021400218B558F7310078023A801840F100000D1
:1002240073270080218B09CB7327008023A8E184E6
:1002340098435D9B731007800F1000003717004030
:10024400930670052300D704930680FA2300D7048D
:100254000F1000008346B70493E60608A305D704ED
:1002640023000704732700809C43A18BD98F7390CC
:10027400078023A801840F10000082809376050470
:10028400638B06140347A700418B25E7732700807F
:10029400218B09CB7327008023A8E18498435D9BBD
:1002A400731007800F100000371700409306700585
:1002B4002300D704930680FA2300D7040F1000000C
:1002C4008346A70093E606012305D700230007040D
:1002D400F32600809843218B558F7310078023A841
:1002E40001840F1000001307007D010001007D1739
:1002F4006DFF73270080218B09CB7327008023A80F
:10030400E18498435D9B731007800F10000037173A
:100314000040930670052300D704930680FA230057
:10032400D7040F1000009376F50193E60604231416
:10033400D700010001000100010023000704F32697
:1003440000809843218B558F7310078023A8018464
:100354000F100000130760046310E5047327008086
:10036400218B09CB7327008023A8E18498435D9BEC
:10037400731007800F1000003717004093067005B4
:100384002300D704930680FA2300D7040F1000003B
:10039400B72600400946B5B573270080218B09CBE9
:1003A4007327008023A8E18498435D9B7310078022
:1003B4000F10000037170040930670052300D70480
:1003C400930680FA2300D7040F100000B7260040DC
:1003D400130620053DB573270080218B09CB7327B5
:1003E400008023A8E18498435D9B731007800F105D
:1003F400000037170040930670052300D7049306C6
:1004040080FA2300D7040F1000008356870093E678
:10041400060C2314D700C5BB411181460146814512
:10042400114506C62121F3270080A18B93860185FF
:1004340089CBF327008023A8F1849C42DD9B739031
:1004440007800F100000B7170040130770052380C2
:10045400E704130780FA2380E7040F10000003C7A2
:100464006704136717002383E704238007047327B3
:1004740000809C42A18BD98F7390078023A80184AC
:100484000F100000B240410182808146014681453F
:100494001145692EF3270080A18B1387018589CB31
:1004A400F327008023A8F1841C43DD9B739007800D
:1004B4000F100000B7170040930670052380D7047F
:1004C400930680FA2380D7040F100000FD5623966C
:1004D400D70223800704F32600801C43A18BD58F09
:1004E4007390078023A801840F100000F327008075
:1004F400A18B89CBF327008023A8F1841C43DD9BC7
:10050400739007800F100000B71700409306700522
:100514002380D704930680FA2380D7040F100000A9
:1005240083C6670493E616002383D7042380070455
:10053400F32600801C43A18BD58F7390078023A8DA
:1005440001840F10000001A0BD473305F50201002E
:100554007D1575FD8280411122C426C206C6AA8477
:10056400014463179400B2402244924441018280C2
:1005740005041305803E4204C13F4180DDB7B7172F
:100584000040130700032388E702854723ACF18466
:1005940073002030411106C6EF00F002F5BF373773
:1005A4000040834747409946BD8B638FD71431473A
:1005B4006385E7001147639BE71A011122CE26CC1D
:1005C4004ACA4EC852C656C4373400409749000040
:1005D400938949A19304100317AA02E0130A0ACBD2
:1005E4001309200397AA02E0938A4ACB8147034761
:1005F400A44063EFE7109747000083C7A79E639B5F
:1006040097005285977002E0E7806052974000E0BF
:10061400E78060139747000083C7C79C639B27014B
:100624005685977002E0E7808050974000E0E780AD
:100634006017174700000347E79A93073003631EC8
:10064400F70017A502E0130565C6977002E0E7807E
:10065400004E974000E0E780C01A174700000347A8
:10066400679893074003631EF70017A502E013057C
:1006740025C5977002E0E780804B974000E0E78053
:10068400201E174700000347E79593075003631E96
:10069400F70017A502E0130525C4977002E0E78070
:1006A4000049974000E0E780A0BB174700000347DC
:1006B4006793930780036319F700854503C5E180B9
:1006C400974000E0E780407E9747000083C787910A
:1006D400130790036398E704B71700409306700567
:1006E4002380D704130780FA2380E7040946238371
:1006F400C7042380D7042380E70403C76704136770
:1007040017002383E70401A0834757407300203078
:10071400834684403387F90085072300D70093F785
:10072400F70FF1B51307A0036393E70217A502E0DF
:10073400130585BB977002E0E780603F2946930567
:10074400004003C5D186975000E0E780C08C834702
:10075400A44093F7F70FE39B07E87244E24452493D
:10076400C249324AA24A0561730020307300203026
:100774002303048015472303E48001002302A4809B
:10078400828083076480E3CE07FE23030480828093
:1007940083076480E3CE07FE034544808280830799
:1007A4006480E3CE07FE2302A4808280411126C424
:1007B4004AC24EC006C61377F50BAD47AA892E89E7
:1007C40095446306F70019456537653F8D444E85AA
:1007D4004537FD59FD1463983401B240A2441249CF
:1007E400824941018280135509011375F50F453F74
:1007F4002209CDB7011126CC06CEB7040800513723
:100804001545BD37713769372AC6A53F32459377F9
:10081400150089EB136515001375F50FF240E244DA
:1008240005618280FD14E9FC0145CDBF397126DCE8
:100834004ADA4ED852D656D45AD25ED006DE62CEAA
:1008440066CCB7E700E07D5783AA070022C603AA57
:10085400470023A0E71823A2E718B717004013079F
:1008640070052380E704130780FA2380E70483C715
:100874004704930B75FFB684E20793FBFB0F854691
:10088400AA892E8B328937240040E187015763FA05
:1008940076016308D5008946130700026313D50067
:1008A4000157D98F93F7F70FB71C00402382FC043C
:1008B40011472303E4801305F00F5D3D094CD13546
:1008C400636D7C11B7050700DA9537870700795502
:1008D40063F2E504B3879500636EF702370B0800F3
:1008E400A94733EB65016399F90689E48144513DD5
:1008F40026850DA0DA850945553D05090345F9FF0F
:10090400FD14050B693D81C49377FB0FFDF7DD35BD
:1009140069FD7D55B7170040130770052380E70470
:10092400130780FA2380E70403C74704418B23821B
:10093400E704F250B7E700E023A0571123A24711C0
:10094400E25432445259C259325AA25A125B825B5F
:10095400724CE24C21618280A5476395F906856952
:100964001309F00FB3069900B3742B01B69413491D
:10097400F9FFB3749900856B33796901416B9387EF
:10098400F9FFB3F7270199E363FC340193D94900D4
:10099400C147E3E637FF99BF0569C1697D19D9B736
:1009A4001305800D638869011305000263847901CE
:1009B40013051008CA85DD3B353D21DD4E99B3840E
:1009C4003441D9B7DA852D45D533CA94E30099F279
:1009D40005097D3BA30FA9FED5BF9387F9FF93F7C4
:1009E400F70F6361FC0C83C71C0413073008631FF3
:1009F400F70437070800636BEB04B3079B00B706E3
:100A0400100063F5D704334BEB0089476393F90671
:100A14008980D549E38C04ECDA850945413B110909
:100A24000327C9FF91472320E48003076480E34E32
:100A340007FE23033481FD17EDFBFD14110B81C464
:100A44009377FB0FE9FF7D3371F5E1B5B7170040EC
:100A540003C75704B70708001377070219E3B787DA
:100A640007007955E378FBEA33079B00E3FFE7F8D7
:100A740055B58547E382F9F2DA852D45053B93891F
:100A8400F4FFE38504E6293393F7390091EB8326D9
:100A940004800327090093074900E39AE6E43E89AA
:100AA400CE84F1BFB5476396F9001305900BC931A5
:100AB40035BDB1471305B00AE38BF9FE994763913D
:100AC400F904B7050800B365BB002D45C531814461
:100AD4008D4BA149753963967401832704802320C3
:100AE400F9008504E39834FF8327048013172B014E
:100AF400635507002312F900D5BB2322F900FDB387
:100B04009D476399F90281451305B0044531BD44FD
:100B14002320090023220900FD599D3993F774000D
:100B2400CA9703C70700FD14398D2380A700E396F5
:100B340034FF6DBBA1476392F9046D398144630DA1
:100B44000B008D479304C0036308FB009304000566
:100B540063048B01930440041375C507E30895D817
:100B64001945393139390545213126850D3909456C
:100B74003D314931E31C05D669BB91476399F900BE
:100B840013056006F536F53E130590090DB7E38F9E
:100B940009D4F154A9BB19CD91CD09CE814733872E
:100BA400F500834607003307F50085072300D700C7
:100BB400E317F6FE828019C991C909CA910583A772
:100BC400C5FF11057D16232EF5FEC5BF828001C920
:100BD40019C62A960505A30FB5FEE31DA6FE82805D
:100BE40081473307F5000307070019E33E85828038
:100BF4008507C5BF01112E8626CAAA8413150601CE
:100C04009305F004418122CC06CE32C6EF00F05B9E
:100C14002A8401C53246A685BD3F2285F24062443E
:100C2400D24405618280854715C18DC105C28147C3
:100C3400B306F5003387F50083C6060003470700B3
:100C44006398E6008507E315F6FE85473E858280B6
:100C54008147EDBF9307F6FFBE952A966313C5003F
:100C64008280FD1583C715000505A30FF5FEFDB7AA
:100C7400AA87014581CF09CE3E96850703C7F7FFB2
:100C84006317B700E39BC7FE054582808280014558
:100C9400828079719387C18B22D4804306D626D271
:100CA4004AD04ECE52CC56CA5AC85EC65DCCB7C4E2
:100CB400C901014B9389418B9384F437173A00009F
:100CC400130A4A35973A0000938A8A381739000084
:100CD4001309493C8357240085E35C44631B0B00E0
:100CE40023AEF18A832BC4002285EF00705A5E8400
:100CF400B9A82326FB00FDB783A7090082971C44EB
:100D04003307F5406376F500032749001D8F2A97C2
:100D140063E0E4089737000023A4073483552400D4
:100D240003450400974000E0E78000185C40584405
:100D3400A1CB0C4403264900AE97BE8663E4B700FA
:100D440063E4C700B386C74014C4228B3A8459F0C5
:100D5400973700009387C72F9C4B09476370F706AA
:100D6400F91717370000232DF72EB250225492544E
:100D74000259F249624AD24A424BB24B45618280DF
:100D840063150B0023AEE18AB1BF2326EB0099BFA4
:100D940003274A0209CF63EFA7003385A74083A73F
:100DA4000A016376F5009737000023ABA72A228B4C
:100DB400404471BF03274900BA97C5B7973700006D
:100DC40023A0072A5DB7411122C41734000013047D
:100DD400A42A1C4006C626C24AC091C782979737E8
:100DE400000023AB07289737000083C7B742858BE1
:100DF400973400009384C44195C397370000A38BB4
:100E0400074083C774001547637AF700C12B83C773
:100E14007400F5178A07A2979C4382971C4491C3D8
:100E240082971389818A0327090017360000034635
:100E340036229737000083C7A72193961700BA96E6
:100E440083D60600C5CE9737000083C7672063E1C9
:100E5400C70C97370000238D071E1C4063950712AB
:100E64009737000083C7573B91CF83C7740093F72C
:100E7400F70F89EB97370000A380073A978001E0CA
:100E8400E78080D19387418B9C43638E070E97370D
:100E9400000093872720DC43173700002322F71C28
:100EA400CD3B973700009387E716DC53E9CF17371C
:100EB40000001307E719184B9737000083C7D716AC
:100EC4006363F70C83C774001547636EF70A97379B
:100ED400000083C76738918BDDE703260900973646
:100EE400000083C6F61663C6D70A2244B240924471
:100EF4000249410117A302E0670003C5850793F780
:100F0400F70F973600002385F614E3E4C7F225BFF4
:100F140086073E9783550700231007002398018A0C
:100F24009387018C9C431735000003456512131702
:100F34002500BA979C43829783D7018B173700000B
:100F44000347071193C7F7FF7D8D931717000327F6
:100F540009003E97835707005D8D2310A70097373C
:100F6400000083C7E70E91C78507173700002301E8
:100F7400F70E173700000347A70D9737000083C704
:100F8400370DE378F7ECB240224492440249410120
:100F94008280139717003297035707006DF7850770
:100FA40099B7AD6737C70040BD072326F7200F1058
:100FB4000000973700009387A709C84F8327872627
:100FC400BD66BD0693C7F7FF99836A052326D7201C
:100FD4005D8D82804111B7170040985F3AC6945FD7
:100FE4003247E39CE6FE3245410182801305F00F4F
:100FF4008280011122CC604126CA4AC84EC652C41E
:1010040006CEAA841D4A130965058549BC44636458
:10101400F4000545B9A003C7D40083474400631A0C
:10102400470503C784026304F7000040C5B70347BC
:10103400540083C75405E31AF7FE1946CA851305FD
:101044006400D536E31335FF0347C40083C7940215
:10105400E31DF7FC0357E40083D7A402E317F7FC6E
:101064000145F2406244D2444249B249224A0561F0
:101074008280E31CF7FA0347540083C75405E31640
:10108400F7FA1946CA8513056400713EE31F35F962
:10109400C1BF0111973700009387C72322CC03A453
:1010A400070C26CA06CE2AC42EC6854419E4014577
:1010B400F2406244D2440561828083479100034731
:1010C4001400858B6304F7000044CDB719469305DB
:1010D400A10013052400813EE31895FE0545C9BF10
:1010E400138741981C439306001094C30100010028
:1010F400010001001C4323A0070083461500034898
:101104002500A2064208C29603480500C296034879
:1011140035006208C29694D783465500034865009B
:10112400A2064208C29603484500C29603487500C9
:101134006208C296D4D7834695000348A500A20648
:101144004208C29603488500C2960348B500620867
:10115400C29694DB8346D5000348E500A206420804
:10116400C2960348C5000345F500C2966205AA96D7
:10117400D4DB83C6150003C52500A2064205AA9642
:1011840003C50500AA9603C535006205AA9694CF47
:1011940083C6550003C56500A2064205AA9603C589
:1011A4004500AA9603C575006205AA96D4CF83C6E6
:1011B400950003C5A500A2064205AA9603C58500AD
:1011C400AA9603C5B5006205AA9694D383C6D50032
:1011D40003C5E500A2064205AA9603C5C50083C55A
:1011E400F500AA96E205AE96D4D3D443F59AD4C3B7
:1011F400D44393E61600D4C3944393E6160094C3F1
:10120400BA879443D842058B59E3984E014523008D
:10121400E6009843184F2183A300E6009843184F33
:1012240041832301E6009843184F6183A301E6003C
:101234009C43D84F2302E600D84F2183A302E60043
:10124400D84F41832303E600D84F6183A303E6000C
:1012540098532304E60098532183A304E60098538B
:1012640041832305E60098536183A305E600D85320
:101274002306E600D8532183A306E600D85341830E
:101284002307E600DC53E183A307F6008280010014
:101294008DBF138781981443411122C49C5E4AC0B8
:1012A40006C6998326C2858B3A8413894198D1C78F
:1012B4009C5E973400009384A4F593F7F7F99CDEC1
:1012C40017370000034727F593070008631BF7004F
:1012D400832709009C4393F7070417370000230C66
:1012E400F7F283C7040093F707048DC39387418BF8
:1012F4009C4382979737000023A4A7F283C7040076
:1013040093F7F70B173700002304F7F083C7440063
:1013140093F707049DE3854717370000A30CF7EE06
:10132400938741999C43096798C7130700FC973634
:1013340000002381E6EED844F8D31C40985F118363
:10134400058B09CB985F3D9B98DF054797360000D6
:101354002382E6EC985F1D83058B11CB985F13778E
:10136400F7F798DF8547173700002305F7EA832747
:101374000900D8430583058B19C7D843759BD8C387
:10138400D843799BD8C3B2402244924402494101D4
:101394008280397106DE16DC1ADA1ED82AD62ED4DB
:1013A40032D236D03ACE3ECC42CA46C872C676C491
:1013B4007AC27EC0F93DF250E2525253C2533255C2
:1013C400A255125682567247E2475248C248324EDC
:1013D400A24E124F824F21617300203093874199AE
:1013E4009443973700009387A7E203C70700058B50
:1013F40011CB97370000238F07E097370000A38BAA
:1014040007E0828003C71700058B65F7F85271FF68
:1014140083C75700DDB713888198032708001C5F32
:101424009583858BD1E709C61C5BBD832300F60039
:1014340085CA83270800985B46079357670163565C
:10144400070093E707C0C207C18303970600C207DA
:10145400C18709C7BA970947B3C7E7022390F600C3
:1014640085CD834715008DCB9736000083C6A6DA59
:1014740093F606041387970089478DCA3A95034764
:101484000500854699471376F7066311D60262076D
:101494006187B947634C0700832708009C5FED838D
:1014A4008D8B17370000A30AF7D681473E858280CB
:1014B4008547EDBF411122C406C6138441991840E3
:1014C4002DE9AE877453FDFE3E85B2859737000043
:1014D400238107D4977001E0E78040419387819886
:1014E4009C43B70680009843558F98C3D857719B87
:1014F400D8D797370000A38F07D097370000A38968
:1015040007D01C40094798C314401737000013073D
:1015140027D083472700858B89EB83473700858B4A
:10152400D9C397370000238707CEB2402244410134
:1015340082808D47631EF500938781989C43B7068C
:1015440080009843558F98C3D857719BD8D76DBFE7
:101554008547E31BF5FA5447F977FD17F58F5CC708
:101564000F1000001C40096798C7130700F81736CE
:1015740000002301E6CA138781981043184231837F
:101584000D8B11E713076019F8D3D4C7B5BF184200
:10159400094631830D8B6315C7001307E043EDB78C
:1015A4001307E01BD5B7FC52ADF741B75D71A2C478
:1015B400A6C22A84130680022800AE84930510086C
:1015C40086C6CAC04EDE52DCEFF06FE03545977038
:1015D40001E0E780006E13838198832703009376EC
:1015E400F41F138EC19923A40700984B938E41993D
:1015F400370FFCFF1367F70398CBF84F130510F868
:10160400B7020400137707E0558FF8CF9843F576B7
:10161400FD16758F98C39843B7063300930380254E
:101624001377F7E798C3984311497D1F1377F7E7BA
:101634001367071098C303270E008549930F800290
:101644001C47D58F1CC783A70E001307900D3400C9
:10165400B8CB014793553700A69583C70500137689
:101664007700B3D7C740858BE1C383270300832862
:101674000E00239C07042390070603A8C8021378CE
:10168400D8FF23A6080383A807001378F70793F865
:1016940008F833E8080123A0070103A847023368C8
:1016A400580023A2070383A80E00014823A278064A
:1016B40003DA07066307480303A80703038A06003F
:1016C4001358F80062081358884163580A0103A8A4
:1016D40007031358F8002380060103D8070613787C
:1016E400F80F03AA480663060A0003DA8705E37FB6
:1016F40049FB03A847023378E80123A20703838741
:101704000600635CF40003C805003396C900134661
:10171400F6FF337606012380C5003E8663D3A70017
:101724002A8613158601618505071377F70F850649
:10173400E312F7F3B640264496440649F259625A36
:1017440061618280938641999C42D84713161701A0
:1017540063550602984713161701635006027D5716
:10176400B8D7173700001307A78E584F0507173649
:101774000000232DE68E116798C798470D83058BCB
:101784001DCB173700000347C7A813671700173688
:1017940000002300E6A8130700F817360000230B07
:1017A400E6A6214798C71387819810435856719B22
:1017B4001367170058D69847058B0DC717370000D5
:1017C400034717A51367170017360000A302E6A402
:1017D400054798C71387819810435856719B136720
:1017E400170058D698470983058B09E7984705835E
:1017F400058B21CF984717360000130666A1138581
:1018040081980983058B63030710184118433183BA
:101814000D8B75EBAC4B184E93F50502034717007F
:10182400CDCD79EF13077006D8CF034706001367B1
:10183400170017360000230DE69C114798C718417E
:101844005C57F19B93E717005CD79C42984793162B
:10185400370163D606029736000083C626AFC18AD5
:1018640017370000130707A7C5CE03478707136779
:10187400070297360000238BE6AC056798C79847A4
:101884009316270163D10602173700000347879890
:101894006207618763570700054797360000238B6B
:1018A400E696096798C798479316070163D6060218
:1018B4009736000083C696A9858A17370000130758
:1018C40067A1ADCE0347970713672700973600003B
:1018D400A38EE6A6216798C7828029D7854563151C
:1018E400B7001307B00689B789456315B700130716
:1018F400F0061DBF8D456315B700130730072DB7DC
:101904001307500715B71307600739BF034736009D
:101914001367170017360000A30DE68E094739BF79
:10192400834687070946BD8A6388C600034787073D
:101934008D463D8BE313D7F4114725BF83469707A4
:10194400918AC9DA034797071367870041B739714A
:1019540006DE16DC1ADA1ED82AD62ED432D236D0B7
:101964003ACE3ECC42CA46C872C676C47AC27EC05B
:10197400D13BF250E2525253C2533255A255125641
:1019840082567247E2475248C248324EA24E124F24
:10199400824F216173002030938741999843856772
:1019A400938707777CD39387C1999C4383A60709C0
:1019B400139656006358060083A60709139666001B
:1019C400634406007453FDF2828061C1AA87014515
:1019D400DDCD8D07C207C183F19BC207C183130705
:1019E4004003636BF702138781A20843138701A2A4
:1019F40014436396A602172700001307A761185B18
:101A0400014551C74111C20706C60545DD8D029740
:101A1400B240014541018280138741A2F9B70357BF
:101A2400650035E303574500636FF704B306F740D9
:101A34002146637CD60203280500938687001D8F08
:101A4400AA966117172600000356E6602392E60063
:101A540023A006012393060014C12312F5001307E3
:101A640086FF972600002398E65E2313B50097258A
:101A7400000083D5455EB387F54017270000231C7B
:101A8400F75C210582800841ADB7014582808280E0
:101A940009CD938781A203A30700938701A283A89A
:101AA400070081469A8763E31701828003A8070031
:101AB4006369F50A6367A80A13878700E367E5FE8D
:101AC40003D66700216705076317E60003C741953E
:101AD4000507238AE194972500009385655703D66B
:101AE400470003D7650023930700329742074183D9
:101AF400172500002311E55663886702138541A268
:101B040008416303F50203D5660019ED83D7460047
:101B140023A0060121073E9621062392C60097279B
:101B24000000239AE752B6879843E30017F9938697
:101B340041A29442E30BD7F683566700BDF683D6E1
:101B44004700035647001843A106B2962392D700D4
:101B540098C383D76500A10717270000231DF74EFC
:101B64008280BE86C28781B703278511630207126C
:101B7400411122C406C68347C5008345E5042A846F
:101B840093F7C70F2306F500834697000356C70053
:101B940013958601618563F2C508635B05060345F9
:101BA400870093F6F607A304D700054693E62700BB
:101BB4006314C50093E617002306D4005C43890729
:101BC4005CC3A30AB400032504112E864C43090503
:101BD400EFE07FFC8327841103465401D44303D7E9
:101BE400C700B296118FD4C32396E7008947A30D8B
:101BF400F400034764039727000083C7C742637850
:101C0400F7048347C40093E707012306F40081A087
:101C140093E717002306F4006DB79376F60F635D20
:101C2400050203458700854513E627006314B500C4
:101C340013E617002306C400A30AD400A304070074
:101C44008547A30DF400832784119C43DDF3B24040
:101C5400224401454101828093E717002306F400E2
:101C6400A30AD400A3040700032504114C43090567
:101C7400EFE07FF28327841103465401D44303D752
:101C8400C700B296118FD4C32396E7008D4755BF82
:101C940005458280938701A49C43411122C406C652
:101CA400858B2A84C5EF4165130525F5972002E04D
:101CB400E780E04E45C58347A5002315F50083273B
:101CC4000412BDE72320A4122322A4128547231162
:101CD400F404232005008347640154412316F500CE
:101CE4000347D4002304E5000547A304E5001727B0
:101CF40000001307E751184F1385170215811C4381
:101D04007D151375F50F9CC25C43DCC21C479CC651
:101D14005C47DCC61C4B9CCA5C4BDCCA1C4F9CCE8B
:101D24005C4FDCCE19CD9386060213070702C1BFB0
:101D34008327441288C3835724042322A4128507CB
:101D440079B79727000083D76759850717270000BD
:101D54002316F758B2402244410182808347C400CD
:101D640023090400054593C747002306F400DDB7A3
:101D74008347850193F7E70FC5EF83479501CDEBC3
:101D8400034625018346C50009CA83456503172711
:101D940000000347572963E7E50013F7060151CB19
:101DA400014709C6C18A0357651C81C68356A51C11
:101DB400369741C31307C712172500000355052E94
:101DC400B335A70237460F00411113060624814696
:101DD40022C426C206C67D543305A702975002E0EA
:101DE400E780A0399727000083C75724B384A7004E
:101DF400972700009387074E03A7870983270709BE
:101E040063F387003E84184375FB9387418B9C439F
:101E1400829781476364A400B307A440B24022447C
:101E2400B3B7970093C7170092443E85410182805F
:101E340081473E8582809387419998437C53FDFF77
:101E44008280797126D206D622D44AD04ECE52CC84
:101E540056CA5AC85EC68347550303447513AA84F9
:101E64003E941374F40F9307400263F6870013043F
:101E7400B4FD1374F40F03AA841383AAC413A38BAD
:101E8400841222865285D685975002E0E780602925
:101E9400058915E503CBD41201498149337B6403D9
:101EA400930B50024A865285D685975002E0E7800C
:101EB4004027058915C5639169031374F90F238BB2
:101EC4008412B250225492540259F249624AD24ABC
:101ED400424BB24B456182808509E20993D989411D
:101EE4000509E31179FDE1BF83278509035605043C
:101EF400797193D60701BD8EC206C182358E135700
:101F0400764093575640898B058B5D8F93573640A7
:101F1400918B5D8F93571640A18B5D8F931716009D
:101F2400C18B5D8F9317360093F707025D8F93176C
:101F340056009355860093F707041E065D8F1376AB
:101F4400F60F518F93D7554013D63540118A898B9C
:101F5400D18F13D67540D18F13D61540218AD18FD6
:101F640013961500418AD18F139635001376060215
:101F7400D18F13965500137606049E05D18F93F5E1
:101F8400F50FCD8FA20745465D8F3307C70222D4D4
:101F94002A8426D252CC56CA032A8413832AC41311
:101FA4005AC806D63697420741839357774013554C
:101FB40057400989858BC98F135537401189C98FBB
:101FC400135517402189C98F131517004189C98FEB
:101FD4001315370013750502C98F13155700935550
:101FE4008700137505041E07C98F1377F70FD98F60
:101FF40013D5354013D755401189098B498F13D513
:102004007540498F13D515402189498F13951500C3
:102014004189498F1395350013750502498F13952E
:102024005500137505049E05498F93F5F50F4D8FE3
:102034002207D98FB387C7024AD04ECE5EC662C488
:10204400B697C207C18313D7774013D55740098980
:10205400058B498F13D537401189498F13D5174004
:102064002189498F139517004189498F13953700AA
:1020740013750502498F1395570093D5870013757F
:1020840005049E07498F93F7F70FD98F13D5354071
:1020940013D755401189098B498F13D57540498F42
:1020A40013D515402189498F139515004189498F0E
:1020B4001395350013750502498F13955500137553
:1020C40005049E05498F93F5F50F4D8F2207D98F8F
:1020D400B387C702130650025285D685B697BD8EC4
:1020E40093940601C18033F6C402137BF60F975014
:1020F40002E0E780000305890DED8347D41201490E
:102104008149B3849702130C5002C1804A865285D8
:10211400D685975002E0E780C0000589937BF90FCC
:1021240011C563863403850993F9F90F0509E31F83
:1021340089FD230B6413B250225492540259F2497C
:10214400624AD24A424BB24B224C456182805E8B3A
:10215400CDB7797122D406D683C735002E842316D1
:102164000100A307F10083C74500100802C023073C
:10217400F10083C755008A8502C2A306F10002C498
:1021840002C802CA02CC02CEEFE09FF50347F10178
:102194008347040001456310F7020347E1018347C5
:1021A400140001456319F7000345D1018347240056
:1021B4001D8D13351500B2502254456182800111E2
:1021C400972700009387071122CC03A4870C26CA03
:1021D4004AC84EC606CEAA8413092500854915C0EF
:1021E40083C7140003473400858B6304F700405C05
:1021F400FDB71946930544004A85EFE0DFA2E318D2
:1022040035FF2285F2406244D2444249B249056115
:1022140082804111972700009387C70B22C403A42F
:10222400870C26C24AC006C693042500054901E866
:102234002285B24022449244024941018280A6850B
:102244001305A4023937E30525FF405CCDB74111DE
:10225400972700009387070822C403A4870C26C28B
:102264004AC006C693042500054901E82285B24008
:1022740022449244024941018280A6851305A401A7
:0C228400C93DE30525FF405CCDB700001C
:10229000971100209381019617610020130181D6C8
:1022A0001305400097E5FF1F9385C5D5170600204D
:1022B000130606FE63FAC5008322050023A055001D
:1022C00011059105E3EAC5FE179502001305059473
:1022D000970500209385C5FB1386C18463FAC5006A
:1022E0008322050023A0550011059105E3EAC5FEF0
:1022F0001385018597250020938585106377B500A8
:10230000232005001105E36DB5FEFD42739002BC6C
:102310008D4273904280930280087390023097E25E
:10232000FF1F938222CE93E2320073905230371710
:102330000040930770052300F704930780FA2300F9
:10234000F7040F1000003C47B70600FAE116F58FBE
:10235000B70600069506D58F3CC7972200009382EA
:10236000A2CD73901234730020303D432A876373EB
:10237000C3029377F700BDEFADE5937606FF3D8A84
:10238000BA960CC34CC30CC74CC74107E36BD7FECE
:1023900011E28280B306C3408A0697020000969637
:1023A0006780A6002307B700A306B7002306B7007F
:1023B000A305B7002305B700A304B7002304B700A3
:1023C000A303B7002303B700A302B7002302B7009B
:1023D000A301B7002301B700A300B7002300B70093
:1023E000828093F5F50F93968500D58D9396050120
:1023F000D58D61B793962700970200009696868246
:10240000E78086FA9680C1171D8F3E96E374C3F865
:10241000A5B7B717004003C777051377E70FA38B5E
:10242000E704130700F8A38DE7043D47238CE70476
:1024300013075003A38CE704828041112A83014EC5
:10244000930E407E130F0019930F400663E66E143F
:102450009308001913034006B3781503854E0D4FFA
:10246000A14F337365020D891335150063E0BE1665
:102470001308F6FF7946729842081358080133078B
:10248000C70213D61700BE0732976146B3F6C602DD
:1024900013068070B386C6023697A166F58F420791
:1024A0005D8FB716004083C7F60293F70708A307AE
:1024B000F1000346F10083C7F60293F70708E3949F
:1024C000C7FE8347F100B716004093F7F70F638903
:1024D0000714F3270080A18B938601856398071466
:1024E0000F100000B7170040130670052380C704C3
:1024F000130680FA2380C7040F10000023AA0703E5
:1025000003C6170313660608A388C70223800704BF
:10251000732600809C42A18BD18F7390078023A8E3
:1025200001840F1000001166B71500407D16DC59BC
:10253000C85DA98FF18FE5FFF3270080A18B89CBC0
:10254000F327008023A8F1849C42DD9B73900780D1
:102550000F100000B7170040130670052380C70452
:10256000130680FA2380C7040F100000D8DB03C7CE
:10257000170313670704A388E70223800704732760
:1025800000809C42A18BD98F7390078023A801847F
:102590000F100000410182807D133368E30393082C
:1025A000E016630E08003368F3039308D01663083F
:1025B00008009378330093B818009388D81633082E
:1025C0001E01131E0801135E0E0149B56393E50356
:1025D0000548638608000148630303002A887108E0
:1025E0007298FD15131E0801C205135E0E01C1810C
:1025F000B5BD13F8150063F4BF007908D5B71338DB
:102600001800E5BF83C7F60293F70708A307F10098
:102610000346F10083C7F60293F70708E394C7FE69
:102620008347F10093F7F70FF1DF65B5F3270080DB
:1026300023A8F1849C42DD9B7390078055B5914798
:1026400063EEB702176702001307876E8A05BA9513
:102650009C41BA978287B717004003A7470B1345E1
:10266000F5FF698F23AAE70A03A7070B698F23A841
:10267000E70A03A7070A798D23A0A70A8280B71764
:10268000004083A6470B1347F5FFF98E23AAD70A0C
:1026900083A6070B558D23A8A70A83A6070A758F63
:1026A00023A0E70A8280B717004003A7470B498F92
:1026B00023AAE70A03A7070B1345F5FF45BFB71782
:1026C000004083A6470B1347F5FF758F23AAE70A3F
:1026D00003A7070A598D4DB7B717004003A7470B4B
:1026E000498FEDB7914763EEB702176702001307F2
:1026F00067658A05BA959C41BA978287B7170040EB
:1027000003A7470D1345F5FF698F23AAE70C03A71D
:10271000070D698F23A8E70C03A7070C798D23A069
:10272000A70C8280B717004083A6470D1347F5FF1B
:10273000F98E23AAD70C83A6070D558D23A8A70CC5
:1027400083A6070C758F23A0E70C8280B717004083
:1027500003A7470D498F23AAE70C03A7070D1345CD
:10276000F5FF45BFB717004083A6470D1347F5FF98
:10277000758F23AAE70C03A7070C598D4DB7B71720
:10278000004003A7470D498FEDB79357E50093F736
:102790000730C98FC2070547C1836382E5048DC135
:1027A0000947638DE5040D476380E5063717004050
:1027B000231FF70883562709D58F2319F70882802E
:1027C000371700400356670993C6F7FFF18E231BA6
:1027D000D7088326C70C558D2326A70CC1BF3717F2
:1027E00000400356670993C6F7FFF18E231BD708F5
:1027F0008326870C558D2324A70C4DBF3717004027
:1028000083566709DD8EE1B73717004083566709A5
:10281000DD8EE9BFB74700401147A381E7000947B4
:102820002380E700130700062380E70003C7170093
:1028300013670701A380E70003C717001377E70FAB
:10284000A380E7008280894737470040631DF50079
:102850008347170093E70704A300F700B74700403A
:10286000A381A70082808347170093F7F70BEDB78A
:10287000B747004003C707001377F70E2380E70030
:10288000131705012E9541834205239CE7004181E2
:10289000239EA7002396B70025472383E70003C79D
:1028A000170013671700A380E70003C76700058BB5
:1028B0006DDF03C717001377E70FA380E70082805F
:1028C000B717004003D5870042054181937705047F
:1028D00091EB9377F5013755E801130505803345F2
:1028E000F50282809377050C130700046397E700D5
:1028F0009377F50137459C1CCDB72165130505D0AD
:102900008280B7F700E08847CC478280814737371D
:102910000040A14663C4C700328582800345B740AA
:10292000E38EA6FE3385F5000345050085072304E5
:10293000A740CDB7970700209387C7AB9C431727C5
:1029400000201307E7AB3E95636EE50017570020A4
:102950001307474B6368A70017070020232CA7A87D
:102960003E858280FD57EDBF411122C406C62A84F0
:10297000813F2947B307E502B2408D83B3D7870271
:1029800022449507B3D7E70237370040C207C18317
:102990002316F7404101828071654111130505201E
:1029A00006C6D937B7370040130770F82381E740D0
:1029B0000D47A381E74013070004A380E7400547C4
:1029C0002387E740B2404101828037370040834788
:1029D00027401A0593F7F703C98F93F7F70F2301E1
:1029E000F7408280B737004003C7174019C9D98D17
:1029F000A380B74003C70740136787002380E740E1
:102A0000828093C5F5FFF98DA380B7408280411184
:102A100093962500AA852D4506C697E0FF1FE780FF
:102A200020E1B240014541018280411126C29394C8
:102A3000250022C44AC02A843289A686AA85014676
:102A4000254506C697E0FF1FE78080DEA6864A86FA
:102A5000A285294597E0FF1FE78080DDB240224430
:102A600092440249014541018280011122CC06CEE7
:102A70003714004026CA4AC84EC652C4834474055F
:102A8000034AB405834984050349940559328347B1
:102A9000A40593F4F40F137AFA0F93E71700230DAC
:102AA000F40493F9F90F1379F90FB717004003C72E
:102AB000A705058B6DFF03D5C705A38D4705238C9F
:102AC0003705A38C2705A38B9704F2406244D244B8
:102AD0004249B249224A056182804111939705011A
:102AE00022C406C6C1872E8463DD0700EF20800A5A
:102AF00019C1EF2000032165218DB240224441011C
:102B0000828093F7150013C51500E5FB9397250107
:102B100063D20708EF604147B717004083C7E70259
:102B200093F7C70F93E7170073270080218B9386D5
:102B3000018509CB7327008023A8E18498425D9B1F
:102B4000731007800F100000371700401306700540
:102B50002300C704130680FA2300C7040F100000E7
:102B60002307F70223000704732700809C42A18BF0
:102B7000D98F7390078023A801840F10000037F6C7
:102B80000200130606E0896503C54185EF20604811
:102B900009659DB7939715010145E3D007F61765C1
:102BA000020013052522EF40527813060064916558
:102BB00003C54185EF20E04511653DBF1D714946C4
:102BC000976502009385452017850200130585A3AC
:102BD00086CE97E0FF1FE780400501E917650200F8
:102BE0001305C51FEF40727401A0B7F600E07957D6
:102BF00098CAFD57DCCA0567B7E700E023A0E710D5
:102C00001306F00290C223A0E7180F10000013066D
:102C1000C0038145480897E0FF1FE78080FB9707C6
:102C20000020938727BC3ECA896793870780231CAF
:102C3000F100A167938707E03ECEB70701059387B0
:102C400007103ED0ED472312F10285472303F1021E
:102C5000970700009387E7DBBEC4970700009387C0
:102C600007DDBEC6B7F50700970700009387A7C921
:102C700035473EDA814697070000938747DF7000AB
:102C8000E10519452304E102A305E1023EDE97E0D8
:102C9000FF1FE780E0B958088147994670003E96CB
:102CA0000346060085070507A30CC700E398D7FE77
:102CB000D24791C70357810185676373F70001A06D
:102CC0004808EF20807DAA8501C917650200130519
:102CD0002512EF40525101A0F6402561828041113A
:102CE000170500001305A5DF06C622C4EF20607794
:102CF000138441852300A4001928034504002244BD
:102D0000B24013060032896541016F2080304111C5
:102D100006C6F3270080A18B9386018589CBF32714
:102D2000008023A8F1849C42DD9B739007800F10E4
:102D30000000B7170040130770052380E70413074E
:102D400080FA2380E7040F10000003C7F70213671F
:102D50007700A387E70223800704732700809C4243
:102D6000A18BD98F7390078023A801840F100000D6
:102D70001305407E81470147814605468545EFF0B2
:102D8000CFEBB240014541016F20B025B305B04003
:102D9000176502001305C5076F40F244011122CCEC
:102DA0002316C10032846C0003C6D18606CEEF60C4
:102DB000F04AA2851765020013058506EF40B2426E
:102DC000F24062448547238EF184056182800111BF
:102DD00022CC36C606CE2E84EF10507AB246374645
:102DE0000F00130606243376C50291CAB285176513
:102DF00002001305250432C6EF40F23E324622851A
:102E00006244F240814505616FA0714681E9B28557
:102E100017650200130505036F40F23C8547639D6B
:102E2000F500176502001305250309C617650200A2
:102E3000130585036F40724F89476398F500176546
:102E40000200130565037DD682808D47E39EF5FE63
:102E5000176502001305450371DEB2851765020090
:102E60001305C50355BF03C7C1869307100363F05D
:102E7000E70682809315340089051946A6954A8590
:102E800097E0FF1FE78060DA05ED05041374F40F87
:102E900083C7C186E360F4FE8E0789073385F4009B
:102EA0001946CA8597E0FF1FE78020CF83C7C186F8
:102EB00013973700BA948507A38034012386F186DF
:102EC000F2406244D2444249B24905618280011114
:102ED00022CC26CA4AC84EC606CEAE892A890144EB
:102EE000938401A675B78347250049476360F75A65
:102EF00017670200130747E68A07BA979C435D717C
:102F0000A2C486C6A6C2CAC04EDE52DC56DA5AD861
:102F10005ED662D466D26AD06ECEBA972A84828791
:102F20003146976502009385E5F8176502001305A1
:102F300065F9EF40522B176502001305E5FCEF40E1
:102F4000D23E2644B64096440649F259625AD25AB5
:102F5000425BB25B225C925C025DF24D01468545AC
:102F60000D4561616F90B11B8348C5000348550052
:102F70008347650003477500834685000346950037
:102F80008345A50017650200130505F9EF40B2253A
:102F9000832A04018349C40063950A0283454400DF
:102FA000130554002644B64096440649F259625A25
:102FB000D25A425BB25B225C925C025DF24D61616F
:102FC0005DB5E38D09FC176502001305A5F8EF4018
:102FD000922181445149176A0200130AAAF893F713
:102FE000F40F63F43701639C241D2945EF40B2239D
:102FF0009387F9FF416B01493EC4054C976C020071
:10300000938C4CDA130D5400938DA186791BA24743
:10301000E356F9F8338A2A0183440A00C1D0B38702
:103020002401E3DD37F7834B1A00A68517650200FC
:103030001305C5F35E86EF40121B93878BFF93F752
:10304000F70F636AFC249386F4FF93FBF60F638407
:103050000B2493072900DE9763CFF922DE851765DD
:103060000200130565F2EF40121881473307FA009A
:10307000034527003EC6EF40121BB247850713F7F2
:10308000F70FE36577FF2945EF40F219AD4763F984
:1030900077218147B1453306FA003387FC000346A8
:1030A000260003470700631EE63C8507E395B7FE4D
:1030B000DE863146976502009385C5DF17650200FD
:1030C0001305052AEF403212834764000348540079
:1030D0000347740083468400034694008345A4009C
:1030E000176502001305052CEF40F20F03D661802F
:1030F00083C59186176502001305052EEF40B20EB9
:10310000176502001305C52FEF403222EF90B1037F
:103110001305400697D0FF1FE780204483C79186A0
:1031200089E783D761806389670317650200130508
:10313000A5E7EF40921F03D56180EFB0E16CA38457
:103140000186F9571305401F2393F180238E0184D4
:1031500097D0FF1FE780604003464400EA86814520
:103160000145EF9061782A8A25E509660544130632
:1031700006909305002003C5D186A384818623850C
:103180000186EF101069014697650200938585D28C
:1031900017650200130585E3EF40F204A3858186DD
:1031A000B640264496440649F259625AD25A425BC6
:1031B000B25B225C925C025DF24D61618280B387FA
:1031C0009A0083C5070052858504EF40D20101BDF6
:1031D000AA85176502001305E5E1EF40D20083C51B
:1031E0000D00176502001305E5E3850593F5F50F5E
:1031F0002385B186EF40227FB14717650200130592
:1032000065E76304FA02C14717650200130545E349
:10321000630DFA009D4717650200130565E9631603
:10322000FA00176502001305A5E6EF40121003C768
:10323000A186914763F0E70417650200130505E9CD
:10324000EF40B20E1305007D23850186238601869B
:10325000A385018697D0FF1FE78020300146854572
:103260000D45EF90C16B176502001305E5E9EF40CE
:10327000D20B15A01305803E97D0FF1FE780E02DED
:1032800017650200130505EAEF40320A014685453D
:103290000D45EF90C168850426991379F90F85BB18
:1032A0005E86B14517650200130585EAEF40A273FB
:1032B000DDB783C7B186E39507EE97650200938576
:1032C00065BF176502001305A5EBEF40C27101460B
:1032D00085450D4523860186A3850186EF902164EF
:1032E00017650200130545C22644B64096440649B8
:1032F000F259625AD25A425BB25B225C925C025D26
:10330000F24D61616F4072029305002003C5D186C2
:10331000EF1070718345140017650200130585E9ED
:10332000EF40626C83451400D1E18947A384F186A4
:103330008357A400976502009385C5B717650200FF
:10334000130585EA2393F1808547238EF184EF40AE
:10335000826983D56180176502001305E5EAEF40B5
:10336000826813060064A14503C5D186EF10704A38
:103370000564130604C8C14503C5D186EF10704922
:10338000130604962644B64096440649F259625AFA
:10339000D25A425BB25B225C925C025DF24D03C585
:1033A000D1869305001061616F10B0461765020069
:1033B000130545E7EF402263176502001305C5E8D2
:1033C000EF40A27623860186A38501869DBEA38455
:1033D0000186F9579305001003C5D1862393F18028
:1033E000238401862391018623900186239F0184F3
:1033F00023860186238E0184A3850186EF10B062A7
:103400008345640017650200130505E6EF40A25DE1
:1034100097650200938505AA17650200130585E6E6
:10342000EF40625C39BE17650200130525E86DBDEB
:1034300017650200130585E845BD0348550083471D
:103440006500034775008346850003469500834564
:10345000A50017650200130565E7EF40C2583DBEA1
:103460000348550083476500034775008346850080
:10347000034695008345A50017650200130545E83E
:10348000E9BF176502001305E5EAD5B3828019711B
:1034900093970501A6DA86DEA2DCCAD8CED6D2D4AE
:1034A000D6D2DAD0DECEE2CCE6CAEAC8EEC6C18712
:1034B000AE8463DC074C03C5D186EF10A06D2A846F
:1034C00015C5034705009307000B631EF70083C76C
:1034D0009186094783454500930A8500638AE70280
:1034E0005685EF60B0342285EF10A0632164258CEF
:1034F0002285F6506654D6544659B659265A965ADD
:10350000065BF64B664CD64C464DB64D0961828043
:103510000D476381E50205476390E5020347850097
:10352000631AF7028345C500176502001305C5F04D
:10353000EF40624B238E0184034744009307F0075A
:10354000631AF7008355840017650200130545F0E0
:10355000EF406249834744002D476382E7020547F5
:103560006392E70203478400A946631CD70483459E
:10357000C40017650200130565EEEF40C246238EB6
:103580000184C1A04D476398E70417650200130545
:1035900025EFEF40825983C78186F5F383D70186F3
:1035A000F9DF176502001305A5EEEF4002588565A7
:1035B0001306401F9385058003C5D186EF10702543
:1035C0007DBFC946631ED7088345C4001765020046
:1035D0001305C5E95DB76D476394E70817650200F9
:1035E000130505EFEF4022400149976902009389D6
:1035F000A9EE8357A4006369F9042945EF40A2426C
:1036000048449307000C03470500631CF70203437B
:10361000E5008348B50003489500834785000347CC
:1036200075008346550003464500834535001AC2A0
:103630000345D5002AC017650200130565EAEF406F
:10364000823A8345440069BD5C444E85CA9783C570
:10365000070005094209EF4002391359090151BF1A
:1036600003C7818679DF8546631FD7081D47639CA2
:10367000E7028357840085CB5C441765020013057D
:10368000E5EC83C5170003C6370003C7070083C7EF
:103690002700A2052206D98D5D8E2393B186239241
:1036A000C186EF404234834744001D476390E704DE
:1036B00003471400E947E396E7F883D561868DC98F
:1036C000894703D64186176502001305E5EA23847E
:1036D000F186EF40423183C6D18603D6418683D539
:1036E000618603D56180EF60C034A1BF0547E1B7B3
:1036F00017650200130505EDEF40224303D56180F5
:10370000EFB081103DBF89466311D71E2547638BFB
:10371000E708834744002547639EE71A03471400E0
:10372000E947E390E7F2176502001305E5FCEF4077
:10373000C23F83D5018617650200130525FEEF40C1
:10374000822A83D5218617650200130525FFEF40E5
:10375000822983D72186638107188D472384F186C8
:103760009387618683D7070017650200130505FF5D
:103770002314F1029387418683D707002315F102B2
:10378000930720202316F102930790022307F102EA
:10379000EF40A23903C6D1862C1003D56180EF60BB
:1037A000003645B583558400ADD52D6A17650200F6
:1037B000130545E3930B0AE1EF40E2220149554D21
:1037C0009D4D176B0200130B6BE8130A2AE0176C70
:1037D0000200130CECEB83578400E37CF9F20358EE
:1037E000A400176502001305E5E2B30728030328C8
:1037F000C4003E988347480003473800034618003A
:103800008345080083492800A207B3ECE70022069D
:1038100066874D8ECE86CA8542CEEF40C21C0357C6
:10382000A40072486315A70B03476800834658003D
:103830005A852207558FBA853ACEEF40C21A724791
:10384000631A770123909187E685176502001305B7
:10385000E5E039A06318470123919187E6856285E9
:10386000EF4062182945EF40021C1765020013055E
:1038700065E5EF40421793F7290099C717650200E5
:10388000130545E5EF40221693F7890099C71765A0
:1038900002001305A5E4EF40021593F7090199C74B
:1038A00017650200130505E4EF40E21393F90902DE
:1038B0006388090017650200130545E3EF40A21273
:1038C00029450509EF4022161379F90F29B7E31EA0
:1038D000B7F999BF0547B1B5176502001305C5EAE9
:1038E000EF40A2242384018659B98D46E31BD7D427
:1038F00025476391E70683578400A9CF58441306F0
:10390000006493050008834717000347070003C5B9
:10391000D186A207D98F239FF184238E0184EF10D3
:10392000406F83D5E185176502001305A5E8EF40D8
:10393000820B83D5018617650200130565EBEF4006
:10394000820A176502001305E5EFEF40021E23848B
:103950000186C5B917650200130585F2EF40E21C28
:10396000238E018483D70186FDD3176502001305DA
:1039700065F4EF40821B85651306803E93850580C4
:1039800003C5D186EF10E068D9B793F7150085C35A
:1039900017F6FF1F1306C68F97F5FF1F9385059037
:1039A00003C5D186EF80316F13C4140091B693F72D
:1039B0000520A1C717650200130545F3EF40E21685
:1039C00041657D15EFA05164A3840186F957176501
:1039D0000200130525F52393F18023860186A38534
:1039E0000186238E0184EF404214014685450D4532
:1039F000EF80F17213C40420E5BC93F78500B9C7CA
:103A0000ED77938707E02314F102AD6523920186D9
:103A100023930186239F01842390018623910186AD
:103A20008547938505E0176502001305A5F22384F9
:103A3000F186EF30527B83C6D18609462C1003D520
:103A40006180EF60C02D13C484005DB493F705015D
:103A500091CF13078025814613064006D14503D533
:103A60006180EFA0F15913C4040159B493F7050222
:103A70009DC3014789460946814503D56180EFA072
:103A8000F15AAA85176502001305C5EFEF30B2752C
:103A900013C40402B1BC93F70504D9C783C7C18519
:103AA000B5E79387018683D7070001478146231432
:103AB000F10205468547C94503D561802315F1020A
:103AC00023180102EF60600F835581022AD6176523
:103AD0000200130565ECEF301271B25785CB130766
:103AE000A0052380E70003C6D1862C1003D5618092
:103AF000EF60600119ED85479305A0051765020089
:103B0000130505EB238EF184EF30F26D13C404042A
:103B1000C5B22810C945EF60605117650200130552
:103B200065ECEF408200DDB793F70508BDCB83C796
:103B3000C185B9EF9387E18583D7070001478146A7
:103B40002314F10209468947C94503D5618023152D
:103B5000F10223180102EF604006835581022AD644
:103B600017650200130505E9EF30F267B2578DC300
:103B7000054423808700B25703C6D1862C10A3804A
:103B8000070003D56180EF50107819E5238E8184FA
:103B900013C404086FF0DF95C9452810EF60004991
:103BA000C5BF93F7051095C303D56180EFA01145FC
:103BB0000566130606969305001003C5D186EF101F
:103BC000404513C404106FF0BF9293F70540638221
:103BD000072403C79186894713C40540631AF71E5B
:103BE000C16703D76180F9176304F71E83D5018687
:103BF0006380051E03C7C18585476312F7021765F9
:103C00000200130565E0EF3052721306400693057B
:103C1000004003C5D186EF10C03F6FF07F8D176560
:103C20000200130565E2EF30125C930700102318C1
:103C3000F1029387018683D7070001478146231449
:103C4000F1025146D1479305200503D56180231524
:103C5000F102EF5090762AD6630405168147D146CB
:103C600032573E97230007008507E39BD7FE97E670
:103C7000FF1F83C66678B2576397060E130710F8C6
:103C80002380E700B25709478546A3800700B25753
:103C90002381E700B257A381D700B25723820700E0
:103CA000B25793060003A382E700B25723830700AD
:103CB000B257A383D700B2572385E70023840700B8
:103CC000A3840700A38507002386D700A3860700E7
:103CD00023870700A387070023880700A38807001E
:103CE00023890700A389070097E7FF1F83C7C770D1
:103CF000850793F7F70F0947636FF70A17E7FF1F69
:103D0000230CF76E17650200130585D7EF30B24D0F
:103D10008144976902009389A9D85149B2574E85C9
:103D2000A69783C507008504EF30F24BE39824FF84
:103D30002945EF30524F2C1003D56180EF50D05DF4
:103D4000AA85176502001305E5D5BDCD17650200EC
:103D5000130585D9EF303249930520052810EF600F
:103D6000E02C6FF0EFF805466395C602130720F8C4
:103D70002380E700B2570947A3800700B257238189
:103D8000E700B257A381D700B2578D462382D700F0
:103D900001BF130730F82380E700B25709479306A5
:103DA0000002A3800700B2572381E700B257A38126
:103DB000C700B257E1BF97E7FF1F238F076299B78C
:103DC00017650200130585D5EF3032566FF04FF2BC
:103DD00017650200130585D7EF303255094683C5B4
:103DE0009186176502001305E5D7EF30D23F83D5E2
:103DF000618017650200130525DAEF30D23E83D5C6
:103E00000186176502001305E5DBEF30D23D6FF048
:103E10002FEE056913090980B3F725010144638971
:103E200007ECB3C425011394040103C791868947A5
:103E30004180631AF70CC16703D76180F9176304E7
:103E4000F70C83D50186E1C183C7C1858544639C96
:103E50009700176502001305E5D9EF30124D1306E0
:103E60004006CA857DB3176502001305A5DCEF3057
:103E70009237930700102318F1029387018683D7A6
:103E80000700014781462314F1021146914793052B
:103E9000200503D561802315F102EF5010522AD678
:103EA00031CD930750072300F500B2571765020084
:103EB000130505DDA3800700B25723819700B25791
:103EC000A3819700B25783C5070003C7370083C695
:103ED000270003C61700EF3012312C1003D5618084
:103EE000EF509043AA8517650200130565DCE38D4A
:103EF00005EC176502001305A5DEA9BD17650200D4
:103F0000130545E1D1B5176502001305E5E3EF3070
:103F1000D241094683C5918617650200130585C401
:103F2000EF30722C83D56180176502001305C5C67A
:103F3000EF30722B83D5018617650200130505E368
:103F4000E9B5011117F5FFFF1305A55406CE22CCE4
:103F5000EF1020511384D186A3840186F9572300E2
:103F6000A400975502009385E5F417650200130538
:103F7000E5E22393F1802384018623860186A385CD
:103F80000186238E01842391018623900186239F3D
:103F90000184EF3052258565938505960945EF30FC
:103FA000A028D1451D45EF30202893054006214526
:103FB000EF308027930540063545EF30E0268947EE
:103FC0002304F1007000854791451305F040A304D8
:103FD000F100A305F10002C623050100EF90D14FC7
:103FE0003000854513058040EF90114F1306910076
:103FF000854513059040EF90314E1306A10085458D
:104000001305A040EF90514D1306B10085451305EF
:10401000D040EF90714CEF60503203450400EF60E8
:10402000205E034504008545EF00D067F2406244FE
:104030000561828041111305800406C622C497C021
:10404000FF1FE7804005371400408327840A8D4511
:104050001305002093E707202324F40AEFE02FDE66
:104060008327840A85451305001093E7071023244E
:10407000F40AEFE0CFDCEFE03F9217650200130592
:104080006558EF30922AEF007008EFE03FB3EFE0A1
:104090001FC5EFA0E179753517650200130505D43A
:1040A000EF30B228EF00901F17650200130505D40A
:1040B000EF30B227092E97C0FF1FE780E04D37177A
:1040C00000405C5FCA07C9832310F5008357A7032C
:1040D000C207C1832311F50083578703C207C18339
:1040E0002312F50082808357050083D6050003570D
:1040F000250003D62500958FB7662605938606C052
:10410000B387D702118F9306007D0355450033070F
:10411000D702BA9703D74500198D79473305E502D1
:104120001307803E3345E5023E9582808355250086
:10413000411122C42A84176502001305E5CB06C687
:10414000EF30720A835544002244B24017650200E2
:104150001305C5CB41016F301209B717004083A783
:10416000470C9386418990424111918B06C65D8E22
:1041700015E213858188A1378547056623AAF18852
:10418000130606969305000203C5E180B240410183
:104190006F00306890423687854603C5E180631E14
:1041A000D606A5CF93050002EF10E007138501881E
:1041B00039379385818813850188353723AAA186ED
:1041C000AA871307100303C5E18093050004635F0A
:1041D000F7021307B0126349F700894723AAF18851
:1041E0001306003CC1455DB71307B05D8545635FAD
:1041F000F70093050002EF1000039305002003C5AC
:10420000E180EF00304A914503C5E180EF0090491D
:10421000B24023AA01884101828010438946631974
:10422000D6029DE7C145EF10000013858187413D0F
:1042300093850188138581877D351307702583C792
:10424000E18089456354A700930500403E857DBF0A
:10425000A38801861C431C4381454DBF83C7C18091
:10426000411113B7170022C406C62386E18017E464
:10427000FF1F1304241C8D4513050020A1E7EFE068
:104280006FC6371700408327870C0C4037050001A5
:1042900093E707207D152324F70CEF006077930543
:1042A000002017650200130525B7EF30C2732244C2
:1042B000B24083C5C180176502001305E5B941010D
:1042C0006F306272EFE00FC2371700408327C70CD0
:1042D0000C40416593E70720130505F02326F70CF2
:1042E000EF00007393050020176502001305C5B4A5
:1042F0006DBF41118D451305000406C622C426C2B8
:1043000037140040EFE00FBE8327840C8D45056510
:1043100093E707042324F40CEFE0CFBC0327840CBD
:1043200085648D45458F2324E40C0565EFE02FB1AE
:104330008327840A8D450945C58F2324F40AEFE0BD
:104340006FBA8327840C8D451305000293E727007D
:104350002324F40CEFE00FB98327C40C8D450545E9
:1043600093E707022326F40CEFE0CFB78327840CF2
:104370008D451305002093E717002324F40CEFE08C
:104380006FB68327C40C9305002017650200130540
:1043900025AE93E707202326F40CEF30C264854551
:1043A00013050020EFE00FB48325440C17650200CD
:1043B000130505A989818589EF30E2622244B24064
:1043C0009244410161BD4111170500001305C51854
:1043D00006C6EF100009AA852387A1801765020091
:1043E0001305C5ACEF302260B70508001765020061
:1043F000130585ADEF30225F854537050800EFE0F6
:104400006FAEB705040017650200130565AFEF3006
:10441000825D854537050400EFE0CFAC9145176517
:1044200002001305A5B1EF30025C85451145EFE0B0
:104430006FAB914517650200130505B4EF30A25A22
:1044400089451145EFE06FB48947A386F1803707AE
:104450000400B7E700E023A0E710B24023AA0188D8
:10446000410141BD83C70187411113B7170022C421
:1044700006C62388E18637140040A5EF8327840C05
:104480001305800C93E707042324F40C8327C40C42
:1044900093E717002326F40C8327C40C93E7070245
:1044A0002326F40C97C0FF1FE780200B8327840C82
:1044B0003705FF0093E707022324F40C97E7FF1F5B
:1044C000938747F78C43A9238327C40C1765020001
:1044D000130505AF93E707042326F40CEF30E264DD
:1044E0002244B24013052003410117C3FF1F670098
:1044F000C3068327840C1305800C93E70704232449
:10450000F40C8327C40C93E717002326F40C8327AD
:10451000C40C93E707022326F40C97C0FF1FE78023
:10452000C0038327840C1305F00F93E7170023249F
:10453000F40C97E7FF1F938727F08C43D12983273B
:10454000C40C17650200130525A893E7070423266A
:10455000F40C69B7411122C406C693F715002E84E6
:1045600091CF176502001305A5A6EF30025CDD3D73
:1045700013451400B24022444101828093F7250084
:104580008DC3176502001305A5A5EF30025A294611
:104590009305004003C5D186EF00B02713452400E2
:1045A000D1BF93F7450091CB17650200130545A4D1
:1045B000EF30A2571345440075BF93F70501B1C70B
:1045C000B71700401387418983A7470C10438946DA
:1045D0006315D602918B99CB854503C5E180EF0029
:1045E000700C23AA01881345040169B717650200FE
:1045F000130505A1EF306253EDB70C4317650200B8
:10460000130585A3EF30223EF9BF93F70502A9CF2A
:10461000B71700401387418983A7470C104385468D
:10462000631CD602918B95E3914503C5E180EF00B1
:10463000700789451145EFE04F958947A386F180C2
:1046400023AA01881345040235B717650200130534
:10465000E5A1EF30824DEDB70C431765020013055D
:1046600065A4EF304238F9BF93F78500A1CB371727
:104670000040035587030356A7034C5F9387418986
:1046800011679443930717007D17F98DB337F50031
:1046900093C717000606C2053E96C1811765020042
:1046A000130545A3EF30223413060064A14503C56A
:1046B000E180EF001016134584006DBD93F70504EB
:1046C00091CB176502001305A5A2EF3002461345F2
:1046D00004044DB593F7051091CB1765020013053F
:1046E000A5A2EF3082441345041069B593F7052065
:1046F0009DCB176502001305E5A2EF300243138539
:104700008188EFF0BFA213850188EFF03FA2938765
:1047100041878C4317650200130585A9EF30A22C51
:104720001345042081BD93F705400145E38407E468
:1047300017650200130505A9EF30223F1345044019
:1047400015BD411106C683C7B18017E7FF1F1307C8
:1047500067CEB716004095CB83A7860C0C43370570
:10476000000193E7070423A4F60C7D15552483C5A7
:10477000B180B24093B51500A385B18017650200E2
:104780001305C5A841016F30022683A7C60C4165F9
:104790000C4393E7070423A6F60C130505F0F9B7BD
:1047A00083C7A18013B7170041112385E18006C696
:1047B00017E7FF1F130707C8B716004095E783A741
:1047C000860C05660C43D18F3705000123A4F60C37
:1047D0007D153D2CB24083C5A180176502001305ED
:1047E000E5A341016F30222083A7C60C0566416511
:1047F000D18F23A6F60C0C43130505F0D9BF83C750
:10480000918013B717004111A384E18006C617E712
:10481000FF1F130727C2B716004095E783A7860A34
:1048200005660C43D18F3705000123A4F60A7D15D8
:10483000C522B24083C59180176502001305059F0C
:1048400041016F30421A83A7C60A05664165D18FC0
:1048500023A6F60A0C43130505F0D9BF83C7818050
:1048600013B7170041112384E18006C617E7FF1F25
:10487000130747BCB716004095E783A7860C0C4387
:104880003705000193E7270023A4F60C7D15492284
:10489000B24083C58180176502001305659A410106
:1048A0006F30621483A7C60C41650C4393E7270061
:1048B00023A6F60C130505F0D9BFB717004003D7A0
:1048C000E709118B31C303D7E709411122C61367EA
:1048D0004700239FE70883C7D1800944639F87006F
:1048E0008D451145EFD07FEA8D47A386F180EFF02B
:1048F000DF86324441017300203089451145EFD0F5
:10490000DFE8A3868180E5B7730020304111176589
:1049100002001305A59406C6EF30222195450545F2
:10492000EFE04F8C1765020013054594EF30E21F4E
:1049300037370040834727402D4593E71700230171
:10494000F740EFE08F881765020013052593EF30DD
:10495000C21DB240B7E700E03707000823A0E71008
:1049600041018280411126C2B28431463386C4029D
:1049700022C42E84814506C6EFD03F9F2A8E930520
:1049800034008148B14E13030008254F9397080166
:10499000C18363FA9706B386D8031386D5FFF296D0
:1049A000B9A0834F06001308F5FF3358034133784D
:1049B000F80103870700631F0802136707F82380C5
:1049C000E70003480600B35FA3400387070033787E
:1049D000F80163140802136787002380E7000905C4
:1049E0008507E310E5FD05069106630BB600B68763
:1049F000054545BF136707FED9B71367E700F1BF49
:104A000085088D0561B7B2402244924441018280FD
:104A1000011126CA97F4FF1F9384045E61464AC8B9
:104A20004EC62E89AA898145268506CE22CCEFD096
:104A3000DF9313D589001375F50FEF20B25BCA859C
:104A4000EF20F22CEF20B2551384018A2300A4003A
:104A500013D509011375F50FEF20D259CA85EF2040
:104A6000122BEF20D253A300A40013F5F90FEF206F
:104A70007258CA85EF20B229EF2072522301A40098
:104A8000A28526850546F93D6244F2404249B24975
:104A90002685D244B14505616FD09FDD41118D451A
:104AA000116506C6EFD0BFB91765020013058594DE
:104AB000EF30A2078D452165EFD07FB83717004052
:104AC0008327C70AA166D58F2326F70AEFD09FD484
:104AD0004D45EFD05FD797F7FF1F9387E7513E858E
:104AE00061468145EFD07F88E145EFD07FD897E7D9
:104AF000FF1F9387A794B2408C434165130505F0CF
:104B0000410139B723AC05FE1C4191E701000100CA
:104B10000CC18280BA8703A787FF6DFF23ACB7FE65
:104B200082801DC18346E5FF1307F00F9147639E06
:104B3000E600411106C697D0FF1FE780A0F5B240FE
:104B400081473E854101828095473E85828001E90B
:104B5000014582800145B240224441018280956531
:104B60004111938505D022C4C98D2A842105C2052F
:104B70004205C181418106C697D0FF1FE78020E52D
:104B800071D9FD5723200500231285002303F5006A
:104B90002105D1B71387418A1C43411122C426C283
:104BA0004AC006C601440149BA8489E7A165A52D1A
:104BB0000DC401A803C7E7FF6318A7021DC8A165BC
:104BC000D5249840832784FF6317E40223A2F18A47
:104BD000FD57232C04FE230FF4FE2285B24022440D
:104BE000924402494101828011E03E8983A787FFF8
:104BF0006DBF3E84E5BF232CF9FED9BFA1CD411185
:104C000022C406C62A8497F7FF1F83C777442E85E0
:104C10006375F400894763E8870021370D45B2408A
:104C200022444101828083A785FF99E703C7E5FFFE
:104C30009307F00F6305F700ED351545CDB7238FCA
:104C400085FE1385418A7D3D22852244B240A165BF
:104C5000410189AC1545828023A2018A8280938715
:104C6000C18B9C4399E33E85828003D7270063165E
:104C7000B70003C70700E308A7FEDC47E5B7BDCDD3
:104C8000797122D406D626D24AD04ECE014441476D
:104C9000B3D78540858BB1CF1205314722953305B7
:104CA000E5029387C18A03A907008544B394840071
:104CB000C204C180BE892A990327090011C70325B0
:104CC00049002EC60297B24531473304E40283A758
:104CD00009003E941C4489E723200900232209008F
:104CE000B2502254A58D02599254F2492E85456145
:104CF00082800504E31EE4F88144DDB72E858280BE
:104D000041111397050122C406C626C24AC0418735
:104D10002E84635E0700BD3D11C12135A1673D8C26
:104D20002285B24022449244024941018280EDD959
:104D3000AA8701474146B356E440858A9DCA920737
:104D4000BA97B146B387D7029386C18A03A90600F2
:104D50008544B394E400C204C1803E9983270900CE
:104D60000325490082972320090023220900258C6E
:104D700045BF0507E311C7FC8144D5BF97F7FF1F67
:104D8000938747299C53411122C406C6138401818D
:104D900099C782971C403E9523A8A18029A093879C
:104DA000418B9C43FDF70840B74703009387D73FEB
:104DB0003305F502B7A72600938737ECB2402244AB
:104DC0003E9523A8A1804101828079C99387418BB8
:104DD0009C43797122D426D24AD04ECE52CC56CAA8
:104DE0005AC806D65EC63A8AB689328BAE8A2A89F6
:104DF00082979387C18A9843BE840144B146C147D4
:104E0000B30BD40233067701104251E6C165938596
:104E100005F0414597D0FF1FE78060BB1DE597F780
:104E2000FF1F9387271F9C5B2D4589C7114581452F
:104E300082972D45B250225492540259F249624A47
:104E4000D24A424BB24B456182809387C18B9843D3
:104E50001DEF23AEA18A230005009C4005473317B0
:104E6000870023260500232465012311E500232262
:104E70004501DE9723A0270123A2570123A4470160
:104E80000145E38909FA238089006DB73E875C47B5
:104E9000F5FF48C7C9B70504E314F4F6214559BF27
:104EA0000945828097F7FF1F83C7971A637FF50034
:104EB0001387818A9317150008433E958357050091
:104EC000DD8D2310B500014582800D45828097F766
:104ED000FF1F83C7F7176371F5021387818A931742
:104EE0001500084393C5F5FF3E9583570500FD8DDA
:104EF0002310B500014582800D458280130705FF10
:104F00001377F70FFD4763E5E70AB146B306D5020D
:104F10009387C18A984389473697184359CB011123
:104F200022CC4EC60544935945003D893315A40053
:104F300013140501418026CA4E85AE84A2854AC855
:104F400006CE313B2A89814721CDA2854E85413746
:104F50009387418B9C43829797F7FF1F83D7071452
:104F6000338797022A84814613060064B3B79702F9
:104F700013050732B335E500BE95EF20C21FB30716
:104F8000850097F6FF1F9386E6103E87D44263E4C0
:104F9000A70063E4D7003387D7402324E900814783
:104FA000F2406244D2444249B2493E850561828062
:104FB00089473E858280011126CA06CE22CC4AC886
:104FC0004EC6BD47894463EEA70231473307E50269
:104FD0009387C18A9C438944BA979C439DC30544E7
:104FE0003314A400420441802E890145A285EFF0CC
:104FF0001FC7AA89814411C5A2850145C93D23A4C3
:105000002901F240624426854249D244B2490561F1
:10501000828097F7FF1F83C7B7036364F5000145DC
:10502000828001119387418B56C283AA070006CE66
:1050300022CC26CA4AC84EC652C4638E0A0A17FA40
:10504000FF1F130A2A0583244A00B74736FE9387B9
:1050500007C8AE8997F5FF1F83D54504BE94B38773
:10506000C5022A8432898146B3B5C5021385073249
:10507000B337F50013060064BE95EF20C20F63EC52
:10508000A406829A97F5FF1F83D54501B3872503B0
:10509000AA84130600648146B3B52503138507323D
:1050A000B337F500BE95EF20020DB3079500BE841F
:1050B00003274A0063E4A70063E4E700B384E74002
:1050C000CE852285EFF0BFB901C504C505452DA0E9
:1050D000936504F0C205C181414597D0FF1FE78069
:1050E000008F05E597F7FF1F9387C7F29C5B81C789
:1050F000A285114582970145F2406244D24442495B
:10510000B249224A924A056182809387C18B9C43AF
:105110008DE323AEA18A85472326050004C523110C
:10512000350123008500A300F5002322050079BF87
:10513000BA87D84775FFC8C7F9BF49C9797122D462
:1051400026D24AD04ECE52CC56CA5EC662C466C281
:1051500006D65AC83689328AAE89AA844144314C6F
:10516000938AC18A854C930B0003330B840303A7F6
:105170000A005A971C43B1E79375F400B395BC003D
:1051800013554440C2055286C1811375F50F513540
:105190000DC983A70A000145DA9784C323A237010A
:1051A0006304090023008900B2502254925402592A
:1051B000F249624AD24A424BB24B224C924C456170
:1051C00082800504E31374FB2145F9BF0945828001
:1051D000411122C426C24AC006C62A842E89B2843E
:1051E0000D3DCA852285EFF09FA705CD97F5FF1FDE
:1051F00083D5C5EAB38795022A84130600648146E5
:10520000B3B5950213850732B337F500BE95EF109D
:10521000927648C00145B24022449244024941017D
:1052200082802145CDBF411122C426C24AC006C694
:105230002A892E84EFF0BFA2AA8419C12311050088
:10524000A2854A85EFF0BFC897F7FF1F83C747E0E5
:105250006397270183D7018B5D8C2398818A014551
:1052600091E01945B24022449244024941018280B2
:105270009307F00263E6A7044111B14722C4330447
:10528000F50226C29384C18A9C4006C6A297984321
:1052900089470DC39377F5008545B395F500C205A1
:1052A000C181118149379C40A29723A0070023A206
:1052B00007008147B240224492443E8541018280EA
:1052C00089473E858280411106C622C4EFF03F998E
:1052D00011E50145B2402244410182809387418B10
:1052E0009C430045829797F7FF1F9387A7DA63686F
:1052F000A402D843B74636FE938606C83305A440B9
:105300003697E378E5FC13070064B335E50203D66E
:10531000870081463305E502EF10F26565BFD8438B
:105320003A94C1BF411106C623ACA18A0295B2408E
:1053300097F7FF1F23AAA7D2014541018280994711
:1053400063E9B7008A0597F7FF1F9387E7D2BE95F9
:1053500088C1828041117146814517F5FF1F1305F1
:10536000A5D106C623AE018A23AC018A23AA018AED
:1053700097C0FF1FE780E08513068002814517F57F
:10538000FF1F1305E5CC97C0FF1FE7808084EF90D7
:10539000815497F7FF1F83C757C913D527008D8BFB
:1053A0003E958D473305F502854539051375F50F93
:1053B00097F7FF1F238FA7C899473305F5021305F9
:1053C000052497C0FF1FE780806023A6A18A59C5E6
:1053D000994717F6FF1F0346C6C73306F6028145F5
:1053E0001306062497B0FF1FE780A07E9387C18A2B
:1053F0009C439387072423A0F18C17F7FF1F0347D3
:1054000047C50A07BA9723A4F18AEFF0FF840D235A
:105410009387018C944397F7FF1F83C777C3139734
:1054200027003697170600001306A68510C31387BA
:1054300017001377F70F0A073697170600001306B1
:10544000668C10C313873700890793F7F70F8A0715
:1054500097F5FF1FA38EE5BEB69790C3B2404101FA
:10546000828097F7FF1F83C7B7BE17F7FF1F034759
:1054700047BE63F1E7021387018C18439386170038
:1054800017F6FF1FA306D6BC93962700369708C3CE
:105490003E8582809307F00FE5BF1C4163890716A4
:1054A00041777D8FB706002089476313D7160357CE
:1054B0004500630F0714411122C419462A8493053D
:1054C000F00F690506C697B0FF1FE780A07A054771
:1054D0008D476309E5121C4481CB585899476303F3
:1054E0000712185C630007121306C003814517F505
:1054F000FF1F130525B297B0FF1FE780806D1306CD
:10550000C003A28517F5FF1F1305C5B097B0FF1F95
:10551000E780A06817F7FF1F035787B097F7FF1FB3
:10552000938747AF19E71307001097F6FF1F2399DA
:10553000E6AE17F7FF1F0347C7AE11E7054797F61B
:10554000FF1F2380E6AE17F7FF1F0357A7AD11E734
:105550006D4797F6FF1F2397E6AC17F7FF1F03472A
:1055600057AC11E7154797F6FF1FA38CE6AA17F76C
:10557000FF1F034747AB11E7054797F6FF1F23843B
:10558000E6AA17F7FF1F034717AA19E703C7F70093
:1055900097F6FF1FA389E6A817F7FF1F0347C7A8C1
:1055A00011E7354797F6FF1F2380E6A817F7FF1F7F
:1055B0000347D7A719E71307800297F6FF1FA387B2
:1055C000E6A617F7FF1F034737A619E71307D00210
:1055D00097F6FF1FA38AE6A40347840119E7130780
:1055E000C00397F6FF1F2383E6A49C5791C78297B9
:1055F00097F7FF1F2392A7A6FD57A387F1A0EFF00F
:105600007FD58147B24022443E854101828089474F
:105610003E85828001114EC697F9FF1F938989A7A5
:1056200083A7090006CE22CC26CA4AC852C4829754
:1056300013090064B335250303DA890081465286D5
:1056400033052503EF10323397F7FF1F938747A0E9
:10565000804FAA8401456306940233858440636EBB
:10566000940003A5490052868146B335A90233054B
:10567000A902EF105230018D269597F7FF1F23A541
:10568000979EF2406244D2444249B249224A05619F
:105690008280011122CC0A852E8441469735020072
:1056A0009385457106CEEF20A228180806043A9487
:1056B000035504FF97F7FF1F83D7679EF2406244AC
:1056C000AA9737450F00130505243355F5020561E8
:1056D000828097F7FF1F83D7879C51471D45637CC6
:1056E000F702794719456378F70213072003154538
:1056F0006373F7021307B0041145637EF7001307C5
:1057000040060D456379F700130760090945637486
:10571000F70013B5B70F8280011122CC06CE2A8480
:105720002EC6EFF0AFE5B245F240818D33A5A5025C
:10573000229562441375F50F05618280011122CC18
:1057400006CE2A842EC6EFF06FE3B245F240818D7B
:1057500033A5A502229562444205418105618280FC
:10576000011122CC06CE2A842EC6EFF02FE1B245DD
:10577000F240818D33B5A502229562440561828095
:1057800097F7FF1F93870789985739CB411122C498
:1057900026C206C6BE84029717F7FF1F0357C78BA2
:1057A0002A8415CBBA876373A700AA87C207C1836F
:1057B000BA866373E400A286C206C182958F514700
:1057C000635BF700DC5491C38297EF30E17B97F77E
:1057D000FF1F23938788B240224492444101828074
:1057E000828097F7FF1F9387E782DC57011106CE6F
:1057F000AA8581C72AC68297B245D1C19C41054579
:10580000A5CFDC41B5CB83D78500BDC783D7A50025
:10581000A5C783C7C500ADE3414617F5FF1F1305B4
:10582000658797B0FF1FE780403797F7FF1F938783
:1058300067869C4323AAF18A97E7FF1F83C7177FD8
:105840008DE79307800217F5FF1F03552585330564
:10585000F50237460F001306062481468145EF10F6
:10586000921197E7FF1FA383A77C1705000013057C
:10587000A5DAEFF03FAB0145F2400561828097E782
:10588000FF1F83C7877A13978701618763540704D3
:1058900097E7FF1F23AC077C97B7FF1F9387A7707D
:1058A00017E7FF1F2328F77E7D5797E7FF1F23A5E4
:1058B000E77EB7873200938727A197E6FF1F23AFC4
:1058C000F67C97E7FF1F238D077CB7C7004023A412
:1058D000E726A1BF13F7170005CFB78720039387EB
:1058E00007D017E7FF1F232BF77AB707C0A817E7E2
:1058F000FF1F2323F77A97B7FF1F9387E76D17E7FB
:10590000FF1F2329F77897E7FF1F238B077831BF05
:10591000617797E6FF1F2393E67881CB93070032E8
:1059200017E7FF1F231DF776C9B793072003CDBFE5
:10593000011122CC17E4FF1F1304C46D084406CEE6
:1059400026CA4AC801E90545F2406244D2444249A8
:10595000056182805C58E5DB185C75D77000854571
:1059600082971844B247E300F7FE9305E00417E579
:10597000FF1F0355E56A97C0FF1FE780400517E743
:10598000FF1F2327A76E61D117E6FF1F0356466945
:105990009305F00F97B0FF1FE780A023814417E91C
:1059A000FF1F1309E96A97E7FF1F83C7876703266D
:1059B000090263C1F402328597C0FF1FE780800DA2
:1059C000014597E7FF1F23A5076A97E7FF1F23A35A
:1059D000076A9DBF97E5FF1F83D58564B38795024E
:1059E0000844185C898185043E9508C2029765BF0A
:1059F000011156C297EAFF1F938ACA6183A78A00E2
:105A000022CC4AC84EC606CE26CA52C45AC0AA895B
:105A10002E8432896385072203A74A03630707148C
:105A20007D476366A71497E4FF1F9384646203AA0B
:105A3000040263170A0A9565938515E017E5FF1FB1
:105A40000355055E97C0FF1FE78060F897E7FF1FCB
:105A500023A0A7622A86630A051083A74A0303A529
:105A60008A0097E5FF1F83D5A55B8981829783A76D
:105A70008A0003AA040217E7FF1F232DF75E894758
:105A8000639CF908C1476312F40E97E5FF1F83D5A5
:105A90002559938505FC9147B3C5F5028A05D29532
:105AA00003C705009307A005631DF70A83C7150008
:105AB0006399370B4A852286910597B0FF1FE780CF
:105AC000C00D9C505285639347150145F2406244D6
:105AD000D2444249B249224A924A024B056182802D
