:040000006F20C02885
:100004000000000000000000900000208A0400208E
:10001400A9BDF9F3900000200000000000000000DA
:10002400900000209000002000000000000000006C
:10003400900000200000000090000020000000005C
:100044009000002090000020543B0000900000200D
:1000540090000020900000209000002090000020DC
:100064009000002090000020900000209E050020B9
:100074007E050020900000209000002090000020C9
:1000840090000020900000209000002090000020AC
:1000940001A073270080218B9387818409CB732768
:1000A400008023A4E18498435D9B731007800100C2
:1000B400010037170040930670052300D704930608
:1000C40080FA2300D704010001008346B70493F6A5
:1000D400F60DA305D7042300070473260080944378
:1000E400A18AD18E7390068023A4018401000100AB
:1000F40093760502638406180347A700118B25E74E
:1001040073270080218B09CB7327008023A4E1840B
:1001140098435D9B7310078001000100371700406E
:10012400930670052300D704930680FA2300D704AE
:10013400010001008346A70093E646002305D7008B
:1001440023000704F32600809843218B558F7310F6
:10015400078023A40184010001001307004B010060
:1001640001007D176DFF73270080218B09CB732756
:10017400008023A4E18498435D9B731007800100F1
:10018400010037170040930670052300D704930637
:1001940080FA2300D704010001007D892314A700FD
:1001A400010001000100010023000704F326008080
:1001B4009843218B558F7310078023A40184010079
:1001C400010073270080218B09CB7327008023A4AF
:1001D400E18498435D9B7310078001000100371789
:1001E4000040930670052300D704930680FA230089
:1001F400D7040100010001000100B72600401306E6
:100204001005A383C68023000704F32600809843C7
:10021400218B558F7310078023A4018401000100F2
:1002240073270080218B09CB7327008023A4E184EA
:1002340098435D9B7310078001000100371700404D
:10024400930670052300D704930680FA2300D7048D
:10025400010001008346B70493E60608A305D7040A
:1002640023000704732700809C43A18BD98F7390CC
:10027400078023A401840100010082809376050491
:10028400638B06140347A700418B25E7732700807F
:10029400218B09CB7327008023A4E18498435D9BC1
:1002A40073100780010001003717004093067005A2
:1002B4002300D704930680FA2300D7040100010029
:1002C4008346A70093E606012305D700230007040D
:1002D400F32600809843218B558F7310078023A445
:1002E4000184010001001307007D010001007D1756
:1002F4006DFF73270080218B09CB7327008023A413
:10030400E18498435D9B7310078001000100371757
:100314000040930670052300D704930680FA230057
:10032400D704010001009376F50193E60604231433
:10033400D700010001000100010023000704F32697
:1003440000809843218B558F7310078023A4018468
:1003540001000100130760046310E50473270080A3
:10036400218B09CB7327008023A4E18498435D9BF0
:1003740073100780010001003717004093067005D1
:100384002300D704930680FA2300D7040100010058
:10039400B72600400946B5B573270080218B09CBE9
:1003A4007327008023A4E18498435D9B7310078026
:1003B4000100010037170040930670052300D7049D
:1003C400930680FA2300D70401000100B7260040F9
:1003D400130620053DB573270080218B09CB7327B5
:1003E400008023A4E18498435D9B7310078001007F
:1003F400010037170040930670052300D7049306C5
:1004040080FA2300D704010001008356870093E695
:10041400060C2314D700C5BB411181460146814512
:10042400114506C6492EF3270080A18B938681844B
:1004340089CBF327008023A4F1849C42DD9B739035
:10044400078001000100B7170040130770052380DF
:10045400E704130780FA2380E7040100010003C7BF
:100464006704136717002383E704238007047327B3
:1004740000809C42A18BD98F7390078023A40184B0
:1004840001000100B240410182808146014681455C
:1004940011451526F3270080A18B1387818489CB0E
:1004A400F327008023A4F1841C43DD9B7390078011
:1004B40001000100B7170040930670052380D7049C
:1004C400930680FA2380D70401000100FD56239689
:1004D400D70223800704F32600801C43A18BD58F09
:1004E4007390078023A4018401000100F327008096
:1004F400A18B89CBF327008023A4F1841C43DD9BCB
:100504007390078001000100B7170040930670053F
:100514002380D704930680FA2380D70401000100C6
:1005240083C6670493E616002383D7042380070455
:10053400F32600801C43A18BD58F7390078023A4DE
:1005440001840100010001A0BD473305F50201004B
:100554007D1575FD8280411122C426C206C6AA8477
:10056400014463179400B2402244924441018280C2
:1005740005041305803E4204C13F4180DDB7B7172F
:100584000040130700032388E702854723A8F1846A
:1005940073002030411106C6EF00807CF5BF373769
:1005A4000040834747409946BD8B6388D712314743
:1005B4006385E70011476390E714011122CE41647B
:1005C4004ACA4EC852C656C426CC5AC2373900400D
:1005D400974A0000938A8A92130A1003972900000D
:1005E4009389C9E4130404F081470347A94063EAEB
:1005F400E70E9747000083C76790639A47051785FE
:1006040002E01305A557977002E0E78000D3B71402
:10061400004083A7C40C03AB0900228593E70702BB
:1006240023A6F40CDA85973000E0E78020681305F0
:100634002003153783A7840CDA853705FF0093E779
:10064400070223A4F40C973000E0E78020661747E4
:1006540000000347A78A930720036319F70217854D
:1006640002E013056552977002E0E78000CD37176A
:1006740000408327C70C83A50900228593E707025E
:100684002326F70C973000E0E7804062174700000C
:100694000347C786930730036312F70237170040F6
:1006A4008327870C83A509003705FF0093E707021A
:1006B4002324F70C973000E0E780405F8347A9408C
:1006C40093F7F70F95F37244E2445249C249324A10
:1006D400A24A124B056173002030834757407300D0
:1006E4002030834689403387FA0085072300D700EA
:1006F40093F7F70FDDBD7300203023030480154703
:100704002303E48001002302A480828083076480A1
:10071400E3CE07FE23030480828083076480E3CE54
:1007240007FE03454480828083076480E3CE07FE8E
:100734002302A4808280411126C44AC24EC006C648
:100744001377F50BAD47AA892E8995446306F70004
:1007540019456537653F8D444E854537FD59FD1470
:1007640063983401B240A244124982494101828013
:10077400135509011375F50F453F2209CDB7011132
:1007840026CC06CEB704080051371545BD3771375E
:1007940069372AC6A53F32459377150089EB13655F
:1007A40015001375F50FF240E24405618280FD14D3
:1007B400E9FC0145CDBF397126DC4ADA4ED852D660
:1007C40056D45AD25ED006DE62CE66CCB7E700E0DD
:1007D4007D5783AA070022C603AA470023A0E7186F
:1007E40023A2E718B7170040130770052380E70416
:1007F400130780FA2380E70483C74704930B75FF2C
:10080400B684E20793FBFB0F8546AA892E8B3289B7
:1008140037240040E187015763FA76016308D50065
:100824008946130700026313D5000157D98F93F744
:10083400F70FB71C00402382FC0411472303E48014
:100844001305F00F5D3D094CD135636D7C11B7057F
:100854000700DA9537870700795563F2E504B38713
:100864009500636EF702370B0800A94733EB650167
:100874006399F90689E48144513D26850DA0DA8502
:100884000945553D05090345F9FFFD14050B693D6F
:1008940081C49377FB0FFDF7DD3569FD7D55B717EF
:1008A4000040130770052380E704130780FA2380B0
:1008B400E70403C74704418B2382E704F250B7E7F8
:1008C40000E023A0571123A24711E25432445259A5
:1008D400C259325AA25A125B825B724CE24C2161B9
:1008E4008280A5476395F90685691309F00FB3065D
:1008F4009900B3742B01B6941349F9FFB3749900AA
:10090400856B33796901416B9387F9FFB3F727014D
:1009140099E363FC340193D94900C147E3E637FF07
:1009240099BF0569C1697D19D9B71305800D63881D
:100934006901130500026384790113051008CA854F
:10094400DD3B353D21DD4E99B3843441D9B7DA8599
:100954002D45D533CA94E30099F205097D3BA30FD5
:10096400A9FED5BF9387F9FF93F7F70F6361FC0CDA
:1009740083C71C0413073008631FF70437070800F4
:10098400636BEB04B3079B00B706100063F5D70451
:10099400334BEB0089476393F9068980D549E38C8F
:1009A40004ECDA850945413B11090327C9FF914746
:1009B4002320E48003076480E34E07FE230334818D
:1009C400FD17EDFBFD14110B81C49377FB0FE9FFB9
:1009D4007D3371F5E1B5B717004003C75704B70776
:1009E40008001377070219E3B78707007955E378FE
:1009F400FBEA33079B00E3FFE7F855B58547E3823D
:100A0400F9F2DA852D45053B9389F4FFE38504E685
:100A1400293393F7390091EB8326048003270900D7
:100A240093074900E39AE6E43E89CE84F1BFB547D3
:100A34006396F9001305900BC93135BDB147130511
:100A4400B00AE38BF9FE99476391F904B7050800EE
:100A5400B365BB002D45C53181448D4BA149753922
:100A640063967401832704802320F9008504E398A6
:100A740034FF8327048013172B01635507002312C7
:100A8400F900D5BB2322F900FDB39D476399F90210
:100A940081451305B0044531BD44232009002322B8
:100AA4000900FD599D3993F77400CA9703C70700DD
:100AB400FD14398D2380A700E39634FF6DBBA14755
:100AC4006392F9046D398144630D0B008D479304DF
:100AD400C0036308FB009304000563048B019304C3
:100AE40040041375C507E30895D8194539313939D8
:100AF4000545213126850D3909453D314931E31C30
:100B040005D669BB91476399F90013056006F5366C
:100B1400F53E130590090DB7E38F09D4F154A9BB31
:100B240019CD91CD09CE81473387F500834607005F
:100B34003307F50085072300D700E317F6FE82800C
:100B440019C991C909CA910583A7C5FF11057D1665
:100B5400232EF5FEC5BF828001C919C62A96050554
:100B6400A30FB5FEE31DA6FE828081473307F5007F
:100B74000307070019E33E8582808507C5BF01117D
:100B84002E8626CAAA84131506019305F004418112
:100B940022CC06CE32C6EF00B0602A8401C53246AC
:100BA400A685BD3F2285F2406244D244056182801D
:100BB400854715C18DC105C28147B306F50033874A
:100BC400F50083C60600034707006398E60085071F
:100BD400E315F6FE85473E8582808147EDBF930786
:100BE400F6FFBE952A966313C5008280FD1583C760
:100BF40015000505A30FF5FEFDB7AA87014581CFB2
:100C040009CE3E96850703C7F7FF6317B700E39B3A
:100C1400C7FE0545828082800145828079719737BD
:100C240000009387E73A22D4804306D626D24AD0DE
:100C34004ECE52CC56CA5AC85EC679C0B7C4C90192
:100C4400014B97390000938929389384F437173A74
:100C54000000130A2A38973A0000938A2A32173977
:100C640000001309693B8357240095E35C44631D2A
:100C74000B0017370000232DF734832BC400228583
:100C8400EF00305F5E84B9A82326FB00FDB783A77D
:100C9400090082971C443307F5406376F500032767
:100CA40049001D8F2A9763E2E4089737000023AFB9
:100CB400072C8355240003450400973000E0E780A7
:100CC400004B5C405844A1CB0C4403264900AE972A
:100CD400BE8663E4B70063E4C700B386C74014C4A8
:100CE400228B3A8449F097370000938727299C4B3D
:100CF40009476372F706F917173700002328F72806
:100D0400B250225492540259F249624AD24A424B96
:100D1400B24B4561828063170B009737000023A90B
:100D2400E72AA1BF2326EB0089BF03274A0209CF84
:100D340063EFA7003385A74083A70A016376F50014
:100D44009737000023A4A724228B404461BF0327C4
:100D54004900BA97C5B79737000023A907224DB7B2
:100D6400411122C417340000130404241C4006C695
:100D740026C24AC091C782979737000023A607224C
:100D84009737000083C71743858B973400009384FB
:100D9400244295C397370000A38E074083C774008D
:100DA4001547637AF700E52B83C77400F5178A07A4
:100DB400A2979C4382971C4491C3829717390000E1
:100DC4001309C92003270900173600000346161B20
:100DD4009737000083C7871A93961700BA9683D66D
:100DE4000600D5CE9737000083C7471963E3C70CC5
:100DF40097370000238407181C40639D0712973718
:100E0400000083C7773B91CF83C7740093F7F70F34
:100E140089EB97370000A381073A977001E0E780D8
:100E2400603B973700009387271A9C43638407101D
:100E3400973700009387471EDC43173700002327AA
:100E4400F714E93B973700009387C718DC53FDC3B9
:100E54001737000013078712184B9737000083C712
:100E6400B7186369F70C83C7740015476364F70CFC
:100E74009737000083C78738918BCDEF032609008D
:100E84009736000083C6960F63CCD70A2244B2403B
:100E9400924402494101173300E067002378850733
:100EA40093F7F70F97360000238AF60CE3E2C7F2B4
:100EB40015BF86073E978355070023100700973711
:100EC400000023910710973700009387A70D9C43D8
:100ED400173500000345850A13172500BA979C436C
:100EE40082979737000083D7E70D17370000034731
:100EF400E70893C7F7FF7D8D9317170003270900B1
:100F04003E97835707005D8D2310A7009737000095
:100F140083C7C70691C78507173700002300F70664
:100F240017370000034787059737000083C7170565
:100F3400E370F7ECB24022449244024941018280BA
:100F4400139717003297035707006DF785072DBFD6
:100F5400AD6737C70040BD072326F7200F100000F8
:100F64009737000093878701C84F83278726BD667C
:100F7400BD0693C7F7FF99836A052326D7205D8DA5
:100F840082804111B7170040985F3AC6945F324798
:100F9400E39CE6FE3245410182801305F00F828016
:100FA400011122CC604126CA4AC84EC652C406CE9C
:100FB400AA841D4A130965058549BC446364F40089
:100FC4000545B9A003C7D40083474400631A470505
:100FD40003C784026304F7000040C5B70347540005
:100FE40083C75405E31AF7FE1946CA85130564003E
:100FF400C136E31335FF0347C40083C79402E31DDE
:10100400F7FC0357E40083D7A402E317F7FC014578
:10101400F2406244D2444249B249224A0561828084
:10102400E31CF7FA0347540083C75405E316F7FAA1
:101034001946CA8513056400A53EE31F35F9C1BFEF
:101044000111973700009387E72622CC03A4070CED
:1010540026CA06CE2AC42EC6854419E40145F240A8
:101064006244D2440561828083479100034714009F
:10107400858B6304F7000044CDB719469305A1009E
:10108400130524003536E31895FE0545C9BF173707
:1010940000001307E7101C439306001094C30100DB
:1010A4000100010001001C4323A007008346150032
:1010B40003482500A2064208C29603480500C296CA
:1010C400034835006208C29694D783465500034806
:1010D4006500A2064208C29603484500C29603482A
:1010E40075006208C296D4D7834695000348A500CC
:1010F400A2064208C29603488500C2960348B5007A
:101104006208C29694DB8346D5000348E500A20634
:101114004208C2960348C5000345F500C29662051D
:10112400AA96D4DB83C6150003C52500A206420592
:10113400AA9603C50500AA9603C535006205AA96BA
:1011440094CF83C6550003C56500A2064205AA963E
:1011540003C54500AA9603C575006205AA96D4CFB7
:1011640083C6950003C5A500A2064205AA9603C539
:101174008500AA9603C5B5006205AA9694D383C6D2
:10118400D50003C5E500A2064205AA9603C5C5001D
:1011940083C5F500AA96E205AE96D4D3D443F59A56
:1011A400D4C3D44393E61600D4C3944393E6160001
:1011B40094C3BA879443D842058B59E3984E0145AA
:1011C4002300E6009843184F2183A300E6009843C8
:1011D400184F41832301E6009843184F6183A3010C
:1011E400E6009C43D84F2302E600D84F2183A30294
:1011F400E600D84F41832303E600D84F6183A3035D
:10120400E60098532304E60098532183A304E600E0
:10121400985341832305E60098536183A305E600B0
:10122400D8532306E600D8532183A306E600D853F7
:1012340041832307E600DC53E183A307F6008280A1
:1012440001008DBF173700001307C7F51443411180
:1012540022C49C5E4AC006C6998326C2858B3A8402
:10126400173900001309C9F3D1CB9C5E97340000F1
:10127400938404F493F7F7F99CDE173700000347CF
:1012840087F393070008631BF700832709009C4337
:1012940093F7070417370000230FF7F083C7040000
:1012A40093F707049DC3973700009387E7D19C43C6
:1012B40082979737000023A5A7F083C7040093F70C
:1012C400F70B173700002305F7EE83C7440093F7A5
:1012D40007048DE7854717370000A30DF7EC973710
:1012E40000009387A7EE9C43096798C7130700FC87
:1012F400973600002380E6ECD844F8D31C40985F6E
:101304001183058B09CB985F3D9B98DF0547973682
:1013140000002381E6EA985F1D83058B11CB985F5B
:101324001377F7F798DF8547173700002304F7E8AA
:1013340083270900D8430583058B19C7D843759BB8
:10134400D8C3D843799BD8C3B240224492440249BB
:1013540041018280397106DE16DC1ADA1ED82AD6DB
:101364002ED432D236D03ACE3ECC42CA46C872C609
:1013740076C47AC27EC0F935F250E2525253C25357
:101384003255A255125682567247E2475248C24815
:10139400324EA24E124F824F216173002030973794
:1013A40000009387A7E2944397370000938747E0B0
:1013B40003C70700058B11CB97370000238C07DE8A
:1013C40097370000A38807DE828003C71700058BC8
:1013D40065F7F85271FF83C75700DDB7173800006F
:1013E400130848DC032708001C5F9583858BD1E72D
:1013F40009C61C5BBD832300F60085CA8327080049
:10140400985B4607935767016356070093E707C045
:10141400C207C18303970600C207C18709C7BA97E9
:101424000947B3C7E7022390F60085CD834715002B
:101434008DCB9736000083C606D893F6060413872F
:10144400970089478DCA3A95034705008546994711
:101454001376F7066311D60262076187B947634CB6
:101464000700832708009C5FED838D8B17370000EE
:10147400A305F7D481473E8582808547EDBF41119E
:1014840022C406C617340000130444D418403DE9AE
:10149400AE877453FDFE3E85B28597370000238ADC
:1014A40007D0977001E0E78060A697370000938724
:1014B40067CF9C43B70680009843558F98C3D8578D
:1014C400719BD8D797370000A38607CE97370000C3
:1014D400A38007CE1C40094798C314401737000067
:1014E400130707CD83472700858B89EB8347370094
:1014F400858BD9C797370000238E07CAB240224490
:10150400410182808D476310F5029737000093876D
:1015140067C99C43B70680009843558F98C3D85732
:10152400719BD8D75DBF8547E319F5FA5447F9771E
:10153400FD17F58F5CC70F1000001C40096798C7A2
:10154400130700F8173600002306E6C61737000015
:10155400130747C51043184231830D8B11E7130756
:101564006019F8D3D4C795BF1842094631830D8B4F
:101574006315C7001307E043EDB71307E01BD5B7A6
:10158400FC52ADF3A5BF5D71A2C4A6C22A841306A2
:1015940080022800AE849305100886C6CAC04EDEB9
:1015A40052DCEFF06FDB3545977001E0E78020D522
:1015B40017330000130303BF832703009376F41F3C
:1015C400173E0000130ECEC523A40700984B973E88
:1015D4000000938EAEBF370FFCFF1367F70398CB61
:1015E400F84F130510F8B7020400137707E0558F7E
:1015F400F8CF9843F576FD16758F98C39843B706D0
:101604003300930380251377F7E798C39843114970
:101614007D1F1377F7E71367071098C303270E009E
:101624008549930F80021C47D58F1CC783A70E00E2
:101634001307900D3400B8CB014793553700A69596
:1016440083C7050013767700B3D7C740858BE1C302
:101654008327030083280E00239C07042390070696
:1016640003A8C8021378D8FF23A6080383A8070099
:101674001378F70793F808F833E8080123A0070163
:1016840003A847023368580023A2070383A80E0067
:10169400014823A2780603DA07066307480303A870
:1016A4000703038A06001358F80062081358884198
:1016B40063580A0103A807031358F800238006019E
:1016C40003D807061378F80F03AA480663060A002E
:1016D40003DA8705E37F49FB03A847023378E8016F
:1016E40023A2070383870600635CF40003C8050094
:1016F4003396C9001346F6FF337606012380C500EE
:101704003E8663D3A7002A861315860161850507E3
:101714001377F70F8506E312F7F3B6402644964491
:101724000649F259625A61618280973600009386B5
:10173400E6A99C42D8471316170163550602984739
:1017440013161701635006027D57B8D717370000E8
:101754001307C782584F050717360000232EE68269
:10176400116798C798470D83058B1DC31737000071
:10177400034727A41367170017360000230BE6A2BC
:10178400130700F8173600002306E6A2214798C77E
:101794009847058B09CF17370000034777A11367D4
:1017A400170017360000A305E6A0054798C7984719
:1017B4000983058B09E798470583058B31CF984743
:1017C400173600001306C69E173500001305859DC5
:1017D4000983058B630307101841184331830D8B6C
:1017E40075EBAC4B184E93F5050203471700CDCDAE
:1017F40079EF13077006D8CF034706001367170065
:10180400173600002306E69A114798C718415C571B
:10181400F19B93E717005CD79C42984793163701D6
:1018240063D606029736000083C646B0C18A1737CE
:101834000000130727A8C5CE0347870713670702CD
:10184400973600002384E6AE056798C79847931639
:10185400270163D10602173700000347A7956207E3
:101864006187635707000547973600002384E69491
:10187400096798C798479316070163D606029736F7
:10188400000083C6B6AA858A17370000130787A20B
:10189400ADCE034797071367270097360000A38749
:1018A400E6A8216798C7828029D785456315B700C4
:1018B4001307B00689B789456315B7001307F00607
:1018C4001DBF8D456315B700130730072DB71307E8
:1018D400500715B71307600739BF0347360013676E
:1018E400170017360000A306E68C094739BF834664
:1018F40087070946BD8A6388C600034787078D4664
:101904003D8BE313D7F4114725BF83469707918A8C
:10191400C9DA034797071367870041B7397106DEB1
:1019240016DC1ADA1ED82AD62ED432D236D03ACEC3
:101934003ECC42CA46C872C676C47AC27EC0F5336B
:10194400F250E2525253C2533255A25512568256A5
:101954007247E2475248C248324EA24E124F824F5B
:1019640021617300203097370000938727869843BE
:101974008567938707777CD3973700009387478AD7
:101984009C4383A60709139656006358060083A652
:10199400070913966600634406007453FDF28280BF
:1019A40071C5AA870145E9C58D07C207C183F19BAB
:1019B400C207C18313074003636FF70217370000A0
:1019C4001307C78E0843173700001307A78D144366
:1019D4006398A602172700001307C75F185B014529
:1019E40041CB4111C20706C60545DD8D0297B240C1
:1019F400014541018280173700001307E78AD9B7F0
:101A04000357650035E303574500636FF704B306D6
:101A1400F7402146637CD60203280500938687009D
:101A24001D8FAA9661171726000003568655239228
:101A3400E60023A006012393060014C12312F50037
:101A4400130786FF97260000239DE6522313B50053
:101A54009725000083D5E552B387F540172700008A
:101A64002311F7522105828008419DB701458280E8
:101A740082800DC1973700009387478303A3070033
:101A8400973700009387078283A8070081469A87C7
:101A940063E31701828003A80700636DF50A636B93
:101AA400A80A13878700E367E5FE03D6670021676A
:101AB40005076317E60003C7C1910507238EE1906C
:101AC400972500009385854B03D6470003D765000F
:101AD40023930700329742074183172500002312FE
:101AE400E54A638A6702172500001305E57B084170
:101AF4006303F50203D5660019ED83D7460023A0DE
:101B0400060121073E9621062392C600972700006E
:101B14002399E746B6879843E30E17F79726000004
:101B2400938686789442E307D7F683566700BDF21E
:101B340083D64700035647001843A106B296239262
:101B4400D70098C383D76500A10717270000231A7D
:101B5400F7428280BE86C28725BF032785116302B0
:101B64000712411122C406C68347C5008345E50414
:101B74002A8493F7C70F2306F5008346970003567C
:101B8400C70013958601618563F2C508635B05068A
:101B94000345870093F6F607A304D700054693E6AA
:101BA40027006314C50093E617002306D4005C43A2
:101BB40089075CC3A30AB400032504112E864C4391
:101BC4000905EFE0FFF58327841103465401D4434C
:101BD40003D7C700B296118FD4C32396E700894771
:101BE400A30DF400034764039727000083C7A73FAE
:101BF4006378F7048347C40093E707012306F400DE
:101C040081A093E717002306F4006DB79376F60FCF
:101C1400635D050203458700854513E627006314C9
:101C2400B50013E617002306C400A30AD400A304D6
:101C340007008547A30DF400832784119C43DDF33B
:101C4400B240224401454101828093E717002306F4
:101C5400F400A30AD400A3040700032504114C4391
:101C64000905EFE0FFEB8327841103465401D443B5
:101C740003D7C700B296118FD4C32396E7008D47CC
:101C840055BF0545828097270000938767759C435D
:101C9400411122C406C6858B2A84C5EF416513050C
:101CA40025F5972002E0E78080CE45C58347A5004F
:101CB4002315F50083270412BDE72320A412232251
:101CC400A41285472311F4042320050083476401EB
:101CD40054412316F5000347D4002304E5000547C7
:101CE400A304E500172700001307874C184F13853A
:101CF400170215811C437D151375F50F9CC25C43B7
:101D0400DCC21C479CC65C47DCC61C4B9CCA5C4BB3
:101D1400DCCA1C4F9CCE5C4FDCCE19CD93860602E8
:101D240013070702C1BF8327441288C383572404BF
:101D34002322A412850779B79727000083D7075871
:101D4400850717270000231BF756B24022444101A0
:101D540082808347C40023090400054593C74700D4
:101D64002306F400DDB78347850193F7E70FD5EF2A
:101D740083479501DDEB034625018346C50009CA67
:101D840083456503172700000347F72563E7E5004C
:101D940013F7060141CF014709C6C18A0357651CE1
:101DA40081C68356A51C369751C31307C71217253E
:101DB40000000355E526B335A70237460F0041114D
:101DC40013060624814622C426C206C67D54330562
:101DD400A702975002E0E78000BB9727000083C763
:101DE400F720B384A700972700009387A74C03A785
:101DF40087098327070963F387003E84184375FB2B
:101E0400972700009387471C9C438297814763640C
:101E1400A400B307A440B2402244B3B7970093C7C9
:101E2400170092443E854101828081473E8582802D
:101E3400972700009387873998437C53FDFF82805E
:101E4400797126D206D622D44AD04ECE52CC56CA66
:101E54005AC85EC68347550303447513AA843E9447
:101E64001374F40F9307400263F687001304B4FD60
:101E74001374F40F03AA841383AAC413A38B8412C8
:101E840022865285D685975002E0E78040AA0589CC
:101E940015E503CBD41201498149337B6403930BC9
:101EA40050024A865285D685975002E0E78020A8E2
:101EB400058915C5639169031374F90F238B841283
:101EC400B250225492540259F249624AD24A424BC5
:101ED400B24B456182808509E20993D9894105099C
:101EE400E31179FDE1BF8327850903560504797160
:101EF40093D60701BD8EC206C182358E1357764034
:101F040093575640898B058B5D8F93573640918B41
:101F14005D8F93571640A18B5D8F93171600C18B6D
:101F24005D8F9317360093F707025D8F9317560062
:101F34009355860093F707041E065D8F1376F60FFC
:101F4400518F93D7554013D63540118A898BD18F41
:101F540013D67540D18F13D61540218AD18F13968D
:101F64001500418AD18F1396350013760602D18F5E
:101F740013965500137606049E05D18F93F5F50F3D
:101F8400CD8FA20745465D8F3307C70222D42A842A
:101F940026D252CC56CA032A8413832AC4135AC89D
:101FA40006D63697420741839357774013555740D7
:101FB4000989858BC98F135537401189C98F1355EA
:101FC40017402189C98F131517004189C98F13152B
:101FD400370013750502C98F1315570093558700F1
:101FE400137505041E07C98F1377F70FD98F13D5FF
:101FF400354013D755401189098B498F13D5754046
:10200400498F13D515402189498F139515004189AE
:10201400498F1395350013750502498F13955500A3
:10202400137505049E05498F93F5F50F4D8F22070F
:10203400D98FB387C7024AD04ECE5EC662C4B69764
:10204400C207C18313D7774013D557400989058B3D
:10205400498F13D537401189498F13D517402189EA
:10206400498F139517004189498F139537001375CC
:102074000502498F1395570093D5870013750504FE
:102084009E07498F93F7F70FD98F13D5354013D790
:1020940055401189098B498F13D57540498F13D544
:1020A40015402189498F139515004189498F13954E
:1020B400350013750502498F1395550013750504F2
:1020C4009E05498F93F5F50F4D8F2207D98FB3875E
:1020D400C702130650025285D685B697BD8E9394D7
:1020E4000601C18033F6C402137BF60F975002E059
:1020F400E780E08305890DED8347D41201498149C6
:10210400B3849702130C5002C1804A865285D68547
:10211400975002E0E780A0810589937BF90F11C5F0
:1021240063863403850993F9F90F0509E31F89FDD3
:10213400230B6413B250225492540259F249624A56
:10214400D24A424BB24B224C456182805E8BCDB762
:10215400797122D406D683C735002E842316010054
:10216400A307F10083C74500100802C02307F1004C
:1021740083C755008A8502C2A306F10002C402C8BF
:1021840002CA02CC02CEEFE09FF00347F10183477D
:10219400040001456310F7020347E101834714007B
:1021A40001456319F7000345D101834724001D8DC0
:1021B40013351500B25022544561828001119727CE
:1021C40000009387270F22CC03A4870C26CA4AC891
:1021D4004EC606CEAA8413092500854915C083C7B7
:1021E400140003473400858B6304F700405CFDB79B
:1021F4001946930544004A85EFE09F9BE31835FF99
:102204002285F2406244D2444249B2490561828047
:102214004111972700009387E70922C403A4870C80
:1022240026C24AC006C693042500054901E8228552
:10223400B24022449244024941018280A68513059A
:10224400A4023937E30525FF405CCDB74111972738
:1022540000009387270622C403A4870C26C24AC021
:1022640006C693042500054901E82285B2402244AC
:102274009244024941018280A6851305A401C93D07
:08228400E30525FF405CCDB726
:10228C00971100209381C195176100201301C1D6CD
:10229C001305400097E5FF1F938505D61706002010
:1022AC00130606FE63FAC5008322050023A0550021
:1022BC0011059105E3EAC5FE177502001305850E9D
:1022CC00970500209385C5FB1386818463FAC500AE
:1022DC008322050023A0550011059105E3EAC5FEF4
:1022EC001385818497250020938545106377B5006D
:1022FC00232005001105E36DB5FEFD42739002BC71
:10230C008D4273904280930280087390023097E262
:10231C00FF1F938262CE93E2320073905230971279
:10232C0000009382823273901234730020303D434C
:10233C002A876373C3029377F700BDEFADE59376FD
:10234C0006FF3D8ABA960CC34CC30CC74CC7410759
:10235C00E36BD7FE11E28280B306C3408A06970274
:10236C00000096966780A6002307B700A306B70067
:10237C002306B700A305B7002305B700A304B700D5
:10238C002304B700A303B7002303B700A302B700CD
:10239C002302B700A301B7002301B700A300B700C5
:1023AC002300B700828093F5F50F93968500D58DA9
:1023BC0093960501D58D61B793962700970200007F
:1023CC0096968682E78086FA9680C1171D8F3E9678
:1023DC00E374C3F8A5B7B717004003C777051377A5
:1023EC00E70FA38BE704130700F8A38DE7043D4721
:1023FC00238CE70413075003A38CE704828041115C
:10240C002A83014E930E407E130F0019930F400642
:10241C0063E66E149308001913034006B378150392
:10242C00854E0D4FA14F337365020D891335150081
:10243C0063E0BE161308F6FF7946729842081358EB
:10244C0008013307C70213D61700BE07329761463F
:10245C00B3F6C60213068070B386C6023697A16621
:10246C00F58F42075D8FB716004083C7F60293F7CE
:10247C000708A307F1000346F10083C7F60293F7A0
:10248C000708E394C7FE8347F100B716004093F7A3
:10249C00F70F63890714F3270080A18B938681843F
:1024AC006398071401000100B7170040130670056C
:1024BC002380C704130680FA2380C704010001009F
:1024CC0023AA070303C6170313660608A388C702CB
:1024DC0023800704732600809C42A18BD18F7390BC
:1024EC00078023A40184010001001166B715004088
:1024FC007D16DC59C85DA98FF18FE5FFF3270080AD
:10250C00A18B89CBF327008023A4F1849C42DD9B13
:10251C007390078001000100B71700401306700587
:10252C002380C704130680FA2380C704010001002E
:10253C00D8DB03C7170313670704A388E7022380BC
:10254C000704732700809C42A18BD98F739007805E
:10255C0023A4018401000100410182807D133368B2
:10256C00E3039308E016630E08003368F303930843
:10257C00D016630808009378330093B8180093883A
:10258C00D81633081E01131E0801135E0E0149B53F
:10259C006393E50305486386080001486303030061
:1025AC002A8871087298FD15131E0801C205135E66
:1025BC000E01C181B5BD13F8150063F4BF00790895
:1025CC00D5B713381800E5BF83C7F60293F7070891
:1025DC00A307F1000346F10083C7F60293F707083F
:1025EC00E394C7FE8347F10093F7F70FF1DF65B56E
:1025FC00F327008023A4F1849C42DD9B7390078019
:10260C0055B5914763EEB70217670200130747F2FF
:10261C008A05BA959C41BA978287B717004003A7E1
:10262C00470B1345F5FF698F23AAE70A03A7070B8E
:10263C00698F23A8E70A03A7070A798D23A0A70AA5
:10264C008280B717004083A6470B1347F5FFF98E1E
:10265C0023AAD70A83A6070B558D23A8A70A83A6FE
:10266C00070A758F23A0E70A8280B717004003A7DB
:10267C00470B498F23AAE70A03A7070B1345F5FF5E
:10268C0045BFB717004083A6470B1347F5FF758F5F
:10269C0023AAE70A03A7070A598D4DB7B7170040BD
:1026AC0003A7470B498FEDB7914763EEB702176746
:1026BC000200130727E98A05BA959C41BA978287CD
:1026CC00B717004003A7470D1345F5FF698F23AAE1
:1026DC00E70C03A7070D698F23A8E70C03A7070CCA
:1026EC00798D23A0A70C8280B717004083A6470DD5
:1026FC001347F5FFF98E23AAD70C83A6070D558D2A
:10270C0023A8A70C83A6070C758F23A0E70C828047
:10271C00B717004003A7470D498F23AAE70C03A75F
:10272C00070D1345F5FF45BFB717004083A6470DAE
:10273C001347F5FF758F23AAE70C03A7070C598DD8
:10274C004DB7B717004003A7470D498FEDB7935707
:10275C00E50093F70730C98FC2070547C183638231
:10276C00E5048DC10947638DE5040D476380E506DB
:10277C0037170040231FF70883562709D58F2319D5
:10278C00F7088280371700400356670993C6F7FF96
:10279C00F18E231BD7088326C70C558D2326A70C37
:1027AC00C1BF371700400356670993C6F7FFF18E78
:1027BC00231BD7088326870C558D2324A70C4DBFCC
:1027CC003717004083566709DD8EE1B73717004095
:1027DC0083566709DD8EE9BFB74700401147A381D7
:1027EC00E70009472380E700130700062380E70072
:1027FC0003C7170013670701A380E70003C717007F
:10280C001377E70FA380E7008280894737470040A2
:10281C00631DF5008347170093E70704A300F70037
:10282C00B7470040A381A70082808347170093F726
:10283C00F70BEDB7B747004003C707001377F70E48
:10284C002380E700131705012E9541834205239C35
:10285C00E7004181239EA7002396B70025472383D9
:10286C00E70003C7170013671700A380E70003C72F
:10287C006700058B6DDF03C717001377E70FA38085
:10288C00E7008280B717004003D5870042054181DD
:10289C009377050491EB9377F5013755E801130510
:1028AC0005803345F50282809377050C13070004ED
:1028BC006397E7009377F50137459C1CCDB72165ED
:1028CC00130505D08280B7F700E08847CC4782809B
:1028DC00814737370040A14663C4C70032858280E8
:1028EC000345B740E38EA6FE3385F500034505008E
:1028FC0085072304A740CDB797070020938747AEE1
:10290C009C4317270020130767AE3E95636EE500C6
:10291C00175700201307474E6368A70017070020BE
:10292C002320A7AC3E858280FD57EDBF411122C408
:10293C0006C62A84813F2947B307E502B2408D833E
:10294C00B3D7870222449507B3D7E7023737004045
:10295C00C207C1832316F740410182807165411182
:10296C001305052006C6D937B7370040130770F892
:10297C002381E7400D47A381E74013070004A380A0
:10298C00E74005472387E740B24041018280373753
:10299C000040834727401A0593F7F703C98F93F735
:1029AC00F70F2301F7408280B737004003C7174069
:1029BC0019C9D98DA380B74003C707401367870097
:1029CC002380E740828093C5F5FFF98DA380B74043
:1029DC008280411193962500AA852D4506C697E065
:1029EC00FF1FE780C0DCB2400145410182804111EC
:1029FC0026C29394250022C44AC02A843289A68612
:102A0C00AA850146254506C697E0FF1FE78020DA18
:102A1C00A6864A86A285294597E0FF1FE78020D924
:102A2C00B240224492440249014541018280011185
:102A3C0022CC06CE3714004026CA4AC84EC652C411
:102A4C0083447405034AB4058349840503499405FA
:102A5C0059328347A40593F4F40F137AFA0F93E7D2
:102A6C001700230DF40493F9F90F1379F90FB71725
:102A7C00004003C7A705058B6DFF03D5C705A38DC4
:102A8C004705238C3705A38C2705A38B9704F240AD
:102A9C006244D2444249B249224A056182804111C2
:102AAC009397050122C406C6C1872E8463DD0700F7
:102ABC00EF10E03619C1EF10602F2165218DB24067
:102ACC0022444101828093F7150013C51500E5FBE4
:102ADC009397250163D20708EF505130B717004088
:102AEC0083C7E70293F7C70F93E71700732700809C
:102AFC00218B9386818409CB7327008023A4E184E6
:102B0C0098425D9B7310078001000100371700404D
:102B1C00130670052300C704130680FA2300C704AC
:102B2C00010001002307F70223000704732700802C
:102B3C009C42A18BD98F7390078023A40184010040
:102B4C00010037F60200130606E0896503C5C1844F
:102B5C00EF10E07809659DB7939715010145E3D017
:102B6C0007F6176502001305E5A4EF40027C130677
:102B7C000064916503C5C184EF10607611653DBF9B
:102B8C001D71494697650200938505A317650200E0
:102B9C001305052D86CE97E0FF1FE780E00001E9C5
:102BAC0017650200130585A2EF40227801A0B7F645
:102BBC0000E0795798CAFD57DCCA0567B7E700E013
:102BCC0023A0E7101306F00290C223A0E71801001F
:102BDC0001001306C0038145480897E0FF1FE780FA
:102BEC0020F7970700209387A7B03ECA8967938781
:102BFC000780231CF100A167938707E03ECEB7073F
:102C0C000105938707103ED0ED472312F10285474B
:102C1C002303F102970700009387E7DBBEC49707F5
:102C2C000000938707DDBEC6B7F5070097070000C5
:102C3C009387A7C935473EDA8146970700009387EB
:102C4C0047DF7000E10519452304E102A305E10209
:102C5C003EDE97E0FF1FE78080B558088147994614
:102C6C0070003E960346060085070507A30CC700B7
:102C7C00E398D7FED24791C70357810185676373E9
:102C8C00F70001A04808EF10503FAA8501C917654D
:102C9C0002001305E594EF40025501A0F6402561B2
:102CAC0082804111170500001305A5DF06C622C45A
:102CBC00EF10F0381384C1842300A40019280345B5
:102CCC0004002244B24013060032896541016F10A2
:102CDC000061411106C6F3270080A18B9386818485
:102CEC0089CBF327008023A4F1849C42DD9B739055
:102CFC00078001000100B7170040130770052380FF
:102D0C00E704130780FA2380E7040100010003C7DE
:102D1C00F70213677700A387E70223800704732762
:102D2C0000809C42A18BD98F7390078023A40184CF
:102D3C00010001001305407E81470147814605468D
:102D4C008545EFF0CFEBB240014541016F10906724
:102D5C00B305B040176502001305858A6F40A24881
:102D6C00011122CC2316C10032846C0003C61186DB
:102D7C0006CEEF600016A285176502001305458983
:102D8C00EF406246F24062448547238AF184056134
:102D9C008280011122CC36C606CE2E84EF1060281C
:102DAC00B24637460F00130606243376C50291CA85
:102DBC00B285176502001305E58632C6EF40A242C4
:102DCC00324622856244F240814505616FA0213A6A
:102DDC0081E9B285176502001305C5856F40A240D5
:102DEC008547639DF500176502001305E58509C647
:102DFC0017650200130545866F4022538947639877
:102E0C00F50017650200130525867DD682808D4757
:102E1C00E39EF5FE176502001305058671DEB2858B
:102E2C00176502001305858655BF03C701869307F6
:102E3C00100363F0E7068280931534008905194668
:102E4C00A6954A8597E0FF1FE78000D605ED05049F
:102E5C001374F40F83C70186E360F4FE8E078907B1
:102E6C003385F4001946CA8597E0FF1FE780C0CA76
:102E7C0083C7018613973700BA948507A380340162
:102E8C002380F186F2406244D2444249B249056142
:102E9C008280011122CC26CA4AC84EC606CEAE8903
:102EAC002A8901449384019875B7834725004947C3
:102EBC006366F71E175702001307076A8A07BA974B
:102ECC009C43411122C406C626C24AC0BA972A8422
:102EDC00828705041374F40F83C70186637DF400A5
:102EEC009315340089051946A6954A8597E0FF1F6E
:102EFC00E78080CB79DD83C7018663928704175501
:102F0C0002001305257BEF404242014685450D45E5
:102F1C0023800186EF90210F175502001305857849
:102F2C002244B2409244024941016F4002400144A4
:102F3C009384019817F9FF1F1309094B71BF17559B
:102F4C00020013056578EF40423E938701980E040A
:102F5C00930624003E9403461400BE968145014519
:102F6C00EF9001070566130606C89305002003C5FC
:102F7C001186EF10C036175502001305E5754DB7D5
:102F8C009305002003C51186EF108057834514006C
:102F9C00B9E58947A38FF1848357A4001306006415
:102FAC00A1452393F18003C511868547238AF184BB
:102FBC000564EF10C032130604C8C14503C5118661
:102FCC00EF10E031130604969305001003C511862B
:102FDC00EF10E030175502001305057191B7175526
:102FEC00020013056571EF4002201755020013050E
:102FFC00656BEF408233238001862244B2409244B9
:10300C000249014685450D4541016F80D17FA38F53
:10301C000184F9579305001003C511862393F180A1
:10302C00238F0184239C018423800186238A0184BD
:10303C00EF10004D83456400175502001305856D94
:10304C00EF40621A175502001305C565EF40E22DDB
:10305C006DB7175502001305A56DD9B517550200AC
:10306C001305056E75BD175502001305656EEF400F
:10307C00C22B83454400130554002244B2409244B1
:10308C00024941015DB3175502001305656DC5B7C3
:10309C00B2402244924402494101828082803971BB
:1030AC009397050126DA06DE22DC4AD84ED652D496
:1030BC00C187AE8463D8072A03C51186EF0030564A
:1030CC002A8415C5034705009307000B631EF70000
:1030DC0083C7F185094783454500930985006382C1
:1030EC00E7024E85EF6060382285EF00304C216599
:1030FC00258DF2506254D2544259B259225A216150
:10310C0082800D476381E50205476390E502034722
:10311C008500631AF7028345C50017550200130595
:10312C006565EF40420C238A0184034744009307F2
:10313C00F007631AF7008355840017550200130536
:10314C00E564EF40420A834744002D476382E7025F
:10315C0005476394E70203478400A9466319D70225
:10316C008345C4001755020013050563EF40A20701
:10317C00238A018483454400ADB74D476393E7022E
:10318C001755020013058563EF40221AD5B7C946BF
:10319C00631BD7048345C400175502001305C56093
:1031AC00F1B76D476391E7041755020013050562EB
:1031BC00EF4062030149175A0200130AAA618357B0
:1031CC00A4006366F9002945EF40E20565B75C444D
:1031DC005285CA9783C5070005094209EF40A20032
:1031EC0013590901E9BF03C7E18549D78546631720
:1031FC00D7081D47639CE7028357840085CB5C444A
:10320C00175502001305855D83C5170003C63700EB
:10321C0003C7070083C72700A2052206D98D5D8E40
:10322C00239EB184239DC184EF30F27B83474400FD
:10323C001D476393E70403471400E947E39CE7F257
:10324C0083D5C18585D98947238FF1848967938775
:10325C00272003D6A1852316F10083C61186930778
:10326C00A00203D561802314B1002315C1002307EC
:10327C00F100EF507043FDBD0547C9B78946631C8B
:10328C00D7082547639EE7028357840095CB5844A3
:10329C0093050004130600648347170003470700D7
:1032AC0003C51186A207D98F239CF184EF1020034C
:1032BC0083D581851755020013050555EF30B27281
:1032CC008347440025476396E70403471400E94706
:1032DC00E392E7EA8D47238FF1849387C18583D7E7
:1032EC00070003C611862C002314F1009387A185D7
:1032FC0083D7070003D561802315F10093072020A5
:10330C002316F100930790022307F100EF50D046EB
:10331C0095B5054775BF8D46E31ED7E425476390E9
:10332C00E7048357840085CF58449305000813069F
:10333C000064834717000347070003C51186A207E3
:10334C00D98F239BF184238A0184EF00507983D594
:10335C006185175502001305A54DEF30D268238FF8
:10336C00018409BD93F7150085C317F6FF1F1306DB
:10337C0026F197F5FF1F938565F103C51186EF8044
:10338C00913F13C51400B5B393F7052081CB41656C
:10339C007D15EFA0314013C50420A1BB93F7850028
:1033AC0095CB8967938727812314F100239C018493
:1033BC00239D0184239E0184854783C6118609467B
:1033CC002C0003D56180238FF184EF50305913C545
:1033DC00840005B393F7050191CF1307802581462F
:1033EC0013064006D14503D56180EFA0313A13C5D1
:1033FC00040101B393F705029DC3014789460946B1
:10340C00814503D56180EFA0313BAA851755020099
:10341C0013058545EF30325D13C50402D9B993F716
:10342C0005046385070C83C74185D9E317F7FF1F94
:10343C00034747FB83D7818503D5618051C3231490
:10344C00F1000147854781460546C9452315F10022
:10345C0023180100EF50503A835581002AC61755A6
:10346C0002001305A541EF301258B247B1C3130740
:10347C00A0052380E70003C611862C0003D56180CC
:10348C00EF5010300DE98547238AF18497F7FF1F21
:10349C0083C747F593B71700130600649305000420
:1034AC0003C5118617F7FF1F230EF7F2EF003063E9
:1034BC0013C504043DB9C9452800EF50107BCDBF9E
:1034CC0003C611862C002314F100EF50B02A6DF1C5
:1034DC008547238AF18497F7FF1F83C7A7F093B71B
:1034EC00170017F7FF1F230FF7EED9B793F705084F
:1034FC00B5CB83C74185B9EF9387618583D7070027
:10350C00014781462314F10009468947C94503D573
:10351C0061802315F10023180100EF50F02D835525
:10352C0081002AC61755020013050537EF30B24B40
:10353C00B2478DC3054423808700B24703C611866A
:10354C002C00A380070003D56180EF50702311E598
:10355C00238A818413C5040869BEC9452800EF502D
:10356C00D070CDBF93F705100145E38407B803D5A0
:10357C006180EFA071210566130606969305001075
:10358C0003C51186EF00B05513C504109DB601118B
:10359C00170500001305E5B006CE22CCEF10202A4B
:1035AC001384118685652300A4009385059609452F
:1035BC00EF30C00DD1451D45EF30400D9305400651
:1035CC002145EF30A00C930540063545EF30000C3B
:1035DC0089472304F1007000854791451305F0409D
:1035EC00A304F100A305F10002C623050100EF902E
:1035FC00B15E3000854513058040EF90F15D1306F8
:10360C009100854513059040EF90115D1306A100C4
:10361C0085451305A040EF90315C1306B10085453C
:10362C001305D040EF90515BEF601015034504007B
:10363C00EF60E040034504008545EF005032F24056
:10364C0062440561828041111305800406C622C4C0
:10365C003714004097D0FF1FE78020A38327840AEC
:10366C008D451305002093E707202324F40AEFE08F
:10367C005FF98327840A85451305001093E707102B
:10368C002324F40AEFE0FFF7EFF04FAD17550200DB
:10369C001305057DEF3072490123EFF06FCEEFF08B
:1036AC004FE0EFA0B111E5351755020013050520C9
:1036BC00EF30B247EF0040671755020013050520A5
:1036CC00EF30B246E1228D4513050002EFE0DFFD3D
:1036DC008327C40C93E707022326F40C97D0FF1F13
:1036EC00E780C0EA371700405C5FCA07C983231024
:1036FC00F5008357A703C207C1832311F500835735
:10370C008703C207C1832312F5008280835705000B
:10371C0083D605000357250003D62500958FB76681
:10372C002605938606C0B387D702118F9306007DBA
:10373C00035545003307D702BA9703D74500198DB7
:10374C0079473305E5021307803E3345E5023E9584
:10375C00828083552500411122C42A84175502000A
:10376C001305851606C6EF301228835544002244F3
:10377C00B240175502001305651641016F30B22691
:10378C00B717004083A7470C93868188904241115C
:10379C00A18B22C406C65D8E03C4F18015E213858D
:1037AC00C18789378547056623A4F18813060696D9
:1037BC009305000222852244B24041016F00303251
:1037CC009042368785466310D608B5CF9305000224
:1037DC002285EF00F0521385418729379385C187E5
:1037EC0013854187253723A4A186AA8713071003C5
:1037FC0003C5F18093050004635FF7021307B01251
:10380C006349F700894723A4F1881306003CC1459E
:10381C005DB71307B05D8545635FF7009305000244
:10382C00EF00104E9305002003C5F180EF0030131C
:10383C00914503C5F180EF009012B240224423A4BD
:10384C0001884101828010438946631AD60285EBB8
:10385C00C1452285EF00D04A1385C1866135938519
:10386C0041871385C1865D351307702583C7F180A9
:10387C0089456354A700930500403E856DBFA38224
:10388C0001861C431C438145228575B741111705E0
:10389C0000001305050906C6EF00707AAA85A387F8
:1038AC00A1801755020013052504EF30D21385456E
:1038BC002145EFE07FDF89452145EFE05FE989474E
:1038CC002387F180B240B7E700E03707040023A05C
:1038DC00E71023A401884101828083C7418613B776
:1038EC0017002382E186B716004017F7FF1F130756
:1038FC0027B399EB83A7860C0C433705FF0093E79E
:10390C00070223A4F60C59AE83A7C60C41650C43E1
:10391C0093E7070223A6F60C130505F0EDB741114A
:10392C0022C406C626C24AC093F715002E8485C34E
:10393C0017550200130505FDEF30321F793F134573
:10394C001400B2402244924402494101828093F710
:10395C002500A9CF175502001305C5FBEF30F21C4B
:10396C00B714004083A7C40C4165130505F093E719
:10397C00070223A6F40C97F7FF1F938767AA03A9E6
:10398C000700CA85212E1305200397D0FF1FE7805F
:10399C0000BC83A7840C3705FF00CA8593E7070298
:1039AC0023A4F40CE52C1345240061BF93F74500C8
:1039BC0091CB175502001305E5F6EF30121713459E
:1039CC00440041B793F70501B1C7B71700401387FF
:1039DC00818883A7470C104389466315D602A18BB7
:1039EC0099CB854503C5F180EF00607723A401884E
:1039FC0013450401B9B7175502001305A5F3EF30B1
:103A0C00D212EDB70C4317550200130525F6EF3013
:103A1C00827DF9BF93F70502A9CFB7170040138732
:103A2C00818883A7470C10438546631CD602A18B63
:103A3C0095E3914503C5F180EF00607289452145FE
:103A4C00EFE0FFD089472387F18023A40188134539
:103A5C000402C5BD17550200130585F4EF30F20CB6
:103A6C00EDB70C4317550200130505F7EF30A2779D
:103A7C00F9BF93F78500A1CB371700400355870397
:103A8C000356A7034C5F9387818811679443930770
:103A9C0017007D17F98DB337F50093C7170006068D
:103AAC00C2053E96C181175502001305E5F5EF30AE
:103ABC00827313060064A14503C5F180EF00300248
:103ACC0013458400BDBD93F7050491CB1755020037
:103ADC00130545F5EF307205134504049DB593F7B6
:103AEC00051091CB17550200130545F5EF30F20385
:103AFC0013450410B9B593F705208DCB175502006B
:103B0C00130585F5EF3072021385C1879931138542
:103B1C0041878131938781868C43175502001305A9
:103B2C0065FCEF30426C1345042021BD93F7054032
:103B3C000145E38807E0175502001305E5FBEF305C
:103B4C00C27E13450440F5BBB717004003D7E70905
:103B5C00218B29C303D7E709411122C613678700BC
:103B6C00239FE70883C7E1800944639E87008D4546
:103B7C002145EFE0DFBD8D472387F18011313244C1
:103B8C0041017300203089452145EFE05FBC23875C
:103B9C008180EDB7730020304111175502001305D9
:103BAC0025FA06C6EF30627895450545EFE0DFDF74
:103BBC00175502001305C5F9EF302277373700404F
:103BCC00834727402D4593E717002301F740EFE08B
:103BDC001FDC175502001305A5F8EF300275B24033
:103BEC00B7E700E03707000823A0E7104101828007
:103BFC00411126C2B28431463386C40222C42E84BB
:103C0C00814506C6EFE0AFF22A8E93053400814859
:103C1C00B14E13030008254F93970801C18363FA33
:103C2C009706B386D8031386D5FFF296B9A0834FB7
:103C3C0006001308F5FF335803413378F801038766
:103C4C000700631F0802136707F82380E700034887
:103C5C000600B35FA340038707003378F8016314B1
:103C6C000802136787002380E70009058507E31026
:103C7C00E5FD05069106630BB600B687054545BF05
:103C8C00136707FED9B71367E700F1BF85088D05E9
:103C9C0061B7B2402244924441018280011126CA8C
:103CAC00970400209384042661464AC84EC62E8988
:103CBC00AA898145268506CE22CCEFE04FE713D5A5
:103CCC0089001375F50FEF30E232CA85EF3022040C
:103CDC00EF30E22C138441892300A40013D5090191
:103CEC001375F50FEF300231CA85EF304202EF3019
:103CFC00022BA300A40013F5F90FEF30A22FCA85F5
:103D0C00EF30E200EF30A2292301A400A285268522
:103D1C000546F93D6244F2404249B2492685D244F7
:103D2C00B14505616FE01FB141118D45116506C6A6
:103D3C00EFE03F8D17550200130585F1EF30E25E81
:103D4C008D452165EFE0FF8B371700408327C70AAD
:103D5C00A166D58F2326F70AEFE01FA84D45EFE0AB
:103D6C00DFAA970700209387E7193E8561468145B6
:103D7C00EFE0EFDBE145EFE0FFAB97E7FF1F938749
:103D8C00676AB2408C431305B008410101BF23ACF4
:103D9C0005FE1C4191E7010001000CC18280BA872D
:103DAC0003A787FF6DFF23ACB7FE82801DC183463E
:103DBC00E5FF1307F00F9147639EE600411106C61D
:103DCC0097E0FF1FE78060CAB24081473E85410102
:103DDC00828095473E85828001E9014582800145BC
:103DEC00B24022444101828095654111938505D0F2
:103DFC0022C4C98D2A842105C2054205C181418195
:103E0C0006C697E0FF1FE78020B971D9FD57232024
:103E1C000500231285002303F5002105D1B71707F0
:103E2C0000201307A7141C43411122C426C24AC008
:103E3C0006C601440149BA8489E7A165D1251DC490
:103E4C0001A803C7E7FF631AA7020DCCA165012ED9
:103E5C009840832784FF6319E40217070020232767
:103E6C00F710FD57232C04FE230FF4FE2285B240DD
:103E7C002244924402494101828011E03E8983A789
:103E8C0087FF5DBF3E84E5BF232CF9FED9BFB1CDC2
:103E9C00411122C406C62A849707002083C7570DF8
:103EAC002E856375F400894763E8870001370D455B
:103EBC00B24022444101828083A785FF99E703C762
:103ECC00E5FF9307F00F6305F700CD351545CDB72A
:103EDC00238F85FE17050020130545094D3D2285CE
:103EEC002244B240A16541019DAC154582809707E3
:103EFC00002023AD07068280970700209387870C4C
:103F0C009C4399E33E85828003D727006316B70054
:103F1C0003C70700E308A7FEDC47E5B7C9C1797101
:103F2C0022D406D626D24AD04ECE01444147B3D72E
:103F3C008540858BA5C31205314722953305E502D3
:103F4C00970700209387070C03A907008544B394B7
:103F5C008400C204C180BE892A990327090011C7B5
:103F6C00032549002EC60297B24531473304E402BB
:103F7C0083A709003E941C4489E7232009002322CF
:103F8C000900B2502254A58D02599254F2492E8543
:103F9C00456182800504E31CE4F88144DDB72E857D
:103FAC00828041111397050122C406C626C24AC05D
:103FBC0041872E84635E07009D3511C1C53BA16707
:103FCC003D8C2285B24022449244024941018280B8
:103FDC00EDD9AA8701474146B356E440858A8DCE78
:103FEC009207BA97B146B387D702970600209386FB
:103FFC00660103A906008544B394E400C204C180A1
:10400C003E99832709000325490082972320090044
:10401C0023220900258C75B70507E31FC7FA8144D5
:10402C00D5BF97070020938727FA9C53411122C4D0
:10403C0006C61384018199C782971C403E9523A81C
:10404C00A18039A097070020938747F79C43EDF791
:10405C000840B74703009387D73F3305F502B7A74E
:10406C002600938737ECB24022443E9523A8A180CA
:10407C00410182807DC197070020938727F49C43E0
:10408C00797122D426D24AD04ECE52CC56CA5AC8B6
:10409C0006D65EC63A8AB689328BAE8A2A89829750
:1040AC0097070020938707F69843BE840144B146D6
:1040BC00C147B30BD40233067701104251EAC165F4
:1040CC00938505F0414597E0FF1FE780E08C1DE5E7
:1040DC0097070020938747EF9C5B2D4589C71145B7
:1040EC00814582972D45B250225492540259F2497F
:1040FC00624AD24A424BB24B4561828097070020FC
:10410C00938747EC984329E39707002023ACA7EA51
:10411C00230005009C400547331787002326050024
:10412C00232465012311E50023224501DE9723A0FA
:10413C00270123A2570123A447010145E38509FA6E
:10414C00238089004DB73E875C47F5FF48C7C9B748
:10415C000504E310F4F6214579B7094582809707E9
:10416C00002083C7F7E06371F502170700201307DF
:10417C0027E59317150008433E9583570500DD8D01
:10418C002310B500014582800D45828097070020E1
:10419C0083C717DE6373F50217070020130747E286
:1041AC0093171500084393C5F5FF3E9583570500FB
:1041BC00FD8D2310B500014582800D4582801307CB
:1041CC0005FF1377F70FFD4763E9E70AB146B3061E
:1041DC00D502970700209387E7E2984389473697E3
:1041EC00184349CF011122CC4EC6054493594500C2
:1041FC003D893315A40013140501418026CA4E8550
:10420C00AE84A2854AC806CEC5392A89814731CDEC
:10421C00A2854E85A53F97070020938727DA9C43FC
:10422C0082979707002083D7E7DE338797022A848B
:10423C00814613060064B3B7970213050732B335F2
:10424C00E500BE95EF202273B3078500970600208A
:10425C009386C6DB3E87D44263E4A70063E4D700B1
:10426C003387D7402324E9008147F2406244D2448B
:10427C004249B2493E850561828089473E858280EC
:10428C00011126CA06CE22CC4AC84EC6BD47894467
:10429C0063EFA70231473307E502970700209387A6
:1042AC0067D69C438944BA979C4395C30544331401
:1042BC00A400420441802E890145A2853539AA8982
:1042CC00814411C5A2850145D13523A42901F240B1
:1042DC00624426854249D244B249056182809707DF
:1042EC00002083C7F7C86364F50001458280011183
:1042FC0097070020938787CC56C283AA070006CE67
:10430C0022CC26CA4AC84EC652C4638D0A0A170A62
:10431C000020130AAACF83244A00B74736FE93879E
:10432C0007C8AE899705002083D5C5CEBE94B38748
:10433C00C5022A8432898146B3B5C502138507327A
:10434C00B337F50013060064BE95EF20C26263EB31
:10435C00A406829A9705002083D5C5CBB387250385
:10436C00AA84130600648146B3B52503138507326E
:10437C00B337F500BE95EF200260B3079500BE84FD
:10438C0003274A0063E4A70063E4E700B384E74033
:10439C00CE852285953601C504C505452DA09365AE
:1043AC0004F0C205C181414597D0FF1FE780C05E74
:1043BC0005E597070020938727C19C5B81C7A285E1
:1043CC00114582970145F2406244D2444249B249B8
:1043DC00224A924A0561828097070020938787BE04
:1043EC009C439DE39707002023AEA7BC854723265B
:1043FC00050004C52311350123008500A300F50039
:10440C002322050059BFBA87D84775FFC8C7F9BF23
:10441C0059C9797122D426D24AD04ECE52CC56CA22
:10442C005EC662C466C206D65AC83689328AAE895E
:10443C00AA844144314C970A0020938AAABC854C2B
:10444C00930B0003330B840303A70A005A971C43F6
:10445C00B1E79375F400B395BC0013554440C20505
:10446C005286C1811375F50F9D3D0DC983A70A00B6
:10447C000145DA9784C323A23701630409002300A2
:10448C008900B250225492540259F249624AD24ADB
:10449C00424BB24B224C924C456182800504E31393
:1044AC0074FB2145F9BF09458280411122C426C203
:1044BC004AC006C62A842E89B2841535CA8522853F
:1044CC00EFF09FA305CD9705002083D5A5B4B38746
:1044DC0095022A84130600648146B3B595021385B0
:1044EC000732B337F500BE95EF20E24848C00145CE
:1044FC00B240224492440249410182802145CDBF01
:10450C00411122C426C24AC006C62A892E84EFF065
:10451C00BF9EAA8419C123110500A2854A85BD310D
:10452C009707002083C7C7A4639B27019707002028
:10453C0083D787A85D8C97070020239F87A601450A
:10454C0091E01945B24022449244024941018280D3
:10455C009307F00263E8A7044111B14722C4330466
:10456C00F50226C2970400209384C4A99C4006C679
:10457C00A297984389470DC39377F5008545B3956A
:10458C00F500C205C1811181A53F9C40A29723A0D3
:10459C00070023A207008147B240224492443E8583
:1045AC004101828089473E858280411106C622C422
:1045BC00EFF09F9411E50145B24022444101828005
:1045CC00970700209387879F9C4300458297970706
:1045DC0000209387A7A36368A402D843B74636FE8E
:1045EC00938606C83305A4403697E376E5FC13079B
:1045FC000064B335E50203D6870081463305E50236
:10460C00EF20623755BFD8433A94C1BF411122C441
:10461C0026C2170400201304649F9704002093847F
:10462C00249594485840970700209387279906C6ED
:10463C009C436393E60882975440B74736FE9387B2
:10464C0007C8B6973387A7003A856364F70063649D
:10465C00D7003305D740970400209384A4B49C4C16
:10466C0081CF970700209387E7BA94433707CDFF94
:10467C007D179C46F98F9CC611E148409707002096
:10468C0093878794DC53829719E59C4C8DC3EF403C
:10469C00610BEF30E1609C4C99CB9707002093871E
:1046AC0067B79843B70633001C47D58F1CC7B24079
:1046BC0022449244410182808297984897070020B7
:1046CC0083C7D79154401D8FB307A7003E8563E481
:1046DC00E700E3E2D7F83385D740B5BF411106C6F2
:1046EC009707002023A2A7920295B24097070020BB
:1046FC0023ACA788014541018280994763E9B70043
:10470C008A059707002093876789BE9588C18280A8
:10471C00411171468145170500201305258806C6F1
:10472C009707002023A0078A9707002023AE078C49
:10473C009707002023A4078897C0FF1FE7804041FC
:10474C00130680028145170500201305658297C06A
:10475C00FF1FE780E03FEF9091119707002083C780
:10476C00178813D527008D8B3E958D473305F502A1
:10477C00854539051375F50F97F7FF1F238BA77E1A
:10478C0099473305F5021305052497D0FF1FE780E1
:10479C00A020170700202327A78659CD994717F685
:1047AC00FF1F0346067D3306F602814513060624D9
:1047BC0097C0FF1FE780C039970700209387878435
:1047CC009C439387072417F7FF1F2327F77C17F7C2
:1047DC00FF1F0347077A0A07BA9717F7FF1F232112
:1047EC00F77EEFF0CFF0052B97F7FF1F9387C77A73
:1047FC00944397F7FF1F83C7B77713972700369714
:10480C0017F6FFFF1306C67110C313871700137733
:10481C00F70F0A07369717F6FFFF1306C67810C373
:10482C0013873700890793F7F70F8A0797F5FF1F50
:10483C00A380E574B69790C3B2404101828097F78C
:10484C00FF1F83C7F77217F7FF1F0347877263F3C6
:10485C00E70217F7FF1F13072774184393861700F7
:10486C0017F6FF1FA306D67093962700369708C33A
:10487C003E8582809307F00FE5BF1C41638A0716C3
:10488C0041777D8FB706002089476314D7160357ED
:10489C00450063000716411122C419462A8493056A
:1048AC00F00F690506C697C0FF1FE78080340547E7
:1048BC008D47630AE5121C4481CB58589947630411
:1048CC000712185C630107121306C003814517F524
:1048DC00FF1F1305656F97C0FF1FE7806027130646
:1048EC00C003A28517F5FF1F1305056E97C0FF1FA8
:1048FC00E780802217F7FF1F0357C76D97F7FF1F3D
:10490C009387876C19E71307001097F6FF1F239303
:10491C00E66C17F7FF1F0347076C11E7054797F67F
:10492C00FF1F238AE66A17F7FF1F0357E76A11E791
:10493C006D4797F6FF1F2391E66A17F7FF1F034792
:10494C00976911E7154797F6FF1FA386E66817F7D7
:10495C00FF1F0347876811E7054797F6FF1F238E54
:10496C00E66617F7FF1F0347576719E703C7F700FA
:10497C0097F6FF1FA383E66617F7FF1F034707662B
:10498C0011E7354797F6FF1F238AE66417F7FF1FD9
:10499C000347176519E71307800297F6FF1FA381DA
:1049AC00E66417F7FF1F0347776319E71307D00275
:1049BC0097F6FF1FA384E6620347840119E71307E8
:1049CC00C00397F6FF1F238DE6609C5791C7829713
:1049DC0097F7FF1F2392A75AFD5717070020A30D27
:1049EC00F7883D338147B24022443E8541018280A5
:1049FC0089473E85828001114EC697F9FF1F938926
:104A0C00E96083A7090006CE22CC26CA4AC852C444
:104A1C00829713090064B335250303DA89008146B4
:104A2C00528633052503EF10127597F7FF1F9387F6
:104A3C002754804FAA840145630694023385844031
:104A4C00636E940003A5490052868146B335A902D2
:104A5C003305A902EF103272018D269597F7FF1FCF
:104A6C0023A49752F2406244D2444249B249224AAA
:104A7C0005618280011122CC0A852E84414697451E
:104A8C000200938525B206CEEF20826A1808060430
:104A9C003A94035504FF97F7FF1F83D7C757F2408B
:104AAC006244AA9737450F00130505243355F502C8
:104ABC000561828097F7FF1F83D7E75551471D4546
:104ACC00637CF702794719456378F70213072003D3
:104ADC0015456373F7021307B0041145637EF700A5
:104AEC00130740060D456379F70013076009094564
:104AFC006374F70013B5B70F8280011122CC06CE78
:104B0C002A842EC6EFF0EFD1B245F240818D33A549
:104B1C00A502229562441375F50F0561828001117F
:104B2C0022CC06CE2A842EC6EFF0AFCFB245F2408F
:104B3C00818D33A5A5022295624442054181056110
:104B4C008280011122CC06CE2A842EC6EFF06FCDC6
:104B5C00B245F240818D33B5A502229562440561C0
:104B6C00828097F7FF1F93872746985739CB4111BF
:104B7C0022C426C206C6BE84029717F7FF1F03572E
:104B8C00A73F2A8415CBBA876373A700AA87C207ED
:104B9C00C183BA866373E400A286C206C182958F74
:104BAC005147635BF700DC5491C38297EF301123BC
:104BBC0097F7FF1F2392873CB24022449244410155
:104BCC008280828097F7FF1F93870740DC57011183
:104BDC0006CEAA8581C72AC68297B245C1C59C411B
:104BEC000545B5CFDC41A5CF83D78500ADCB83D7A9
:104BFC00A500B5C783C7C500BDE3414617F5FF1F28
:104C0C001305C54097C0FF1FE78000F197F7FF1F02
:104C1C009387C73F9C4317F7FF1F2321F73A97F75A
:104C2C00FF1F83C7F73B8DE79307800217F5FF1F24
:104C3C000355453E3305F50237460F00130606248F
:104C4C0081468145EF10325397F7FF1FA38AA7388F
:104C5C0017050000130565DAEFF05FA80145F24077
:104C6C000561828097F7FF1F83C76737139787010A
:104C7C0061876354070497F7FF1F23A9073097C771
:104C8C00FF1F9387672C17F7FF1F2321F7387D57DA
:104C9C0097F7FF1F23AEE736B7873200938727A11C
:104CAC0097F6FF1F23A8F63697F7FF1F23860736C4
:104CBC00B7C7004023A4E72691BF13F7170005CF11
:104CCC00B7872003938707D017F7FF1F2324F734E8
:104CDC00B707C0A817F7FF1F232CF73297C7FF1F82
:104CEC009387A72917F7FF1F2322F73297F7FF1F88
:104CFC002384073221BF617797F6FF1F239CE63090
:104D0C0081CB9307003217F7FF1F2316F730C9B773
:104D1C0093072003CDBF011122CC17F4FF1F1304FE
:104D2C00A42A084406CE26CA4AC801E90545F24021
:104D3C006244D2444249056182805C58E5DB185CD0
:104D4C0075D77000854582971844B247E300F7FE8B
:104D5C009305E00417F5FF1F0355C52797D0FF1FD8
:104D6C00E78080C317F7FF1F2324A72261D117F612
:104D7C00FF1F035626269305F00F97C0FF1FE780F1
:104D8C0020DD814417F9FF1F1309891E97F7FF1FB8
:104D9C0083C767240326090263C1F402328597D0C6
:104DAC00FF1FE78080CC014597F7FF1F23A2071E4A
:104DBC0097F7FF1F23A0071E9DBF97F5FF1F83D5F5
:104DCC006521B38795020844185C898185043E955A
:104DDC0008C2029765BF011156C297FAFF1F938A4A
:104DEC00AA1E83A78A0022CC4AC84EC606CE26CA63
:104DFC0052C45AC0AA892E8432896385072203A71C
:104E0C004A03630707147D476366A71497F4FF1FD3
:104E1C009384041603AA040263170A0A9565938502
:104E2C0015E017F5FF1F0355E51A97D0FF1FE78014
:104E3C00A0B697F7FF1F23ADA7142A86630A0510A7
:104E4C0083A74A0303A58A0097F5FF1F83D585180E
:104E5C008981829783A78A0003AA040217F7FF1F90
:104E6C00232AF7128947639CF908C1476312F40E91
:104E7C0097F5FF1F83D50516938505FC9147B3C5A0
:104E8C00F5028A05D29503C705009307A005631D9B
:104E9C00F70A83C715006399370B4A85228691055B
:104EAC0097C0FF1FE78040C79C50528563934715FE
:104EBC000145F2406244D2444249B249224A924AE4
:104ECC00024B05618280D850E38EE7F89565938597
:104EDC0025E017F5FF1F0355E50F97D0FF1FE7805F
:104EEC00A0AB2A8A35C52A8683A74A0303A58A0064
:104EFC0097F5FF1F83D5050E89818297A5B78D473E
:104F0C00639DF900C1476315F40497F5FF1F83D522
:104F1C00650C938545FDF199B5B79147639AF900F6
:104F2C006318340397F5FF1F83D5C50AA115E5B7A0
:104F3C00C147639FF900A14763EC870097F5FF1FFA
:104F4C0083D54509C115C1BF9C5052856397470D48
:104F5C00294585B71307F006568B6361A70A130A18
:104F6C0005FE1947334AEA0217F7FF1F0357870656
:104F7C0097FAFF1F938ACAFF330AEA023E9A83A765
:104F8C004A026395470183A40A029DE49305E00459
:104F9C0017F5FF1F0355050497D0FF1FE780C09F2F
:104FAC00AA845DD583274B0397F5FF1F83D5850214
:104FBC002A8689815285829791451307A00589819C
:104FCC0093972500A69783C607006393E60483C6D0
:104FDC001700639C360385058A052286A6954A85AB
:104FEC0097C0FF1FE78040B383A70A02E38297ECC8
:104FFC00268597D0FF1FE78040A75DBD1307E0070C
:10500C00E368A7F4130A05F985B783D5270045BFD4
:10501C0083A70A02E38E97F2268597D0FF1FE780BD
:10502C00C0A43DB797F7FF1F938787F48C538DD19E
:10503C0091479306A0058983139727002E97034663
:10504C000700E317D6F003461700631C36018507EB
:10505C008A072286BE954A8597C0FF1FE780C0ABA2
:10506C0081BD83572700C1BF97F7FF1F9387C7F5F3
:10507C00984739C79C5FA9C705476313E5044111DD
:10508C0022C417F4FF1F1304A4EE105006C60DC65D
:10509C00485097F5FF1F83D5E5F389818297085017
:1050AC0097D0FF1FE780609C97F7FF1F23A207EEA6
:1050BC0097F7FF1F23A007EEB240224441018280E4
:1050CC008280011117F7FF1F130707F04EC68329C3
:1050DC00870022CC26CA4AC806CE52C456C2AA841D
:1050EC002E843289638A09201C5FBA8A99EB294580
:1050FC00F2406244D2444249B249224A924A056182
:10510C0082805C5BEDD7FD4763E9A70E97F9FF1F23
:10511C00938909E683A70902B1CB03A58A0083A76B
:10512C0049026395A70689476393F408C147E310C6
:10513C00F4FC17F5FF1F0355E5E99147130505FC32
:10514C003345F5029317250003A509022286CA856B
:10515C003E959307A0052300F500A30095001105CB
:10516C0097C0FF1FE780409B014559B79305E004AA
:10517C0017F5FF1F035505E697D0FF1FE780C08189
:10518C0097F7FF1F23A6A7E049F995B783A74A0312
:10519C0003A6090297F5FF1F83D5C5E38981829782
:1051AC0083A78A0017F7FF1F2326F7DEADBF8D47B5
:1051BC00639EF400C147E31CF4F217F5FF1F03557F
:1051CC0065E1130545FD9377C5FFBDBF9147639A14
:1051DC00F400E31E94F017F5FF1F0355A5DF21150E
:1051EC00DDB7C147E395F4F0A147E3E287F017F58B
:1051FC00FF1F035525DE4115F9B79307F00663EA47
:10520C00A706930705FE1947B3C7E70217F7FF1F59
:10521C00035747DC17FAFF1F130A8AD5B387E70237
:10522C00BE9983270A02A9CF83274A02639A3707BC
:10523C0003250A0291461308A005FD5593D72600B5
:10524C00C207C183139727002A9703460700631DE3
:10525C000607834817000356270063959806B30684
:10526C00D64063CF860485078A072286CA853E9579
:10527C00C5BD9307E007E3ECA7E6930705F979B7FB
:10528C009305E00417F5FF1F0355C5D497C0FF1F06
:10529C00E780807097F7FF1F23ACA7CE51F581BD37
:1052AC0083A74A0303260A0297F5FF1F83D585D2ED
:1052BC0089814E85829797F7FF1F23AD37CD8DBF20
:1052CC00A300B700B2869DBFB385860017F6FF1FFB
:1052DC00035646D09105130606FCE3FAC5E0130607
:1052EC0034001376C60F1106B29623000701A300F3
:1052FC0097002311D70085BF97F7FF1F938747C7E8
:10530C009453BE89A1C203A5090291461308A005B6
:10531C00FD5593D72600C207C183139727002A9700
:10532C00034607006316060583481700035627003B
:10533C0063989800B306D640E3D786F2A300B70073
:10534C00B286C1BF8357C70017F5FF1F0345A5C819
:10535C009305E0043305F5024205418197C0FF1F18
:10536C00E780806397F7FF1F23A4A7C249FD41B3D1
:10537C0017F6FF1F035606C697F5FF1F83C5A5C575
:10538C00B385C502338686001106E3E2C5D681BF1C
:10539C0001458280011106CE2EC6EF80B03601C9C0
:1053AC00B245F2400355250005616FC09074F24080
:1053BC00494505618280A380018C2380018C23A444
:1053CC00018A23A6018A23A8018A23AA018A23A27F
:1053DC00018A23A0018A97F7FF1F938727C693069C
:1053EC0040382391D702F1761307400B938606B809
:1053FC002391E7002392D70211679D4613060005FF
:10540C009305000A1305007D2392E7002393D7022E
:10541C0041478546130810F82395E7002396E700CB
:10542C002399E700239AE700239BE700239CE700DE
:10543C002394E702239007002393B7002394B7002B
:10544C002397C7002398C700239DA700239E07001E
:10545C00239F0700239007022395D7022396070367
:10546C00239707029308F007239807022392E70477
:10547C002393E704239FE7042390E7062391E70691
:10548C002392E706239917031307C01C239AD7020C
:10549C00239BD702239C0702239D0702239E07020E
:1054AC00239F0702239007042391D7042394070416
:1054BC00239507042396D7042397C7042398C7047E
:1054CC002399A704239A0704239B0704239C07040E
:1054DC00239DC704239EC7042393A7062394070682
:1054EC0023950706239607062397B7062398B70636
:1054FC0023990706239AE7065147239DE7067D5714
:10550C00239B0706239C0706239ED706239F07068B
:10551C002390070823910708239207092393E70890
:10552C008280011126CAAA84214522CC06CE2E8463
:10553C0032C636C43AC2EFE03F8A1DC9A2461247B2
:10554C003246930700FD2300F5009947A300950010
:10555C002301F5002303D500A303E5002312C500A6
:10556C00AA8522856244F240D24405616FE03F92E5
:10557C00F2406244D2440561828023A4A18A8280D5
:10558C0023A6A18A828023A8A18A828023AAA18A29
:10559C008280011122CC4AC806CE26CA2A8901442F
:1055AC00B30489006368B400F2406244D2444249B7
:1055BC00056182802EC6EFE0DFA693170501C1833B
:1055CC00A183B2452380F4009307140093F7F70FDF
:1055DC00850463F9B700CA9709042380A7001374E4
:1055EC00F40F7DBF3E847DBFC16717F5FF1F0355C8
:1055FC0045A3FD176304F502411117F6FF1F03467F
:10560C00E6B79385818B06C6EF80C06DB240FD571F
:10561C0017F7FF1F2317F7A041018280828009C969
:10562C0025151375F50F1335850E1345150082805E
:10563C000145828023900500C9C6797122D426D2F7
:10564C004ECE52CC5AC806D64AD056CA5EC63684FE
:10565C00328AAE892A8B814463F34407B3079400E2
:10566C0083C70700138914004209939A070193DA40
:10567C000A011359090163840A04CA976341FA04A5
:10568C00B307240183CB07005E85513F0DC9938777
:10569C00FAFF2390F90063906B0313051900229510
:1056AC00B250225492540259F249624AD24A424BA5
:1056BC00B24B45618280D694C204C18071BF014552
:1056CC00C5B701458280411126C2AE8422C497F72A
:1056DC00FF1F23AFC79497F7FF1F23A9B79497F722
:1056EC00FF1F23A3A7942A8441469305F00F268518
:1056FC004AC006C6054997B0FF1FE780804F63106C
:10570C00250597F7FF1F93876791884BC145513546
:10571C0041469305F00F228597B0FF1FE780604D3F
:10572C00854463189502224497F7FF1F9387078FD0
:10573C00B24092440249C847C145410199BD414616
:10574C008145268597B0FF1FE780A04AE31225FD0F
:10575C004DBF41468145228597B0FF1FE7806049C8
:10576C00E30395FCB24022449244024941018280F9
:10577C00411122C426C22E84AA841306000281453C
:10578C0017F5FF1F1305858906C697B0FF1FE78025
:10579C00203C97F7FF1FA384978897F7FF1F23815F
:1057AC00879EEFC05037854719C181474945B240A4
:1057BC00224417F7FF1F2303F7869244410182808E
:1057CC00814781CD19C98547631BF50083C75500F7
:1057DC0093E707FCA382F50085473E8582808947C5
:1057EC006317F50083C7550093F7F703E5B70D472B
:1057FC008547E314E5FE03C755001377F7031367DA
:10580C000704A382E500D1BF81478DC105C103C741
:10581C0055009306000C85471377070C6308D700D7
:10582C00930600048D476303D70089473E85828029
:10583C00411122C4005D06C626C21DC8AA840850A8
:10584C0009C597C0FF1FE7804022485009C597C083
:10585C00FF1FE7808021085409C597C0FF1FE78010
:10586C00C020228597C0FF1FE780202023AC0402B4
:10587C00B240224492444101828009ED97E7FF1F18
:10588C0083C7E77917E5FF1F1305C57A81CB13850D
:10589C008189828017E5FF1F1305C579828017E582
:1058AC00FF1F0345C577828097E7FF1F9387077714
:1058BC00C847828097E7FF1F93874776884B828083
:1058CC0097E7FF1F93878775DC4B8843828097E7A8
:1058DC00FF1F9387A774D84B1C4385071CC317E580
:1058EC00FF1F0345D5739307F00F6305F500916512
:1058FC006FE0FF868280011122CC06CE2E8432C648
:10590C00EF8000719147B245631FF5009387418B7F
:10591C009C438DC303A30700630E030022856244DE
:10592C00F240056102839387C18A9C4381C703A31C
:10593C004700DDB7F24062440545056182800111E4
:10594C0022CC2A840355450006CE26CA4AC84EC628
:10595C00EF80204A35C52A89834405008349C50058
:10596C00C13D4A85EF80F02503554400EF808065EA
:10597C0083C7018CB1CB6399970483C5118C2685A1
:10598C00EFF05FA119E12380018C03554400EF80F7
:10599C0020689147631FF5000357440097E7FF1FEA
:1059AC0083D727686317F700FD5717E7FF1F231AE4
:1059BC00F766F2406244D2444249B24905618280A2
:1059CC0081499304F00F6DB79307F00FE38FF4FA4E
:1059DC008346640003564400034524004E87A68585
:1059EC00EFF03FB45DB779715EC6AA8B2E8552CCB1
:1059FC0056CA5AC806D622D426D24AD04ECEAE8A21
:105A0C00328B368AEF80E03E7DC1045D2A89E5C089
:105A1C009C50614599C3130540039C5481C75105A3
:105A2C004205418163050A00710542054181DC5044
:105A3C0081C75D0542054181EFE00FBA2A8445C953
:105A4C006146814597B0FF1FE780801097E9FF1FE3
:105A5C0083C9C9616394090083490900930700FD58
:105A6C002300F400A947A30074012301F4002303CD
:105A7C0064018C50231254011305840191C908C48C
:105A8C007146930A440397B0FF1FE780E0085685E0
:105A9C008C5491C948C45146930A450197B0FF1FD5
:105AAC00E78080075685630C0A0008C87146D285CA
:105ABC00930AC50197B0FF1FE78000065685CC50AE
:105ACC0099C548C85D4697B0FF1FE780E004A285E2
