:040000006F20002944
:100004000000000000000000900000208A0400208E
:10001400A9BDF9F3900000200000000000000000DA
:10002400900000209000002000000000000000006C
:10003400900000200000000090000020000000005C
:100044009000002090000020EC4800009000002068
:1000540090000020900000209000002090000020DC
:100064009000002090000020900000209E050020B9
:100074007E050020900000209000002090000020C9
:1000840090000020900000209000002090000020AC
:1000940001A073270080218B9387018509CB7327E7
:1000A400008023A8E18498435D9B731007800F10A0
:1000B400000037170040930670052300D704930609
:1000C40080FA2300D7040F1000008346B70493F688
:1000D400F60DA305D7042300070473260080944378
:1000E400A18AD18E7390068023A801840F1000008A
:1000F40093760502638406180347A700118B25E74E
:1001040073270080218B09CB7327008023A8E18407
:1001140098435D9B731007800F1000003717004051
:10012400930670052300D704930680FA2300D704AE
:100134000F1000008346A70093E646002305D7006E
:1001440023000704F32600809843218B558F7310F6
:10015400078023A801840F1000001307004B01003F
:1001640001007D176DFF73270080218B09CB732756
:10017400008023A8E18498435D9B731007800F10CF
:10018400000037170040930670052300D704930638
:1001940080FA2300D7040F1000007D892314A700E0
:1001A400010001000100010023000704F326008080
:1001B4009843218B558F7310078023A801840F1057
:1001C400000073270080218B09CB7327008023A8AC
:1001D400E18498435D9B731007800F10000037176C
:1001E4000040930670052300D704930680FA230089
:1001F400D7040F1000000F100000B72600401306AC
:100204001005A383C68023000704F32600809843C7
:10021400218B558F7310078023A801840F100000D1
:1002240073270080218B09CB7327008023A8E184E6
:1002340098435D9B731007800F1000003717004030
:10024400930670052300D704930680FA2300D7048D
:100254000F1000008346B70493E60608A305D704ED
:1002640023000704732700809C43A18BD98F7390CC
:10027400078023A801840F10000082809376050470
:10028400638B06140347A700418B25E7732700807F
:10029400218B09CB7327008023A8E18498435D9BBD
:1002A400731007800F100000371700409306700585
:1002B4002300D704930680FA2300D7040F1000000C
:1002C4008346A70093E606012305D700230007040D
:1002D400F32600809843218B558F7310078023A841
:1002E40001840F1000001307007D010001007D1739
:1002F4006DFF73270080218B09CB7327008023A80F
:10030400E18498435D9B731007800F10000037173A
:100314000040930670052300D704930680FA230057
:10032400D7040F1000009376F50193E60604231416
:10033400D700010001000100010023000704F32697
:1003440000809843218B558F7310078023A8018464
:100354000F100000130760046310E5047327008086
:10036400218B09CB7327008023A8E18498435D9BEC
:10037400731007800F1000003717004093067005B4
:100384002300D704930680FA2300D7040F1000003B
:10039400B72600400946B5B573270080218B09CBE9
:1003A4007327008023A8E18498435D9B7310078022
:1003B4000F10000037170040930670052300D70480
:1003C400930680FA2300D7040F100000B7260040DC
:1003D400130620053DB573270080218B09CB7327B5
:1003E400008023A8E18498435D9B731007800F105D
:1003F400000037170040930670052300D7049306C6
:1004040080FA2300D7040F1000008356870093E678
:10041400060C2314D700C5BB411181460146814512
:10042400114506C62121F3270080A18B93860185FF
:1004340089CBF327008023A8F1849C42DD9B739031
:1004440007800F100000B7170040130770052380C2
:10045400E704130780FA2380E7040F10000003C7A2
:100464006704136717002383E704238007047327B3
:1004740000809C42A18BD98F7390078023A80184AC
:100484000F100000B240410182808146014681453F
:100494001145692EF3270080A18B1387018589CB31
:1004A400F327008023A8F1841C43DD9B739007800D
:1004B4000F100000B7170040930670052380D7047F
:1004C400930680FA2380D7040F100000FD5623966C
:1004D400D70223800704F32600801C43A18BD58F09
:1004E4007390078023A801840F100000F327008075
:1004F400A18B89CBF327008023A8F1841C43DD9BC7
:10050400739007800F100000B71700409306700522
:100514002380D704930680FA2380D7040F100000A9
:1005240083C6670493E616002383D7042380070455
:10053400F32600801C43A18BD58F7390078023A8DA
:1005440001840F10000001A0BD473305F50201002E
:100554007D1575FD8280411122C426C206C6AA8477
:10056400014463179400B2402244924441018280C2
:1005740005041305803E4204C13F4180DDB7B7172F
:100584000040130700032388E702854723ACF18466
:1005940073002030411106C6EF00F002F5BF373773
:1005A4000040834747409946BD8B638FD71431473A
:1005B4006385E7001147639BE71A011122CE26CC1D
:1005C4004ACA4EC852C656C4373400409749000040
:1005D400938949A19304100317AA02E0130A8AC756
:1005E4001309200397AA02E0938ACAC781470347E5
:1005F400A44063EFE7109747000083C7A79E639B5F
:1006040097005285977002E0E780A055974000E07C
:10061400E78080169747000083C7C79C639B270128
:100624005685977002E0E780C053974000E0E7806A
:10063400801A174700000347E79A93073003631EA5
:10064400F70017A502E01305E5C2977002E0E78002
:100654004051974000E0E780E01D17470000034742
:10066400679893074003631EF70017A502E013057C
:10067400A5C1977002E0E780C04E974000E0E78094
:100684004021174700000347E79593075003631E73
:10069400F70017A502E01305A5C0977002E0E780F4
:1006A400404C974000E0E780A0B61747000003479E
:1006B4006793930780036319F700854503C5C180D9
:1006C400975000E0E78060819747000083C78791D7
:1006D400130790036398E704B71700409306700567
:1006E4002380D704130780FA2380E7040946238371
:1006F400C7042380D7042380E70403C76704136770
:1007040017002383E70401A0834757407300203078
:10071400834684403387F90085072300D70093F785
:10072400F70FF1B51307A0036393E70217A502E0DF
:10073400130505B8977002E0E780A04229469305A7
:10074400004003C5D186975000E0E78000908347BE
:10075400A44093F7F70FE39B07E87244E24452493D
:10076400C249324AA24A0561730020307300203026
:100774002303048015472303E48001002302A4809B
:10078400828083076480E3CE07FE23030480828093
:1007940083076480E3CE07FE034544808280830799
:1007A4006480E3CE07FE2302A4808280411126C424
:1007B4004AC24EC006C61377F50BAD47AA892E89E7
:1007C40095446306F70019456537653F8D444E85AA
:1007D4004537FD59FD1463983401B240A2441249CF
:1007E400824941018280135509011375F50F453F74
:1007F4002209CDB7011126CC06CEB7040800513723
:100804001545BD37713769372AC6A53F32459377F9
:10081400150089EB136515001375F50FF240E244DA
:1008240005618280FD14E9FC0145CDBF397126DCE8
:100834004ADA4ED852D656D45AD25ED006DE62CEAA
:1008440066CCB7E700E07D5783AA070022C603AA57
:10085400470023A0E71823A2E718B717004013079F
:1008640070052380E704130780FA2380E70483C715
:100874004704930B75FFB684E20793FBFB0F854691
:10088400AA892E8B328937240040E187015763FA05
:1008940076016308D5008946130700026313D50067
:1008A4000157D98F93F7F70FB71C00402382FC043C
:1008B40011472303E4801305F00F5D3D094CD13546
:1008C400636D7C11B7050700DA9537870700795502
:1008D40063F2E504B3879500636EF702370B0800F3
:1008E400A94733EB65016399F90689E48144513DD5
:1008F40026850DA0DA850945553D05090345F9FF0F
:10090400FD14050B693D81C49377FB0FFDF7DD35BD
:1009140069FD7D55B7170040130770052380E70470
:10092400130780FA2380E70403C74704418B23821B
:10093400E704F250B7E700E023A0571123A24711C0
:10094400E25432445259C259325AA25A125B825B5F
:10095400724CE24C21618280A5476395F906856952
:100964001309F00FB3069900B3742B01B69413491D
:10097400F9FFB3749900856B33796901416B9387EF
:10098400F9FFB3F7270199E363FC340193D94900D4
:10099400C147E3E637FF99BF0569C1697D19D9B736
:1009A4001305800D638869011305000263847901CE
:1009B40013051008CA85DD3B353D21DD4E99B3840E
:1009C4003441D9B7DA852D45D533CA94E30099F279
:1009D40005097D3BA30FA9FED5BF9387F9FF93F7C4
:1009E400F70F6361FC0C83C71C0413073008631FF3
:1009F400F70437070800636BEB04B3079B00B706E3
:100A0400100063F5D704334BEB0089476393F90671
:100A14008980D549E38C04ECDA850945413B110909
:100A24000327C9FF91472320E48003076480E34E32
:100A340007FE23033481FD17EDFBFD14110B81C464
:100A44009377FB0FE9FF7D3371F5E1B5B7170040EC
:100A540003C75704B70708001377070219E3B787DA
:100A640007007955E378FBEA33079B00E3FFE7F8D7
:100A740055B58547E382F9F2DA852D45053B93891F
:100A8400F4FFE38504E6293393F7390091EB8326D9
:100A940004800327090093074900E39AE6E43E89AA
:100AA400CE84F1BFB5476396F9001305900BC931A5
:100AB40035BDB1471305B00AE38BF9FE994763913D
:100AC400F904B7050800B365BB002D45C531814461
:100AD4008D4BA149753963967401832704802320C3
:100AE400F9008504E39834FF8327048013172B014E
:100AF400635507002312F900D5BB2322F900FDB387
:100B04009D476399F90281451305B0044531BD44FD
:100B14002320090023220900FD599D3993F774000D
:100B2400CA9703C70700FD14398D2380A700E396F5
:100B340034FF6DBBA1476392F9046D398144630DA1
:100B44000B008D479304C0036308FB009304000566
:100B540063048B01930440041375C507E30895D817
:100B64001945393139390545213126850D3909456C
:100B74003D314931E31C05D669BB91476399F900BE
:100B840013056006F536F53E130590090DB7E38F9E
:100B940009D4F154A9BB19CD91CD09CE814733872E
:100BA400F500834607003307F50085072300D700C7
:100BB400E317F6FE828019C991C909CA910583A772
:100BC400C5FF11057D16232EF5FEC5BF828001C920
:100BD40019C62A960505A30FB5FEE31DA6FE82805D
:100BE40081473307F5000307070019E33E85828038
:100BF4008507C5BF01112E8626CAAA8413150601CE
:100C04009305F004418122CC06CE32C6EF00F05B9E
:100C14002A8401C53246A685BD3F2285F24062443E
:100C2400D24405618280854715C18DC105C28147C3
:100C3400B306F5003387F50083C6060003470700B3
:100C44006398E6008507E315F6FE85473E858280B6
:100C54008147EDBF9307F6FFBE952A966313C5003F
:100C64008280FD1583C715000505A30FF5FEFDB7AA
:100C7400AA87014581CF09CE3E96850703C7F7FFB2
:100C84006317B700E39BC7FE054582808280014558
:100C9400828079719387C18B22D4804306D626D271
:100CA4004AD04ECE52CC56CA5AC85EC65DCCB7C4E2
:100CB400C901014B9389418B9384F437173A00009F
:100CC400130A4A35973A0000938A8A381739000084
:100CD4001309493C8357240085E35C44631B0B00E0
:100CE40023AEF18A832BC4002285EF00705A5E8400
:100CF400B9A82326FB00FDB783A7090082971C44EB
:100D04003307F5406376F500032749001D8F2A97C2
:100D140063E0E4089737000023A4073483552400D4
:100D240003450400974000E0E780201B5C405844E2
:100D3400A1CB0C4403264900AE97BE8663E4B700FA
:100D440063E4C700B386C74014C4228B3A8459F0C5
:100D5400973700009387C72F9C4B09476370F706AA
:100D6400F91717370000232DF72EB250225492544E
:100D74000259F249624AD24A424BB24B45618280DF
:100D840063150B0023AEE18AB1BF2326EB0099BFA4
:100D940003274A0209CF63EFA7003385A74083A73F
:100DA4000A016376F5009737000023ABA72A228B4C
:100DB400404471BF03274900BA97C5B7973700006D
:100DC40023A0072A5DB7411122C41734000013047D
:100DD400A42A1C4006C626C24AC091C782979737E8
:100DE400000023AB07289737000083C7B742858BE1
:100DF400973400009384C44195C397370000A38BB4
:100E0400074083C774001547637AF700C12B83C773
:100E14007400F5178A07A2979C4382971C4491C3D8
:100E240082971389818A0327090017360000034635
:100E340036229737000083C7A72193961700BA96E6
:100E440083D60600C5CE9737000083C7672063E1C9
:100E5400C70C97370000238D071E1C4063950712AB
:100E64009737000083C7573B91CF83C7740093F72C
:100E7400F70F89EB97370000A380073A978001E0CA
:100E8400E780C0D49387418B9C43638E070E9737CA
:100E9400000093872720DC43173700002322F71C28
:100EA400CD3B973700009387E716DC53E9CF17371C
:100EB40000001307E719184B9737000083C7D716AC
:100EC4006363F70C83C774001547636EF70A97379B
:100ED400000083C76738918BDDE703260900973646
:100EE400000083C6F61663C6D70A2244B240924471
:100EF4000249410117A302E0670083C1850793F704
:100F0400F70F973600002385F614E3E4C7F225BFF4
:100F140086073E9783550700231007002398018A0C
:100F24009387018C9C431735000003456512131702
:100F34002500BA979C43829783D7018B173700000B
:100F44000347071193C7F7FF7D8D931717000327F6
:100F540009003E97835707005D8D2310A70097373C
:100F6400000083C7E70E91C78507173700002301E8
:100F7400F70E173700000347A70D9737000083C704
:100F8400370DE378F7ECB240224492440249410120
:100F94008280139717003297035707006DF7850770
:100FA40099B7AD6737C70040BD072326F7200F1058
:100FB4000000973700009387A709C84F8327872627
:100FC400BD66BD0693C7F7FF99836A052326D7201C
:100FD4005D8D82804111B7170040985F3AC6945FD7
:100FE4003247E39CE6FE3245410182801305F00F4F
:100FF4008280011122CC604126CA4AC84EC652C41E
:1010040006CEAA841D4A130965058549BC44636458
:10101400F4000545B9A003C7D40083474400631A0C
:10102400470503C784026304F7000040C5B70347BC
:10103400540083C75405E31AF7FE1946CA851305FD
:101044006400D536E31335FF0347C40083C7940215
:10105400E31DF7FC0357E40083D7A402E317F7FC6E
:101064000145F2406244D2444249B249224A0561F0
:101074008280E31CF7FA0347540083C75405E31640
:10108400F7FA1946CA8513056400713EE31F35F962
:10109400C1BF0111973700009387C72322CC03A453
:1010A400070C26CA06CE2AC42EC6854419E4014577
:1010B400F2406244D2440561828083479100034731
:1010C4001400858B6304F7000044CDB719469305DB
:1010D400A10013052400813EE31895FE0545C9BF10
:1010E400138741981C439306001094C30100010028
:1010F400010001001C4323A0070083461500034898
:101104002500A2064208C29603480500C296034879
:1011140035006208C29694D783465500034865009B
:10112400A2064208C29603484500C29603487500C9
:101134006208C296D4D7834695000348A500A20648
:101144004208C29603488500C2960348B500620867
:10115400C29694DB8346D5000348E500A206420804
:10116400C2960348C5000345F500C2966205AA96D7
:10117400D4DB83C6150003C52500A2064205AA9642
:1011840003C50500AA9603C535006205AA9694CF47
:1011940083C6550003C56500A2064205AA9603C589
:1011A4004500AA9603C575006205AA96D4CF83C6E6
:1011B400950003C5A500A2064205AA9603C58500AD
:1011C400AA9603C5B5006205AA9694D383C6D50032
:1011D40003C5E500A2064205AA9603C5C50083C55A
:1011E400F500AA96E205AE96D4D3D443F59AD4C3B7
:1011F400D44393E61600D4C3944393E6160094C3F1
:10120400BA879443D842058B59E3984E014523008D
:10121400E6009843184F2183A300E6009843184F33
:1012240041832301E6009843184F6183A301E6003C
:101234009C43D84F2302E600D84F2183A302E60043
:10124400D84F41832303E600D84F6183A303E6000C
:1012540098532304E60098532183A304E60098538B
:1012640041832305E60098536183A305E600D85320
:101274002306E600D8532183A306E600D85341830E
:101284002307E600DC53E183A307F6008280010014
:101294008DBF138781981443411122C49C5E4AC0B8
:1012A40006C6998326C2858B3A8413894198D1C78F
:1012B4009C5E973400009384A4F593F7F7F99CDEC1
:1012C40017370000034727F593070008631BF7004F
:1012D400832709009C4393F7070417370000230C66
:1012E400F7F283C7040093F707048DC39387418BF8
:1012F4009C4382979737000023A4A7F283C7040076
:1013040093F7F70B173700002304F7F083C7440063
:1013140093F707049DE3854717370000A30CF7EE06
:10132400938741999C43096798C7130700FC973634
:1013340000002381E6EED844F8D31C40985F118363
:10134400058B09CB985F3D9B98DF054797360000D6
:101354002382E6EC985F1D83058B11CB985F13778E
:10136400F7F798DF8547173700002305F7EA832747
:101374000900D8430583058B19C7D843759BD8C387
:10138400D843799BD8C3B2402244924402494101D4
:101394008280397106DE16DC1ADA1ED82AD62ED4DB
:1013A40032D236D03ACE3ECC42CA46C872C676C491
:1013B4007AC27EC0F93DF250E2525253C2533255C2
:1013C400A255125682567247E2475248C248324EDC
:1013D400A24E124F824F21617300203093874199AE
:1013E4009443973700009387A7E203C70700058B50
:1013F40011CB97370000238F07E097370000A38BAA
:1014040007E0828003C71700058B65F7F85271FF68
:1014140083C75700DDB713888198032708001C5F32
:101424009583858BD1E709C61C5BBD832300F60039
:1014340085CA83270800985B46079357670163565C
:10144400070093E707C0C207C18303970600C207DA
:10145400C18709C7BA970947B3C7E7022390F600C3
:1014640085CD834715008DCB9736000083C6A6DA59
:1014740093F606041387970089478DCA3A95034764
:101484000500854699471376F7066311D60262076D
:101494006187B947634C0700832708009C5FED838D
:1014A4008D8B17370000A30AF7D681473E858280CB
:1014B4008547EDBF411122C406C6138441991840E3
:1014C4002DE9AE877453FDFE3E85B2859737000043
:1014D400238107D4977001E0E78080449387819843
:1014E4009C43B70680009843558F98C3D857719B87
:1014F400D8D797370000A38F07D097370000A38968
:1015040007D01C40094798C314401737000013073D
:1015140027D083472700858B89EB83473700858B4A
:10152400D9C397370000238707CEB2402244410134
:1015340082808D47631EF500938781989C43B7068C
:1015440080009843558F98C3D857719BD8D76DBFE7
:101554008547E31BF5FA5447F977FD17F58F5CC708
:101564000F1000001C40096798C7130700F81736CE
:1015740000002301E6CA138781981043184231837F
:101584000D8B11E713076019F8D3D4C7B5BF184200
:10159400094631830D8B6315C7001307E043EDB78C
:1015A4001307E01BD5B7FC52ADF741B75D71A2C478
:1015B400A6C22A84130680022800AE84930510086C
:1015C40086C6CAC04EDE52DCEFF06FE03545977038
:1015D40001E0E780407113838198832703009376A9
:1015E400F41F138EC19923A40700984B938E41993D
:1015F400370FFCFF1367F70398CBF84F130510F868
:10160400B7020400137707E0558FF8CF9843F576B7
:10161400FD16758F98C39843B7063300930380254E
:101624001377F7E798C3984311497D1F1377F7E7BA
:101634001367071098C303270E008549930F800290
:101644001C47D58F1CC783A70E001307900D3400C9
:10165400B8CB014793553700A69583C70500137689
:101664007700B3D7C740858BE1C383270300832862
:101674000E00239C07042390070603A8C8021378CE
:10168400D8FF23A6080383A807001378F70793F865
:1016940008F833E8080123A0070103A847023368C8
:1016A400580023A2070383A80E00014823A278064A
:1016B40003DA07066307480303A80703038A06003F
:1016C4001358F80062081358884163580A0103A8A4
:1016D40007031358F8002380060103D8070613787C
:1016E400F80F03AA480663060A0003DA8705E37FB6
:1016F40049FB03A847023378E80123A20703838741
:101704000600635CF40003C805003396C900134661
:10171400F6FF337606012380C5003E8663D3A70017
:101724002A8613158601618505071377F70F850649
:10173400E312F7F3B640264496440649F259625A36
:1017440061618280938641999C42D84713161701A0
:1017540063550602984713161701635006027D5716
:10176400B8D7173700001307A78E584F0507173649
:101774000000232DE68E116798C798470D83058BCB
:101784001DCB173700000347C7A813671700173688
:1017940000002300E6A8130700F817360000230B07
:1017A400E6A6214798C71387819810435856719B22
:1017B4001367170058D69847058B0DC717370000D5
:1017C400034717A51367170017360000A302E6A402
:1017D400054798C71387819810435856719B136720
:1017E400170058D698470983058B09E7984705835E
:1017F400058B21CF984717360000130666A1138581
:1018040081980983058B63030710184118433183BA
:101814000D8B75EBAC4B184E93F50502034717007F
:10182400CDCD79EF13077006D8CF034706001367B1
:10183400170017360000230DE69C114798C718417E
:101844005C57F19B93E717005CD79C42984793162B
:10185400370163D606029736000083C626AFC18AD5
:1018640017370000130707A7C5CE03478707136779
:10187400070297360000238BE6AC056798C79847A4
:101884009316270163D10602173700000347879890
:101894006207618763570700054797360000238B6B
:1018A400E696096798C798479316070163D6060218
:1018B4009736000083C696A9858A17370000130758
:1018C40067A1ADCE0347970713672700973600003B
:1018D400A38EE6A6216798C7828029D7854563151C
:1018E400B7001307B00689B789456315B700130716
:1018F400F0061DBF8D456315B700130730072DB7DC
:101904001307500715B71307600739BF034736009D
:101914001367170017360000A30DE68E094739BF79
:10192400834687070946BD8A6388C600034787073D
:101934008D463D8BE313D7F4114725BF83469707A4
:10194400918AC9DA034797071367870041B739714A
:1019540006DE16DC1ADA1ED82AD62ED432D236D0B7
:101964003ACE3ECC42CA46C872C676C47AC27EC05B
:10197400D13BF250E2525253C2533255A255125641
:1019840082567247E2475248C248324EA24E124F24
:10199400824F216173002030938741999843856772
:1019A400938707777CD39387C1999C4383A60709C0
:1019B400139656006358060083A60709139666001B
:1019C400634406007453FDF2828061C1AA87014515
:1019D400DDCD8D07C207C183F19BC207C183130705
:1019E4004003636BF702138781A20843138701A2A4
:1019F40014436396A602172700001307A761185B18
:101A0400014551C74111C20706C60545DD8D029740
:101A1400B240014541018280138741A2F9B70357BF
:101A2400650035E303574500636FF704B306F740D9
:101A34002146637CD60203280500938687001D8F08
:101A4400AA966117172600000356E6602392E60063
:101A540023A006012393060014C12312F5001307E3
:101A640086FF972600002398E65E2313B50097258A
:101A7400000083D5455EB387F54017270000231C7B
:101A8400F75C210582800841ADB7014582808280E0
:101A940009CD938781A203A30700938701A283A89A
:101AA400070081469A8763E31701828003A8070031
:101AB4006369F50A6367A80A13878700E367E5FE8D
:101AC40003D66700216705076317E60003C741953E
:101AD4000507238AE194972500009385655703D66B
:101AE400470003D7650023930700329742074183D9
:101AF400172500002311E55663886702138541A268
:101B040008416303F50203D5660019ED83D7460047
:101B140023A0060121073E9621062392C60097279B
:101B24000000239AE752B6879843E30017F9938697
:101B340041A29442E30BD7F683566700BDF683D6E1
:101B44004700035647001843A106B2962392D700D4
:101B540098C383D76500A10717270000231DF74EFC
:101B64008280BE86C28781B703278511630207126C
:101B7400411122C406C68347C5008345E5042A846F
:101B840093F7C70F2306F500834697000356C70053
:101B940013958601618563F2C508635B05060345F9
:101BA400870093F6F607A304D700054693E62700BB
:101BB4006314C50093E617002306D4005C43890729
:101BC4005CC3A30AB400032504112E864C43090503
:101BD400EFE07FFC8327841103465401D44303D7E9
:101BE400C700B296118FD4C32396E7008947A30D8B
:101BF400F400034764039727000083C7C742637850
:101C0400F7048347C40093E707012306F40081A087
:101C140093E717002306F4006DB79376F60F635D20
:101C2400050203458700854513E627006314B500C4
:101C340013E617002306C400A30AD400A304070074
:101C44008547A30DF400832784119C43DDF3B24040
:101C5400224401454101828093E717002306F400E2
:101C6400A30AD400A3040700032504114C43090567
:101C7400EFE07FF28327841103465401D44303D752
:101C8400C700B296118FD4C32396E7008D4755BF82
:101C940005458280938701A49C43411122C406C652
:101CA400858B2A84C5EF4165130525F5972002E04D
:101CB400E780205245C58347A5002315F5008327F7
:101CC4000412BDE72320A4122322A4128547231162
:101CD400F404232005008347640154412316F500CE
:101CE4000347D4002304E5000547A304E5001727B0
:101CF40000001307E751184F1385170215811C4381
:101D04007D151375F50F9CC25C43DCC21C479CC651
:101D14005C47DCC61C4B9CCA5C4BDCCA1C4F9CCE8B
:101D24005C4FDCCE19CD9386060213070702C1BFB0
:101D34008327441288C3835724042322A4128507CB
:101D440079B79727000083D76759850717270000BD
:101D54002316F758B2402244410182808347C400CD
:101D640023090400054593C747002306F400DDB7A3
:101D74008347850193F7E70FC5EF83479501CDEBC3
:101D8400034625018346C50009CA83456503172711
:101D940000000347572963E7E50013F7060151CB19
:101DA400014709C6C18A0357651C81C68356A51C11
:101DB400369741C31307C712172500000355052E94
:101DC400B335A70237460F00411113060624814696
:101DD40022C426C206C67D543305A702975002E0EA
:101DE400E780E03C9727000083C75724B384A7000B
:101DF400972700009387074E03A7870983270709BE
:101E040063F387003E84184375FB9387418B9C439F
:101E1400829781476364A400B307A440B24022447C
:101E2400B3B7970093C7170092443E85410182805F
:101E340081473E8582809387419998437C53FDFF77
:101E44008280797126D206D622D44AD04ECE52CC84
:101E540056CA5AC85EC68347550303447513AA84F9
:101E64003E941374F40F9307400263F6870013043F
:101E7400B4FD1374F40F03AA841383AAC413A38BAD
:101E8400841222865285D685975002E0E780A02CE2
:101E9400058915E503CBD41201498149337B6403D9
:101EA400930B50024A865285D685975002E0E7800C
:101EB400802A058915C5639169031374F90F238B6F
:101EC4008412B250225492540259F249624AD24ABC
:101ED400424BB24B456182808509E20993D989411D
:101EE4000509E31179FDE1BF83278509035605043C
:101EF400797193D60701BD8EC206C182358E135700
:101F0400764093575640898B058B5D8F93573640A7
:101F1400918B5D8F93571640A18B5D8F931716009D
:101F2400C18B5D8F9317360093F707025D8F93176C
:101F340056009355860093F707041E065D8F1376AB
:101F4400F60F518F93D7554013D63540118A898B9C
:101F5400D18F13D67540D18F13D61540218AD18FD6
:101F640013961500418AD18F139635001376060215
:101F7400D18F13965500137606049E05D18F93F5E1
:101F8400F50FCD8FA20745465D8F3307C70222D4D4
:101F94002A8426D252CC56CA032A8413832AC41311
:101FA4005AC806D63697420741839357774013554C
:101FB40057400989858BC98F135537401189C98FBB
:101FC400135517402189C98F131517004189C98FEB
:101FD4001315370013750502C98F13155700935550
:101FE4008700137505041E07C98F1377F70FD98F60
:101FF40013D5354013D755401189098B498F13D513
:102004007540498F13D515402189498F13951500C3
:102014004189498F1395350013750502498F13952E
:102024005500137505049E05498F93F5F50F4D8FE3
:102034002207D98FB387C7024AD04ECE5EC662C488
:10204400B697C207C18313D7774013D55740098980
:10205400058B498F13D537401189498F13D5174004
:102064002189498F139517004189498F13953700AA
:1020740013750502498F1395570093D5870013757F
:1020840005049E07498F93F7F70FD98F13D5354071
:1020940013D755401189098B498F13D57540498F42
:1020A40013D515402189498F139515004189498F0E
:1020B4001395350013750502498F13955500137553
:1020C40005049E05498F93F5F50F4D8F2207D98F8F
:1020D400B387C702130650025285D685B697BD8EC4
:1020E40093940601C18033F6C402137BF60F975014
:1020F40002E0E780400605890DED8347D4120149CB
:102104008149B3849702130C5002C1804A865285D8
:10211400D685975002E0E78000040589937BF90F88
:1021240011C563863403850993F9F90F0509E31F83
:1021340089FD230B6413B250225492540259F2497C
:10214400624AD24A424BB24B224C456182805E8B3A
:10215400CDB7797122D406D683C735002E842316D1
:102164000100A307F10083C74500100802C023073C
:10217400F10083C755008A8502C2A306F10002C498
:1021840002C802CA02CC02CEEFE09FF50347F10178
:102194008347040001456310F7020347E1018347C5
:1021A400140001456319F7000345D1018347240056
:1021B4001D8D13351500B2502254456182800111E2
:1021C400972700009387071122CC03A4870C26CA03
:1021D4004AC84EC606CEAA8413092500854915C0EF
:1021E40083C7140003473400858B6304F700405C05
:1021F400FDB71946930544004A85EFE0DFA2E318D2
:1022040035FF2285F2406244D2444249B249056115
:1022140082804111972700009387C70B22C403A42F
:10222400870C26C24AC006C693042500054901E866
:102234002285B24022449244024941018280A6850B
:102244001305A4023937E30525FF405CCDB74111DE
:10225400972700009387070822C403A4870C26C28B
:102264004AC006C693042500054901E82285B24008
:1022740022449244024941018280A6851305A401A7
:0C228400C93DE30525FF405CCDB700001C
:10229000971100209381019617610020130181D6C8
:1022A0001305400097E5FF1F9385C5D5170600204D
:1022B000130606FE63FAC5008322050023A055001D
:1022C00011059105E3EAC5FE1795020013058590F7
:1022D000970500209385C5FB1386C18463FAC5006A
:1022E0008322050023A0550011059105E3EAC5FEF0
:1022F0001385018597250020938585106377B500A8
:10230000232005001105E36DB5FEFD42739002BC6C
:102310008D4273904280930280087390023097E25E
:10232000FF1F938222CE93E2320073905230371710
:102330000040930770052300F704930780FA2300F9
:10234000F7040F1000003C47B70600FAE116F58FBE
:10235000B70600069506D58F3CC7972200009382EA
:10236000A2C873901234730020303D432A876373F0
:10237000C3029377F700BDEFADE5937606FF3D8A84
:10238000BA960CC34CC30CC74CC74107E36BD7FECE
:1023900011E28280B306C3408A0697020000969637
:1023A0006780A6002307B700A306B7002306B7007F
:1023B000A305B7002305B700A304B7002304B700A3
:1023C000A303B7002303B700A302B7002302B7009B
:1023D000A301B7002301B700A300B7002300B70093
:1023E000828093F5F50F93968500D58D9396050120
:1023F000D58D61B793962700970200009696868246
:10240000E78086FA9680C1171D8F3E96E374C3F865
:10241000A5B7B717004003C777051377E70FA38B5E
:10242000E704130700F8A38DE7043D47238CE70476
:1024300013075003A38CE704828041112A83014EC5
:10244000930E407E130F0019930F400663E66E143F
:102450009308001913034006B3781503854E0D4FFA
:10246000A14F337365020D891335150063E0BE1665
:102470001308F6FF7946729842081358080133078B
:10248000C70213D61700BE0732976146B3F6C602DD
:1024900013068070B386C6023697A166F58F420791
:1024A0005D8FB716004083C7F60293F70708A307AE
:1024B000F1000346F10083C7F60293F70708E3949F
:1024C000C7FE8347F100B716004093F7F70F638903
:1024D0000714F3270080A18B938601856398071466
:1024E0000F100000B7170040130670052380C704C3
:1024F000130680FA2380C7040F10000023AA0703E5
:1025000003C6170313660608A388C70223800704BF
:10251000732600809C42A18BD18F7390078023A8E3
:1025200001840F1000001166B71500407D16DC59BC
:10253000C85DA98FF18FE5FFF3270080A18B89CBC0
:10254000F327008023A8F1849C42DD9B73900780D1
:102550000F100000B7170040130670052380C70452
:10256000130680FA2380C7040F100000D8DB03C7CE
:10257000170313670704A388E70223800704732760
:1025800000809C42A18BD98F7390078023A801847F
:102590000F100000410182807D133368E30393082C
:1025A000E016630E08003368F3039308D01663083F
:1025B00008009378330093B818009388D81633082E
:1025C0001E01131E0801135E0E0149B56393E50356
:1025D0000548638608000148630303002A887108E0
:1025E0007298FD15131E0801C205135E0E01C1810C
:1025F000B5BD13F8150063F4BF007908D5B71338DB
:102600001800E5BF83C7F60293F70708A307F10098
:102610000346F10083C7F60293F70708E394C7FE69
:102620008347F10093F7F70FF1DF65B5F3270080DB
:1026300023A8F1849C42DD9B7390078055B5914798
:1026400063EEB702176702001307C7718A05BA95D0
:102650009C41BA978287B717004003A7470B1345E1
:10266000F5FF698F23AAE70A03A7070B698F23A841
:10267000E70A03A7070A798D23A0A70A8280B71764
:10268000004083A6470B1347F5FFF98E23AAD70A0C
:1026900083A6070B558D23A8A70A83A6070A758F63
:1026A00023A0E70A8280B717004003A7470B498F92
:1026B00023AAE70A03A7070B1345F5FF45BFB71782
:1026C000004083A6470B1347F5FF758F23AAE70A3F
:1026D00003A7070A598D4DB7B717004003A7470B4B
:1026E000498FEDB7914763EEB702176702001307F2
:1026F000A7688A05BA959C41BA978287B7170040A8
:1027000003A7470D1345F5FF698F23AAE70C03A71D
:10271000070D698F23A8E70C03A7070C798D23A069
:10272000A70C8280B717004083A6470D1347F5FF1B
:10273000F98E23AAD70C83A6070D558D23A8A70CC5
:1027400083A6070C758F23A0E70C8280B717004083
:1027500003A7470D498F23AAE70C03A7070D1345CD
:10276000F5FF45BFB717004083A6470D1347F5FF98
:10277000758F23AAE70C03A7070C598D4DB7B71720
:10278000004003A7470D498FEDB79357E50093F736
:102790000730C98FC2070547C1836382E5048DC135
:1027A0000947638DE5040D476380E5063717004050
:1027B000231FF70883562709D58F2319F70882802E
:1027C000371700400356670993C6F7FFF18E231BA6
:1027D000D7088326C70C558D2326A70CC1BF3717F2
:1027E00000400356670993C6F7FFF18E231BD708F5
:1027F0008326870C558D2324A70C4DBF3717004027
:1028000083566709DD8EE1B73717004083566709A5
:10281000DD8EE9BFB74700401147A381E7000947B4
:102820002380E700130700062380E70003C7170093
:1028300013670701A380E70003C717001377E70FAB
:10284000A380E7008280894737470040631DF50079
:102850008347170093E70704A300F700B74700403A
:10286000A381A70082808347170093F7F70BEDB78A
:10287000B747004003C707001377F70E2380E70030
:10288000131705012E9541834205239CE7004181E2
:10289000239EA7002396B70025472383E70003C79D
:1028A000170013671700A380E70003C76700058BB5
:1028B0006DDF03C717001377E70FA380E70082805F
:1028C000B717004003D5870042054181937705047F
:1028D00091EB9377F5013755E801130505803345F2
:1028E000F50282809377050C130700046397E700D5
:1028F0009377F50137459C1CCDB72165130505D0AD
:102900008280B7F700E08847CC478280814737371D
:102910000040A14663C4C700328582800345B740AA
:10292000E38EA6FE3385F5000345050085072304E5
:10293000A740CDB7970700209387C7AB9C431727C5
:1029400000201307E7AB3E95636EE50017570020A4
:102950001307474B6368A70017070020232CA7A87D
:102960003E858280FD57EDBF411122C406C62A84F0
:10297000813F2947B307E502B2408D83B3D7870271
:1029800022449507B3D7E70237370040C207C18317
:102990002316F7404101828071654111130505201E
:1029A00006C6D937B7370040130770F82381E740D0
:1029B0000D47A381E74013070004A380E7400547C4
:1029C0002387E740B2404101828037370040834788
:1029D00027401A0593F7F703C98F93F7F70F2301E1
:1029E000F7408280B737004003C7174019C9D98D17
:1029F000A380B74003C70740136787002380E740E1
:102A0000828093C5F5FFF98DA380B7408280411184
:102A100093962500AA852D4506C697E0FF1FE780FF
:102A200020E1B240014541018280411126C29394C8
:102A3000250022C44AC02A843289A686AA85014676
:102A4000254506C697E0FF1FE78080DEA6864A86FA
:102A5000A285294597E0FF1FE78080DDB240224430
:102A600092440249014541018280011122CC06CEE7
:102A70003714004026CA4AC84EC652C4834474055F
:102A8000034AB405834984050349940559328347B1
:102A9000A40593F4F40F137AFA0F93E71700230DAC
:102AA000F40493F9F90F1379F90FB717004003C72E
:102AB000A705058B6DFF03D5C705A38D4705238C9F
:102AC0003705A38C2705A38B9704F2406244D244B8
:102AD0004249B249224A056182804111939705011A
:102AE00022C406C6C1872E8463DD0700EF20A00D37
:102AF00019C1EF2020062165218DB24022444101F9
:102B0000828093F7150013C51500E5FB9397250107
:102B100063D20708EF60814AB717004083C7E70216
:102B200093F7C70F93E7170073270080218B9386D5
:102B3000018509CB7327008023A8E18498425D9B1F
:102B4000731007800F100000371700401306700540
:102B50002300C704130680FA2300C7040F100000E7
:102B60002307F70223000704732700809C42A18BF0
:102B7000D98F7390078023A801840F10000037F6C7
:102B80000200130606E0896503C54185EF20A04BCE
:102B900009659DB7939715010145E3D007F61765C1
:102BA000020013056525EF40927B130600649165D2
:102BB00003C54185EF20204911653DBF1D71494680
:102BC000976502009385852317850200130505A0EC
:102BD00086CE97E0FF1FE780400501E917650200F8
:102BE00013050523EF40B27701A0B7F600E079574F
:102BF00098CAFD57DCCA0567B7E700E023A0E710D5
:102C00001306F00290C223A0E7180F10000013066D
:102C1000C0038145480897E0FF1FE78080FB9707C6
:102C20000020938727BC3ECA896793870780231CAF
:102C3000F100A167938707E03ECEB70701059387B0
:102C400007103ED0ED472312F10285472303F1021E
:102C5000970700009387E7DBBEC4970700009387C0
:102C600007DDBEC6B7F50700970700009387A7C921
:102C700035473EDA814697070000938747DF7000AB
:102C8000E10519452304E102A305E1023EDE97E0D8
:102C9000FF1FE780E0B958088147994670003E96CB
:102CA0000346060085070507A30CC700E398D7FE77
:102CB000D24791C70357810185676373F70001A06D
:102CC0004808EF20D000AA8501C917650200130546
:102CD0006515EF40925401A0F640256182804111B4
:102CE000170500001305A5DF06C622C4EF20A07A51
:102CF000138441852300A4001928034504002244BD
:102D0000B24013060032896541016F20C033411182
:102D100006C6F3270080A18B9386018589CBF32714
:102D2000008023A8F1849C42DD9B739007800F10E4
:102D30000000B7170040130770052380E70413074E
:102D400080FA2380E7040F10000003C7F70213671F
:102D50007700A387E70223800704732700809C4243
:102D6000A18BD98F7390078023A801840F100000D6
:102D70001305407E81470147814605468545EFF0B2
:102D8000CFEBB240014541016F20F028B305B040C0
:102D9000176502001305050B6F403248011122CC64
:102DA0002316C10032846C0003C6D18606CEEF60C4
:102DB000304EA285176502001305C509EF40F245A4
:102DC000F24062448547238EF184056182800111BF
:102DD00022CC36C606CE2E84EF10707DB246374622
:102DE0000F00130606243376C50291CAB285176513
:102DF00002001305650732C6EF4032423246228593
:102E00006244F240814505616FA0B14981E9B28514
:102E100017650200130545066F4032408547639DE4
:102E2000F500176502001305650609C6176502005F
:102E30001305C5066F40B25289476398F5001765C0
:102E400002001305A5067DD682808D47E39EF5FE20
:102E5000176502001305850671DEB285176502004D
:102E60001305050755BF03C7C1869307100363F019
:102E7000E70682809315340089051946A6954A8590
:102E800097E0FF1FE78060DA05ED05041374F40F87
:102E900083C7C186E360F4FE8E0789073385F4009B
:102EA0001946CA8597E0FF1FE78020CF83C7C186F8
:102EB00013973700BA948507A38034012386F186DF
:102EC000F2406244D2444249B24905618280011114
:102ED00022CC26CA4AC84EC606CEAE892A890144EB
:102EE000938401A675B7834725004947636EF75A57
:102EF00017670200130787E98A07BA979C435D7139
:102F0000A2C486C6A6C2CAC04EDE52DC56DA5AD861
:102F10005ED662D466D26AD06ECEBA972A84828791
:102F2000314697650200938525FC1765020013055D
:102F3000A5FCEF40922E1765020013052500EF4017
:102F400012422644B64096440649F259625AD25A71
:102F5000425BB25B225C925C025DF24D01468545AC
:102F60000D4561616F90F11E8348C500034855000F
:102F70008347650003477500834685000346950037
:102F80008345A50017650200130545FCEF40F228B4
:102F9000832A04018349C40063950A0283454400DF
:102FA000130554002644B64096440649F259625A25
:102FB000D25A425BB25B225C925C025DF24D61616F
:102FC0005DB5E38D09FC176502001305E5FBEF40D5
:102FD000D22481445149176A0200130AEAFB93F78D
:102FE000F40F63F437016394241F2945EF40F22660
:102FF0009387F9FF416B01493EC4054C976C020071
:10300000938C8CDD130D5400938DA186791BA24700
:10301000E356F9F8338A2A0183440A00C1D0B38702
:103020002401E3DD37F7834B1A00A68517650200FC
:10303000130505F75E86EF40521E93878BFF93F7CB
:10304000F70F6362FC269386F4FF93FBF60F638C05
:103050000B2493072900DE9763C7F924DE851765E3
:1030600002001305A5F5EF40521B81473307FA0014
:10307000034527003EC6EF40521EB247850713F7AF
:10308000F70FE36577FF2945EF40321DAD4763F148
:1030900077238147B1453306FA003387FC000346A6
:1030A000260003470700631CE63E8507E395B7FE4D
:1030B000DE86314697650200938505E317650200B9
:1030C0001305452DEF4072158347640003485400F3
:1030D0000347740083468400034694008345A4009C
:1030E000176502001305452FEF40321317F6FF1F37
:1030F0000356863083C59186176502001305053196
:10310000EF40B211176502001305C532EF403225BA
:10311000EF90B1061305400697D0FF1FE780E0430C
:1031200083C7918699E797F7FF1F83D7E72C638DB5
:10313000670317650200130565EAEF40522217F591
:10314000FF1F0355652BEFB0616FA3840186F9570C
:103150001305401F17F7FF1F2310F72A238E018442
:1031600097D0FF1FE780603F03464400EA86814511
:103170000145EF90A17A2A8A25E5096605441306E0
:1031800006909305002003C5D186A38481862385FC
:103190000186EF10506B0146976502009385C5D4F8
:1031A000176502001305C5E5EF403207A385818648
:1031B000B640264496440649F259625AD25A425BB6
:1031C000B25B225C925C025DF24D61618280B387EA
:1031D0009A0083C5070052858504EF40120401B5AB
:1031E000AA8517650200130525E4EF40120383C585
:1031F0000D0017650200130525E6850593F5F50F0B
:103200002385B186EF407201B147176502001305AF
:10321000A5E96304FA02C14717650200130585E5B5
:10322000630DFA009D47176502001305A5EB6316B1
:10323000FA00176502001305E5E8EF40521203C7D4
:10324000A186914763F0E70417650200130545EB7B
:10325000EF40F2101305007D238501862386018649
:10326000A385018697D0FF1FE780202F0146854563
:103270000D45EF90016E17650200130525ECEF4038
:10328000120E15A01305803E97D0FF1FE780E02C9B
:1032900017650200130545ECEF40720C01468545A9
:1032A0000D45EF90016B850426991379F90F85B3CD
:1032B0005E86B145176502001305C5ECEF40E27567
:1032C000DDB783C7B186E39507EE97650200938566
:1032D000A5C1176502001305E5EDEF400274014634
:1032E00085450D4523860186A3850186EF9061669D
:1032F00017650200130585C42644B6409644064966
:10330000F259625AD25A425BB25B225C925C025D15
:10331000F24D61616F40B2049305002003C5D18670
:10332000EF10B07383451400176502001305C5EB59
:10333000EF40A26E83451400D1E58947A384F1864E
:103340008357A40097650200938505BA17650200AC
:103350001305C5EC17F7FF1F2310F70A8547238EC7
:10336000F184EF40826B97F5FF1F83D5E508176561
:1033700002001305A5ECEF40426A13060064A14564
:1033800003C5D186EF10304C0564130604C8C1454F
:1033900003C5D186EF10304B130604962644B64081
:1033A00096440649F259625AD25A425BB25B225C99
:1033B000925C025DF24D03C5D186930500106161F8
:1033C0006F10704817650200130505E9EF40E264CD
:1033D00017650200130585EAEF40627823860186AF
:1033E000A3850186B9BEA3840186F9579305001011
:1033F00003C5D18617F7FF1F2310F700238401862A
:103400002391018623900186239F018423860186D0
:10341000238E0184A3850186EF1030648345640008
:1034200017650200130585E7EF40225F97650200EC
:10343000938585AB17650200130505E8EF40E25D53
:1034400009B6176502001305A5E97DB517650200E9
:10345000130505EA55B50348550083476500034742
:10346000750083468500034695008345A5001765D2
:1034700002001305E5E8EF40425A0DB60348550037
:103480008347650003477500834685000346950022
:103490008345A500176502001305C5E9E9BF176557
:1034A0000200130565ECE1BB828059719397050119
:1034B000A6D286D6A2D4CAD0CECED2CCD6CADAC8AC
:1034C000DEC6E2C4E6C2EAC06EDEC187AE8463D166
:1034D000074A03C5D186EF10006F2A8415C503473C
:1034E00005009307000B631EF70083C79186094709
:1034F00083454500930A8500638AE7025685EF609D
:1035000030362285EF1000652164258C2285B65067
:10351000265496540659F649664AD64A464BB64B47
:10352000264C964C064DF25D656182800D476381A5
:10353000E50205476390E50203478500631AF70239
:103540008345C50017650200130545F2EF40E24CC4
:10355000238E0184034744009307F007631AF700A2
:1035600083558400176502001305C5F1EF40E24A58
:10357000834744002D476382E70205476392E702D1
:1035800003478400A946631CD7048345C40017651C
:1035900002001305E5EFEF404248238E0184BDA8E9
:1035A0004D476398E704176502001305A5F0EF4047
:1035B000025B83C78186F5F383D70186F9DF176540
:1035C0000200130525F0EF40825985651306401F60
:1035D0009385058003C5D186EF10F0267DBFC946CF
:1035E000631DD7048345C40017650200130545EB2E
:1035F0005DB76D476393E70417650200130585F017
:10360000EF40A241014997690200938929F083574D
:10361000A4006368F9002945EF4022448345440033
:10362000F1BD5C444E85CA9783C507000509420970
:10363000EF40A23E13590901D9BF03C7818679DF44
:1036400085466313D70A1D47639CE70283578400AE
:1036500085CB5C44176502001305C5EB83C51700D5
:1036600003C6370003C7070083C72700A205220649
:10367000D98D5D8E2393B1862392C186EF40E239C6
:10368000834744001D476392E70403471400E9475A
:10369000E396E7F883D561869DC9894703D64186BD
:1036A000176502001305C5E92384F186EF40E23671
:1036B00083C6D18603D6418683D5618617F5FF1F61
:1036C000035585D3EF60203A91BF0547D1B7176501
:1036D00002001305A5EBEF40824817F5FF1F0355C5
:1036E000A5D1EFB0A1151DBF89466313D71E25478D
:1036F000638DE7088347440025476390E71C034731
:103700001400E947E39CE7F017650200130545FB49
:10371000EF40E24483D5018617650200130585FC5E
:10372000EF40A22F83D5218617650200130585FD82
:10373000EF40A22E83D72186638307188D47238409
:10374000F1869387618683D707001765020013050A
:1037500065FD231CF1009387418683D70700231D55
:10376000F10093072020231EF10093079002230FFE
:10377000F100EF40C23E03C6D1862C0817F5FF1FAB
:10378000035585C7EF60E03A51BD83558400BDD134
:103790002D6A17650200130565E1930B0AE1EF40FE
:1037A000C2270149554D9D4D176B0200130B8BE647
:1037B000130A2AE0176C0200130C0CEA83578400EA
:1037C000E37AF9F20358A40017650200130505E136
:1037D000B30728030328C4003E98834748000347E3
:1037E0003800034618008345080083492800A207D3
:1037F000B3ECE700220666874D8ECE86CA8542C6A8
:10380000EF40A2210357A40032486315A70B0347DA
:103810006800834658005A852207558FBA853AC6F4
:10382000EF40A21F3247631A770123909187E68504
:1038300017650200130505DF39A0631847012391BE
:103840009187E6856285EF40421D2945EF40E220E1
:1038500017650200130585E3EF40221C93F729004A
:1038600099C717650200130565E3EF40021B93F744
:10387000890099C7176502001305C5E2EF40E219F8
:1038800093F7090199C717650200130525E2EF4078
:10389000C21893F90902638809001765020013052D
:1038A00065E1EF40821729450509EF40021B1379B6
:1038B000F90F29B7E31EB7F999BF0547A1B51765F9
:1038C00002001305E5E8EF40822923840186F1B167
:1038D0008D46E315D7D425476391E70683578400C7
:1038E000A9CF5844130600649305000883471700C6
:1038F0000347070003C5D186A207D98F239FF18410
:10390000238E0184EF10207483D5E18517650200B2
:103910001305C5E6EF40621083D5018617650200E6
:10392000130585E9EF40620F17650200130505EEE8
:10393000EF40E22223840186D5B11765020013050A
:10394000A5F0EF40C221238E018483D70186FDD3E9
:1039500017650200130585F2EF40622085651306A6
:10396000803E9385058003C5D186EF10C06DD9B721
:1039700093F7150085C317F6FF1F1306669197F599
:10398000FF1F9385A59103C5D186EF80117413C4E1
:103990001400ADBE93F70520B1C7176502001305EB
:1039A00065F1EF40C21B41657D15EFA03169A3842D
:1039B0000186F95717650200130545F317F7FF1F36
:1039C000231CF7A223860186A3850186238E01840A
:1039D000EF40E218014685450D45EF80917713C40D
:1039E00004202DB693F78500A9CBED77938707E0E8
:1039F000231CF100AD652392018623930186239F4A
:103A0000018423900186239101868547938505E0F3
:103A100017650200130585F02384F186EF30F27FED
:103A200083C6D18609462C0817F5FF1F0355C59C90
:103A3000EF60203213C48400D1BC93F7050185C325
:103A400013078025814613064006D14517F5FF1F51
:103A50000355859AEFA0115E13C4040145BC93F78A
:103A600005028DC7014789460946814517F5FF1FA5
:103A700003558598EFA0D15EAA851765020013054E
:103A8000E5ECEF30927913C4040249B493F70504CE
:103A9000D9CB83C7C185B5EB9387018683D7070050
:103AA00001478146231CF10005468547C94517F5A6
:103AB000FF1F03556594231DF10023100102EF60E1
:103AC0000013835581012ACE17650200130545E9CD
:103AD000EF30B274F24795CB1307A0052380E700BF
:103AE00003C6D1862C0817F5FF1F0355E590EF603C
:103AF000C00419ED85479305A0051765020013055D
:103B0000A5E7238EF184EF30527113C40404FDBA8B
:103B10002808C945EF60C05417650200130505E980
:103B2000EF40E203DDB793F70508BDCF83C7C1853A
:103B3000BDE39387E18583D7070001478146231CB6
:103B4000F10009468947C94517F5FF1F0355C58A86
:103B5000231DF10023100102EF60600983558101EC
:103B60002ACE17650200130565E5EF30126BF247A8
:103B70009DC3054423808700F24703C6D1862C08E5
:103B8000A380070017F5FF1F03550587EF50F07A54
:103B900019E5238E818413C404086FF03F97C9454B
:103BA0002808EF60E04BC5BF93F7051085C717F5F0
:103BB000FF1F03556584EFA0B147056613060696FF
:103BC0009305001003C5D186EF10E04713C404101D
:103BD0006FF0DF9393F70540638B071C03C7918653
:103BE000894713C405406311F718C16717F7FF1F12
:103BF00003578780F9176309F71683D50186638514
:103C0000051603C7C18585476312F70217650200D1
:103C1000130505DCEF30B27413064006930500402F
:103C200003C5D186EF1020426FF05F8E176502004A
:103C3000130505DEEF30725E930700102310F102CA
:103C40009387018683D7070001478146231CF10033
:103C50005146D1479305200517E5FF1F0355C57948
:103C6000231DF100EF50B0782ACE6307050E81477F
:103C7000D14672473E97230007008507E39BD7FE96
:103C8000F247130730F885462380E700F2470947DB
:103C900017650200130545DBA3800700F247814446
:103CA00097690200938949DC2381E700F247514973
:103CB000A381D700F247930600022382D700F24780
:103CC00093060003A382E700F24723830700F2472D
:103CD000A383D700F24723840700A384070023852A
:103CE000E700A38507002386D700A3860700238764
:103CF0000700A387070023880700A38807002389FC
:103D00000700A3890700EF305251F2474E85A6976E
:103D100083C507008504EF305250E39824FF2945FE
:103D2000EF30B2532C0817E5FF1F0355E56CEF5039
:103D3000F061AA8517650200130545D395C1176583
:103D400002001305E5D6EF30524D930520052808F3
:103D5000EF6000316FF08FFB17650200130585D807
:103D6000EF30F25F6FF08FFA17650200130585DA06
:103D7000EF30F25E094683C5918617650200130590
:103D8000E5DAEF30924997E5FF1F83D5E5661765C1
:103D900002001305E5DCEF30524883D50186176534
:103DA00002001305A5DEEF3052476FF02FF60569CC
:103DB00013090980B3F725010144638907F4B3C4EB
:103DC00025011394040103C791868947418063103C
:103DD000F70EC16717E7FF1F03570762F91763085C
:103DE000F70C83D50186E1C583C7C1858544639CF3
:103DF000970017650200130565DCEF305256130675
:103E00004006CA8531BD17650200130525DFEF3076
:103E1000D240930700102310F1029387018683D7C5
:103E2000070001478146231CF10011469147930585
:103E3000200517E5FF1F0355255C231DF100EF50FA
:103E4000105B2ACE25C1930750072300F500F247E7
:103E500017650200130545DFA3800700F2472381A1
:103E60009700F247A3819700F24783C5070003C775
:103E7000370083C6270003C61700EF30123A2C081C
:103E800017E5FF1F03554557EF50504CAA8517659E
:103E90000200130565DEE38505EC176502001305D6
:103EA000A5E055B517650200130545E355BD176537
:103EB00002001305E5E5EF30924A094683C5918675
:103EC00017650200130585C6EF30323597E5FF1FF1
:103ED00083D5855217650200130585C8EF30F2338C
:103EE00083D50186176502001305C5E46DBD011178
:103EF00017F5FFFF1305A55B06CE22CCEF10A059E6
:103F00001384D186A3840186F9572300A400975512
:103F10000200938565FD176502001305A5E417E708
:103F2000FF1F231BF74C2384018623860186A3856C
:103F30000186238E01842391018623900186239F8D
:103F40000184EF30922D8565938505960945EF3004
:103F5000E030D1451D45EF306030930540062145E6
:103F6000EF30C02F930540063545EF30202F8947AD
:103F70002304F1007000854791451305F040A30428
:103F8000F100A305F10002C623050100EF901158CE
:103F90003000854513058040EF905157130691007E
:103FA000854513059040EF9071561306A100854595
:103FB0001305A040EF9091551306B10085451305F8
:103FC000D040EF90B154EF60903A03450400EF60A9
:103FD0006066034504008545EF00F06FF2406244DF
:103FE0000561828041111305800406C622C497C072
:103FF000FF1FE780400A371400408327840A8D455D
:104000001305002093E707202324F40AEFE02FE3B1
:104010008327840A85451305001093E7071023249E
:10402000F40AEFE0CFE1EFE03F97176502001305D8
:10403000E559EF30D232EF009010EFE03FB8EFE0FB
:104040001FCAEFA03102653517650200130585D53B
:10405000EF30F230EF00B02717650200130585D569
:10406000EF30F22F092E97C0FF1FE780E05237177D
:1040700000405C5FCA07C9832310F5008357A7037C
:10408000C207C1832311F50083578703C207C18389
:104090002312F50082808357050083D6050003575D
:1040A000250003D62500958FB7662605938606C0A2
:1040B000B387D702118F9306007D03554500330760
:1040C000D702BA9703D74500198D79473305E50222
:1040D0001307803E3345E5023E95828083552500D7
:1040E000411122C42A8417650200130565CD06C656
:1040F000EF30B212835544002244B24017650200EB
:10410000130545CD41016F305211B717004083A709
:10411000470C9386418990424111918B06C65D8E72
:1041200015E213858188A1378547056623AAF188A2
:10413000130606969305000203C5C180B2404101F3
:104140006F00707090423687854603C5C180631E3C
:10415000D606A5CF93050002EF1020101385018825
:1041600039379385818813850188353723AAA1863D
:10417000AA871307100303C5C18093050004635F7A
:10418000F7021307B0126349F700894723AAF188A1
:104190001306003CC1455DB71307B05D8545635FFD
:1041A000F70093050002EF10400B9305002003C5B4
:1041B000C180EF005052914503C5C180EF00B0515E
:1041C000B24023AA018841018280104389466319C5
:1041D000D6029DE7C145EF10400813858187413D18
:1041E00093850188138581877D351307702583C7E3
:1041F000C18089456354A700930500403E857DBF7B
:10420000A38801861C431C4381454DBF83C7A18001
:10421000411113B7170022C406C62385E18017E4B5
:10422000FF1F130424218D4513050020A1E7EFE0B3
:104230006FCB371700408327870C0C4037050001F0
:1042400093E707207D152324F70CEF00807F93056B
:104250000020176502001305A5B8EF30027C224448
:10426000B24083C5A18017650200130565BB4101FB
:104270006F30A27AEFE00FC7371700408327C70CD3
:104280000C40416593E70720130505F02326F70C42
:10429000EF00207B9305002017650200130545B64B
:1042A0006DBF41118D451305000406C622C426C208
:1042B00037140040EFE00FC38327840C8D4505655C
:1042C00093E707042324F40CEFE0CFC10327840C09
:1042D00085648D45458F2324E40C0565EFE02FB6FA
:1042E0008327840A8D450945C58F2324F40AEFE00E
:1042F0006FBF8327840C8D451305000293E72700C9
:104300002324F40CEFE00FBE8327C40C8D45054534
:1043100093E707022326F40CEFE0CFBC8327840C3D
:104320008D451305002093E717002324F40CEFE0DC
:104330006FBB8327C40C930500201765020013058B
:10434000A5AF93E707202326F40CEF30026D8545D7
:1043500013050020EFE00FB98325440C1765020018
:10436000130585AA89818589EF30226B2244B240EA
:104370009244410161BD4111170500001305C518A4
:1043800006C6EF104011AA852386A180176502009A
:10439000130545AEEF306268B705080017650200E7
:1043A000130505AFEF306267854537050800EFE07C
:1043B0006FB3B7050400176502001305E5B0EF30D1
:1043C000C265854537050400EFE0CFB1914517651B
:1043D0000200130525B3EF30426485451145EFE037
:1043E0006FB0914517650200130585B5EF30E262A5
:1043F00089451145EFE06FB98947A385F1803707FB
:104400000400B7E700E023A0E710B24023AA018828
:10441000410141BD83C70187411113B7170022C471
:1044200006C62388E18637140040A5EF8327840C55
:104430001305800C93E707042324F40C8327C40C92
:1044400093E717002326F40C8327C40C93E7070295
:104450002326F40C97C0FF1FE78020108327840CCD
:104460003705FF0093E707022324F40C97E7FF1FAB
:10447000938747FC8C43F1238327C40C1765020004
:10448000130585B093E707042326F40CEF30226D63
:104490002244B24013052003410117C3FF1F6700E8
:1044A000C30B8327840C1305800C93E70704232494
:1044B000F40C8327C40C93E717002326F40C8327FE
:1044C000C40C93E707022326F40C97C0FF1FE78074
:1044D000C0088327840C1305F00F93E717002324EB
:1044E000F40C97E7FF1F938727F58C43992B8327BD
:1044F000C40C176502001305A5A993E7070423263A
:10450000F40C69B7411122C406C626C24AC093F70B
:1045100015002E8485C3176502001305E5A7EF304B
:104520000264CD3D13451400B24022449244024936
:104530004101828093F72500ADCB1765020013057A
:10454000A5A6B7140040EF30826183A7C40C130501
:10455000400693E7170023A6F40C97C0FF1FE780DF
:10456000C0FF83A7C40C4165130505F093E707025C
:1045700023A6F40C97E7FF1F9387C7EB03A9070057
:10458000CA85C1211305200397C0FF1FE780E0FC07
:1045900083A7840C3705FF00CA8593E7070223A48D
:1045A000F40C45211345240041B793F745009DCFF6
:1045B00017650200130545A0EF30625AB717004097
:1045C00003A7C70C01451367070223A6E70C03A73F
:1045D000C70C1367170023A6E70C97E7FF1F938705
:1045E00067E58C43B929134544003DBF93F70501A6
:1045F000B1C7B71700401387418983A7470C104301
:1046000089466315D602918B99CB854503C5C18038
:10461000EF00700C23AA01881345040131B7176518
:1046200002001305659AEF308253EDB70C4317650E
:1046300002001305E59CEF30423EF9BF93F70502F7
:10464000A9CFB71700401387418983A7470C1043B0
:104650008546631CD602918B95E3914503C5C180C5
:10466000EF00700789451145EFE02F928947A38538
:10467000F18023AA0188134504027DB51765020065
:104680001305459BEF30A24DEDB70C4317650200B3
:104690001305C59DEF306238F9BF93F78500A1CBB4
:1046A00037170040035587030356A7034C5F9387D2
:1046B000418911679443930717007D17F98DB3372C
:1046C000F50093C717000606C2053E96C18117651F
:1046D00002001305A59CEF30423413060064A14587
:1046E00003C5C180EF0030161345840035BD93F734
:1046F000050491CB176502001305059CEF30224697
:104700001345040415B593F7051091CB1765020006
:104710001305059CEF30A2441345041031B593F7FF
:1047200005209DCB176502001305459CEF30224301
:1047300013858188EFF09F9A13850188EFF01F9A07
:10474000938741878C43176502001305E5A2EF307C
:10475000C22C13450420C9BB93F705400145E385EE
:1047600007DC17650200130565A2EF30423F1345D1
:1047700004405DBB411106C683C7918017E7FF1F48
:10478000130747CBB716004095CB83A7860C0C4385
:104790003705000193E7070423A4F60C7D15552483
:1047A00083C59180B24093B51500A384B18017658D
:1047B0000200130525A241016F30222683A7C60CF3
:1047C00041650C4393E7070423A6F60C130505F097
:1047D000F9B783C7818013B7170041112384E180A3
:1047E00006C617E7FF1F1307E7C4B716004095E793
:1047F00083A7860C05660C43D18F3705000123A4DF
:10480000F60C7D153D2CB24083C5818017650200F2
:104810001305459D41016F30422083A7C60C0566F4
:104820004165D18F23A6F60C0C43130505F0D9BFC3
:1048300083C7718013B717004111A383E18006C6B7
:1048400017E7FF1F130707BFB716004095E783A7B9
:10485000860A05660C43D18F3705000123A4F60AAA
:104860007D15C522B24083C571801765020013050E
:10487000659841016F30621A83A7C60A05664165D3
:10488000D18F23A6F60A0C43130505F0D9BF83C7C1
:10489000618013B7170041112383E18006C617E733
:1048A000FF1F130727B9B716004095E783A7860CAB
:1048B0000C433705000193E7270023A4F60C7D1570
:1048C0004922B24083C56180176502001305C59374
:1048D00041016F30821483A7C60C41650C4393E7F6
:1048E000270023A6F60C130505F0D9BFB717004023
:1048F00003D7E709118B31C303D7E709411122C65A
:1049000013674700239FE70883C7B1800944639F6B
:1049100087008D451145EFD05FE78D47A385F18076
:10492000EFF0AFFE3244410173002030894511455C
:10493000EFD0BFE5A3858180E5B77300203041113A
:10494000176502001305058E06C6EF304221954516
:104950000545EFE02F89176502001305A58DEF309F
:10496000022037370040834727402D4593E7170043
:104970002301F740EFE06F85176502001305858C72
:10498000EF30E21DB240B7E700E03707000823A090
:10499000E71041018280411126C2B284314633863C
:1049A000C40222C42E84814506C6EFD01F9C2A8EE5
:1049B000930534008148B14E13030008254F9397A7
:1049C0000801C18363FA9706B386D8031386D5FF1F
:1049D000F296B9A0834F06001308F5FF3358034140
:1049E0003378F80103870700631F0802136707F88D
:1049F0002380E70003480600B35FA3400387070056
:104A00003378F80163140802136787002380E700F6
:104A100009058507E310E5FD05069106630BB60061
:104A2000B687054545BF136707FED9B71367E7008B
:104A3000F1BF85088D0561B7B2402244924441011F
:104A40008280011126CA97F4FF1F9384E45A6146BD
:104A50004AC84EC62E89AA898145268506CE22CC13
:104A6000EFD0BF9013D589001375F50FEF20D25BFF
:104A7000CA85EF20122DEF20D2551384018A23001E
:104A8000A40013D509011375F50FEF20F259CA855B
:104A9000EF20322BEF20F253A300A40013F5F90FFF
:104AA000EF209258CA85EF20D229EF20925223019D
:104AB000A400A28526850546F93D6244F24042499C
:104AC000B2492685D244B14505616FD07FDA4111E4
:104AD0008D45116506C6EFD09FB617650200130518
:104AE000E58DEF30C2078D452165EFD05FB53717F3
:104AF00000408327C70AA166D58F2326F70AEFD087
:104B00007FD14D45EFD03FD497F7FF1F9387C74E16
:104B10003E8561468145EFD05F85E145EFD05FD5A9
:104B200097E7FF1F93878791B2408C434165130538
:104B300005F0410139B723AC05FE1C4191E70100A6
:104B400001000CC18280BA8703A787FF6DFF23ACE9
:104B5000B7FE82801DC18346E5FF1307F00F914722
:104B6000639EE600411106C697D0FF1FE78080F2E2
:104B7000B24081473E854101828095473E858280D3
:104B800001E9014582800145B24022444101828011
:104B900095654111938505D022C4C98D2A842105CC
:104BA000C2054205C181418106C697D0FF1FE7803B
:104BB00000E271D9FD57232005002312850023034D
:104BC000F5002105D1B71387418A1C43411122C446
:104BD00026C24AC006C601440149BA8489E7A165D4
:104BE000AD2D0DC401A803C7E7FF6318A7021DC8B8
:104BF000A165D5249840832784FF6317E40223A28C
:104C0000F18AFD57232C04FE230FF4FE2285B240C7
:104C10002244924402494101828011E03E8983A7E7
:104C200087FF6DBF3E84E5BF232CF9FED9BFA1CD20
:104C3000411122C406C62A8497F7FF1F83C7574134
:104C40002E856375F400894763E8870021370D4599
:104C5000B24022444101828083A785FF99E703C7C0
:104C6000E5FF9307F00F6305F700ED351545CDB768
:104C7000238F85FE1385418A7D3D22852244B240E3
:104C8000A165410189AC1545828023A2018A8280F9
:104C90009387C18B9C4399E33E85828003D727008D
:104CA0006316B70003C70700E308A7FEDC47E5B7B4
:104CB000BDCD797122D406D626D24AD04ECE01443B
:104CC0004147B3D78540858BB1CF12053147229537
:104CD0003305E5029387C18A03A907008544B3948D
:104CE0008400C204C180BE892A990327090011C724
:104CF000032549002EC60297B24531473304E4022A
:104D000083A709003E941C4489E72320090023223D
:104D10000900B2502254A58D02599254F2492E85B1
:104D2000456182800504E31EE4F88144DDB72E85E9
:104D3000828041111397050122C406C626C24AC0CB
:104D400041872E84635E0700BD3D11C12135A167F7
:104D50003D8C2285B2402244924402494101828026
:104D6000EDD9AA8701474146B356E440858A9DCADA
:104D70009207BA97B146B387D7029386C18A03A92F
:104D800006008544B394E400C204C1803E998327A1
:104D900009000325490082972320090023220900E6
:104DA000258C45BF0507E311C7FC8144D5BF97F7A4
:104DB000FF1F938727269C53411122C406C61384E4
:104DC000018199C782971C403E9523A8A18029A004
:104DD0009387418B9C43FDF70840B74703009387B7
:104DE000D73F3305F502B7A72600938737ECB240CB
:104DF00022443E9523A8A1804101828079C99387EE
:104E0000418B9C43797122D426D24AD04ECE52CCCB
:104E100056CA5AC806D65EC63A8AB689328BAE8A58
:104E20002A8982979387C18A9843BE840144B146F8
:104E3000C147B30BD40233067701104251E6C16576
:104E4000938505F0414597D0FF1FE78040B81DE5E9
:104E500097F7FF1F9387071C9C5B2D4589C711455A
:104E6000814582972D45B250225492540259F249FD
:104E7000624AD24A424BB24B456182809387C18BD2
:104E800098431DEF23AEA18A230005009C400547EF
:104E90003317870023260500232465012311E5002D
:104EA00023224501DE9723A0270123A2570123A433
:104EB00047010145E38909FA238089006DB73E87E0
:104EC0005C47F5FF48C7C9B70504E314F4F621456C
:104ED00059BF0945828097F7FF1F83C77717637F04
:104EE000F5001387818A9317150008433E95835771
:104EF0000500DD8D2310B500014582800D458280BF
:104F000097F7FF1F83C7D7146371F5021387818A50
:104F100093171500084393C5F5FF3E958357050089
:104F2000FD8D2310B500014582800D458280130759
:104F300005FF1377F70FFD4763E6E70AB146B306AF
:104F4000D5029387C18A984389473697184341CF42
:104F5000011122CC4EC60544935945003D893315B5
:104F6000A40013140501418026CA4E85AE84A28593
:104F70004AC806CEEFF0DFD12A89814721CDA2852C
:104F80004E85BD3F9387418B9C43829797F7FF1FC8
:104F900083D7C710338797022A848146130600649B
:104FA000B3B7970213050732B335E500BE95EF207E
:104FB000C21FB307850097F6FF1F9386A60D3E8795
:104FC000D44263E4A70063E4D7003387D7402324A7
:104FD000E9008147F2406244D2444249B2493E85E9
:104FE0000561828089473E858280011126CA06CEEE
:104FF00022CC4AC84EC6BD47894463EEA70231475A
:105000003307E5029387C18A9C438944BA979C433E
:105010009DC305443314A400420441802E890145F8
:10502000A285EFF0FFC6AA89814411C5A28501457A
:10503000C13D23A42901F240624426854249D2445D
:10504000B2490561828097F7FF1F83C777006364C9
:10505000F5000145828001119387418B56C283AAD6
:10506000070006CE22CC26CA4AC84EC652C4638E5A
:105070000A0A17FAFF1F130AEA0183244A00B747F6
:1050800036FE938707C8AE8997F5FF1F83D50501C4
:10509000BE94B387C5022A8432898146B3B5C5025E
:1050A00013850732B337F50013060064BE95EF2071
:1050B000C20F63ECA406829A97F5FF1F83D505FE05
:1050C000B3872503AA84130600648146B3B525037C
:1050D00013850732B337F500BE95EF20020DB307F5
:1050E0009500BE8403274A0063E4A70063E4E70059
:1050F000B384E740CE852285EFF09FB901C504C592
:1051000005452DA0936504F0C205C181414597D0A6
:10511000FF1FE780C08B05E597F7FF1F938787EF99
:105120009C5B81C7A285114582970145F24062448C
:10513000D2444249B249224A924A05618280938709
:10514000C18B9C438DE323AEA18A854723260500AE
:1051500004C52311350123008500A300F500232297
:10516000050079BFBA87D84775FFC8C7F9BF49C9D5
:10517000797122D426D24AD04ECE52CC56CA5EC6BF
:1051800062C466C206D65AC83689328AAE89AA84F3
:105190004144314C938AC18A854C930B0003330BF5
:1051A000840303A70A005A971C43B1E79375F400E0
:1051B000B395BC0013554440C2055286C181137596
:1051C000F50F51350DC983A70A000145DA9784C34D
:1051D00023A237016304090023008900B25022543E
:1051E00092540259F249624AD24A424BB24B224C83
:1051F000924C456182800504E31374FB2145F9BF9D
:1052000009458280411122C426C24AC006C62A84AA
:105210002E89B2840D3DCA852285EFF07FA705CD8A
:1052200097F5FF1F83D585E7B38795022A84130678
:1052300000648146B3B5950213850732B337F50094
:10524000BE95EF10927648C00145B2402244924488
:105250000249410182802145CDBF411122C426C2AD
:105260004AC006C62A892E84EFF09FA2AA8419C1DB
:1052700023110500A2854A85EFF09FC897F7FF1F0D
:1052800083C707DD6397270183D7018B5D8C239844
:10529000818A014591E01945B24022449244024975
:1052A000410182809307F00263E6A7044111B147F0
:1052B00022C43304F50226C29384C18A9C4006C6E8
:1052C000A297984389470DC39377F5008545B39519
:1052D000F500C205C181118149379C40A29723A0E6
:1052E000070023A207008147B240224492443E8532
:1052F0004101828089473E858280411106C622C4D1
:10530000EFF01F9911E50145B2402244410182802E
:105310009387418B9C430045829797F7FF1F9387A4
:1053200067D76368A402D843B74636FE938606C89B
:105330003305A4403697E378E5FC13070064B335E2
:10534000E50203D6870081463305E502EF10F265DA
:1053500065BFD8433A94C1BF411106C623ACA18AA8
:105360000295B24097F7FF1F23A0A7D00145410146
:105370008280994763E9B7008A0597F7FF1F9387F3
:10538000A7CFBE9588C1828041117146814517F52E
:10539000FF1F130565CE06C623AE018A23AC018A22
:1053A00023AA018A97C0FF1FE780A082130680020C
:1053B000814517F5FF1F1305A5C997C0FF1FE7809B
:1053C0004081EF90815497F7FF1F83C717C613D50D
:1053D00027008D8B3E958D473305F50285453905B0
:1053E0001375F50F97F7FF1F2385A7C69947330558
:1053F000F5021305052497C0FF1FE780405D23A633
:10540000A18A59C5994717F6FF1F034686C433067C
:10541000F60281451306062497B0FF1FE780607BE4
:105420009387C18A9C439387072423A0F18C17F7A5
:10543000FF1F034707C20A07BA9723A4F18AEFF0B8
:10544000DF840D239387018C944397F7FF1F83C755
:1054500037C0139727003697170600001306868576
:1054600010C3138717001377F70F0A07369717062D
:1054700000001306468C10C313873700890793F783
:10548000F70F8A0797F5FF1FA384E5BCB69790C373
:10549000B2404101828097F7FF1F83C777BB17F7A0
:1054A000FF1F034707BB63F1E7021387018C184313
:1054B0009386170017F6FF1FA30CD6B89396270004
:1054C000369708C33E8582809307F00FE5BF1C41E5
:1054D0006389071641777D8FB706002089476313DC
:1054E000D71603574500630F0714411122C419460C
:1054F0002A849305F00F690506C697B0FF1FE78061
:10550000607705478D476309E5121C4481CB5858E5
:10551000994763030712185C630007121306C00360
:10552000814517F5FF1F1305E5AE97B0FF1FE78014
:10553000406A1306C003A28517F5FF1F130585AD4A
:1055400097B0FF1FE780606517F7FF1F035747AD50
:1055500097F7FF1F938707AC19E71307001097F61B
:10556000FF1F239FE6AA17F7FF1F034787AB11E72B
:10557000054797F6FF1F2386E6AA17F7FF1F035775
:1055800067AA11E76D4797F6FF1F239DE6A817F757
:10559000FF1F034717A911E7154797F6FF1FA382BF
:1055A000E6A817F7FF1F034707A811E7054797F677
:1055B000FF1F238AE6A617F7FF1F0347D7A619E7A1
:1055C00003C7F70097F6FF1FA38FE6A417F7FF1F87
:1055D000034787A511E7354797F6FF1F2386E6A403
:1055E00017F7FF1F034797A419E71307800297F6E1
:1055F000FF1FA38DE6A217F7FF1F0347F7A219E7C6
:105600001307D00297F6FF1FA380E6A20347840189
:1056100019E71307C00397F6FF1F2389E6A09C57DD
:1056200091C7829797F7FF1F2398A7A2FD57A387DB
:10563000F1A0EFF07FD58147B24022443E85410181
:10564000828089473E85828001114EC697F9FF1FEF
:10565000938949A483A7090006CE22CC26CA4AC84A
:1056600052C4829713090064B335250303DA890015
:105670008146528633052503EF10323397F7FF1F1B
:105680009387079D804FAA84014563069402338562
:105690008440636E940003A5490052868146B33569
:1056A000A9023305A902EF105230018D269597F714
:1056B000FF1F23AB979AF2406244D2444249B24959
:1056C000224A05618280011122CC0A852E8441463E
:1056D000973502009385457106CEEF20A228180861
:1056E00006043A94035504FF97F7FF1F83D7279BBF
:1056F000F2406244AA9737450F001305052433553D
:10570000F5020561828097F7FF1F83D747995147BC
:105710001D45637CF702794719456378F702130743
:10572000200315456373F7021307B0041145637E28
:10573000F700130740060D456379F700130760096A
:1057400009456374F70013B5B70F8280011122CCAD
:1057500006CE2A842EC6EFF08FE5B245F240818D49
:1057600033A5A502229562441375F50F0561828069
:10577000011122CC06CE2A842EC6EFF04FE3B245AB
:10578000F240818D33A5A5022295624442054181F4
:1057900005618280011122CC06CE2A842EC6EFF04C
:1057A0000FE1B245F240818D33B5A50222956244E6
:1057B0000561828097F7FF1F9387C785985739CB7C
:1057C000411122C426C206C6BE84029717F7FF1FE6
:1057D000035787882A8415CBBA876373A700AA87E3
:1057E000C207C183BA866373E400A286C206C1827F
:1057F000958F5147635BF700DC5491C38297EF307C
:10580000E17B97F7FF1F23998784B240224492449B
:1058100041018280828097E7FF1F9387A77FDC5733
:10582000011106CEAA8581C72AC68297B245D1C189
:105830009C410545A5CFDC41B5CB83D78500BDC7CD
:1058400083D7A500A5C783C7C500ADE3414617F5BB
:10585000FF1F1305258497B0FF1FE780003497F7DB
:10586000FF1F938727839C4323AAF18A97E7FF1F93
:1058700083C7D77B8DE79307800217F5FF1F03557A
:10588000E5813305F50237460F00130606248146ED
:105890008145EF10921197E7FF1FA389A77817059D
:1058A00000001305A5DAEFF03FAB0145F2400561BA
:1058B000828097E7FF1F83C7477713978701618728
:1058C0006354070497E7FF1F23A2077A97B7FF1FC8
:1058D0009387676D17E7FF1F232EF77A7D5797E7AA
:1058E000FF1F23ABE77AB7873200938727A197E69C
:1058F000FF1F23A5F67A97E7FF1F2383077AB7C711
:10590000004023A4E726A1BF13F7170005CFB787F0
:105910002003938707D017E7FF1F2321F778B707E6
:10592000C0A817E7FF1F2329F77697B7FF1F9387B4
:10593000A76A17E7FF1F232FF77497E7FF1F23813D
:10594000077631BF617797E6FF1F2399E67481CB15
:105950009307003217E7FF1F2313F774C9B79307A4
:105960002003CDBF011122CC17E4FF1F1304846A6A
:10597000084406CE26CA4AC801E90545F2406244F9
:10598000D2444249056182805C58E5DB185C75D7DA
:105990007000854582971844B247E300F7FE9305EF
:1059A000E00417E5FF1F0355A56797C0FF1FE780B9
:1059B000000217E7FF1F232DA76A61D117E6FF1F1B
:1059C000035606669305F00F97B0FF1FE78060202F
:1059D000814417E9FF1F1309A96797E7FF1F83C7D2
:1059E00047640326090263C1F402328597C0FF1F92
:1059F000E780400A014597E7FF1F23AB076697E75B
:105A0000FF1F23A907669DBF97E5FF1F83D545614B
:105A1000B38795020844185C898185043E9508C2C5
:105A2000029765BF011156C297EAFF1F938A8A5EEB
:105A300083A78A0022CC4AC84EC606CE26CA52C4C4
:105A40005AC0AA892E8432896385072203A74A0394
:105A5000630707147D476366A71497E4FF1F9384C9
:105A6000245F03AA040263170A0A9565938515E06B
:105A700017E5FF1F0355C55A97C0FF1FE78020F5A4
:105A800097E7FF1F23A6A75E2A86630A051083A750
:105A90004A0303A58A0097E5FF1F83D565588981CE
:105AA000829783A78A0003AA040217E7FF1F232314
:105AB000F75C8947639CF908C1476312F40E97E5C8
:105AC000FF1F83D5E555938505FC9147B3C5F502C6
:105AD0008A05D29503C705009307A005631DF70A41
