:040000006F20C02F7E
:100004000000000000000000900000208A0400208E
:10001400A9BDF9F3900000200000000000000000DA
:10002400900000209000002000000000000000006C
:10003400900000200000000090000020000000005C
:100044009000002090000020683C000090000020F8
:1000540090000020900000209000002090000020DC
:100064009000002090000020900000209E050020B9
:100074007E050020900000209000002090000020C9
:1000840090000020900000209000002090000020AC
:1000940001A073270080218B9387018509CB7327E7
:1000A400008023A8E18498435D9B731007800100BE
:1000B400010037170040930670052300D704930608
:1000C40080FA2300D704010001008346B70493F6A5
:1000D400F60DA305D7042300070473260080944378
:1000E400A18AD18E7390068023A8018401000100A7
:1000F40093760502638406180347A700118B25E74E
:1001040073270080218B09CB7327008023A8E18407
:1001140098435D9B7310078001000100371700406E
:10012400930670052300D704930680FA2300D704AE
:10013400010001008346A70093E646002305D7008B
:1001440023000704F32600809843218B558F7310F6
:10015400078023A80184010001001307004B01005C
:1001640001007D176DFF73270080218B09CB732756
:10017400008023A8E18498435D9B731007800100ED
:10018400010037170040930670052300D704930637
:1001940080FA2300D704010001007D892314A700FD
:1001A400010001000100010023000704F326008080
:1001B4009843218B558F7310078023A80184010075
:1001C400010073270080218B09CB7327008023A8AB
:1001D400E18498435D9B7310078001000100371789
:1001E4000040930670052300D704930680FA230089
:1001F400D7040100010001000100B72600401306E6
:100204001005A383C68023000704F32600809843C7
:10021400218B558F7310078023A8018401000100EE
:1002240073270080218B09CB7327008023A8E184E6
:1002340098435D9B7310078001000100371700404D
:10024400930670052300D704930680FA2300D7048D
:10025400010001008346B70493E60608A305D7040A
:1002640023000704732700809C43A18BD98F7390CC
:10027400078023A80184010001008280937605048D
:10028400638B06140347A700418B25E7732700807F
:10029400218B09CB7327008023A8E18498435D9BBD
:1002A40073100780010001003717004093067005A2
:1002B4002300D704930680FA2300D7040100010029
:1002C4008346A70093E606012305D700230007040D
:1002D400F32600809843218B558F7310078023A841
:1002E4000184010001001307007D010001007D1756
:1002F4006DFF73270080218B09CB7327008023A80F
:10030400E18498435D9B7310078001000100371757
:100314000040930670052300D704930680FA230057
:10032400D704010001009376F50193E60604231433
:10033400D700010001000100010023000704F32697
:1003440000809843218B558F7310078023A8018464
:1003540001000100130760046310E50473270080A3
:10036400218B09CB7327008023A8E18498435D9BEC
:1003740073100780010001003717004093067005D1
:100384002300D704930680FA2300D7040100010058
:10039400B72600400946B5B573270080218B09CBE9
:1003A4007327008023A8E18498435D9B7310078022
:1003B4000100010037170040930670052300D7049D
:1003C400930680FA2300D70401000100B7260040F9
:1003D400130620053DB573270080218B09CB7327B5
:1003E400008023A8E18498435D9B7310078001007B
:1003F400010037170040930670052300D7049306C5
:1004040080FA2300D704010001008356870093E695
:10041400060C2314D700C5BB411181460146814512
:10042400114506C60921F3270080A18B9386018517
:1004340089CBF327008023A8F1849C42DD9B739031
:10044400078001000100B7170040130770052380DF
:10045400E704130780FA2380E7040100010003C7BF
:100464006704136717002383E704238007047327B3
:1004740000809C42A18BD98F7390078023A80184AC
:1004840001000100B240410182808146014681455C
:100494001145512EF3270080A18B1387018589CB49
:1004A400F327008023A8F1841C43DD9B739007800D
:1004B40001000100B7170040930670052380D7049C
:1004C400930680FA2380D70401000100FD56239689
:1004D400D70223800704F32600801C43A18BD58F09
:1004E4007390078023A8018401000100F327008092
:1004F400A18B89CBF327008023A8F1841C43DD9BC7
:100504007390078001000100B7170040930670053F
:100514002380D704930680FA2380D70401000100C6
:1005240083C6670493E616002383D7042380070455
:10053400F32600801C43A18BD58F7390078023A8DA
:1005440001840100010001A0BD473305F50201004B
:100554007D1575FD8280411122C426C206C6AA8477
:10056400014463179400B2402244924441018280C2
:1005740005041305803E4204C13F4180DDB7B7172F
:100584000040130700032388E702854723ACF18466
:1005940073002030411106C6EF009003F5BF3737D2
:1005A4000040834747409946BD8B638FD716314738
:1005B4006385E70011476398E71A011122CE4EC8FC
:1005C4004164B70900014ACA52C626CC56C4174A28
:1005D4000000130A2A9A17290000130929EC1304AE
:1005E40004F0FD198147373700408346A74063E193
:1005F400D714174700000347E79793071003631ABC
:10060400F704178502E01305A568977002E0E780F8
:1006140020E4B714004083A7C40C832A0900228570
:1006240093E7070223A6F40CD685973000E0E78011
:10063400207913052003053783A7840CD685370555
:10064400FF0093E7070223A4F40C973000E0E7804F
:100654002077174700000347E791930720036319A6
:10066400F702178502E013056563977002E0E780DF
:1006740020DE371700408327C70C83250900228515
:1006840093E707022326F70C973000E0E7804073D6
:10069400174700000347078E930730036319F700D9
:1006A400854503C5F180974000E0E780A0BD17476A
:1006B40000000347278C930740036317F702B7171B
:1006C400004003A7C70C916683250900136707023E
:1006D40023A6E70C03A7C70C4E85558F23A6E70C6A
:1006E400973000E0E780C06D174700000347878814
:1006F400930750036318F704B71700409306700577
:100704002380D704130780FA2380E7040946238350
:10071400C7042380D7042380E70403C7670413674F
:1007240017002383E70401A0834757407300203058
:1007340003468740B306FA0085072380C60093F773
:10074400F70F65B5B737004083C7A74093F7F70F96
:10075400E39A07E87244E2445249C249324AA24A3F
:100764000561730020307300203023030480154793
:100774002303E48001002302A48082808307648031
:10078400E3CE07FE23030480828083076480E3CEE4
:1007940007FE03454480828083076480E3CE07FE1E
:1007A4002302A4808280411126C44AC24EC006C6D8
:1007B4001377F50BAD47AA892E8995446306F70094
:1007C40019456537653F8D444E854537FD59FD1400
:1007D40063983401B240A2441249824941018280A3
:1007E400135509011375F50F453F2209CDB70111C2
:1007F40026CC06CEB704080051371545BD377137EE
:1008040069372AC6A53F32459377150089EB1365EE
:1008140015001375F50FF240E24405618280FD1462
:10082400E9FC0145CDBF397126DC4ADA4ED852D6EF
:1008340056D45AD25ED006DE62CE66CCB7E700E06C
:100844007D5783AA070022C603AA470023A0E718FE
:1008540023A2E718B7170040130770052380E704A5
:10086400130780FA2380E70483C74704930B75FFBB
:10087400B684E20793FBFB0F8546AA892E8B328947
:1008840037240040E187015763FA76016308D500F5
:100894008946130700026313D5000157D98F93F7D4
:1008A400F70FB71C00402382FC0411472303E480A4
:1008B4001305F00F5D3D094CD135636D7C11B7050F
:1008C4000700DA9537870700795563F2E504B387A3
:1008D4009500636EF702370B0800A94733EB6501F7
:1008E4006399F90689E48144513D26850DA0DA8592
:1008F4000945553D05090345F9FFFD14050B693DFF
:1009040081C49377FB0FFDF7DD3569FD7D55B7177E
:100914000040130770052380E704130780FA23803F
:10092400E70403C74704418B2382E704F250B7E787
:1009340000E023A0571123A24711E2543244525934
:10094400C259325AA25A125B825B724CE24C216148
:100954008280A5476395F90685691309F00FB306EC
:100964009900B3742B01B6941349F9FFB374990039
:10097400856B33796901416B9387F9FFB3F72701DD
:1009840099E363FC340193D94900C147E3E637FF97
:1009940099BF0569C1697D19D9B71305800D6388AD
:1009A4006901130500026384790113051008CA85DF
:1009B400DD3B353D21DD4E99B3843441D9B7DA8529
:1009C4002D45D533CA94E30099F205097D3BA30F65
:1009D400A9FED5BF9387F9FF93F7F70F6361FC0C6A
:1009E40083C71C0413073008631FF7043707080084
:1009F400636BEB04B3079B00B706100063F5D704E1
:100A0400334BEB0089476393F9068980D549E38C1E
:100A140004ECDA850945413B11090327C9FF9147D5
:100A24002320E48003076480E34E07FE230334811C
:100A3400FD17EDFBFD14110B81C49377FB0FE9FF48
:100A44007D3371F5E1B5B717004003C75704B70705
:100A540008001377070219E3B78707007955E3788D
:100A6400FBEA33079B00E3FFE7F855B58547E382CC
:100A7400F9F2DA852D45053B9389F4FFE38504E615
:100A8400293393F7390091EB832604800327090067
:100A940093074900E39AE6E43E89CE84F1BFB54763
:100AA4006396F9001305900BC93135BDB1471305A1
:100AB400B00AE38BF9FE99476391F904B70508007E
:100AC400B365BB002D45C53181448D4BA1497539B2
:100AD40063967401832704802320F9008504E39836
:100AE40034FF8327048013172B0163550700231257
:100AF400F900D5BB2322F900FDB39D476399F902A0
:100B040081451305B0044531BD4423200900232247
:100B14000900FD599D3993F77400CA9703C707006C
:100B2400FD14398D2380A700E39634FF6DBBA147E4
:100B34006392F9046D398144630D0B008D4793046E
:100B4400C0036308FB009304000563048B01930452
:100B540040041375C507E30895D819453931393967
:100B64000545213126850D3909453D314931E31CBF
:100B740005D669BB91476399F90013056006F536FC
:100B8400F53E130590090DB7E38F09D4F154A9BBC1
:100B940019CD91CD09CE81473387F50083460700EF
:100BA4003307F50085072300D700E317F6FE82809C
:100BB40019C991C909CA910583A7C5FF11057D16F5
:100BC400232EF5FEC5BF828001C919C62A960505E4
:100BD400A30FB5FEE31DA6FE828081473307F5000F
:100BE4000307070019E33E8582808507C5BF01110D
:100BF4002E8626CAAA84131506019305F0044181A2
:100C040022CC06CE32C6EF00B0602A8401C532463B
:100C1400A685BD3F2285F2406244D24405618280AC
:100C2400854715C18DC105C28147B306F5003387D9
:100C3400F50083C60600034707006398E6008507AE
:100C4400E315F6FE85473E8582808147EDBF930715
:100C5400F6FFBE952A966313C5008280FD1583C7EF
:100C640015000505A30FF5FEFDB7AA87014581CF41
:100C740009CE3E96850703C7F7FF6317B700E39BCA
:100C8400C7FE05458280828001458280797197374D
:100C940000009387673B22D4804306D626D24AD0ED
:100CA4004ECE52CC56CA5AC85EC679C0B7C4C90122
:100CB400014B973900009389A9389384F437173A84
:100CC4000000130AAA38973A0000938AAA32173907
:100CD40000001309E93B8357240095E35C44631D3A
:100CE4000B00173700002321F736832BC40022851D
:100CF400EF00305F5E84B9A82326FB00FDB783A70D
:100D0400090082971C443307F5406376F5000327F6
:100D140049001D8F2A9763E2E4089737000023A354
:100D2400072E8355240003450400973000E0E78034
:100D340060555C405844A1CB0C4403264900AE974F
:100D4400BE8663E4B70063E4C700B386C74014C437
:100D5400228B3A8449F0973700009387A7299C4B4C
:100D640009476372F706F91717370000232CF72891
:100D7400B250225492540259F249624AD24A424B26
:100D8400B24B4561828063170B009737000023AD97
:100D9400E72AA1BF2326EB0089BF03274A0209CF14
:100DA40063EFA7003385A74083A70A016376F500A4
:100DB4009737000023A8A724228B404461BF032750
:100DC4004900BA97C5B79737000023AD07224DB73E
:100DD400411122C417340000130484241C4006C6A5
:100DE40026C24AC091C782979737000023AA0722D8
:100DF4009737000083C79743858B9734000093840B
:100E0400A44295C397370000A382074283C77400A6
:100E14001547637AF700E52B83C77400F5178A0733
:100E2400A2979C4382971C4491C382971739000070
:100E34001309492103270900173600000346961BAE
:100E44009737000083C7071B93961700BA9683D67B
:100E54000600D5CE9737000083C7C71963E3C70CD4
:100E640097370000238807181C40639D07129737A3
:100E7400000083C7F73B91CF83C7740093F7F70F44
:100E840089EB97370000A385073A977001E0E78064
:100E9400C045973700009387A71A9C4363840710C3
:100EA400973700009387C71EDC4317370000232BB6
:100EB400F714E93B9737000093874719DC53FDC3C8
:100EC4001737000013070713184B9737000083C721
:100ED40037196369F70C83C7740015476364F70C0B
:100EE4009737000083C70739918BCDEF032609009C
:100EF4009736000083C6161063CCD70A2244B2404A
:100F0400924402494101174300E067008382850748
:100F140093F7F70F97360000238EF60CE3E2C7F23F
:100F240015BF86073E9783550700231007009737A0
:100F3400000023950710973700009387270E9C43E2
:100F4400173500000345050B13172500BA979C437A
:100F540082979737000083D7670E1737000003473F
:100F6400670993C7F7FF7D8D9317170003270900BF
:100F74003E97835707005D8D2310A7009737000025
:100F840083C7470791C78507173700002304F7066F
:100F940017370000034707069737000083C79705F4
:100FA400E370F7ECB240224492440249410182804A
:100FB400139717003297035707006DF785072DBF66
:100FC400AD6737C70040BD072326F7200F10000088
:100FD4009737000093870702C84F83278726BD668B
:100FE400BD0693C7F7FF99836A052326D7205D8D35
:100FF40082804111B7170040985F3AC6945F324728
:10100400E39CE6FE3245410182801305F00F8280A5
:10101400011122CC604126CA4AC84EC652C406CE2B
:10102400AA841D4A130965058549BC446364F40018
:101034000545B9A003C7D40083474400631A470594
:1010440003C784026304F7000040C5B70347540094
:1010540083C75405E31AF7FE1946CA8513056400CD
:10106400C136E31335FF0347C40083C79402E31D6D
:10107400F7FC0357E40083D7A402E317F7FC014508
:10108400F2406244D2444249B249224A0561828014
:10109400E31CF7FA0347540083C75405E316F7FA31
:1010A4001946CA8513056400A53EE31F35F9C1BF7F
:1010B4000111973700009387672722CC03A4070CFC
:1010C40026CA06CE2AC42EC6854419E40145F24038
:1010D4006244D2440561828083479100034714002F
:1010E400858B6304F7000044CDB719469305A1002E
:1010F400130524003536E31895FE0545C9BF173797
:101104000000130767111C439306001094C30100E9
:101114000100010001001C4323A0070083461500C1
:1011240003482500A2064208C29603480500C29659
:10113400034835006208C29694D783465500034895
:101144006500A2064208C29603484500C2960348B9
:1011540075006208C296D4D7834695000348A5005B
:10116400A2064208C29603488500C2960348B50009
:101174006208C29694DB8346D5000348E500A206C4
:101184004208C2960348C5000345F500C2966205AD
:10119400AA96D4DB83C6150003C52500A206420522
:1011A400AA9603C50500AA9603C535006205AA964A
:1011B40094CF83C6550003C56500A2064205AA96CE
:1011C40003C54500AA9603C575006205AA96D4CF47
:1011D40083C6950003C5A500A2064205AA9603C5C9
:1011E4008500AA9603C5B5006205AA9694D383C662
:1011F400D50003C5E500A2064205AA9603C5C500AD
:1012040083C5F500AA96E205AE96D4D3D443F59AE5
:10121400D4C3D44393E61600D4C3944393E6160090
:1012240094C3BA879443D842058B59E3984E014539
:101234002300E6009843184F2183A300E600984357
:10124400184F41832301E6009843184F6183A3019B
:10125400E6009C43D84F2302E600D84F2183A30223
:10126400E600D84F41832303E600D84F6183A303EC
:10127400E60098532304E60098532183A304E60070
:10128400985341832305E60098536183A305E60040
:10129400D8532306E600D8532183A306E600D85387
:1012A40041832307E600DC53E183A307F600828031
:1012B40001008DBF17370000130747F6144341118F
:1012C40022C49C5E4AC006C6998326C2858B3A8492
:1012D40017390000130949F4D1CB9C5E9734000000
:1012E400938484F493F7F7F99CDE173700000347DF
:1012F40007F493070008631BF700832709009C4346
:1013040093F70704173700002303F7F283C7040099
:1013140093F707049DC397370000938767D29C43D4
:1013240082979737000023A9A7F083C7040093F797
:10133400F70B173700002309F7EE83C7440093F730
:1013440007048DE7854717370000A301F7EE9737A9
:101354000000938727EF9C43096798C7130700FC95
:10136400973600002384E6ECD844F8D31C40985FF9
:101374001183058B09CB985F3D9B98DF0547973612
:1013840000002385E6EA985F1D83058B11CB985FE7
:101394001377F7F798DF8547173700002308F7E836
:1013A40083270900D8430583058B19C7D843759B48
:1013B400D8C3D843799BD8C3B2402244924402494B
:1013C40041018280397106DE16DC1ADA1ED82AD66B
:1013D4002ED432D236D03ACE3ECC42CA46C872C699
:1013E40076C47AC27EC0F935F250E2525253C253E7
:1013F4003255A255125682567247E2475248C248A5
:10140400324EA24E124F824F216173002030973723
:101414000000938727E39443973700009387C7E03E
:1014240003C70700058B11CB97370000238007E023
:1014340097370000A38C07DE828003C71700058B53
:1014440065F7F85271FF83C75700DDB717380000FE
:101454001308C8DC032708001C5F9583858BD1E73C
:1014640009C61C5BBD832300F60085CA83270800D8
:10147400985B4607935767016356070093E707C0D5
:10148400C207C18303970600C207C18709C7BA9779
:101494000947B3C7E7022390F60085CD83471500BB
:1014A4008DCB9736000083C686D893F6060413873F
:1014B400970089478DCA3A950347050085469947A1
:1014C4001376F7066311D60262076187B947634C46
:1014D4000700832708009C5FED838D8B173700007E
:1014E400A309F7D481473E8582808547EDBF41112A
:1014F40022C406C6173400001304C4D418403DE9BE
:10150400AE877453FDFE3E85B28597370000238E67
:1015140007D0977001E0E780C0B097370000938749
:10152400E7CF9C43B70680009843558F98C3D8579C
:10153400719BD8D797370000A38A07CE973700004E
:10154400A38407CE1C40094798C3144017370000F2
:10155400130787CD83472700858B89EB83473700A3
:10156400858BD9C797370000238207CCB240224429
:10157400410182808D476310F502973700009387FD
:10158400E7C99C43B70680009843558F98C3D85742
:10159400719BD8D75DBF8547E319F5FA5447F977AE
:1015A400FD17F58F5CC70F1000001C40096798C732
:1015B400130700F817360000230AE6C617370000A1
:1015C4001307C7C51043184231830D8B11E7130766
:1015D4006019F8D3D4C795BF1842094631830D8BDF
:1015E4006315C7001307E043EDB71307E01BD5B736
:1015F400FC52ADF3A5BF5D71A2C4A6C22A84130632
:1016040080022800AE849305100886C6CAC04EDE48
:1016140052DCEFF06FDB3545977001E0E78080DF47
:1016240017330000130383BF832703009376F41F4B
:10163400173E0000130E4EC623A40700984B973E96
:101644000000938E2EC0370FFCFF1367F70398CB6F
:10165400F84F130510F8B7020400137707E0558F0D
:10166400F8CF9843F576FD16758F98C39843B7065F
:101674003300930380251377F7E798C39843114900
:101684007D1F1377F7E71367071098C303270E002E
:101694008549930F80021C47D58F1CC783A70E0072
:1016A4001307900D3400B8CB014793553700A69526
:1016B40083C7050013767700B3D7C740858BE1C392
:1016C4008327030083280E00239C07042390070626
:1016D40003A8C8021378D8FF23A6080383A8070029
:1016E4001378F70793F808F833E8080123A00701F3
:1016F40003A847023368580023A2070383A80E00F7
:10170400014823A2780603DA07066307480303A8FF
:101714000703038A06001358F80062081358884127
:1017240063580A0103A807031358F800238006012D
:1017340003D807061378F80F03AA480663060A00BD
:1017440003DA8705E37F49FB03A847023378E801FE
:1017540023A2070383870600635CF40003C8050023
:101764003396C9001346F6FF337606012380C5007D
:101774003E8663D3A7002A86131586016185050773
:101784001377F70F8506E312F7F3B6402644964421
:101794000649F259625A6161828097360000938645
:1017A40066AA9C42D8471316170163550602984748
:1017B40013161701635006027D57B8D71737000078
:1017C40013074783584F0507173600002322E68482
:1017D400116798C798470D83058B1DC31737000001
:1017E4000347A7A41367170017360000230FE6A2C8
:1017F400130700F817360000230AE6A2214798C70A
:101804009847058B09CF173700000347F7A11367E3
:10181400170017360000A309E6A0054798C79847A4
:101824000983058B09E798470583058B31CF9847D2
:10183400173600001306469F173500001305059E52
:101844000983058B630307101841184331830D8BFB
:1018540075EBAC4B184E93F5050203471700CDCD3D
:1018640079EF13077006D8CF0347060013671700F4
:1018740017360000230AE69A114798C718415C57A7
:10188400F19B93E717005CD79C4298479316370166
:1018940063D606029736000083C6C6B0C18A1737DE
:1018A40000001307A7A8C5CE0347870713670702DD
:1018B400973600002388E6AE056798C798479316C5
:1018C400270163D1060217370000034727966207F2
:1018D4006187635707000547973600002388E6941D
:1018E400096798C798479316070163D60602973687
:1018F400000083C636AB858A17370000130707A399
:10190400ADCE034797071367270097360000A38BD4
:10191400E6A8216798C7828029D785456315B70053
:101924001307B00689B789456315B7001307F00696
:101934001DBF8D456315B700130730072DB7130777
:10194400500715B71307600739BF034736001367FD
:10195400170017360000A30AE68C094739BF8346EF
:1019640087070946BD8A6388C600034787078D46F3
:101974003D8BE313D7F4114725BF83469707918A1C
:10198400C9DA034797071367870041B7397106DE41
:1019940016DC1ADA1ED82AD62ED432D236D03ACE53
:1019A4003ECC42CA46C872C676C47AC27EC0F533FB
:1019B400F250E2525253C2533255A2551256825635
:1019C4007247E2475248C248324EA24E124F824FEB
:1019D400216173002030973700009387A7869843CE
:1019E4008567938707777CD3973700009387C78AE7
:1019F4009C4383A60709139656006358060083A6E2
:101A0400070913966600634406007453FDF282804E
:101A140071C5AA870145E9C58D07C207C183F19B3A
:101A2400C207C18313074003636FF702173700002F
:101A34001307478F0843173700001307278E1443F3
:101A44006398A6021727000013074760185B014537
:101A540041CB4111C20706C60545DD8D0297B24050
:101A6400014541018280173700001307678BD9B7FE
:101A74000357650035E303574500636FF704B30666
:101A8400F7402146637CD60203280500938687002D
:101A94001D8FAA9661171726000003560656239237
:101AA400E60023A006012393060014C12312F500C7
:101AB400130786FF972600002391E6542313B500ED
:101AC4009725000083D56553B387F5401727000099
:101AD4002315F7522105828008419DB70145828074
:101AE40082800DC1973700009387C78303A3070043
:101AF400973700009387878283A8070081469A87D7
:101B040063E31701828003A80700636DF50A636B22
:101B1400A80A13878700E367E5FE03D667002167F9
:101B240005076317E60003C7419205072382E19284
:101B3400972500009385054C03D6470003D765001D
:101B44002393070032974207418317250000231689
:101B5400E54A638A6702172500001305657C08417E
:101B64006303F50203D5660019ED83D7460023A06D
:101B7400060121073E9621062392C60097270000FE
:101B8400239DE746B6879843E30E17F79726000090
:101B9400938606799442E307D7F683566700BDF22D
:101BA40083D64700035647001843A106B2962392F2
:101BB400D70098C383D76500A10717270000231E09
:101BC400F7428280BE86C28725BF03278511630240
:101BD4000712411122C406C68347C5008345E504A4
:101BE4002A8493F7C70F2306F5008346970003560C
:101BF400C70013958601618563F2C508635B05061A
:101C04000345870093F6F607A304D700054693E639
:101C140027006314C50093E617002306D4005C4331
:101C240089075CC3A30AB400032504112E864C4320
:101C34000905EFE0FFF58327841103465401D443DB
:101C440003D7C700B296118FD4C32396E700894700
:101C5400A30DF400034764039727000083C72740BC
:101C64006378F7048347C40093E707012306F4006D
:101C740081A093E717002306F4006DB79376F60F5F
:101C8400635D050203458700854513E62700631459
:101C9400B50013E617002306C400A30AD400A30466
:101CA40007008547A30DF400832784119C43DDF3CB
:101CB400B240224401454101828093E71700230684
:101CC400F400A30AD400A3040700032504114C4321
:101CD4000905EFE0FFEB8327841103465401D44345
:101CE40003D7C700B296118FD4C32396E7008D475C
:101CF40055BF05458280972700009387E7759C436D
:101D0400411122C406C6858B2A84C5EF416513059B
:101D140025F5972002E0E780E0D845C58347A50074
:101D24002315F50083270412BDE72320A4122322E0
:101D3400A41285472311F40423200500834764017A
:101D440054412316F5000347D4002304E500054756
:101D5400A304E500172700001307074D184F138548
:101D6400170215811C437D151375F50F9CC25C4346
:101D7400DCC21C479CC65C47DCC61C4B9CCA5C4B43
:101D8400DCCA1C4F9CCE5C4FDCCE19CD9386060278
:101D940013070702C1BF8327441288C3835724044F
:101DA4002322A412850779B79727000083D7875881
:101DB400850717270000231FF756B240224441012C
:101DC40082808347C40023090400054593C7470064
:101DD4002306F400DDB78347850193F7E70FD5EFBA
:101DE40083479501DDEB034625018346C50009CAF7
:101DF40083456503172700000347772663E7E5005B
:101E040013F7060141CF014709C6C18A0357651C70
:101E140081C68356A51C369751C31307C7121725CD
:101E2400000003556527B335A70237460F0041115B
:101E340013060624814622C426C206C67D543305F1
:101E4400A702975002E0E78060C59727000083C788
:101E54007721B384A700972700009387274D03A712
:101E640087098327070963F387003E84184375FBBA
:101E7400972700009387C71C9C438297814763641C
:101E8400A400B307A440B2402244B3B7970093C759
:101E9400170092443E854101828081473E858280BD
:101EA400972700009387073A98437C53FDFF82806D
:101EB400797126D206D622D44AD04ECE52CC56CAF6
:101EC4005AC85EC68347550303447513AA843E94D7
:101ED4001374F40F9307400263F687001304B4FDF0
:101EE4001374F40F03AA841383AAC413A38B841258
:101EF40022865285D685975002E0E780A0B40589F2
:101F040015E503CBD41201498149337B6403930B58
:101F140050024A865285D685975002E0E78080B207
:101F2400058915C5639169031374F90F238B841212
:101F3400B250225492540259F249624AD24A424B54
:101F4400B24B456182808509E20993D9894105092B
:101F5400E31179FDE1BF83278509035605047971EF
:101F640093D60701BD8EC206C182358E13577640C3
:101F740093575640898B058B5D8F93573640918BD1
:101F84005D8F93571640A18B5D8F93171600C18BFD
:101F94005D8F9317360093F707025D8F93175600F2
:101FA4009355860093F707041E065D8F1376F60F8C
:101FB400518F93D7554013D63540118A898BD18FD1
:101FC40013D67540D18F13D61540218AD18F13961D
:101FD4001500418AD18F1396350013760602D18FEE
:101FE40013965500137606049E05D18F93F5F50FCD
:101FF400CD8FA20745465D8F3307C70222D42A84BA
:1020040026D252CC56CA032A8413832AC4135AC82C
:1020140006D6369742074183935777401355574066
:102024000989858BC98F135537401189C98F135579
:1020340017402189C98F131517004189C98F1315BA
:10204400370013750502C98F131557009355870080
:10205400137505041E07C98F1377F70FD98F13D58E
:10206400354013D755401189098B498F13D57540D5
:10207400498F13D515402189498F1395150041893E
:10208400498F1395350013750502498F1395550033
:10209400137505049E05498F93F5F50F4D8F22079F
:1020A400D98FB387C7024AD04ECE5EC662C4B697F4
:1020B400C207C18313D7774013D557400989058BCD
:1020C400498F13D537401189498F13D5174021897A
:1020D400498F139517004189498F1395370013755C
:1020E4000502498F1395570093D58700137505048E
:1020F4009E07498F93F7F70FD98F13D5354013D720
:1021040055401189098B498F13D57540498F13D5D3
:1021140015402189498F139515004189498F1395DD
:10212400350013750502498F139555001375050481
:102134009E05498F93F5F50F4D8F2207D98FB387ED
:10214400C702130650025285D685B697BD8E939466
:102154000601C18033F6C402137BF60F975002E0E8
:10216400E780408E05890DED8347D41201498149EA
:10217400B3849702130C5002C1804A865285D685D7
:10218400975002E0E780008C0589937BF90F11C515
:1021940063863403850993F9F90F0509E31F89FD63
:1021A400230B6413B250225492540259F249624AE6
:1021B400D24A424BB24B224C456182805E8BCDB7F2
:1021C400797122D406D683C735002E8423160100E4
:1021D400A307F10083C74500100802C02307F100DC
:1021E40083C755008A8502C2A306F10002C402C84F
:1021F40002CA02CC02CEEFE09FF00347F10183470D
:10220400040001456310F7020347E101834714000A
:1022140001456319F7000345D101834724001D8D4F
:1022240013351500B250225445618280011197275D
:1022340000009387A70F22CC03A4870C26CA4AC8A0
:102244004EC606CEAA8413092500854915C083C746
:10225400140003473400858B6304F700405CFDB72A
:102264001946930544004A85EFE09F9BE31835FF28
:102274002285F2406244D2444249B24905618280D7
:102284004111972700009387670A22C403A4870C8F
:1022940026C24AC006C693042500054901E82285E2
:1022A400B24022449244024941018280A68513052A
:1022B400A4023937E30525FF405CCDB741119727C8
:1022C40000009387A70622C403A4870C26C24AC031
:1022D40006C693042500054901E82285B24022443C
:1022E4009244024941018280A6851305A401C93D97
:0822F400E30525FF405CCDB7B6
:1022FC00971100209381C195176100201301C1CF64
:10230C001305400097E5FF1F938505CF17060020A6
:10231C00130606FE63FAC5008322050023A05500B0
:10232C0011059105E3EAC5FE177502001305C518E2
:10233C00970500209385C5FB1386C18463FAC500FD
:10234C008322050023A0550011059105E3EAC5FE83
:10235C0013850185972500209385C5106377B500FB
:10236C00232005001105E36DB5FEFD42739002BC00
:10237C008D4273904280930280087390023097E2F2
:10238C00FF1F938262C793E2320073905230971210
:10239C0000009382823273901234730020303D43DC
:1023AC002A876373C3029377F700BDEFADE593768D
:1023BC0006FF3D8ABA960CC34CC30CC74CC74107E9
:1023CC00E36BD7FE11E28280B306C3408A06970204
:1023DC00000096966780A6002307B700A306B700F7
:1023EC002306B700A305B7002305B700A304B70065
:1023FC002304B700A303B7002303B700A302B7005D
:10240C002302B700A301B7002301B700A300B70054
:10241C002300B700828093F5F50F93968500D58D38
:10242C0093960501D58D61B793962700970200000E
:10243C0096968682E78086FA9680C1171D8F3E9607
:10244C00E374C3F8A5B7B717004003C77705137734
:10245C00E70FA38BE704130700F8A38DE7043D47B0
:10246C00238CE70413075003A38CE70482804111EB
:10247C002A83014E930E407E130F0019930F4006D2
:10248C0063E66E149308001913034006B378150322
:10249C00854E0D4FA14F337365020D891335150011
:1024AC0063E0BE161308F6FF79467298420813587B
:1024BC0008013307C70213D61700BE0732976146CF
:1024CC00B3F6C60213068070B386C6023697A166B1
:1024DC00F58F42075D8FB716004083C7F60293F75E
:1024EC000708A307F1000346F10083C7F60293F730
:1024FC000708E394C7FE8347F100B716004093F733
:10250C00F70F63890714F3270080A18B938601854D
:10251C006398071401000100B717004013067005FB
:10252C002380C704130680FA2380C704010001002E
:10253C0023AA070303C6170313660608A388C7025A
:10254C0023800704732600809C42A18BD18F73904B
:10255C00078023A80184010001001166B715004013
:10256C007D16DC59C85DA98FF18FE5FFF32700803C
:10257C00A18B89CBF327008023A8F1849C42DD9B9F
:10258C007390078001000100B71700401306700517
:10259C002380C704130680FA2380C70401000100BE
:1025AC00D8DB03C7170313670704A388E70223804C
:1025BC000704732700809C42A18BD98F73900780EE
:1025CC0023A8018401000100410182807D1333683E
:1025DC00E3039308E016630E08003368F3039308D3
:1025EC00D016630808009378330093B818009388CA
:1025FC00D81633081E01131E0801135E0E0149B5CF
:10260C006393E503054863860800014863030300F0
:10261C002A8871087298FD15131E0801C205135EF5
:10262C000E01C181B5BD13F8150063F4BF00790824
:10263C00D5B713381800E5BF83C7F60293F7070820
:10264C00A307F1000346F10083C7F60293F70708CE
:10265C00E394C7FE8347F10093F7F70FF1DF65B5FD
:10266C00F327008023A8F1849C42DD9B73900780A4
:10267C0055B5914763EEB70217670200130787FC45
:10268C008A05BA959C41BA978287B717004003A771
:10269C00470B1345F5FF698F23AAE70A03A7070B1E
:1026AC00698F23A8E70A03A7070A798D23A0A70A35
:1026BC008280B717004083A6470B1347F5FFF98EAE
:1026CC0023AAD70A83A6070B558D23A8A70A83A68E
:1026DC00070A758F23A0E70A8280B717004003A76B
:1026EC00470B498F23AAE70A03A7070B1345F5FFEE
:1026FC0045BFB717004083A6470B1347F5FF758FEF
:10270C0023AAE70A03A7070A598D4DB7B71700404C
:10271C0003A7470B498FEDB7914763EEB7021767D5
:10272C000200130767F38A05BA959C41BA97828712
:10273C00B717004003A7470D1345F5FF698F23AA70
:10274C00E70C03A7070D698F23A8E70C03A7070C59
:10275C00798D23A0A70C8280B717004083A6470D64
:10276C001347F5FFF98E23AAD70C83A6070D558DB9
:10277C0023A8A70C83A6070C758F23A0E70C8280D7
:10278C00B717004003A7470D498F23AAE70C03A7EF
:10279C00070D1345F5FF45BFB717004083A6470D3E
:1027AC001347F5FF758F23AAE70C03A7070C598D68
:1027BC004DB7B717004003A7470D498FEDB7935797
:1027CC00E50093F70730C98FC2070547C1836382C1
:1027DC00E5048DC10947638DE5040D476380E5066B
:1027EC0037170040231FF70883562709D58F231965
:1027FC00F7088280371700400356670993C6F7FF26
:10280C00F18E231BD7088326C70C558D2326A70CC6
:10281C00C1BF371700400356670993C6F7FFF18E07
:10282C00231BD7088326870C558D2324A70C4DBF5B
:10283C003717004083566709DD8EE1B73717004024
:10284C0083566709DD8EE9BFB74700401147A38166
:10285C00E70009472380E700130700062380E70001
:10286C0003C7170013670701A380E70003C717000E
:10287C001377E70FA380E700828089473747004032
:10288C00631DF5008347170093E70704A300F700C7
:10289C00B7470040A381A70082808347170093F7B6
:1028AC00F70BEDB7B747004003C707001377F70ED8
:1028BC002380E700131705012E9541834205239CC5
:1028CC00E7004181239EA7002396B7002547238369
:1028DC00E70003C7170013671700A380E70003C7BF
:1028EC006700058B6DDF03C717001377E70FA38015
:1028FC00E7008280B717004003D58700420541816D
:10290C009377050491EB9377F5013755E80113059F
:10291C0005803345F50282809377050C130700047C
:10292C006397E7009377F50137459C1CCDB721657C
:10293C00130505D08280B7F700E08847CC4782802A
:10294C00814737370040A14663C4C7003285828077
:10295C000345B740E38EA6FE3385F500034505001D
:10296C0085072304A740CDB797070020938747AE70
:10297C009C43172700201307E7AE3E95636EE500D6
:10298C0017570020130747476368A7001707002055
:10299C002320A7AC3E858280FD57EDBF411122C498
:1029AC0006C62A84813F2947B307E502B2408D83CE
:1029BC00B3D7870222449507B3D7E70237370040D5
:1029CC00C207C1832316F740410182807165411112
:1029DC001305052006C6D937B7370040130770F822
:1029EC002381E7400D47A381E74013070004A38030
:1029FC00E74005472387E740B240410182803737E3
:102A0C000040834727401A0593F7F703C98F93F7C4
:102A1C00F70F2301F7408280B737004003C71740F8
:102A2C0019C9D98DA380B74003C707401367870026
:102A3C002380E740828093C5F5FFF98DA380B740D2
:102A4C008280411193962500AA852D4506C697E0F4
:102A5C00FF1FE780C0DCB24001454101828041117B
:102A6C0026C29394250022C44AC02A843289A686A1
:102A7C00AA850146254506C697E0FF1FE78020DAA8
:102A8C00A6864A86A285294597E0FF1FE78020D9B4
:102A9C00B240224492440249014541018280011115
:102AAC0022CC06CE3714004026CA4AC84EC652C4A1
:102ABC0083447405034AB40583498405034994058A
:102ACC0059328347A40593F4F40F137AFA0F93E762
:102ADC001700230DF40493F9F90F1379F90FB717B5
:102AEC00004003C7A705058B6DFF03D5C705A38D54
:102AFC004705238C3705A38C2705A38B9704F2403D
:102B0C006244D2444249B249224A05618280411151
:102B1C009397050122C406C6C1872E8463DD070086
:102B2C00EF10404119C1EF10C0392165218DB24021
:102B3C0022444101828093F7150013C51500E5FB73
:102B4C009397250163D20708EF50B13AB7170040AD
:102B5C0083C7E70293F7C70F93E71700732700802B
:102B6C00218B9386018509CB7327008023A8E184F0
:102B7C0098425D9B731007800100010037170040DD
:102B8C00130670052300C704130680FA2300C7043C
:102B9C00010001002307F7022300070473270080BC
:102BAC009C42A18BD98F7390078023A801840100CC
:102BBC00010037F60200130606E0896503C541855E
:102BCC00EF10500309659DB7939715010145E3D0AC
:102BDC0007F617650200130525AFEF4072061306C2
:102BEC000064916503C54185EF10D00011653DBFB0
:102BFC001D71494697650200938545AD1765020026
:102C0C001305453786CE97E0FF1FE780E00001E90A
:102C1C00176502001305C5ACEF40920201A0B7F690
:102C2C0000E0795798CAFD57DCCA0567B7E700E0A2
:102C3C0023A0E7101306F00290C223A0E7180100AE
:102C4C0001001306C0038145480897E0FF1FE78089
:102C5C0020F797070020938727B13ECA896793878F
:102C6C000780231CF100A167938707E03ECEB707CE
:102C7C000105938707103ED0ED472312F1028547DB
:102C8C002303F102970700009387E7DBBEC4970785
:102C9C000000938707DDBEC6B7F507009707000055
:102CAC009387A7C935473EDA81469707000093877B
:102CBC0047DF7000E10519452304E102A305E10299
:102CCC003EDE97E0FF1FE78080B5580881479946A4
:102CDC0070003E960346060085070507A30CC70047
:102CEC00E398D7FED24791C7035781018567637379
:102CFC00F70001A04808EF10B049AA8501C9176573
:102D0C0002001305259FEF40625F01A0F64025618C
:102D1C0082804111170500001305A5DF06C622C4E9
:102D2C00EF105043138441852300A4001928034558
:102D3C0004002244B24013060032896541016F1031
:102D4C00606B411106C6F3270080A18B9386018529
:102D5C0089CBF327008023A8F1849C42DD9B7390E0
:102D6C00078001000100B71700401307700523808E
:102D7C00E704130780FA2380E7040100010003C76E
:102D8C00F70213677700A387E702238007047327F2
:102D9C0000809C42A18BD98F7390078023A801845B
:102DAC00010001001305407E81470147814605461D
:102DBC008545EFF0CFEBB240014541016F10F0714A
:102DCC00B305B040176502001305C5946F4002535C
:102DDC00011122CC2316C10032846C0003C69186EB
:102DEC0006CEEF606020A28517650200130585935F
:102DFC00EF40C250F24062448547238EF184056156
:102E0C008280011122CC36C606CE2E84EF10C03241
:102E1C00B24637460F00130606243376C50291CA14
:102E2C00B285176502001305259132C6EF40024D9D
:102E3C00324622856244F240814505616FA081448F
:102E4C0081E9B28517650200130505906F40024BAE
:102E5C008547639DF500176502001305259009C68B
:102E6C0017650200130585906F40825D8947639852
:102E7C00F50017650200130565907DD682808D479D
:102E8C00E39EF5FE176502001305459071DEB285D1
:102E9C00176502001305C59055BF03C781869307BC
:102EAC00100363F0E70682809315340089051946F8
:102EBC00A6954A8597E0FF1FE78000D605ED05042F
:102ECC001374F40F83C78186E360F4FE8E078907C1
:102EDC003385F4001946CA8597E0FF1FE780C0CA06
:102EEC0083C7818613973700BA948507A380340172
:102EFC002384F186F2406244D2444249B2490561CE
:102F0C008280011122CC26CA4AC84EC606CEAE8992
:102F1C002A8901449384819875B7834725004947D2
:102F2C006366F71E17570200130747748A07BA9790
:102F3C009C43411122C406C626C24AC0BA972A84B1
:102F4C00828705041374F40F83C78186637DF400B4
:102F5C009315340089051946A6954A8597E0FF1FFD
:102F6C00E78080CB79DD83C7818663928704176500
:102F7C00020013056585EF40A24C014685450D45C1
:102F8C0023840186EF908119176502001305C58211
:102F9C002244B2409244024941016F40624A0144CA
:102FAC009384819817F9FF1F1309094B71BF17659B
:102FBC0002001305A582EF40A248938781980E0466
:102FCC00930624003E9403461400BE9681450145A9
:102FDC00EF9061110566130606C89305002003C522
:102FEC009186EF10204117650200130525804DB71F
:102FFC009305002003C59186EF10E0618345140012
:10300C00B9E58947A383F1868357A40013060064AE
:10301C00A1452393F18003C591868547238EF184C6
:10302C000564EF10203D130604C8C14503C5918605
:10303C00EF10403C130604969305001003C59186CF
:10304C00EF10403B175502001305457B91B7175500
:10305C0002001305A57BEF40622A175502001305E9
:10306C00A575EF40E23D238401862244B240924490
:10307C000249014685450D4541016F90210AA38304
:10308C000186F9579305001003C591862393F180AF
:10309C00238301862390018623840186238E018459
:1030AC00EF10605783456400175502001305C57770
:1030BC00EF40C2241755020013050570EF4042384B
:1030CC006DB7175502001305E577D9B517550200F2
:1030DC001305457875BD175502001305A578EF400B
:1030EC00223683454400130554002244B2409244D6
:1030FC00024941015DB3175502001305A577C5B709
:10310C00B24022449244024941018280828039714A
:10311C009397050126DA06DE22DC4AD84ED652D425
:10312C00C187AE8463D8072A03C59186EF009060EF
:10313C002A8415C5034705009307000B631EF7008F
:10314C0083C77186094783454500930985006382CF
:10315C00E7024E85EF60C0422285EF009056216554
:10316C00258DF2506254D2544259B259225A2161DF
:10317C0082800D476381E50205476390E5020347B2
:10318C008500631AF7028345C50017550200130525
:10319C00A56FEF40A216238E0184034744009307CA
:1031AC00F007631AF70083558400175502001305C6
:1031BC00256FEF40A214834744002D476382E7023A
:1031CC0005476394E70203478400A9466319D702B5
:1031DC008345C400175502001305456DEF400212DC
:1031EC00238E018483454400ADB74D476393E702BA
:1031FC00175502001305C56DEF408224D5B7C9469B
:10320C00631BD7048345C400175502001305056BD7
:10321C00F1B76D476391E704175502001305456C30
:10322C00EF40C20D0149175A0200130AEA6B83578B
:10323C00A4006366F9002945EF40421065B75C4471
:10324C005285CA9783C5070005094209EF40020B56
:10325C0013590901E9BF03C7618649D7854663172E
:10326C00D7081D47639CE7028357840085CB5C44D9
:10327C00175502001305C56783C5170003C6370031
:10328C0003C7070083C72700A2052206D98D5D8ED0
:10329C002392B1862391C186EF40420683474400B6
:1032AC001D476393E70403471400E947E39CE7F2E7
:1032BC0083D5418685D989472383F186896793878E
:1032CC00272003D621862316F10083C69186930707
:1032DC00A00203D561802314B1002315C10023077C
:1032EC00F100EF50D04DFDBD0547C9B78946631CB1
:1032FC00D7082547639EE7028357840095CB584433
:10330C009305000413060064834717000347070066
:10331C0003C59186A207D98F2390F186EF10800DFB
:10332C0083D50186175502001305455FEF30127DDA
:10333C008347440025476396E70403471400E94795
:10334C00E392E7EA8D472383F1869387418683D7FF
:10335C00070003C691862C002314F1009387218665
:10336C0083D7070003D561802315F1009307202034
:10337C002316F100930790022307F100EF50305110
:10338C0095B5054775BF8D46E31ED7E42547639079
:10339C00E7048357840085CF58449305000813062F
:1033AC000064834717000347070003C59186A207F3
:1033BC00D98F239FF184238E0184EF10A00383D532
:1033CC00E185175502001305E557EF30327323835F
:1033DC00018609BD93F7150085C317F6FF1F130669
:1033EC0026F197F5FF1F938565F103C59186EF8054
:1033FC00F14913C51400B5B393F7052081CB416592
:10340C007D15EFA0914A13C50420A1BB93F785004D
:10341C0095CB8967938727812314F100239001862C
:10342C002391018623920186854783C6918609469E
:10343C002C0003D561802383F186EF50906313C574
:10344C00840005B393F7050191CF130780258146BE
:10345C0013064006D14503D56180EFA0914413C5F6
:10346C00040101B393F705029DC301478946094640
:10347C00814503D56180EFA09145AA8517550200BF
:10348C001305C54FEF30926713C50402D9B993F7F2
:10349C0005046385070C83C7C185D9E317F7FF1FA4
:1034AC00034747FB83D7018603D5618051C323149F
:1034BC00F1000147854781460546C9452315F100B2
:1034CC0023180100EF50B044835581002AC61755CC
:1034DC0002001305E54BEF307262B247B1C313071C
:1034EC00A0052380E70003C691862C0003D56180DC
:1034FC00EF50703A0DE98547238EF18497F7FF1F43
:10350C0083C747F593B717001306006493050004AF
:10351C0003C5918617F7FF1F230EF7F2EF00906D8E
:10352C0013C504043DB9C9452800EF606005CDBF43
:10353C0003C691862C002314F100EF5010356DF169
:10354C008547238EF18497F7FF1F83C7A7F093B7A6
:10355C00170017F7FF1F230FF7EED9B793F70508DE
:10356C00B5CB83C7C185B9EF9387E18583D70700B6
:10357C00014781462314F10009468947C94503D503
:10358C0061802315F10023180100EF50503883554A
:10359C0081002AC61755020013054541EF3012561B
:1035AC00B2478DC3054423808700B24703C691867A
:1035BC002C00A380070003D56180EF50D02D11E5BE
:1035CC00238E818413C5040869BEC9452800EF50B9
:1035DC00307BCDBF93F705100145E38407B803D5C5
:1035EC006180EFA0D12B056613060696930500109B
:1035FC0003C59186EF00106013C504109DB6011130
:10360C00170500001305E5B006CE22CCEF10803470
:10361C001384918685652300A4009385059609453E
:10362C00EF302018D1451D45EF30A017930540060B
:10363C002145EF300017930540063545EF306016F5
:10364C0089472304F1007000854791451305F0402C
:10365C00A304F100A305F10002C623050100EF90BD
:10366C0011693000854513058040EF9051681306B1
:10367C009100854513059040EF9071671306A100EA
:10368C0085451305A040EF9091661306B100854562
:10369C001305D040EF90B165EF60701F0345040037
:1036AC00EF60404B034504008545EF00B03CF24011
:1036BC0062440561828041111305800406C622C450
:1036CC003714004097D0FF1FE780209C8327840A83
:1036DC008D451305002093E707202324F40AEFE01F
:1036EC005FF98327840A85451305001093E70710BB
:1036FC002324F40AEFE0FFF7EFF04FAD176502005B
:10370C0013054587EF30D2535523EFF06FCEEFF012
:10371C004FE0EFA0111CE535175502001305452AA3
:10372C00EF301252EF008071175502001305452A35
:10373C00EF301251C92A8D4513050002EFE0DFFD71
:10374C008327C40C8D45116593E707022326F40CDF
:10375C00EFE09FFC8327C40C1167D98F2326F40C50
:10376C0097D0FF1FE78080E2371700405C5FCA07E5
:10377C00C9832310F5008357A703C207C183231104
:10378C00F50083578703C207C1832312F50082809B
:10379C008357050083D605000357250003D6250063
:1037AC00958FB7662605938606C0B387D702118F0F
:1037BC009306007D035545003307D702BA9703D70C
:1037CC004500198D79473305E5021307803E3345D3
:1037DC00E5023E95828083552500411122C42A843E
:1037EC00175502001305851F06C6EF30323183557D
:1037FC0044002244B240175502001305651F4101D5
:10380C006F30D22FB717004083A7470C93860189DE
:10381C0090424111A18B06C65D8E15E2138541883D
:10382C00A1378547056623A8F188130606969305EC
:10383C00000203C5F180B24041016F00B03B9042E1
:10384C003687854603C5F180631ED606A5CF930542
:10385C000002EF00505C1385C1873937938541888E
:10386C001385C187353723A8A186AA8713071003B0
:10387C0003C5F18093050004635FF7021307B012D0
:10388C006349F700894723A8F1881306003CC1451A
:10389C005DB71307B05D8545635FF70093050002C4
:1038AC00EF0070579305002003C5F180EF00901CCA
:1038BC00914503C5F180EF00F01BB24023A80188AD
:1038CC0041018280104389466319D6029DE7C145A8
:1038DC00EF00705413854187413D9385C187138553
:1038EC0041877D351307702583C7F1808945635463
:1038FC00A700930500403E857DBF238701861C43AE
:10390C001C4381454DBF4111170500001305450EA1
:10391C0006C6EF102004AA85A387A18017550200C4
:10392C001305C50DEF30921D85452145EFE0DFDE17
:10393C0089452145EFE0BFE889472387F180B240F4
:10394C00B7E700E03707040023A0E71023A801889D
:10395C004101828083C7D186411113B7170022C45D
:10396C0006C6A386E18637140040A1E78327C40C62
:10397C0011671305800CD98F2326F40C97D0FF1FE9
:10398C00E780E0BC8327840C3705FF0093E7070230
:10399C002324F40C97F7FF1F938787AF8C430929D7
:1039AC002244B24013052003410117D3FF1F6700C7
:1039BC0003BA8327C40C1305800C93E70702232654
:1039CC00F40C97D0FF1FE78080B88327840C116715
:1039DC00B240D98F2324F40C224497F7FF1F93870E
:1039EC0067AB8C431305F00F4101D9A6411122C4DA
:1039FC0006C626C24AC093F715002E8485C31755F8
:103A0C00020013056501EF30B223A93713451400EA
:103A1C00B2402244924402494101828093F725002E
:103A2C00ADCB1755020013052500EF307221B714EA
:103A3C00004083A7C40C116713054006D98F23A639
:103A4C00F40C97D0FF1FE78080B083A7C40C4165AE
:103A5C00130505F093E7070223A6F40C97F7FF1F55
:103A6C00938707A303A90700CA859926130520038A
:103A7C0097D0FF1FE780A0AD83A7840C3705FF000C
:103A8C00CA8593E7070223A4F40C1D2613452400D2
:103A9C0041B793F74500A9C3175502001305C5F9A3
:103AAC00EF30121AB717004003A7C70C9166370501
:103ABC0000011367070223A6E70C03A7C70C7D15AB
:103ACC00558F23A6E70C97F7FF1F9387679C8C43B2
:103ADC00C524134544002DBF93F70501B1C7B71793
:103AEC0000401387018983A7470C1043894663154F
:103AFC00D602A18B99CB854503C5F180EF00807769
:103B0C0023A801881345040121B71755020013059A
:103B1C00A5F3EF30F212EDB70C4317550200130565
:103B2C0025F6EF30A27DF9BF93F70502A9CFB717A1
:103B3C0000401387018983A7470C10438546631CFB
:103B4C00D602A18B95E3914503C5F180EF008072FD
:103B5C0089452145EFE0BFC689472387F18023A81B
:103B6C000188134504026DB517550200130585F441
:103B7C00EF30120DEDB70C4317550200130505F786
:103B8C00EF30C277F9BF93F78500A1CB3717004010
:103B9C00035587030356A7034C5F9387018911676D
:103BAC009443930717007D17F98DB337F50093C72E
:103BBC0017000606C2053E96C18117550200130573
:103BCC00E5F5EF30A27313060064A14503C5F1803F
:103BDC00EF0050021345840025BD93F7050491CBEB
:103BEC0017550200130545F5EF30920513450404F3
:103BFC0005B593F7051091CB17550200130545F544
:103C0C00EF3012041345041021B593F705208DCB2A
:103C1C0017550200130585F5EF3092021385418884
:103C2C005D3E1385C187453E938701878C431755AD
:103C3C000200130565FCEF30626C13450420C9BB10
:103C4C0093F705400145E38507DC17550200130582
:103C5C00E5FBEF30E27E134504405DBBB717004037
:103C6C0003D7E709218B29C303D7E709411122C6E2
:103C7C0013678700239FE70883C7E1800944639E8D
:103C8C0087008D452145EFE09FB38D472387F18059
:103C9C00953E324441017300203089452145EFE0C7
:103CAC001FB223878180EDB7730020304111175567
:103CBC000200130525FA06C6EF30827895450545B6
:103CCC00EFE09FD5175502001305C5F9EF30427789
:103CDC0037370040834727402D4593E717002301D2
:103CEC00F740EFE0DFD1175502001305A5F8EF30D0
:103CFC002275B240B7E700E03707000823A0E710B1
:103D0C0041018280411126C2B28431463386C402FD
:103D1C0022C42E84814506C6EFE06FE82A8E9305F7
:103D2C0034008148B14E13030008254F93970801C6
:103D3C00C18363FA9706B386D8031386D5FFF29630
:103D4C00B9A0834F06001308F5FF335803413378AD
:103D5C00F80103870700631F0802136707F8238025
:103D6C00E70003480600B35FA340038707003378DE
:103D7C00F80163140802136787002380E700090524
:103D8C008507E310E5FD05069106630BB600B687C3
:103D9C00054545BF136707FED9B71367E700F1BFA9
:103DAC0085088D0561B7B24022449244410182805E
:103DBC00011126CA970400209384441C61464AC80A
:103DCC004EC62E89AA898145268506CE22CCEFE0E7
:103DDC000FDD13D589001375F50FEF300233CA854B
:103DEC00EF304204EF30022D1384C1892300A4006C
:103DFC0013D509011375F50FEF302231CA85EF3059
:103E0C006202EF30222BA300A40013F5F90FEF3060
:103E1C00C22FCA85EF300201EF30C2292301A40062
:103E2C00A28526850546F93D6244F2404249B249D5
:103E3C002685D244B14505616FE0DFA641118D4561
:103E4C00116506C6EFE0FF8217550200130585F1D8
:103E5C00EF30025F8D452165EFE0BF8137170040E1
:103E6C008327C70AA166D58F2326F70AEFE0DF9DCB
:103E7C004D45EFE09FA097070020938727103E85C4
:103E8C0061468145EFE0AFD1E145EFE0BFA197E797
:103E9C00FF1F93876760B2408C434165130505F0A3
:103EAC00410139B723AC05FE1C4191E7010001002B
:103EBC000CC18280BA8703A787FF6DFF23ACB7FEC6
:103ECC0082801DC18346E5FF1307F00F9147639E67
:103EDC00E600411106C697E0FF1FE78000C0B24024
:103EEC0081473E854101828095473E85828001E96C
:103EFC00014582800145B240224441018280956592
:103F0C004111938505D022C4C98D2A842105C2058F
:103F1C004205C181418106C697E0FF1FE780C0AE14
:103F2C0071D9FD5723200500231285002303F500CA
:103F3C002105D1B7170700201307C70A1C434111ED
:103F4C0022C426C24AC006C601440149BA8489E784
:103F5C00A165D1251DC401A803C7E7FF631AA702F9
:103F6C000DCCA165012E9840832784FF6319E402D0
:103F7C00170700202328F706FD57232C04FE230FD8
:103F8C00F4FE2285B24022449244024941018280CF
:103F9C0011E03E8983A787FF5DBF3E84E5BF232CDC
:103FAC00F9FED9BFB1CD411122C406C62A849707A8
:103FBC00002083C777032E856375F400894763E877
:103FCC00870001370D45B24022444101828083A70E
:103FDC0085FF99E703C7E5FF9307F00F6305F7002B
:103FEC00CD351545CDB7238F85FE1705002013055C
:103FFC0065FF4D3D22852244B240A16541019DAC37
:10400C00154582809707002023AE07FC8280970716
:10401C0000209387A7029C4399E33E85828003D7B7
:10402C0027006316B70003C70700E308A7FEDC47A9
:10403C00E5B7C9C1797122D406D626D24AD04ECE64
:10404C0001444147B3D78540858BA5C31205314741
:10405C0022953305E502970700209387270203A9D1
:10406C0007008544B3948400C204C180BE892A9998
:10407C000327090011C7032549002EC60297B24534
:10408C0031473304E40283A709003E941C4489E7BA
:10409C002320090023220900B2502254A58D025975
:1040AC009254F2492E85456182800504E31CE4F8A4
:1040BC008144DDB72E85828041111397050122C4FE
:1040CC0006C626C24AC041872E84635E07009D3512
:1040DC0011C1C53BA1673D8C2285B240224492445C
:1040EC00024941018280EDD9AA8701474146B35666
:1040FC00E440858A8DCE9207BA97B146B387D70232
:10410C0097060020938686F703A906008544B3948E
:10411C00E400C204C1803E998327090003254900AD
:10412C0082972320090023220900258C75B70507E7
:10413C00E31FC7FA8144D5BF97070020938747F048
:10414C009C53411122C406C61384018199C78297DE
:10415C001C403E9523A8A18039A097070020938787
:10416C0067ED9C43EDF70840B74703009387D73FB3
:10417C003305F502B7A72600938737ECB2402244EB
:10418C003E9523A8A180410182807DC19707002024
:10419C00938747EA9C43797122D426D24AD04ECEDB
:1041AC0052CC56CA5AC806D65EC63A8AB689328BE3
:1041BC00AE8A2A89829797070020938727EC984329
:1041CC00BE840144B146C147B30BD4023306770118
:1041DC00104251EAC165938505F0414597E0FF1FF8
:1041EC00E78080821DE597070020938767E59C5B3D
:1041FC002D4589C71145814582972D45B2502254D2
:10420C0092540259F249624AD24A424BB24B45612E
:10421C00828097070020938767E2984329E39707EA
:10422C00002023ADA7E0230005009C400547331771
:10423C00870023260500232465012311E500232292
:10424C004501DE9723A0270123A2570123A4470190
:10425C000145E38509FA238089004DB73E875C4709
:10426C00F5FF48C7C9B70504E310F4F6214579B743
:10427C00094582809707002083C717D76371F50221
:10428C0017070020130747DB9317150008433E95CB
:10429C0083570500DD8D2310B500014582800D4547
:1042AC0082809707002083C737D46373F502170702
:1042BC000020130767D893171500084393C5F5FF23
:1042CC003E9583570500FD8D2310B5000145828076
:1042DC000D458280130705FF1377F70FFD4763E940
:1042EC00E70AB146B306D50297070020938707D992
:1042FC00984389473697184349CF011122CC4EC6B3
:10430C000544935945003D893315A4001314050148
:10431C00418026CA4E85AE84A2854AC806CEC539D0
:10432C002A89814731CDA2854E85A53F970700206C
:10433C00938747D09C4382979707002083D707D554
:10434C00338797022A84814613060064B3B7970219
:10435C0013050732B335E500BE95EF202273B30782
:10436C008500970600209386E6D13E87D44263E40D
:10437C00A70063E4D7003387D7402324E9008147A3
:10438C00F2406244D2444249B2493E850561828082
:10439C0089473E858280011126CA06CE22CC4AC8A6
:1043AC004EC6BD47894463EFA70231473307E50288
:1043BC0097070020938787CC9C438944BA979C43EA
:1043CC0095C305443314A400420441802E89014551
:1043DC00A2853539AA89814411C5A2850145D135FB
:1043EC0023A42901F240624426854249D244B249B1
:1043FC00056182809707002083C717BF6364F500AF
:10440C00014582800111970700209387A7C256C2ED
:10441C0083AA070006CE22CC26CA4AC84EC652C46E
:10442C00638D0A0A170A0020130ACAC583244A009E
:10443C00B74736FE938707C8AE899705002083D50A
:10444C00E5C4BE94B387C5022A8432898146B3B5CC
:10445C00C50213850732B337F50013060064BE9509
:10446C00EF20C26263EBA406829A9705002083D5E5
:10447C00E5C1B3872503AA84130600648146B3B54E
:10448C00250313850732B337F500BE95EF20026084
:10449C00B3079500BE8403274A0063E4A70063E4D6
:1044AC00E700B384E740CE852285953601C504C567
:1044BC0005452DA0936504F0C205C181414597D0F7
:1044CC00FF1FE780605405E597070020938747B7E7
:1044DC009C5B81C7A285114582970145F2406244DD
:1044EC00D2444249B249224A924A056182809707D6
:1044FC0000209387A7B49C439DE39707002023AF2C
:10450C00A7B285472326050004C5231135012300D6
:10451C008500A300F5002322050059BFBA87D847B0
:10452C0075FFC8C7F9BF59C9797122D426D24AD0B0
:10453C004ECE52CC56CA5EC662C466C206D65AC8A5
:10454C003689328AAE89AA844144314C970A0020BC
:10455C00938ACAB2854C930B0003330B840303A7D5
:10456C000A005A971C43B1E79375F400B395BC004D
:10457C0013554440C2055286C1811375F50F9D3DFC
:10458C000DC983A70A000145DA9784C323A237011A
:10459C006304090023008900B2502254925402593A
:1045AC00F249624AD24A424BB24B224C924C456180
:1045BC0082800504E31374FB2145F9BF0945828011
:1045CC00411122C426C24AC006C62A842E89B2844E
:1045DC001535CA852285EFF09FA305CD97050020E0
:1045EC0083D5C5AAB38795022A8413060064814635
:1045FC00B3B5950213850732B337F500BE95EF209E
:10460C00E24848C00145B24022449244024941016B
:10461C0082802145CDBF411122C426C24AC006C6A4
:10462C002A892E84EFF0BF9EAA8419C1231105009C
:10463C00A2854A85BD319707002083C7E79A639B03
:10464C0027019707002083D7A79E5D8C9707002032
:10465C002390879E014591E01945B2402244924433
:10466C000249410182809307F00263E8A7044111DB
:10467C00B14722C43304F50226C297040020938468
:10468C00E49F9C4006C6A297984389470DC3937735
:10469C00F5008545B395F500C205C1811181A53F93
:1046AC009C40A29723A0070023A207008147B24099
:1046BC00224492443E854101828089473E85828016
:1046CC00411106C622C4EFF09F9411E50145B2409A
:1046DC00224441018280970700209387A7959C4331
:1046EC0000458297970700209387C7996368A402B7
:1046FC00D843B74636FE938606C83305A440369792
:10470C00E376E5FC13070064B335E50203D68700B6
:10471C0081463305E502EF20623755BFD8433A9402
:10472C00C1BF411122C426C2170400201304849572
:10473C00970400209384448B94485840970700209A
:10474C009387478F06C69C436393E6088297544031
:10475C00B74736FE938707C8B6973387A7003A85C5
:10476C006364F7006364D7003305D74097040020D7
:10477C009384C4AA9C4C81CF97070020938707B1E0
:10478C0094433707CDFF7D179C46F98F9CC611E1EA
:10479C004840970700209387A78ADC53829719E536
:1047AC009C4C8DC3EF40610BEF30E1609C4C99CB7E
:1047BC0097070020938787AD9843B70633001C47B3
:1047CC00D58F1CC7B240224492444101828082970B
:1047DC0098489707002083C7F78754401D8FB3076D
:1047EC00A7003E8563E4E700E3E2D7F83385D740C2
:1047FC00B5BF411106C69707002023A3A7880295D1
:10480C00B24097F7FF1F23ADA77E0145410182807F
:10481C00994763E9B7008A0597F7FF1F9387877F4E
:10482C00BE9588C1828041117146814517F5FF1FE5
:10483C001305457E06C69707002023A1078097071E
:10484C00002023AF078297F7FF1F23A5077E97C091
:10485C00FF1FE780E03613068002814517F5FF1F26
:10486C001305857897C0FF1FE7808035EF90911175
:10487C0097F7FF1F83C7377E13D527008D8B3E9587
:10488C008D473305F502854539051375F50F97F7F7
:10489C00FF1F238CA77499473305F50213050524D4
:1048AC0097D0FF1FE780401617F7FF1F2328A77C20
:1048BC0059CD994717F6FF1F034626733306F602A8
:1048CC0081451306062497C0FF1FE780602F97F7DA
:1048DC00FF1F9387A77A9C439387072417F7FF1F23
:1048EC002328F77217F7FF1F034727700A07BA9799
:1048FC0017F7FF1F2322F774EFF0CFF0052B97F774
:10490C00FF1F9387E770944397F7FF1F83C7D76DFB
:10491C0013972700369717F6FFFF1306C67110C3BF
:10492C00138717001377F70F0A07369717F6FFFF51
:10493C001306C67810C313873700890793F7F70F50
:10494C008A0797F5FF1FA381E56AB69790C3B2401B
:10495C004101828097F7FF1F83C7176917F7FF1F65
:10496C000347A76863F3E70217F7FF1F1307476AAC
:10497C0018439386170017F6FF1FA307D666939666
:10498C002700369708C33E8582809307F00FE5BF5A
:10499C001C41638A071641777D8FB7060020894733
:1049AC006314D7160357450063000716411122C440
:1049BC0019462A849305F00F690506C697C0FF1F98
:1049CC00E780202A05478D47630AE5121C4481CBFA
:1049DC005858994763040712185C630107121306B1
:1049EC00C003814517F5FF1F1305856597C0FF1F91
:1049FC00E780001D1306C003A28517F5FF1F1305E2
:104A0C00256497C0FF1FE780201817F7FF1F035777
:104A1C00E76397F7FF1F9387A76219E71307001047
:104A2C0097F6FF1F2394E66217F7FF1F03472762D1
:104A3C0011E7054797F6FF1F238BE66017F7FF1F5B
:104A4C000357076111E76D4797F6FF1F2392E66046
:104A5C0017F7FF1F0347B75F11E7154797F6FF1FBF
:104A6C00A387E65E17F7FF1F0347A75E11E705470D
:104A7C0097F6FF1F238FE65C17F7FF1F0347775D41
:104A8C0019E703C7F70097F6FF1FA384E65C17F737
:104A9C00FF1F0347275C11E7354797F6FF1F238B52
:104AAC00E65A17F7FF1F0347375B19E71307800216
:104ABC0097F6FF1FA382E65A17F7FF1F0347975974
:104ACC0019E71307D00297F6FF1FA385E658034793
:104ADC00840119E71307C00397F6FF1F238EE656D0
:104AEC009C5791C7829797F7FF1F2393A750FD57A9
:104AFC0017F7FF1FA30EF77E3D338147B2402244C8
:104B0C003E854101828089473E85828001114EC6D7
:104B1C0097F9FF1F9389095783A7090006CE22CC6A
:104B2C0026CA4AC852C4829713090064B3352503B8
:104B3C0003DA89008146528633052503EF1012757E
:104B4C0097F7FF1F9387474A804FAA840145630656
:104B5C00940233858440636E940003A54900528609
:104B6C008146B335A9023305A902EF103272018DCB
:104B7C00269597F7FF1F23A59748F2406244D2442D
:104B8C004249B249224A05618280011122CC0A8530
:104B9C002E84414697450200938505B206CEEF2040
:104BAC00826A180806043A94035504FF97F7FF1F0E
:104BBC0083D7E74DF2406244AA9737450F0013059F
:104BCC0005243355F5020561828097F7FF1F83D7C3
:104BDC00074C51471D45637CF702794719456378AB
:104BEC00F7021307200315456373F7021307B0048C
:104BFC001145637EF700130740060D456379F700F6
:104C0C001307600909456374F70013B5B70F828069
:104C1C00011122CC06CE2A842EC6EFF0EFD1B2457C
:104C2C00F240818D33A5A502229562441375F50FD0
:104C3C0005618280011122CC06CE2A842EC6EFF0AB
:104C4C00AFCFB245F240818D33A5A50222956244C7
:104C5C004205418105618280011122CC06CE2A8455
:104C6C002EC6EFF06FCDB245F240818D33B5A50263
:104C7C00229562440561828097F7FF1F9387473C1A
:104C8C00985739CB411122C426C206C6BE8402975E
:104C9C0017F7FF1F0357C7352A8415CBBA876373E1
:104CAC00A700AA87C207C183BA866373E400A286F1
:104CBC00C206C182958F5147635BF700DC5491C3E8
:104CCC008297EF30112397F7FF1F23938732B2405F
:104CDC002244924441018280828097F7FF1F938780
:104CEC002736DC57011106CEAA8581C72AC68297C2
:104CFC00B245C1C59C410545B5CFDC41A5CF83D795
:104D0C008500ADCB83D7A500B5C783C7C500BDE370
:104D1C00414617F5FF1F1305E53697C0FF1FE780C7
:104D2C00A0E697F7FF1F9387E7359C4317F7FF1F04
:104D3C002322F73097F7FF1F83C717328DE79307AE
:104D4C00800217F5FF1F035565343305F50237460E
:104D5C000F001306062481468145EF10325397F756
:104D6C00FF1FA38BA72E17050000130565DAEFF0C4
:104D7C005FA80145F2400561828097F7FF1F83C74A
:104D8C00872D1397870161876354070497F7FF1FDB
:104D9C0023AA072697C7FF1F9387072217F7FF1F22
:104DAC002322F72E7D5797F7FF1F23AFE72CB787EA
:104DBC003200938727A197F6FF1F23A9F62C97F7AC
:104DCC00FF1F2387072CB7C7004023A4E72691BFFA
:104DDC0013F7170005CFB7872003938707D017F772
:104DEC00FF1F2325F72AB707C0A817F7FF1F232D8E
:104DFC00F72897C7FF1F9387471F17F7FF1F23231A
:104E0C00F72897F7FF1F2385072821BF617797F6AF
:104E1C00FF1F239DE62681CB9307003217F7FF1F58
:104E2C002317F726C9B793072003CDBF011122CC56
:104E3C0017F4FF1F1304C420084406CE26CA4AC820
:104E4C0001E90545F2406244D24442490561828041
:104E5C005C58E5DB185C75D7700085458297184463
:104E6C00B247E300F7FE9305E00417F5FF1F035567
:104E7C00E51D97D0FF1FE78020B917F7FF1F2325EB
:104E8C00A71861D117F6FF1F0356461C9305F00FA8
:104E9C0097C0FF1FE780C0D2814417F9FF1F130989
:104EAC00A91497F7FF1F83C7871A0326090263C14A
:104EBC00F402328597D0FF1FE78020C2014597F797
:104ECC00FF1F23A3071497F7FF1F23A107149DBFF0
:104EDC0097F5FF1F83D58517B38795020844185C97
:104EEC00898185043E9508C2029765BF011156C29F
:104EFC0097FAFF1F938ACA1483A78A0022CC4AC848
:104F0C004EC606CE26CA52C45AC0AA892E843289ED
:104F1C006385072203A74A03630707147D4763666B
:104F2C00A71497F4FF1F9384240C03AA040263179D
:104F3C000A0A9565938515E017F5FF1F03550511B2
:104F4C0097D0FF1FE78040AC97F7FF1F23AEA70A4F
:104F5C002A86630A051083A74A0303A58A0097F5DE
:104F6C00FF1F83D5A50E8981829783A78A0003AA88
:104F7C00040217F7FF1F232BF7088947639CF908D6
:104F8C00C1476312F40E97F5FF1F83D5250C93854B
:104F9C0005FC9147B3C5F5028A05D29503C70500F8
:104FAC009307A005631DF70A83C715006399370B98
:104FBC004A852286910597C0FF1FE780E0BC9C5074
:104FCC005285639347150145F2406244D2444249ED
:104FDC00B249224A924A024B05618280D850E38E34
:104FEC00E7F89565938525E017F5FF1F0355050632
:104FFC0097D0FF1FE78040A12A8A35C52A8683A750
:10500C004A0303A58A0097F5FF1F83D525048981E0
:10501C008297A5B78D47639DF900C1476315F404CA
:10502C0097F5FF1F83D58502938545FDF199B5B79B
:10503C009147639AF9006318340397F5FF1F83D5E2
:10504C00E500A115E5B7C147639FF900A14763ECE3
:10505C00870097F5FF1F83D565FFC115C1BF9C5015
:10506C0052856397470D294585B71307F006568B74
:10507C006361A70A130A05FE1947334AEA0217F7B8
:10508C00FF1F0357A7FC97FAFF1F938AEAF5330A11
:10509C00EA023E9A83A74A026395470183A40A0257
:1050AC009DE49305E00417F5FF1F035525FA97D0EF
:1050BC00FF1FE7806095AA845DD583274B0397F586
:1050CC00FF1F83D5A5F82A86898152858297914541
:1050DC001307A005898193972500A69783C607001F
:1050EC006393E60483C61700639C360385058A0523
:1050FC002286A6954A8597C0FF1FE780E0A883A764
:10510C000A02E38297EC268597D0FF1FE780E09C8C
:10511C005DBD1307E007E368A7F4130A05F985B72B
:10512C0083D5270045BF83A70A02E38E97F2268515
:10513C0097D0FF1FE780609A3DB797F7FF1F9387C3
:10514C00A7EA8C538DD191479306A00589831397B9
:10515C0027002E9703460700E317D6F003461700E7
:10516C00631C360185078A072286BE954A8597C03F
:10517C00FF1FE78060A181BD83572700C1BF97F750
:10518C00FF1F9387E7EB984739C79C5FA9C7054773
:10519C006313E504411122C417F4FF1F1304C4E484
:1051AC00105006C60DC6485097F5FF1F83D505EA6B
:1051BC0089818297085097D0FF1FE780009297F75C
:1051CC00FF1F23A307E497F7FF1F23A107E4B240B7
:1051DC002244410182808280011117F7FF1F1307BF
:1051EC0027E64EC68329870022CC26CA4AC806CE9B
:1051FC0052C456C2AA842E843289638A09201C5F49
:10520C00BA8A99EB2945F2406244D2444249B249E8
:10521C00224A924A056182805C5BEDD7FD4763E9C7
:10522C00A70E97F9FF1F938929DC83A70902B1CB3D
:10523C0003A58A0083A749026395A7068947639350
:10524C00F408C147E310F4FC17F5FF1F035505E004
:10525C009147130505FC3345F5029317250003A56B
:10526C0009022286CA853E959307A0052300F50006
:10527C00A3009500110597C0FF1FE780E090014542
:10528C0059B79305E00417F5FF1F035525DC97C0AC
:10529C00FF1FE780607797F7FF1F23A7A7D649F971
:1052AC0095B783A74A0303A6090297F5FF1F83D579
:1052BC00E5D98981829783A78A0017F7FF1F2327D7
:1052CC00F7D4ADBF8D47639EF400C147E31CF4F2E5
:1052DC0017F5FF1F035585D7130545FD9377C5FFBC
:1052EC00BDBF9147639AF400E31E94F017F5FF1FBE
:1052FC000355C5D52115DDB7C147E395F4F0A1479A
:10530C00E3E287F017F5FF1F035545D44115F9B7B4
:10531C009307F00663EAA706930705FE1947B3C780
:10532C00E70217F7FF1F035767D217FAFF1F130A7D
:10533C00AACBB387E702BE9983270A02A9CF83279A
:10534C004A02639A370703250A0291461308A005FF
:10535C00FD5593D72600C207C183139727002A97C0
:10536C0003460700631D06078348170003562700F2
:10537C0063959806B306D64063CF860485078A07E3
:10538C002286CA853E95C5BD9307E007E3ECA7E6E8
:10539C00930705F979B79305E00417F5FF1F03553B
:1053AC00E5CA97C0FF1FE780206697F7FF1F23AD64
:1053BC00A7C451F581BD83A74A0303260A0297F5BA
:1053CC00FF1F83D5A5C889814E85829797F7FF1F4C
:1053DC0023AE37C38DBFA300B700B2869DBFB38584
:1053EC00860017F6FF1F035666C69105130606FCCA
:1053FC00E3FAC5E0130634001376C60F1106B29615
:10540C0023000701A30097002311D70085BF97F74E
:10541C00FF1F938767BD9453BE89A1C203A50902E0
:10542C0091461308A005FD5593D72600C207C183EA
:10543C00139727002A97034607006316060583482F
:10544C0017000356270063989800B306D640E3D79D
:10545C0086F2A300B700B286C1BF8357C70017F509
:10546C00FF1F0345C5BE9305E0043305F502420555
:10547C00418197C0FF1FE780205997F7FF1F23A595
:10548C00A7B849FD41B317F6FF1F035626BC97F585
:10549C00FF1F83C5C5BBB385C502338686001106C5
:1054AC00E3E2C5D681BF01458280011106CE2EC62E
:1054BC00EF80B03601C9B245F240035525000561B5
:1054CC006FC09074F240494505618280A384018CC1
:1054DC002384018C23A8018A23AA018A23AC018A84
:1054EC0023AE018A23A6018A23A4018A97F7FF1F02
:1054FC00938747BC930640382391D702F176130764
:10550C00400B938606B82391E7002392D7021167CC
:10551C009D46130600059305000A1305007D239292
:10552C00E7002393D70241478546130810F82395CB
:10553C00E7002396E7002399E700239AE700239BD3
:10554C00E700239CE7002394E702239007002393B2
:10555C00B7002394B7002397C7002398C700239D57
:10556C00A700239E0700239F070023900702239583
:10557C00D70223960703239707029308F007239873
:10558C0007022392E7042393E704239FE704239065
:10559C00E7062391E7062392E706239917031307DF
:1055AC00C01C239AD702239BD702239C0702239D5E
:1055BC000702239E0702239F0702239007042391CF
:1055CC00D70423940704239507042396D704239721
:1055DC00C7042398C7042399A704239A0704239B81
:1055EC000704239C0704239DC704239EC70423930D
:1055FC00A7062394070623950706239607062397E9
:10560C00B7062398B70623990706239AE70651474E
:10561C00239DE7067D57239B0706239C0706239EA5
:10562C00D706239F07062390070823910708239288
:10563C0007092393E7088280011126CAAA84214511
:10564C0022CC06CE2E8432C636C43AC2EFE03F8A54
:10565C001DC9A24612473246930700FD2300F500F0
:10566C009947A30095002301F5002303D500A3035C
:10567C00E5002312C500AA8522856244F240D2447B
:10568C0005616FE03F92F2406244D2440561828032
:10569C0023A8A18A828023AAA18A828023ACA18A12
:1056AC00828023AEA18A8280011122CC4AC806CE08
:1056BC0026CA2A890144B30489006368B400F24005
:1056CC006244D2444249056182802EC6EFE0DFA6D7
:1056DC0093170501C183A183B2452380F40093077E
:1056EC00140093F7F70F850463F9B700CA97090400
:1056FC002380A7001374F40F7DBF3E847DBFC16768
:10570C0017F5FF1F03556599FD176304F502411149
:10571C0017F6FF1F034606AE9385018C06C6EF8075
:10572C00C06DB240FD5717F7FF1F2318F7964101C4
:10573C008280828009C925151375F50F1335850EE6
:10574C001345150082800145828023900500C9C64F
:10575C00797122D426D24ECE52CC5AC806D64AD013
:10576C0056CA5EC63684328AAE892A8B814463F36C
:10577C004407B307940083C7070013891400420938
:10578C00939A070193DA0A011359090163840A04F5
:10579C00CA976341FA04B307240183CB07005E85E3
:1057AC00513F0DC99387FAFF2390F90063906B0367
:1057BC00130519002295B250225492540259F24901
:1057CC00624AD24A424BB24B45618280D694C204A3
:1057DC00C18071BF0145C5B701458280411126C208
:1057EC00AE8422C497F7FF1F23A0C78C97F7FF1F27
:1057FC0023AAB78A97F7FF1F23A4A78A2A844146B6
:10580C009305F00F26854AC006C6054997B0FF1FC1
:10581C00E78020456310250597F7FF1F938787873F
:10582C00884BC145513541469305F00F228597B001
:10583C00FF1FE7800043854463189502224497F7C5
:10584C00FF1F93872785B24092440249C847C14540
:10585C00410199BD41468145268597B0FF1FE780E0
:10586C004040E31225FD4DBF41468145228597B04E
:10587C00FF1FE780003FE30395FCB24022449244B3
:10588C00024941018280411122C426C22E84AA847D
:10589C0013060002814517E5FF1F1305A57F06C6F9
:1058AC0097B0FF1FE780C03197E7FF1FA385977E56
:1058BC0097F7FF1F23828794EFC05037854719C194
:1058CC0081474945B240224417E7FF1F2304F77C68
:1058DC00924441018280814781CD19C98547631B60
:1058EC00F50083C7550093E707FCA382F5008547B5
:1058FC003E85828089476317F50083C7550093F76F
:10590C00F703E5B70D478547E314E5FE03C75500DC
:10591C001377F70313670704A382E500D1BF814710
:10592C008DC105C103C755009306000C854713773D
:10593C00070C6308D700930600048D476303D70058
:10594C0089473E858280411122C4005D06C626C26D
:10595C001DC8AA84085009C597C0FF1FE780E0172F
:10596C00485009C597C0FF1FE7802017085409C588
:10597C0097C0FF1FE7806016228597C0FF1FE78046
:10598C00C01523AC0402B2402244924441018280EF
:10599C0009ED97E7FF1F83C7077017E5FF1F130576
:1059AC00E57081CB1385018A828017E5FF1F1305F3
:1059BC00E56F828017E5FF1F0345E56D828097E751
:1059CC00FF1F9387276DC847828097E7FF1F938738
:1059DC00676C884B828097E7FF1F9387A76BDC4B24
:1059EC008843828097E7FF1F9387C76AD84B1C4375
:1059FC0085071CC317E5FF1F0345F5699307F00FD7
:105A0C006305F50091656FE0FF868280011122CC61
:105A1C0006CE2E8432C6EF8000719147B245631FCB
:105A2C00F5009387C18B9C438DC303A30700630EC2
:105A3C00030022856244F240056102839387418B07
:105A4C009C4381C703A34700DDB7F2406244054580
:105A5C0005618280011122CC2A840355450006CEB3
:105A6C0026CA4AC84EC6EF80204A35C52A898344C7
:105A7C0005008349C500C13D4A85EF80F0250355DB
:105A8C004400EF80806583C7818CB1CB6399970408
:105A9C0083C5918C2685EFF05FA119E12384018CDD
:105AAC0003554400EF8020689147631FF5000357AE
:105ABC00440097E7FF1F83D7475E6317F700FD5736
:105ACC0017E7FF1F231BF75CF2406244D2444249A4
